S01700004175746F6D6174696320526F626F742E7372656340
S113000086C00000C8C00000EDC0000012C100009E
S113001037C100005CC1000081C10000A8C000001D
S1130020A6C0000068C70000A2C000007FC700008F
S11300309EC000009CC000009AC0000098C0000050
S113004096C0000094C0000092C0000090C0000060
S11300508EC000008CC000008AC0000086C1000071
S113006086C000000C94B40A0C94E30A80C000001B
S11300707EC000007CC000007AC0000078C0000090
S113008076C0000074C0000072C0000070C00000A0
S11300906EC000006CC000006AC0000068C00000B0
S11300A066C0000064C0000062C0000060C00000C0
S11300B05EC000005CC000005AC0000058C00000D0
S11300C056C0000054C0000052C000000C94750BD0
S11300D00C94A40B4CC000000C94120C0C94410C16
S11300E046C00000810845088A0861086C088A082F
S11300F029088A088A088A088A088A081B080D08B9
S11301008A088A0853088A0837087708DE08112401
S11301101FBECFEFD1E2DEBFCDBF00E00CBF12E0C7
S1130120A0E0B2E0E2EDFEE100E00BBF02C0079008
S11301300D92A839B107D9F724E0A8E9B2E001C0CB
S11301401D92A63BB207E1F710E0C7E8D0E000E05B
S113015006C021970109802FFE010E94180FC6389E
S1130160D10780E00807A9F71CD70C94670F48CF84
S113017078948FEF809369008FE080936A008DB349
S11301808F638DBB0895789485B5856085BD81E0C6
S113019080936E0008951F920F920FB60F92112450
S11301A00BB60F928F939F93EF93FF93009B08C01E
S11301B0EDECF2E08081918101969183808307C008
S11301C0EDECF2E080819181019791838083FF912E
S11301D0EF919F918F910F900BBE0F900FBE0F90D8
S11301E01F9018951F920F920FB60F9211240BB601
S11301F00F928F939F93EF93FF93019B08C0E5ECBD
S1130200F2E08081918101969183808307C0E5ECBF
S1130210F2E080819181019791838083FF91EF9136
S11302209F918F910F900BBE0F900FBE0F901F9058
S113023018951F920F920FB60F9211240BB60F92BE
S11302408F939F93EF93FF93029B08C0EDEBF2E033
S11302508081918101969183808307C0EDEBF2E068
S113026080819181019791838083FF91EF919F9188
S11302708F910F900BBE0F900FBE0F901F9018958B
S11302801F920F920FB60F9211240BB60F928F93F9
S11302909F93EF93FF93039B08C0E5EBF2E080810B
S11302A0918101969183808307C0E5EBF2E0808120
S11302B09181019791838083FF91EF919F918F9119
S11302C00F900BBE0F900FBE0F901F9018951F92AA
S11302D00F920FB60F9211240BB60F928F939F9328
S11302E0EF93FF93049B08C0EDEAF2E080819181D3
S11302F001969183808307C0EDEAF2E080819181C9
S1130300019791838083FF91EF919F918F910F903B
S11303100BBE0F900FBE0F901F9018951F920F9257
S11303200FB60F9211240BB60F928F939F93EF93F6
S1130330FF93059B08C0E5EDF2E080819181019671
S11303409183808307C0E5EDF2E08081918101977C
S113035091838083FF91EF919F918F910F900BBEBA
S11303600F900FBE0F901F9018951F920F920FB60B
S11303700F9211240BB60F928F939F93EF93FF93D9
S113038081E0809339028093380280931D03809327
S11303903A0280933B02E5ECF2E080819181938301
S11303A0828311821082EDEBF2E08081918193834C
S11303B0828311821082E5EBF2E080819181938344
S11303C0828311821082EDEAF2E08081918193832D
S11303D0828311821082FF91EF919F918F910F90F0
S11303E00BBE0F900FBE0F901F901895FC016083F9
S11303F01682138212820895CF93DF93EC016883EF
S11304005AD7CE010E94390A60E070E0CE010E9402
S1130410780ADF91CF9108954F925F926F927F9205
S11304208F929F92AF92BF92CF92DF92EF92FF9200
S11304300F931F93CF93DF9300D000D0CDB7DEB7D7
S113044080913A02882309F4F9C080913C02811119
S1130450FEC0F8C08856914090936703809366036A
S11304600FC08C342FEF92072CF090936703809386
S1130470660306C088599E4F909367038093660372
S11304806091660370916703072E000C880B990B2B
S11304900E94EE0D4B015C0120917D0330917E039F
S11304A040917F03509180030E94A20E20916E031D
S11304B030916F0340917003509171030E94EF0CCF
S11304C06B017C0160936E0370936F0380937003E0
S11304D09093710380917503909176039E838D832D
S11304E0BC01990F880B990B0E94EE0D69837A83E6
S11304F08B839C832DEC3CEC4CEC5DE30E94A20EC0
S11305002B013C01C701B6010E94BB0D9B0177235F
S113051024F422273327261B370BB901330F880B0A
S1130520990B0E94EE0DA30192010E949E0E1816D3
S113053024F520E030E0A901C701B6010E949E0E17
S113054018164CF440926E0350926F03609270033D
S11305507092710312C02DEC3CEC4CEC5DEB6981A4
S11305607A818B819C810E94A20E60936E037093AA
S11305706F0380937003909371030F2EF4E6EF2EB4
S1130580F3E0FF2EF02DF701258936894789508D38
S1130590C501B4010E94A20E4B015C01F7018481E4
S11305A09581B801681B790B072E000C880B990BF9
S11305B00E94EE0DF701258D368D478D50A10E94C6
S11305C0A20E9B01AC01C501B4010E94EE0CF7011F
S11305D022853385448555850E94EF0C0E94BB0D0E
S11305E09B01F7017783668315830483AB0177232B
S11305F024F444275527461B570B8D819E8184176D
S1130600950774F4821793072CF0919581959109BD
S11306109E838D83ED81FE81F0936B03E0936A03E7
S113062080916A0390916B039195819591099093C0
S1130630CE038093CD0310923A021AC080913C02FB
S1130640811116C01092CE031092CD0311C00091F7
S1130650C7031091C803E4E6F3E0118300838685A1
S11306609785801B910B853B91050CF0F3CEF9CE59
S113067026960FB6F894DEBF0FBECDBFDF91CF91A3
S11306801F910F91FF90EF90DF90CF90BF90AF90AC
S11306909F908F907F906F905F904F9008952F92CE
S11306A03F924F925F926F927F928F929F92AF92FE
S11306B0BF92CF92DF92EF92FF920F931F93CF934B
S11306C0DF9300D01F92CDB7DEB70F2EFFECEF2ED5
S11306D0F3E0FF2EF02D0F2EF8E02F2EF2E03F2E48
S11306E0F02D0F2EFFEC8F2EF3E09F2EF02DFA82CB
S11306F0E98289EC93E09C838B838101A12CB12C4A
S1130700C12CD12CEB81FC8161917191FC83EB8331
S1130710F80141905190619071908F01072E000C67
S1130720880B990B0E94EE0DA30192010E94A20E68
S11307309B01AC016A2D7B2D8C2D9D2D0E94EF0C0D
S1130740A62EB72EC82ED92E8B819C81881599058B
S1130750C9F68A2D9B2DAC2DBD2DE981FA818083AC
S11307609183A283B383F4E0EF0EF11C8CE0280E96
S1130770311C9FEDE91693E0F90609F0B8CF20E0AB
S113078030E048EB51E4EFECF3E060817181828169
S113079093810E94A20E20E030E049E753E40E94D6
S11307A0530D0E94BB0D7093E6036093E50320E0B4
S11307B030E048EB51E46091D3037091D40380910D
S11307C0D5039091D6030E94A20E20E030E049E7C1
S11307D053E40E94530D0E94BB0D7093E403609395
S11307E0E30320E030E048EB51E46091D7037091DB
S11307F0D8038091D9039091DA030E94A20E20E0DD
S113080030E049E753E40E94530D0E94BB0D7093FE
S1130810E2036093E10320E030E048EB51E46091AF
S1130820DB037091DC038091DD039091DE030E9471
S1130830A20E20E030E049E753E40E94530D0E94E9
S1130840BB0D7093E0036093DF030F900F900F9044
S11308500F90DF91CF911F910F91FF90EF90DF9058
S1130860CF90BF90AF909F908F907F906F905F904C
S11308704F903F902F900895CF92DF92EF92FF9286
S11308800F931F93CF93DF93C4E6D3E082E190E00C
S11308909F878E87A6EAB3E083E290E01F969C933D
S11308A08E931E97E5E8F3E09787868740E050E053
S11308B060E470E44D8B5E8B6F8B788F4DEC5CEC59
S11308C06CEC7DE3498F5A8F6B8F7C8F40E050E056
S11308D061E373E44D8F5E8F6F8F78A3C12CD12CAD
S11308E076016894E7F8F6F85596CD92DD92ED928C
S11308F0FC92589706EA1BE924E43BE359960D93CE
S11309001D932D933C935C9740E050E064EF73E4B7
S11309105D964D935D936D937C939097C58AD68A2B
S1130920E78AF08E018F128F238F348F458F568F75
S1130930678F70A3E3E4F3E00AE919E929E93EE3E8
S1130940058B168B278B308F47E157EB61E579E3F5
S1130950418F528F638F748F80E090E0A0EAB0E4FF
S1130960858F968FA78FB0A3E2E2F3E0058B168BF9
S1130970278B308F418F528F638F748F858F968F23
S1130980A78FB0A3DF91CF911F910F91FF90EF90AC
S1130990DF90CF9008958F929F92AF92BF92CF92A3
S11309A0DF92EF92FF920F931F93CF93DF93009107
S11309B0C7021091C802CFE0D3E019830883609185
S11309C0E5037091E603601B710B7D836C83072E36
S11309D0000C880B990B0E94EE0D4B015C012091D9
S11309E01E0330911F0340912003509121030E9464
S11309F0A20E2E813F8148855985F1D76B017C0178
S1130A006E837F8388879987209104023091050241
S1130A104091060250910702C501B4010E94A20E42
S1130A20A7019601DCD76B017C018A859B85B801FF
S1130A30681B790B072E000C880B990B0E94EE0D96
S1130A402091000230910102409102025091030270
S1130A500E94A20E9B01AC01C701B601BFD70E9440
S1130A60BB0D7B836A831B870A872C853D85620FB8
S1130A70731FCB01772324F488279927861B970BB0
S1130A808A3F91052CF470931C0360931B0310C0E0
S1130A90161617063CF489EF90E090931C0380939C
S1130AA01B0306C087E09FEF90931C0380931B03F6
S1130AB060911B0370911C038CEA92E019D5DF91BD
S1130AC0CF911F910F91FF90EF90DF90CF90BF9047
S1130AD0AF909F908F9008958F929F92AF92BF9204
S1130AE0CF92DF92EF92FF920F931F93CF93DF93F6
S1130AF00091BF021091C002C1E0D3E019830883C2
S1130B006091E3037091E403601B710B7D836C833C
S1130B10072E000C880B990B0E94EE0D4B015C0113
S1130B2020911E0330911F03409120035091210313
S1130B300E94A20E2E813F814885598550D76B01B2
S1130B407C016E837F83888799872091040230918A
S1130B5005024091060250910702C501B4010E94AA
S1130B60A20EA70196013BD76B017C018A859B8568
S1130B70B801681B790B072E000C880B990B0E9497
S1130B80EE0D209100023091010240910202509139
S1130B9003020E94A20E9B01AC01C701B6011ED73D
S1130BA0EAD77B836A831B870A872C853D85620F7E
S1130BB0731FCB01772324F488279927861B970B6F
S1130BC08A3F91052CF470930E0360930D0310C0BB
S1130BD0161617063CF489EF90E090930E03809369
S1130BE00D0306C087E09FEF90930E0380930D03DF
S1130BF060910D0370910E038BEA92E079D4DF913A
S1130C00CF911F910F91FF90EF90DF90CF90BF9005
S1130C10AF909F908F9008958F929F92AF92BF92C2
S1130C20CF92DF92EF92FF920F931F93CF93DF93B4
S1130C300091B7021091B802C3EFD2E01983088380
S1130C406091E1037091E203601B710B7D836C83FF
S1130C50072E000C880B990BC1D74B015C01209126
S1130C601E0330911F0340912003509121030E94E1
S1130C70A20E2E813F8148855985B1D66B017C0136
S1130C806E837F83888799872091040230910502BF
S1130C904091060250910702C501B4010E94A20EC0
S1130CA0A70196019CD66B017C018A859B85B801BE
S1130CB0681B790B072E000C880B990B8FD720919A
S1130CC000023091010240910202509103020E94FD
S1130CD0A20E9B01AC01C701B60180D64CD77B8321
S1130CE06A831B870A872C853D85620F731FCB019E
S1130CF0772324F488279927861B970B8A3F91052D
S1130D002CF4709300036093FF0210C016161706AC
S1130D103CF489EF90E0909300038093FF0206C0B7
S1130D2087E09FEF909300038093FF026091FF029E
S1130D30709100038AEA92E0DBD3DF91CF911F9197
S1130D400F91FF90EF90DF90CF90BF90AF909F9066
S1130D508F9008958F929F92AF92BF92CF92DF921D
S1130D60EF92FF920F931F93CF93DF930091AF0203
S1130D701091B002C5EED2E0198308836091DF03BD
S1130D807091E003601B710B7D836C83072E000C54
S1130D90880B990B23D74B015C0120911E033091E2
S1130DA01F034091200350912103CCD72E813F8112
S1130DB04885598514D66B017C016E837F838887AF
S1130DC099872091040230910502409106025091C6
S1130DD00702C501B401B6D7A701960100D66B017D
S1130DE07C018A859B85B801681B790B072E000C52
S1130DF0880B990BF3D620910002309101024091A7
S1130E000202509103029ED79B01AC01C701B601B7
S1130E10E5D5B1D67B836A831B870A872C853D85FC
S1130E20620F731FCB01772324F488279927861B2D
S1130E30970B8A3F91052CF47093F2026093F102B0
S1130E4010C0161617063CF489EF90E09093F20256
S1130E508093F10206C087E09FEF9093F2028093A3
S1130E60F1026091F1027091F20289EA92E040D3BA
S1130E70DF91CF911F910F91FF90EF90DF90CF9072
S1130E80BF90AF909F908F900895CF93DF93809100
S1130E903D02882359F080911D03882349F17BDDAD
S1130EA01BDEBADE57DF10921D0322C0CFECD3E065
S1130EB0688179818A819B815ED68CEA92E018D31D
S1130EC06C817D818E819F8156D68BEA92E010D30E
S1130ED0688579858A859B854ED68AEA92E008D30F
S1130EE06C857D858E859F8546D689EA92E000D300
S1130EF0DF91CF9108951F920F920FB60F92112494
S1130F008F938091E402811104C081E08093E40214
S1130F1007C08091E002811103C081E08093E00268
S1130F208F910F900FBE0F901F9018951F920F92E4
S1130F300FB60F9211248F938091E302811104C0A4
S1130F4081E08093E30227C08091E202811104C012
S1130F5081E08093E2021FC08091E102811104C00C
S1130F6081E08093E10217C08091DF02811104C007
S1130F7081E08093DF020FC08091DE02811104C002
S1130F8081E08093DE0207C08091DD02811103C0FD
S1130F9081E08093DD028F910F900FBE0F901F9020
S1130FA018957894E4E6F3E086E990E0928B818BDF
S1130FB0148A138A87E690E034D387E690E0F2D36C
S1130FC087E690E08CD458DC09EC13E0C4E6D3E067
S1130FD01DD4892B39F0FFD3880F991F9093C80330
S1130FE08093C70319DAF8011182108213821282E6
S1130FF056DB4BDF8DD480939A02882309F4CFC04B
S113100090E0FC01E356F109E431F10508F082C0F7
S11310108827EE58FF4F8F4F0BC72DEC3CEC4CEC60
S11310205DE36D897E898F89988DD9D46D8B7E8B94
S11310308F8B988F6FC02DEC3CEC4CEC5DE36D898D
S11310407E898F89988DCAD46D8B7E8B8F8B988F78
S113105061C02AE037ED43E25CE3698D7A8D8B8DC4
S11310609C8DBDD4698F7A8F8B8F9C8F53C02AE05F
S113107037ED43E25CE3698D7A8D8B8D9C8DAED424
S1131080698F7A8F8B8F9C8F45C020E030E040E0E1
S11310905FE36D8D7E8D8F8D98A1A1D46D8F7E8F32
S11310A08F8F98A337C020E030E040E05FE36D8D80
S11310B07E8D8F8D98A192D46D8F7E8F8F8F98A304
S11310C029C080919802909199022E853F85820FC4
S11310D0931F9F878E871EC020919802309199029A
S11310E08E859F85821B930B9F878E8713C080916B
S11310F09802909199020196909399028093980294
S113110009C0809198029091990201979093990255
S11311108093980280E692E053D420E030E040E2ED
S113112051E46D897E898F89988D0CD624D5CB01A5
S11311301FD486E692E044D420E030E040E251E45B
S11311406D8D7E8D8F8D98A1FDD515D5CB0110D4D5
S11311508EE692E035D420E030E048EC52E4698D2C
S11311607A8D8B8D9C8DEED506D5CB0101D486E787
S113117092E026D48E859F85FBD38EE792E020D41F
S11311808091C7039091C803F3D389E892E018D4FF
S1131190F80184819581ECD382E992E011D48E85A3
S11311A09F856DD285E992E092D28091C703909198
S11311B0C80365D282E992E08AD20ACFE6EAF3E074
S11311C01086118681E0808BE5E8F3E010861186B5
S11311D0808BE4E6F3E010861186808BE3E4F3E091
S11311E010861186808BE2E2F3E010861186808BF4
S11311F01092D6021092D50285ED92E00E94B800BA
S113120085ED92E00E94C3001092CE021092CD02AE
S11312108DEC92E00E94B8008DEC92E00E94C30035
S11312201092C6021092C50285EC92E00E94B800AA
S113123085EC92E00E94C3001092BE021092BD029F
S11312408DEB92E00E94B8008DEB92E00E94C30007
S11312501092B6021092B50285EB92E00E94B8009B
S113126085EB92E00E94C3001092AE021092AD0290
S11312708DEA92E00E94B8008DEA92E00E94C300D9
S113128061E08CEA92E0B8D862E08BEA92E0B4D8EC
S113129063E08AEA92E0B0D864E089EA92E0ACD8EC
S11312A061E070E082EA92E0A1D860E070E08BE94E
S11312B092E09CC80895FC0180818130F1F4E7E05C
S11312C0F1E0808180648083808180688083EAE0AB
S11312D0F1E0808180628083E0E2F1E080818A60D5
S11312E08083E1E2F1E080818A61808389EF90E08C
S11312F0909327018093260108958230F1F4E7E06A
S1131300F1E0808184608083808188608083EAE06A
S1131310F1E0808188608083E0E2F1E0808182688E
S11313208083E1E2F1E080818A61808389EF90E04B
S1131330909327018093260108958330F1F4E7E028
S1131340F1E0808180618083808180628083EAE033
S1131350F1E0808180618083E0E2F1E0808182625B
S11313608083E1E2F1E080818A61808389EF90E00B
S1131370909327018093260108958430D9F4879AA5
S1131380E7E0F1E0808182608083E1E0F1E0808148
S113139088608083E0EAF0E0808182688083E1EA0B
S11313A0F0E080818A61808389EF90E09093A700C8
S11313B08093A6000895FC018081823091F018F496
S11313C0813031F008958330A9F08430E1F008953C
S11313D0E8E0F1E080818064808380818F7780837E
S11313E00895E8E0F1E08081846080838081877FD4
S11313F080830895E8E0F1E08081806180838081CA
S11314008F7D808308958F9AE8E0F1E080818D7F5D
S113141080830895FC018081823091F018F481303A
S113142031F008958330A9F08430E1F00895E8E0C4
S1131430F1E080818F7B8083808180688083089540
S1131440E8E0F1E080818B7F808380818860808305
S11314500895E8E0F1E080818F7E8083808180625E
S1131460808308958F98E8E0F1E080818260808332
S11314700895FC0180818230B1F018F4813031F09C
S113148008958330E9F0843041F10895E8E0F1E013
S113149080818F7B808380818F77808310922D0160
S11314A010922C010895E8E0F1E080818B7F808325
S11314B08081877F808310922901109228010895EA
S11314C0E8E0F1E080818F7E808380818F7D80835E
S11314D010922B0110922A0108958F98E8E0F1E010
S11314E080818D7F80831092A9001092A8000895B6
S11314F00F931F93CF93DF938C01EB011C161D06F2
S11315000CF459DFC93FD10544F4DD2344F4D195EB
S1131510C195D109C8017EDF02C0C9EFD0E0F8014E
S11315208081823071F018F4813031F018C083303A
S113153069F0843081F013C0D0932D01C0932C0145
S11315400EC0D0932901C093280109C0D0932B0168
S1131550C0932A0104C0D093A900C093A800DF91CE
S1131560CF911F910F9108951F920F920FB60F9272
S113157011240BB60F922F938F939F93EF93FF93A6
S11315808091C0002091C6008871E0917304EF5FE0
S1131590EF7190917204E91739F0E0937304F0E06D
S11315A0EA58FB4F208301C082E080937104FF91CD
S11315B0EF919F918F912F910F900BBE0F900FBEC3
S11315C00F901F9018951F920F920FB60F9211242F
S11315D00BB60F928F939F93EF93FF9390917504A3
S11315E080917404981769F0E0917404EF5FEF71CF
S11315F0E0937404F0E0EA56FB4F80818093C600C8
S113160005C0E1ECF0E080818F7D8083FF91EF9154
S11316109F918F910F900BBE0F900FBE0F901F9054
S11316201895109275041092740410927304109219
S11316307204992324F422E02093C0009F779093AE
S1131640C5008093C40088E98093C10086E080933C
S1131650C2000895209175042F5F2F719091740436
S11316602917E1F3E22FF0E0EA56FB4F8083209341
S11316707504E1ECF0E080818062808308950F932B
S11316801F93CF93DF93CDB7DEB72F970FB6F894A0
S1131690DEBF0FBECDBF4AE0BE016F5F7F4FE4D314
S11316A08981882349F08E010E5F1F4FD3DFF80133
S11316B081918F018111FACF2F960FB6F894DEBF76
S11316C00FBECDBFDF91CF911F910F910895CF939E
S11316D0DF93EC018881882329F02196BBDF89916F
S11316E08111FCCFDF91CF9108951F920F920FB615
S11316F00F9211240BB60F922F938F939F93EF9316
S1131700FF938091D0002091D6008871E0912E043F
S1131710EF5FEF7190912D04E91739F0E0932E04F7
S1131720F0E0EF5CFB4F208301C082E080932C0447
S1131730FF91EF919F918F912F910F900BBE0F907E
S11317400FBE0F901F9018951F920F920FB60F9215
S113175011240BB60F928F939F93EF93FF93909165
S1131760300480912F04981769F0E0912F04EF5F03
S1131770EF71E0932F04F0E0EF5AFB4F80818093E8
S1131780D60005C0E1EDF0E080818F7D8083FF917C
S1131790EF919F918F910F900BBE0F900FBE0F9002
S11317A01F9018951092300410922F0410922E045A
S11317B010922D04992324F422E02093D0009F77E3
S11317C09093D5008093D40088E98093D10086E07B
S11317D08093D200089590912E0480912D0498173F
S11317E091F0E0912D04EF5FEF71E0932D04F0E0B0
S11317F0EF5CFB4F208180912C0490E0982F882788
S1131800820F911D089580E091E0089580912E0447
S113181020912D0490E04F96821B91096FE170E0B6
S1131820F4C208951F920F920FB60F9211240BB6B3
S11318300F922F938F939F93EF93FF938091300197
S1131840209136018871E091E903EF5FEF71909187
S1131850E803E91739F0E093E903F0E0E451FC4FC1
S1131860208301C082E08093E703FF91EF919F9171
S11318708F912F910F900BBE0F900FBE0F901F9062
S113188018951F920F920FB60F9211240BB60F9258
S11318908F939F93EF93FF939091EB038091EA03CF
S11318A0981769F0E091EA03EF5FEF71E093EA03C0
S11318B0F0E0E45FFB4F80818093360105C0E1E3F3
S11318C0F1E080818F7D8083FF91EF919F918F91D3
S11318D00F900BBE0F900FBE0F901F901895109293
S11318E0EB031092EA031092E9031092E8039923A0
S11318F024F426E0209330019F7790933501809360
S1131900340188E98093310186E08093320108959F
S11319109091E9038091E803981791F0E091E8032E
S1131920EF5FEF71E093E803F0E0E451FC4F2081B6
S11319308091E70390E0982F8827820F911D0895E6
S113194080E091E008952091EB032F5F2F71909137
S1131950EA032917E1F3E22FF0E0E45FFB4F808311
S11319602093EB03E1E3F1E08081806280830895BA
S11319700F931F93CF93DF93CDB7DEB72F970FB697
S1131980F894DEBF0FBECDBF4AE0BE016F5F7F4F4C
S11319906BD28981882349F08E010E5F1F4FD3DFFC
S11319A0F80181918F018111FACF2F960FB6F89427
S11319B0DEBF0FBECDBFDF91CF911F910F91089570
S11319C0CF93DF93EC018881882329F02196BBDF34
S11319D089918111FCCFDF91CF9108955058BB2795
S11319E0AA270ED071C162D130F067D120F031F452
S11319F09F3F11F41EF457C10EF4E095E7FB4DC16F
S1131A00E92F73D180F3BA17620773078407950728
S1131A1018F071F49EF58BC10EF4E0950B2EBA2FDD
S1131A20A02D0B01B90190010C01CA01A0011124E0
S1131A30FF27591B99F0593F50F4503E68F11A168C
S1131A40F040A22F232F342F4427585FF3CF46951D
S1131A5037952795A795F0405395C9F77EF41F163F
S1131A60BA0B620B730B840BBAF09150A1F0FF0F09
S1131A70BB1F661F771F881FC2F70EC0BA0F621FF5
S1131A80731F841F48F4879577956795B795F795E5
S1131A909E3F08F0B3CF9395880F08F09927EE0F77
S1131AA09795879508950CD00FC107D140F0FED0CB
S1131AB030F021F45F3F19F0F0C0511139C1F3C087
S1131AC014D198F39923C9F35523B1F3951B550BFE
S1131AD0BB27AA2762177307840738F09F5F5F4FFD
S1131AE0220F331F441FAA1FA9F333D00E2E3AF03E
S1131AF0E0E830D091505040E695001CCAF729D058
S1131B00FE2F27D0660F771F881FBB1F26173707A6
S1131B104807AB07B0E809F0BB0B802DBF01FF27D6
S1131B2093585F4F2AF09E3F510568F0B6C000C13C
S1131B305F3FECF3983EDCF3869577956795B79510
S1131B40F7959F5FC9F7880F911D9695879597F92B
S1131B500895E1E0660F771F881FBB1F62177307A4
S1131B608407BA0720F0621B730B840BBA0BEE1FB9
S1131B7088F7E095089504D06894B111D9C0089508
S1131B80BCD088F09F5790F0B92F9927B751A0F097
S1131B90D1F0660F771F881F991F1AF0BA95C9F7FD
S1131BA012C0B13081F0C3D0B1E00895C0C0672F36
S1131BB0782F8827B85F39F0B93FCCF386957795AD
S1131BC06795B395D9F73EF4909580957095619596
S1131BD07F4F8F4F9F4F0895E89409C097FB3EF4C1
S1131BE090958095709561957F4F8F4F9F4F992366
S1131BF0A9F0F92F96E9BB279395F69587957795E4
S1131C006795B795F111F8CFFAF4BB0F11F460FFA3
S1131C101BC06F5F7F4F8F4F9F4F16C0882311F0FB
S1131C2096E911C0772321F09EE8872F762F05C00F
S1131C30662371F096E8862F70E060E02AF09A95AA
S1131C40660F771F881FDAF7880F9695879597F99F
S1131C500895990F0008550FAA0BE0E8FEEF161639
S1131C601706E807F907C0F012161306E407F5078C
S1131C7098F0621B730B840B950B39F40A2661F000
S1131C80232B242B252B21F408950A2609F4A140A3
S1131C90A6958FEF811D811D089597F99F6780E8B0
S1131CA070E060E008959FEF80EC089500240A94AA
S1131CB01616170618060906089500240A94121623
S1131CC01306140605060895092E0394000C11F456
S1131CD0882352F0BB0F40F4BF2B11F460FF04C003
S1131CE06F5F7F4F8F4F9F4F089557FD9058440F5C
S1131CF0551F59F05F3F71F04795880F97FB991F67
S1131D0061F09F3F79F08795089512161306140623
S1131D10551FF2CF4695F1DF08C0161617061806B0
S1131D20991FF1CF86957105610508940895E8948B
S1131D30BB2766277727CB0197F908958ADF08F434
S1131D408FEF08950BD0C0CFB1DF28F0B6DF18F0C5
S1131D50952309F0A2CFA7CF1124EACFC6DFA0F3C1
S1131D60959FD1F3950F50E0551F629FF001729F2C
S1131D70BB27F00DB11D639FAA27F00DB11DAA1F4B
S1131D80649F6627B00DA11D661F829F2227B00D98
S1131D90A11D621F739FB00DA11D621F839FA00D23
S1131DA0611D221F749F3327A00D611D231F849F73
S1131DB0600D211D822F762F6A2F11249F575040CA
S1131DC08AF0E1F088234AF0EE0FFF1FBB1F661F65
S1131DD0771F881F91505040A9F79E3F510570F01E
S1131DE05CCFA6CF5F3FECF3983EDCF38695779506
S1131DF06795B795F795E7959F5FC1F7FE2B880F19
S1131E00911D9695879597F9089597FB072E16F4DB
S1131E10009406D077FD08D013D007FC05D03EF41B
S1131E20909581959F4F0895709561957F4F089582
S1131E30EE0FFF1F881F8BBF0790F691E02D1994BA
S1131E40AA1BBB1B51E107C0AA1FBB1FA617B707DC
S1131E5010F0A61BB70B881F991F5A95A9F78095F8
S1131E609095BC01CD010895BB274A3031F49923E4
S1131E7022F4BDE2909581959F4F01C0BB27FB01E1
S1131E805527AA27880F991FAA1FA41710F0A41B6F
S1131E9083955051B9F7A05DAA3308F0A95DA193C9
S1131EA0009779F7B111B1931192CB0100C0DC0115
S1131EB0FC01672F71917723E1F7329704C07C917D
S1131EC06D9370836291AE17BF07C8F30895F894B9
S1051ED0FFCF3E
S1131ED2333303410AD7633F000080BF0000803FD1
S1131EE20000803F000080BF000080BF0000803FF0
S1131EF20000803F000080BF0000803F0000803F60
S1131F020000803F0000803F010101010101340A09
S1131F1200350A00360A00370A00380A00390A0076
S1131F2231300A0031310A0031320A0031330A00F9
S1131F324B50203A200009204B44203A200009202B
S1131F424B49203A200009205350203A200009200E
S1131F52416E676C65203A200009204F7574203A5F
S10B1F6220000D0A0009000033
S9030000FC
