:1000000098C00000C7C00000C5C00000F5C00000D7
:10001000C1C00000BFC0000016C10000BBC000008E
:10002000B9C000000C948C12B5C000000C94C7122B
:10003000B1C00000AFC00000ADC00000BEC10000F4
:10004000A9C00000A7C00000A5C00000A3C0000018
:10005000A1C000009FC000009DC000001BC10000A7
:1000600099C000000C9424190C94531993C00000FB
:1000700091C000008FC000008DC000008BC0000048
:1000800089C0000087C0000085C0000083C0000058
:100090000C94BD190C94EC197DC000007BC00000CD
:1000A00079C0000077C0000075C0000073C0000078
:1000B00071C000006FC000006DC000006BC0000088
:1000C00069C0000067C0000065C000000C941A1AE7
:1000D0000C94491A5FC000000C94A51A0C94D41A11
:1000E00059C00000084AD73B3BCE016E84BCBFFD1F
:1000F000C12F3D6C74319ABD56833DDA3D00C77FF8
:1001000011BED9E4BB4C3E916BAAAABE0000008090
:100110003F05A84CCDB2D44EB93836A9020C50B91F
:10012000918688083CA6AAAA2ABE000000803F004B
:10013000561411241FBECFEFD1E2DEBFCDBF00E0C9
:100140000CBF12E0A0E0B2E0E4EAFDE300E00BBF88
:1001500002C007900D92AA39B107D9F725E0AAE9A4
:10016000B2E001C01D92AF36B207E1F710E0C9E975
:10017000D0E000E006C021970109802FFE010E9417
:10018000C81EC839D10780E00807A9F70E940A14E1
:100190000C94D01E35CF789480E3809369008CE076
:1001A00080936A008DB384628DBB0895789485B581
:1001B000856085BD81E080936E000895CF93DF93C5
:1001C000EC0168817981072E000C880B990B0E9445
:1001D000B41C2EEF34E346E353E40E94CD1D20E02F
:1001E00030E048E453E40E94191C6C837D838E83C5
:1001F0009F83DF91CF9108951F920F920FB60F92B8
:1002000011240BB60F928F939F93EF93FF93009B54
:1002100008C0E3EAF2E080819181019691838083B6
:1002200007C0E3EAF2E080819181019791838083A6
:10023000FF91EF919F918F910F900BBE0F900FBE8A
:100240000F901F9018951F920F920FB60F921124C6
:100250000BB60F928F939F93EF93FF93059B08C06C
:10026000EBE9F2E08081918101969183808307C060
:10027000EBE9F2E080819181019791838083FF9186
:10028000EF919F918F910F900BBE0F900FBE0F902B
:100290001F9018951F920F920FB60F9211248F93F3
:1002A00081E0809302028093030280930102809395
:1002B00000028F910F900FBE0F901F9018950E9413
:1002C00089188CE30E948F1880E00E94FC1880E758
:1002D0000E94FC180E94B8188CE30E948F1881E0DD
:1002E0000E94FC1880EA0E94FC180E94B8188CE357
:1002F0000E948F1882E00E94FC1880E00E94FC1887
:100300000C94B81808958CE30E948F1883E00E9423
:10031000FC180E94B8188DE30E94B6180E940E19AE
:1003200010925804809359040E940E192091580489
:1003300030915904282B30935904209358040E947B
:100340000E1910925404809355040E940E192091A6
:10035000540430915504282B3093550420935404B1
:100360000E940E1910925604809357040E94191986
:100370002091560430915704282B30935704209332
:1003800056040C94B81808952FB7F894609150044F
:100390007091510480915204909153042FBF08959D
:1003A000E1EBF0E0808184608083E0E7F0E0808131
:1003B000816080831092B20008951F920F920FB651
:1003C0000F9211248F939F93AF93BF93809150040A
:1003D00090915104A0915204B09153040196A11D33
:1003E000B11D8093500490935104A0935204B09394
:1003F000530480914C0490914D04A0914E04B0910F
:100400004F040396A11DB11D80934C0490934D049D
:10041000A0934E04B0934F0480914C0490914D04EE
:10042000A0914E04B0914F048D379105A105B105FF
:1004300038F180914C0490914D04A0914E04B091FC
:100440004F048D579109A109B10980934C049093F1
:100450004D04A0934E04B0934F04809150049091AA
:100460005104A0915204B09153040196A11DB11DF5
:100470008093500490935104A0935204B09353047A
:10048000BF91AF919F918F910F900FBE0F901F90D2
:10049000189515DF83ED93E00E94DA1462E383ED93
:1004A00093E00E948D167CDF6FDF6093B70370933B
:1004B000B8038093B9039093BA0308954F925F9263
:1004C0006F927F928F929F92AF92BF92CF92DF9264
:1004D000EF92FF920F931F93CF93DF93CDB7DEB7C9
:1004E00064970FB6F894DEBF0FBECDBF69837A83E1
:1004F0008B839C8329013A01E98AFA8A0B8B1C8B36
:100500000E94161C6D877E878F87988B69817A8100
:100510008B819C810E94301E69837A838B839C83AC
:10052000C301B2010E94161C6D837E838F8398875E
:10053000C301B2010E94301E69877A878B879C872E
:10054000A60195016D817E818F8198850E94CD1DC8
:100550002B013C0128A539A54AA55BA569857A85AB
:100560008B859C850E94CD1D9B01AC01C301B2010E
:100570000E944B1B2B013C01A601950169817A81E8
:100580008B819C810E94CD1D29853A854B855C8598
:100590000E94CD1D4B015C01A80197016D857E85F0
:1005A0008F8598890E94CD1D9B01AC01C501B401C6
:1005B0000E944B1B4B015C0128A539A54AA55BA5F0
:1005C00069817A818B819C810E94CD1D2D813E8124
:1005D0004F8158850E94CD1D9B01AC01C501B4011E
:1005E0000E944C1B9058A30192010E94BF1B21EE58
:1005F0003EE245E652E40E94CD1D0E94811C9B0113
:10060000772314F428593E4FC90164960FB6F89425
:10061000DEBF0FBECDBFDF91CF911F910F91FF9035
:10062000EF90DF90CF90BF90AF909F908F907F9092
:100630006F905F904F9008954F925F926F927F926C
:10064000AF92BF92CF92DF92EF92FF920F931F93E0
:10065000CF93DF93CDB7DEB764970FB6F894DEBFC4
:100660000FBECDBF63ED73E0CE0101960E947B15F6
:100670008CE0FE013196ABEAB3E001900D928A95D1
:10068000E1F783ED93E00E9418180BEA13E0F801FC
:1006900040845184628473846081718182819381FA
:1006A000A30192010E94BF1B21EE3EE245E652E407
:1006B0000E94CD1D6093CF037093D0038093D1032C
:1006C0009093D203F8016481758186819781A3019B
:1006D00092010E94BF1B21EE3EE245E652E40E94D9
:1006E000CD1D6093CB037093CC038093CD03909387
:1006F000CE0309DE49DE0091B7031091B8032091C3
:10070000B9033091BA03601771078207930709F4A0
:1007100049C13ADE6093B7037093B8038093B9037D
:100720009093BA0380913802882391F18091CF038E
:100730009091D003A091D103B091D2038093C303D1
:100740009093C403A093C503B093C6038091CB03D9
:100750009091CC03A091CD03B091CE038093BF03C1
:100760009093C003A093C103B093C2038091C703C9
:100770009091C803A091C903B091CA038093BB03B1
:100780009093BC03A093BD03B093BE0310923802B4
:1007900083ED93E00E9471182FE632E143E85AE3BB
:1007A0000E94CD1D2091C3033091C4034091C50325
:1007B0005091C6030E944C1B2BE734E14EE65FE3E9
:1007C0000E94CD1D2B013C0129E23CE54FE85DE391
:1007D0006091CF037091D0038091D1039091D203A7
:1007E0000E94CD1D9B01AC01C301B2010E944C1BB4
:1007F0006093C3037093C4038093C5039093C603AF
:1008000083ED93E00E9479182FE632E143E85AE342
:100810000E94CD1D2091BF033091C0034091C103C0
:100820005091C2030E944C1B2BE734E14EE65FE37C
:100830000E94CD1D2B013C0129E23CE54FE85DE320
:100840006091CB037091CC038091CD039091CE0346
:100850000E94CD1D9B01AC01C301B2010E944C1B43
:100860002B013C016093BF037093C0038093C103CD
:100870009093C2036091560470915704072E000CA8
:10088000880B990B0E94B41C5B016C0160915804A9
:1008900070915904072E000C880B990B0E94B41C10
:1008A0006D877E878F87988B25E33AEF4EE85CE370
:1008B000C301B2010E94CD1D698B7A8B8B8B9C8BFF
:1008C00025E33AEF4EE85CE36091C3037091C40303
:1008D0008091C5039091C6030E94CD1D2B013C0160
:1008E0006091540470915504072E000C880B990BED
:1008F0000E94B41C9F938F937F936F93ED84FE842B
:100900000F85188929893A894B895C89C301B2010D
:10091000D5DD0F900F900F900F90BC0180E090E01C
:100920000E94B21C6093C7037093C8038093C903ED
:100930009093CA0383ED93E00E9481182FE632E181
:1009400043E85AE30E94CD1D2091BB033091BC03C4
:100950004091BD035091BE030E944C1B2DEC3CEC1A
:100960004CEC5DE30E94CD1D2B013C0126E636E6F2
:1009700046E65FE36091C7037091C8038091C903A5
:100980009091CA030E94CD1D9B01AC01C301B2012D
:100990000E944C1B6093BB037093BC038093BD0308
:1009A0009093BE036091BB037091BC038091BD0323
:1009B0009091BE030E94861CCB0164960FB6F894FA
:1009C000DEBF0FBECDBFDF91CF911F910F91FF9082
:1009D000EF90DF90CF90BF90AF907F906F905F903F
:1009E0004F900895E8E0F1E0908181E089278083CD
:1009F0000895CF93DF938FE70E94901AC3EAD3E064
:100A000088810E94901A89810E94901A8A810E948E
:100A1000901A8B810E94901ADF91CF9108954F9286
:100A20005F926F927F92AF92BF92CF92DF92EF92DE
:100A3000FF920F931F93CF93DF930F2EFAE8EF2EC1
:100A4000F2E0FF2EF02D00E713E0C0E0D0E0CC2470
:100A5000C394D12C86B190E00C2E02C09595879559
:100A60000A94E2F780FF10C0F801D182C082209181
:100A70008A03C6010C2E02C0880F991F0A94E2F760
:100A8000822B80938A0303C0F80111821082F70140
:100A9000819191917F01F801A190B1908F018A9D80
:100AA000B0018B9D700D9A9D700D1124072E000CC6
:100AB000880B990B0E94B41C20918403309185030C
:100AC00040918603509187030E944C1B2B013C01EF
:100AD00060938403709385038093860390938703C8
:100AE000B501BB0C880B990B0E94B41C20918003AC
:100AF0003091810340918203509183030E944C1BEB
:100B000060938003709381038093820390938303A7
:100B10002196C830D10509F09DCF9B01AC01C301DE
:100B2000B2010E94191C0E94811C7093890360937A
:100B3000880310928403109285031092860310920A
:100B40008703109280031092810310928203109207
:100B50008303CB01DF91CF911F910F91FF90EF9015
:100B6000DF90CF90BF90AF907F906F905F904F904D
:100B700008950F931F9308DC0091C1021091C202E7
:100B80002091C3023091C402DC01CB01801B910B88
:100B9000A20BB30B0297A105B10550F14DDD2091D9
:100BA000170330911803A9014F5F5F4F481759078A
:100BB00098F0215031098217930770F08091C50297
:100BC0009091C60201969093C6028093C502843626
:100BD000910541F080E00CC01092C6021092C5024F
:100BE00080E006C01092C6021092C50281E000C0EB
:100BF0001F910F9108952F923F924F925F926F92A3
:100C00007F928F929F92AF92BF92CF92DF92EF929C
:100C1000FF920F931F93CF93DF9300D01F92CDB716
:100C2000DEB780910202882309F419C180913B024A
:100C3000882309F418C100DD8C01E9E0F3E0918319
:100C4000808386859785801B910B853B91053CF0C1
:100C50008856914090930C0380930B030FC08C3403
:100C60002FEF92072CF090930C0380930B0306C098
:100C700088599E4F90930C0380930B0320900B0395
:100C800030900C03B101032C000C880B990B0E94CF
:100C9000B41C4B015C01209122033091230340914D
:100CA0002403509125030E94CD1D20911303309100
:100CB000140340911503509116030E944C1B6B01C5
:100CC0007C01609313037093140380931503909336
:100CD000160360911A0370911B03072E000C880BFA
:100CE000990B0E94B41C69837A838B839C832DECBF
:100CF0003CEC4CE45EE30E94CD1D2B013C01C7019E
:100D0000B6010E94811C9B01772324F422273327FC
:100D1000261B370BB901330F880B990B0E94B41CAB
:100D2000A30192010E94C21D181624F520E030E0B4
:100D3000A901C701B6010E94C21D18164CF44092C9
:100D4000130350921403609215037092160312C09D
:100D50002DEC3CEC4CE45EEB69817A818B819C81CB
:100D60000E94CD1D609313037093140380931503A9
:100D700090931603C101992324F488279927821997
:100D800093090297E4F120911E0330911F034091D3
:100D9000200350912103C501B4010E94CD1D6B01B8
:100DA0007C0180910D0390910E03B801681B790BB3
:100DB000072E000C880B990B0E94B41C209126036F
:100DC0003091270340912803509129030E94CD1DA3
:100DD0009B01AC01C701B6010E944B1B209113037C
:100DE0003091140340911503509116030E944C1B3F
:100DF0000E94811C7093100360930F0308C0E9E008
:100E0000F3E0128613861486158617821682E9E0AF
:100E1000F3E0808191819583848386819781218904
:100E20003289AC01992324F444275527481B590BD8
:100E30002417350754F4281739071CF031952195EC
:100E400031093093100320930F0380910F03909189
:100E5000100390939A038093990310920202809159
:100E60003B02811104C010929A03109299030F90D3
:100E70000F900F900F90DF91CF911F910F91FF90E6
:100E8000EF90DF90CF90BF90AF909F908F907F902A
:100E90006F905F904F903F902F9008952F923F92C8
:100EA0004F925F926F927F928F929F92AF92BF927A
:100EB000CF92DF92EF92FF920F931F93CF93DF9326
:100EC00000D01F92CDB7DEB70F2EFBE9CF2EF3E097
:100ED000DF2EF02D0F2EF8E04F2EF2E05F2EF02DDA
:100EE0000F2EF3EA2F2EF3E03F2EF02D0F2EFBE90D
:100EF0006F2EF3E07F2EF02DDA82C98205E913E030
:100F000072011B821C82D8016D917D918D01F701C8
:100F100081909190A190B1907F01072E000C880BD9
:100F2000990B0E94B41CA50194010E94CD1D4B0198
:100F30005C012B813C81B901330F880B990B0E9416
:100F4000B41C9B01AC01C501B4010E944C1B0E9462
:100F5000811C7C836B8306151705A9F6A981BA81CC
:100F60006D937C93F2E0CF0ED11C2CE0420E511C0D
:100F7000C214D30409F6E3EAF3E0ABE9B3E02D9140
:100F80003C9147E1429FC001439F900D112429EFFE
:100F900030E0B9010E94A11E608360919D037091B1
:100FA0009E03469FC001479F900D1124B9010E94E6
:100FB000A11E618360919F037091A003469FC001B1
:100FC000479F900D1124B9010E94A11E6283609178
:100FD000A1037091A203469FC001479F900D112469
:100FE000B9010E94A11E638304DD0F900F900F9042
:100FF0000F90DF91CF911F910F91FF90EF90DF90B5
:10100000CF90BF90AF909F908F907F906F905F90A8
:101010004F903F902F9008958F929F92AF92BF92E2
:10102000CF92DF92EF92FF920F931F93CF93DF93B4
:1010300080913A03882351F0F2DC892B39F0EFDC00
:10104000EAE2F3E095838483108ADBC08091030297
:10105000882309F4D6C080913A02882309F4D5C0C8
:10106000DEDCEC0190932B0380932A03892B09F497
:10107000C6C080910702882309F4C1C0EAE2F3E008
:10108000668577856C1B7D0B7383628361157105A3
:1010900031F41286138614861586D583C483072EF1
:1010A000000C880B990B0E94B41C4B015C010AE2F6
:1010B00013E0F801218D328D438D548D0E94CD1D9A
:1010C000F80122853385448555850E944C1B6B01B0
:1010D0007C01F80162877387848795870E94811C51
:1010E0009B01772324F422273327261B370B2B3031
:1010F00031055CF120E030E0A901C701B6010E9492
:10110000C21D18166CF480E090E0A0EAB0E4809371
:10111000340390933503A0933603B093370315C07F
:1011200020E030E0A901C701B6010E94121C88230B
:1011300064F480E090E0A0EAB0EC809334039093F4
:101140003503A0933603B09337030AE213E0F801A6
:10115000258936894789508DC501B4010E94CD1D6E
:10116000F80122853385448555850E944C1B6B010F
:101170007C01F80184819581BE01681B790B072EE3
:10118000000C880B990B0E94B41CF801258D368D3C
:10119000478D50A10E94CD1D9B01AC01C701B60136
:1011A0000E944B1B0E94811C9B01F8017783668380
:1011B000D583C483AB01772324F444275527461BEA
:1011C000570B4932510584F0121613063CF488E29D
:1011D00090E0909331038093300306C088ED9FEF39
:1011E00090933103809330038091300390913103C9
:1011F0009195819591099093960380939503109210
:10120000030280913A02811104C010929603109259
:101210009503DF91CF911F910F91FF90EF90DF9099
:10122000CF90BF90AF909F908F9008950F931F9392
:10123000CF93DF93E9E0F3E080E590E0928B818B40
:10124000148A138AAAE2B3E08DE290E01F969C9381
:101250008E931E9746E656E666E070E4458B568B05
:10126000678B708F118E128E138E148E40E050E0BB
:1012700068E471E4458F568F678F70A34DEC5CEC8A
:101280006CE47FE355964D935D936D937C935897F3
:1012900059961D921D921D921C925C9740E050E061
:1012A00060EA71E45D964D935D936D937C939097A6
:1012B000E8EEF2E04AE959E969E17EE3458B568BB5
:1012C000678B708F118E128E138E148E80E090E0DB
:1012D000A0ECBFE3858F968FA78FB0A3E7ECF2E079
:1012E000458B568B678B708F118E128E138E148EDA
:1012F000858F968FA78FB0A3CCD846D86093A703CD
:101300007093A8038093A9039093AA03C9E0D3E044
:101310003BD80091A7031091A8032091A903309115
:10132000AA03DC01CB01801B910BA20BB30B843F02
:101330009140A105B10548F47FD990939003809323
:101340008F03188A9F878E87E3CFDF91CF911F91FC
:101350000F9108952F923F924F925F926F927F92DA
:101360008F929F92AF92BF92CF92DF92EF92FF92B5
:101370000F931F93CF93DF931C018B016A0183EAC4
:1013800092E00E94DE000E94811CAB01772324F4CE
:1013900044275527461B570BEA015093940340936B
:1013A00093033092F7022092F60220910102222349
:1013B00009F437C110928C0310928B035093E90209
:1013C0004093E80210920102483C51050CF4EAC037
:1013D000241A350A0F2EF8EEEF2EF2E0FF2EF02D34
:1013E000F70133822282B101032C000C880B990B88
:1013F0000E94B41C2B013C01F701218D328D438DDD
:10140000548D0E94CD1DF701228533854485558575
:101410000E944C1B4B015C01F70162877387848734
:1014200095878089882319F0D583C483108AC501E4
:10143000B4010E94811C9B01772324F422273327C7
:10144000261B370B2B3031055CF120E030E0A90181
:10145000C501B4010E94C21D18166CF480E090E032
:10146000A0E2B1E48093F2029093F302A093F4021D
:10147000B093F50215C020E030E0A901C501B40128
:101480000E94121C882364F480E090E0A0E2B1EC9A
:101490008093F2029093F302A093F402B093F502CA
:1014A00012141304BCF50F2EF8EEEF2EF2E0FF2E0F
:1014B000F02DF701258936894789508DC301B20186
:1014C0000E94CD1DF70122853385448555850E94F4
:1014D0004C1B4B015C01F70184819581BE01681BA7
:1014E000790B072E000C880B990B0E94B41CF70196
:1014F000258D368D478D50A10E94CD1D9B01AC01DD
:10150000C501B4010E944B1B0E94811CF701778327
:10151000668304C01092EF021092EE02E8EEF2E051
:10152000D583C483868197819C01992324F4222743
:101530003327281B390BC216D30678F41816190660
:101540002CF4D092EF02C092EE0207C0D194C19465
:10155000D108D092EF02C092EE028091EE029091FB
:10156000EF0243968797A8F480918E03882339F081
:1015700084E190E09093EF028093EE020AC08091A4
:101580008D03882331F08CEE9FEF9093EF028093D0
:10159000EE028091EE029091EF0290939603809379
:1015A000950318C0BA01550F880B990B0E94B41C03
:1015B00026E636E646EE5EE30E94CD1D20E030E0F2
:1015C00040E752E40E944C1B0E94811C70939603DA
:1015D000609395030230110551F481E080938E03EE
:1015E00010928D0310928B0310928C031AC003305B
:1015F0001105B9F4E5E9F3E08081918199231CF4A8
:101600009195819591099195819591099183808317
:1016100010928E0381E080938D0310928C031092C0
:101620008B031092980310929703E5DADF91CF9124
:101630001F910F91FF90EF90DF90CF90BF90AF90F0
:101640009F908F907F906F905F904F903F902F90E2
:1016500008952F923F924F925F926F927F928F9256
:101660009F92AF92BF92CF92DF92EF92FF920F9331
:101670001F93CF93DF931C017B016A018BE992E0FA
:101680000E94DE000E94811C9B01772324F4222704
:101690003327261B370BE9013093920320939103E4
:1016A0003092D6022092D50280910002882309F45C
:1016B0003CC110920002283C31050CF4F5C007EC47
:1016C00012E0F80131832083221A330A3382228206
:1016D000B101032C000C880B990B0E94B41C2B0148
:1016E0003C01F801218D328D438D548D0E94CD1D1A
:1016F000F80122853385448555850E944C1B4B019A
:101700005C01F801628773878487958780898823C5
:1017100019F0D583C483108AC501B4010E94811CCD
:101720009B01772324F422273327261B370B2B30EA
:1017300031055CF120E030E0A901C501B4010E944F
:10174000C21D18166CF480E090E0A0E2B1E4809332
:10175000D1029093D202A093D302B093D40215C0C9
:1017600020E030E0A901C501B4010E94121C8823C9
:1017700064F480E090E0A0E2B1EC8093D102909319
:10178000D202A093D302B093D402121413049CF596
:1017900007EC12E0F801258936894789508DC3018D
:1017A000B2010E94CD1DF8012285338544855585FF
:1017B0000E944C1B4B015C01F80184819581BE01A4
:1017C000681B790B072E000C880B990B0E94B41C28
:1017D000F801258D368D478D50A10E94CD1D9B01AE
:1017E000AC01C501B4010E944B1B0E94811CF80191
:1017F0007783668304C01092CE021092CD02E7EC8C
:10180000F2E0D583C483868197819C01992324F4D7
:1018100022273327281B390B2C153D0520F18091F9
:101820008C03882361F0D092CE02C092CD02F3E106
:10183000CF0ED11C87E2C816D10468F51BC0809179
:101840008B03882309F474C0D194C194D108D09239
:10185000CE02C092CD02E3E1CE0ED11CF7E2CF164C
:10186000D104C8F412C043968797A8F480918C03E2
:10187000882339F084E190E09093CE028093CD02EA
:101880000AC080918B03882331F08CEE9FEF9093F8
:10189000CE028093CD028091CD029091CE029093A2
:1018A00098038093970318C0B901330F880B990BE5
:1018B0000E94B41C26E636E646EE5EE30E94CD1D8D
:1018C00020E030E040E752E40E944C1B0E94811C63
:1018D000709398036093970382E0E816F10451F443
:1018E00081E080938C0310928B0310928E031092F0
:1018F0008D031BC0E3E0EE16F104B9F481E08093A0
:101900008B0310928C0310928E0310928D03E5E9E5
:10191000F3E08281938199231CF49195819591093B
:101920009195819591099383828376DB64D909C06F
:101930008091CD029091CE024396879708F0ABCF6D
:10194000A0CFDF91CF911F910F91FF90EF90DF908B
:10195000CF90BF90AF909F908F907F906F905F904F
:101960004F903F902F90089510928E0310928D0308
:1019700021E020938C0310928B0390939803809323
:1019800097034ADB38C90895E5E9F3E01182108234
:1019900013821282E9E0F3E080E090E0A0EEB0E490
:1019A000858B968BA78BB08F118E128E138E148E13
:1019B00080E090E0A0E4B1E4858F968FA78FB0A37C
:1019C0001AC90895CF938091C00281118CC0809173
:1019D000090184FD50C08091B5029091B60205972F
:1019E00009F049C03BC08091B5029091B6020697BC
:1019F000F9F480910602811143C01AC08091B502AA
:101A00009091B602059731F08091B5029091B6029F
:101A1000069731F481E08093BE0287E70E94361B6F
:101A20008091C002882321F08091BF02811160C0A3
:101A30007D9B52C08091B5029091B602069709F045
:101A40004BC080910602811147C02FC01092BF0287
:101A500081E08093BB021092BA024AC08FE60E94D6
:101A6000361B81E08093C0028093BC021092B102C9
:101A70001092B20238C08091090184FFB4CFD8CF50
:101A80008FE60E94361B81E08093C0021092BC0258
:101A90008093BB028093B0028093B1028093B20224
:101AA0001092AE021092AF021EC0C1E0C093AE020F
:101AB000C093AF021092AC021092AD028AE60E946F
:101AC000361BC093BF02C093BE02C093C002C09336
:101AD000BA021092BB020CC08091B5029091B6027E
:101AE000069731F4B3CF8091090184FD87CF9CCF55
:101AF000CF9108958091B5029091B602059739F083
:101B00008091B5029091B602069709F050C080917D
:101B1000040290910502089709F049C07AC38091A8
:101B2000B00281111FC08091090186FF12C085E0BB
:101B300090E09093B6028093B50281E08093B70263
:101B400010925A04109239028093C0028093BE0210
:101B50002EC081E08093BC021092B1021092B202BA
:101B600031DF25C08091AF028823F9F08091AE0269
:101B70008823D9F08091090186FF0BC086E090E0B0
:101B80009093B6028093B502109206021BDFFCDE32
:101B90000EC080910602882329F01092AE021092A6
:101BA000AF0205C00FDFF0DE02C00CDFEDDE80917A
:101BB000B402811114C08091B5029091B602892BB4
:101BC00009F42CC357C07894E8E6F0E08081816086
:101BD0008083EBE6F0E08081806180834BC0809160
:101BE000B302811120C081E090E09093B60280930F
:101BF000B50287E090E09093050280930402EBE643
:101C0000F0E080818F7E80837894E8E6F0E0808148
:101C100084608083EDE6F0E080818068808388E2E4
:101C200090E0A2DE27C08091B5029091B6020197A4
:101C300009F580910402909105020797D9F485E097
:101C400090E09093B6028093B50288E090E0909384
:101C5000050280930402EDE6F0E080818F778083B7
:101C60000E94F2041092A4021092A30210929C020D
:101C700010929B028091C002882309F44CC4809189
:101C8000BE02882309F447C48091BC02882309F46A
:101C90002FC38091B202811113C08091B50290913F
:101CA000B6020597F1F4EFC27894E8E6F0E080819F
:101CB00084608083EDE6F0E080818068808311C0DD
:101CC0008091B10281110DC08091B5029091B60250
:101CD000059739F48091040290910502079709F461
:101CE0000DC38091B5029091B6020297F9F48091EC
:101CF0000402909105020897C9F420C30E94B90517
:101D0000882329F081E30E94361B1092BD020E94B5
:101D10001B1B8093AB02873649F481E08093B902A4
:101D20001092BC0280E28093AB0205C08091B902A0
:101D3000882309F449C08091B202882309F444C081
:101D40008091B102811145C0E9E0F3E086E696E6B4
:101D5000A6E0B0E4858B968BA78BB08F118E128E88
:101D6000138E148E80E090E0A8E4B1E4858F968F06
:101D7000A78FB0A344E650E063E070E08CEB97E0FF
:101D800068DC87E090E090930502809304028BE981
:101D900092E00E94DE000E94811C9B01772324F4C4
:101DA00022273327261B370B203B34400CF474C00A
:101DB0007894E8E6F0E0808184608083EDE6F0E0EE
:101DC00080818068808368C08091B102882309F493
:101DD000DEC28091040290910502079709F0D7C2F4
:101DE0008091B5029091B602029709F0D0C2ADC2BF
:101DF0008091B002811143C0E9E0F3E086E696E607
:101E0000A6E0B0E4858B968BA78BB08F118E128ED7
:101E1000138E148E80E090E0A8E4B1E4858F968F55
:101E2000A78FB0A344E650E062E070E080ED97E059
:101E300091DA87E090E0909305028093040283EAB0
:101E400092E00E94DE000E94811C9B01772324F413
:101E500022273327261B370B2C363740ECF078949B
:101E6000E8E6F0E0808181608083EBE6F0E080814D
:101E70008061808311C08091B002882369F08091D5
:101E8000040290910502079739F48091B502909170
:101E9000B602059709F480C28091BB02882309F439
:101EA00043C08091AF02811143C0E9E0F3E086E6D0
:101EB00096E6A6E0B0E4858B968BA78BB08F118E4B
:101EC000128E138E148E80E090E0A8E4B1E4858F2A
:101ED000968FA78FB0A387E090E090930502809340
:101EE000040244E650E062E070E088E597E0B1DB90
:101EF0008BE992E00E94DE000E94811C9B01772307
:101F000024F422273327261B370B203B34400CF1C7
:101F10007894E8E6F0E0808184608083EDE6F0E08C
:101F200080818068808315C08091AF02882389F00A
:101F30008091AE0281110DC08091B5029091B602E0
:101F4000069739F48091040290910502079709F4ED
:101F500045C28091B5029091B6020397F9F4809141
:101F60000402909105020897C9F457C20E94B9056E
:101F7000882329F082E30E94361B1092BD020E9442
:101F80001B1B8093AB02873649F481E08093B80233
:101F90001092BB0280E28093AB0205C08091B80230
:101FA000882309F448C08091AF02882309F443C014
:101FB0008091AE02811143C0E9E0F3E086E696E647
:101FC000A6E0B0E4858B968BA78BB08F118E128E16
:101FD000138E148E80E090E0A8E4B1E4858F968F94
:101FE000A78FB0A344E650E063E070E088E597E097
:101FF00030DB87E090E090930502809304028BE948
:1020000092E00E94DE000E94811C9B01772324F451
:1020100022273327261B370B203B3440ECF07894E3
:10202000E8E6F0E0808184608083EDE6F0E0808186
:102030008068808311C08091AE02882369F080910E
:10204000040290910502079739F48091B5029091AE
:10205000B602039709F4EBC18091BA02882309F410
:1020600044C08091AD02811144C0E9E0F3E086E60E
:1020700096E6A6E0B0E4858B968BA78BB08F118E89
:10208000128E138E148E80E090E0A8E4B1E4858F68
:10209000968FA78FB0A346E950E062E070E08CEE27
:1020A00093E1D7DA87E090E09093050280930402F1
:1020B0008BE992E00E94DE000E94811C9B01772345
:1020C00024F422273327261B370B203A3F400CF4F9
:1020D0003EC07894E8E6F0E0808184608083EDE69D
:1020E000F0E080818068808332C08091AD028823D7
:1020F00071F18091B5029091B602069709F003C282
:102100008091040290910502079709F0FCC1B2C1C9
:1021100080910402909105020897C9F4CCC10E94F5
:10212000B905882329F083E30E94361B1092BD0273
:102130000E941B1B8093AB02873649F481E0809399
:10214000B8021092BA0280E28093AB0205C080917F
:10215000B802882309F449C08091AD02882309F4AC
:1021600044C08091AC02811145C0E9E0F3E086E60D
:1021700096E6A6E0B0E4858B968BA78BB08F118E88
:10218000128E138E148E80E090E0A8E4B1E4858F67
:10219000968FA78FB0A346E950E063E070E08CEE25
:1021A00093E157DA87E090E0909305028093040270
:1021B0008BE992E00E94DE000E94811C9B01772344
:1021C00024F422273327261B370B203A3F400CF4F8
:1021D000A2C17894E8E6F0E0808184608083EDE637
:1021E000F0E080818068808308958091AC0288232C
:1021F00009F491C18091040290910502079709F0BA
:102200008AC18091B5029091B602049709F083C10A
:1022100058C18091B102811182CCA4CCE9E0F3E0F5
:1022200086E696E6A6E0B0E4858B968BA78BB08F0A
:10223000118E128E138E148E80E090E0A8E4B1E42B
:10224000858F968FA78FB0A346E950E062E070E0DB
:1022500080EC92E17FD887E090E090930502809334
:10226000040283EA92E00E94DE000E94811C9B012E
:10227000772324F422273327261B370B223B3141B7
:102280000CF0A1CCF7CC87E090E09093050280930E
:102290000402E9E0F3E086E696E6A6E0B0E4858B8A
:1022A000968BA78BB08F118E128E138E148E80E0BA
:1022B00090E0A8E4B1E4858F968FA78FB0A344E6A1
:1022C00050E062E070E08CEB97E0C3D98BE992E0DC
:1022D0000E94DE000E94811C9B01772324F42227A8
:1022E0003327261B370B203436400CF0DDCCF9CCDD
:1022F0008091B202882309F4F4CCE2CCEDE6F0E060
:1023000080818F7780838CE392E00E94AF190E94D6
:10231000F20482E090E09093B6028093B5021092AE
:10232000A4021092A30210929C0210929B0288E0D9
:1023300090E09093050280930402D3CC25DB80913A
:10234000BD02882309F4E3CCD9CCEDE6F0E080812E
:102350008F77808385E090E09093B6028093B502FA
:102360000E94F2041092A4021092A30210929C0206
:1023700010929B0288E090E0909305028093040203
:102380001092C0021092BE021092B90285CD8091C7
:10239000B70281112DCD6FCD1092B702EBE6F0E0C0
:1023A00080818F7E80830E94F20486E090E090938B
:1023B000B6028093B50288E090E090930502809386
:1023C00004021092A4021092A30210929C02109296
:1023D0009B021092C0021092BE025ECD86E592E092
:1023E000BED783E090E09093B6028093B502EDE60D
:1023F000F0E080818F7780831092A4021092A30274
:1024000010929C0210929B0288E090E0909305024B
:10241000809304020E94F2049CCD85E692E09FD74F
:10242000B3DA8091BD02882309F4A9CD9FCDACDA3F
:10243000EDE6F0E080818F7780830E94F2041092B5
:10244000A4021092A30210929C0210929B0286E0BA
:1024500090E09093B6028093B50288E090E090936C
:102460000502809304021092C0021092BE021092E4
:10247000B802F2CD81E792E072D7EDE6F0E080811C
:102480008F7780830E94F2041092A4021092A3021C
:1024900010929C0210929B0288E090E090930502BB
:1024A000809304021092BA0284E090E09093B60206
:1024B0008093B5024CCE8091BD02882309F438CEBA
:1024C0002ECEEDE6F0E080818F7780830E94F204CB
:1024D0001092A4021092A30210929C0210929B02EE
:1024E00086E090E09093B6028093B50288E090E099
:1024F00090930502809304021092C0021092BE02D3
:102500001092B80208958091B5029091B602049796
:1025100009F01DCEFDCD08951F920F920FB60F92B8
:1025200011240BB60F922F933F934F935F936F93AA
:102530007F938F939F93AF93BF93EF93FF9380917C
:10254000B402811106C081E08093B40280935A04E2
:102550000BC08091B002811107C081E08093B0026E
:1025600080935A040E94F204FF91EF91BF91AF91C2
:102570009F918F917F916F915F914F913F912F919B
:102580000F900BBE0F900FBE0F901F9018951F92CB
:102590000F920FB60F9211240BB60F922F933F9309
:1025A0004F935F936F937F938F939F93AF93BF935B
:1025B000EF93FF938091B302811106C00E94F20451
:1025C00081E08093B3023BC08091B202811106C0CA
:1025D00081E08093B2020E94F20431C08091B10286
:1025E000811106C081E08093B1020E94F20427C0ED
:1025F0008091AF02811106C081E08093AF020E94FA
:10260000F2041DC08091AE02811106C081E080936A
:10261000AE020E94F20413C08091AD02811106C087
:1026200081E08093AD020E94F20409C08091AC0267
:10263000811105C081E08093AC020E94F204FF91F9
:10264000EF91BF91AF919F918F917F916F915F912A
:102650004F913F912F910F900BBE0F900FBE0F9097
:102660001F9018958091060180FF04C081E080933F
:102670009A02089510929A02089580918B03811115
:1026800005C090918C03992309F4C3C020916E0377
:1026900030916F032115310519F540916C0350916C
:1026A0006D034A30510561F490919A02911128C04E
:1026B000EAE2F3E091E0908711861092070290C061
:1026C0004035510509F096C090919A02911192C03F
:1026D000EAE2F3E091E091871086109207027BC056
:1026E00090913303992361F02035310509F087C0BB
:1026F00081E080930702EAE2F3E0118610860895F4
:1027000090913203992309F466C02A30310509F00B
:1027100067C081E080930702EAE2F3E01086118649
:10272000089590918C03992359F0E5E9F3E0118223
:10273000108288E290E0938382830C94FB050895D5
:10274000882309F466C0E5E9F3E01182108288ED80
:102750009FEF938382830C94FB05089590918C03E3
:10276000992369F0E5E9F3E088ED9FEF9183808399
:102770008AE090E0938382830C94FB05089588237C
:1027800009F447C0E5E9F3E088ED9FEF918380838A
:1027900086EF9FEF938382830C94FB050895E5E910
:1027A000F3E088E290E0918380838AE090E0938375
:1027B00082830C94FB050895882359F1E5E9F3E041
:1027C00088E290E09183808386EF9FEF93838283FA
:1027D0000C94FB05089590913303911106C0089560
:1027E00090919A0291119DCFB9CF90919A0299231D
:1027F00059F097CF90913203992369F3F1CF9091DB
:102800003203992391F381CF90918C039923A1F204
:10281000C6CF0895EAE0F1E080818F7E80838081D9
:102820008F7B8083EBE0F1E0808180618083808119
:102830008064808385988D98E7E0F1E080818160F5
:102840008083E8E0F1E080818E7F808387E690E0FE
:1028500058D589E190E04BD689E190E0D3D68FE757
:1028600092E07DD50E941609789481E08093B302AE
:102870008093B40225E030E03093B6022093B50295
:102880008093BD020E940F0590936F0380936E03A7
:10289000E9DE30D9F2DE0E944E07809188039091E4
:1028A000890390936D0380936C03ECCF83ED93E0E9
:1028B00033D0EBE4F3E01086118681E0808BEAE20E
:1028C000F3E010861186808BE9E0F3E01086118634
:1028D000808BE8EEF2E010861186808BE7ECF2E068
:1028E00010861186808B1092A4021092A30283EAB4
:1028F00092E00E94CB0083EA92E00E94D600109200
:102900009C0210929B028BE992E00E94CB008BE923
:1029100092E00C94D6000895FC0114AE15AE16AEEC
:1029200017AEDC01A05CBF4F1D921D921D921C9240
:10293000139714961D921D921D921C921397D49674
:102940001C92D0971D921D921D921C921397149663
:102950001D921D921D921C92139714961D921D920A
:102960001D921C92139710AA11AA12AA13AA14AAB4
:1029700015AA16AA17AA10AE11AE12AE13AE9496EF
:102980001D921D921D921C92139718974FE35EE1C2
:102990006AEF7BE34D935D936D937C931397E059BE
:1029A000FF4F80E49AEDAFE7B8E380839183A28381
:1029B000B38308952FEF82E597E021508040904047
:1029C000E1F700C0000080EDAAD38BE615D480E0CB
:1029D00013D4CED380EDA3D389E10ED489E10CD4F6
:1029E000C7D380ED9CD38AE107D480E005D4C0D35F
:1029F00080ED95D38BE100D480E0FED3B9D380ED98
:102A00008ED388E3F9D381E0F7D3B2D380ED87D3B7
:102A10008CE1F2D380E0F0D3ABC30895CF93C62FFF
:102A200080EDAFD38C2FE8D381EDA0D3CF91089563
:102A3000AF92BF92CF92DF92EF92FF920F931F93CC
:102A4000CF93DF938C01EB016BE3CE01E7DFE6D39D
:102A5000A82EE4D3B82EE2D3C82EE0D3E82EDED3DE
:102A6000D82EE7D3F82E6B2D70E07A29072E000CB4
:102A7000880B990B79D7FE01E85BFF4F20813181EC
:102A80004281538108D6688379838A839B836E2D24
:102A900070E07C29072E000C880B990B65D7FE018E
:102AA000E45BFF4F2081318142815381F4D56C83F7
:102AB0007D838E839F836F2D70E07D29072E000C10
:102AC000880B990B51D7688779878A879B8750D362
:102AD0008CE0FE01D80101900D928A95E1F7C801C2
:102AE000DF91CF911F910F91FF90EF90DF90CF90EA
:102AF000BF90AF900895AF92BF92CF92DF92EF92C6
:102B0000FF920F931F93CF93DF93CDB7DEB72C9730
:102B10000FB6F894DEBF0FBECDBF5C018B01CE01B6
:102B2000019686DFF801E059FF4FC080D180E28036
:102B3000F380A7019601F801608171818281938100
:102B40000E94CD1DF801608F718F828F938FA70136
:102B5000960164817581868197810E94CD1DF8015F
:102B6000648F758F868F978FA70196016085718519
:102B7000828593850E94CD1DF80160A371A382A375
:102B800093A38CE07896D50101900D928A95E1F798
:102B9000C5012C960FB6F894DEBF0FBECDBFDF91F6
:102BA000CF911F910F91FF90EF90DF90CF90BF904A
:102BB000AF900895FF920F931F93CF93DF938C01F3
:102BC000EB0163E4CE012ADF29D3F82E27D36F2D42
:102BD00070E0762F6627682B072E000C880B990B68
:102BE000C3D66C877D878E879F8718D3F82E16D320
:102BF0006F2D70E0762F6627682B072E000C880B50
:102C0000990BB2D6688B798B8A8B9B8B07D3F82E66
:102C100010D36F2D70E0762F6627682B072E000CDF
:102C2000880B990BA1D66C8B7D8B8E8B9F8BA0D242
:102C30008CE0FE013C96D80101900D928A95E1F757
:102C4000C801DF91CF911F910F91FF900895CF920E
:102C5000DF92EF92FF921F93CF93DF93EC01162F39
:102C6000662309F43BC0FC01E858FF4F80818111C5
:102C700003C062E3CE0151D0612F70E080E090E0AC
:102C800073D66B017C019B01AC01FE01EC5AFF4F36
:102C9000608171818281938180D768AB79AB8AAB87
:102CA0009BABA7019601FE01E85AFF4F608171813D
:102CB0008281938172D76CAB7DAB8EAB9FABA7014A
:102CC0009601FE01E45AFF4F6081718182819381F8
:102CD00064D768AF79AF8AAF9BAF0CC018AA19AAA6
:102CE0001AAA1BAA1CAA1DAA1EAA1FAA18AE19AEB0
:102CF0001AAE1BAECC58DF4F612F70E080E090E041
:102D000031D6688379838A839B83DF91CF911F912A
:102D1000FF90EF90DF90CF9008952F923F924F92C7
:102D20005F926F927F928F929F92AF92BF92CF925B
:102D3000DF92EF92FF920F931F93CF93DF93CDB764
:102D4000DEB7A4970FB6F894DEBF0FBECDBF1C014F
:102D5000062FFC01E858FF4F81E08083662309F4C9
:102D600087C010E0198E1A8E1B8E1C8E1D8A1E8A3B
:102D70001F8A188E1D861E861F86188A19A21AA2FF
:102D80001BA21CA21D8E1E8E1F8E18A2198A1A8AC3
:102D90001B8A1C8AB101CE0101960CDFF10144842B
:102DA000558466847784A301920169897A898B8925
:102DB0009C8972D4698B7A8B8B8B9C8BF101808878
:102DC0009188A288B388A50194016D8D7E8D8F8D29
:102DD00098A162D46D8F7E8F8F8F98A3F101C488E4
:102DE000D588E688F788A701960169A17AA18BA109
:102DF0009CA152D469A37AA38BA39CA3A3019201A3
:102E0000C301B201CAD69B01AC016D857E858F8559
:102E1000988942D46D877E878F87988BA50194010E
:102E2000C501B401BAD69B01AC016D897E898F8939
:102E3000988D32D46D8B7E8B8F8B988FA7019601E6
:102E4000C701B601AAD69B01AC01698D7A8D8B8D25
:102E50009C8D22D4698F7A8F8B8F9C8F8FE19EE41B
:102E60000197F1F700C000001F5F011393CF18C056
:102E7000198E1A8E1B8E1C8E1D8A1E8A1F8A188E12
:102E80001D861E861F86188A19A21AA21BA21CA2C2
:102E90001D8E1E8E1F8E18A2198A1A8A1B8A1C8AE2
:102EA000602F70E080E090E05FD54B015C019B01FA
:102EB000AC0169897A898B899C89BBD46B017C01BF
:102EC000F10164AF75AF86AF97AFA50194016D8D29
:102ED0007E8D8F8D98A1ADD42B013C01F101E05C7A
:102EE000FF4F6083718382839383A501940169A15D
:102EF0007AA18BA19CA19DD44B015C01F101EC5BFB
:102F0000FF4F608371838283938320E030E048E445
:102F100052E46D857E858F8598898BD4698B7A8BF9
:102F20008B8B9C8B20E030E048E452E46D857E85FD
:102F30008F8598897ED46D877E878F87988BA70130
:102F40009601C701B60129D69B01AC016D857E852E
:102F50008F859889A0D38ED6F101EC5AFF4F6083FC
:102F600071838283938320E030E048E452E46D89EA
:102F70007E898F89988D5DD46B017C01A3019201BC
:102F8000C301B2010AD69B01AC01C701B60183D3CC
:102F900071D6F101E85AFF4F608371838283938376
:102FA00020E030E048E452E4698D7A8D8B8D9C8D71
:102FB00040D46B017C01A5019401C501B401EDD59C
:102FC0009B01AC01C701B60166D354D6F101E45AA6
:102FD000FF4F60837183828393837896C080D18012
:102FE000E280F38020E030E0A901C701B601CAD534
:102FF00018162CF4C701B60189D4C10128DEA496A5
:103000000FB6F894DEBF0FBECDBFDF91CF911F91F9
:103010000F91FF90EF90DF90CF90BF90AF909F9077
:103020008F907F906F905F904F903F902F9008957A
:10303000EF92FF920F931F93CF93DF93CDB7DEB73D
:103040002C970FB6F894DEBF0FBECDBF8C01BC012C
:10305000CE010196AFDD780180E6E80EF11C20E09C
:1030600030E043E053E4F8016485758586859785F3
:10307000E0D3F70160837183828393837801F4E660
:10308000EF0EF11C20E030E043E053E4F8016089EA
:10309000718982899389CDD3F7016083718382839B
:1030A00093837801F8E6EF0EF11C20E030E043E076
:1030B00053E4F8016489758986899789BAD3F70141
:1030C00060837183828393832C960FB6F894DEBF5E
:1030D0000FBECDBFDF91CF911F910F91FF90EF9069
:1030E0000895805A9F4FFC01608171818281938194
:1030F00008958C599F4FFC01608171818281938179
:10310000089588599F4FFC0160817181828193816C
:1031100008951092B90088E48093B800089594EA65
:103120009093BC00ECEBF0E090819923ECF7909148
:10313000B900987F983011F09031A1F48093BB00D2
:1031400084E88093BC00ECEBF0E080818823ECF70E
:103150009091B900987F983139F081E0903429F44A
:1031600080E0089581E0089580E00895D8CF089523
:1031700084E98093BC00ECEBF0E0808184FDFDCF1E
:103180000895BF92CF92DF92EF92FF920F931F9319
:10319000CF93DF93B82ECCEBD0E009EB10E00F2EED
:1031A000F4EADF2EF02D0F2EFBEBEF2EF12CF02D9D
:1031B0000F2EF4E8CF2EF02DD88288818823ECF7EB
:1031C000F8018081887F8830B9F7F701B082C88222
:1031D00088818823ECF7F8018081887F883111F09D
:1031E000C7DFEACFDF91CF911F910F91FF90EF9052
:1031F000DF90CF90BF9008958093BB0084E88093C8
:10320000BC00ECEBF0E080818823ECF79091B900F2
:10321000987F81E0983209F480E0089584EC8093EF
:10322000BC00ECEBF0E080818823ECF78091BB00E0
:10323000089584E88093BC00ECEBF0E08081882363
:10324000ECF78091BB0008951F920F920FB60F927A
:1032500011240BB60F922F938F939F93EF93FF93AD
:103260008091C0002091C6008871E0912C05EF5F2D
:10327000EF7190912B05E91739F0E0932C05F0E000
:10328000E15DFA4F208301C082E080932A05FF911F
:10329000EF919F918F912F910F900BBE0F900FBECA
:1032A0000F901F9018951F920F920FB60F92112436
:1032B0000BB60F928F939F93EF93FF9390912E05F0
:1032C00080912D05981769F0E0912D05EF5FEF7162
:1032D000E0932D05F0E0E15BFA4F80818093C6001A
:1032E00005C0E1ECF0E080818F7D8083FF91EF915C
:1032F0009F918F910F900BBE0F900FBE0F901F905C
:10330000189510922E0510922D0510922C051092F2
:103310002B05992324F422E02093C0009F779093FB
:10332000C5008093C40088E98093C10086E0809343
:10333000C200089520912E052F5F2F7190912D05C9
:103340002917E1F3E22FF0E0E15BFA4F808320934D
:103350002E05E1ECF0E08081806280830895CF93B8
:10336000DF93EC018881882329F02196E3DF89919E
:103370008111FCCFDF91CF9108951F920F920FB66C
:103380000F9211240BB60F922F938F939F93EF936D
:10339000FF938091C8002091CE008871E091E704EE
:1033A000EF5FEF719091E604E91739F0E093E704DD
:1033B000F0E0E651FB4F208301C082E08093E504FA
:1033C000FF91EF919F918F912F910F900BBE0F90D6
:1033D0000FBE0F901F9018951F920F920FB60F926D
:1033E00011240BB60F928F939F93EF93FF939091BD
:1033F000E9048091E804981769F0E091E804EF5F30
:10340000EF71E093E804F0E0E65FFA4F808180938B
:10341000CE0005C0E9ECF0E080818F7D8083FF91D4
:10342000EF919F918F910F900BBE0F900FBE0F9059
:103430001F9018951F920F920FB60F9211240BB682
:103440000F922F938F939F93EF93FF938091D000D0
:103450002091D6008871E091A204EF5FEF71909106
:10346000A104E91739F0E093A204F0E0EB55FB4F1B
:10347000208301C082E08093A004FF91EF919F918F
:103480008F912F910F900BBE0F900FBE0F901F903A
:1034900018951F920F920FB60F9211240BB60F9230
:1034A0008F939F93EF93FF939091A4048091A30433
:1034B000981769F0E091A304EF5FEF71E093A30424
:1034C000F0E0EB53FB4F80818093D60005C0E1ED27
:1034D000F0E080818F7D8083FF91EF919F918F91AC
:1034E0000F900BBE0F900FBE0F901F90189510926B
:1034F000A4041092A3041092A2041092A104992390
:1035000024F422E02093D0009F779093D5008093FD
:10351000D40088E98093D10086E08093D20008959A
:103520002091A4042F5F2F719091A3042917E1F338
:10353000E22FF0E0EB53FB4F80832093A404E1EDF6
:10354000F0E080818062808308951F920F920FB611
:103550000F9211240BB60F922F938F939F93EF939B
:10356000FF9380913001209136018871E0915D04D4
:10357000EF5FEF7190915C04E91739F0E0935D041F
:10358000F0E0E05AFB4F208301C082E080935B04AF
:10359000FF91EF919F918F912F910F900BBE0F9004
:1035A0000FBE0F901F9018951F920F920FB60F929B
:1035B00011240BB60F928F939F93EF93FF939091EB
:1035C0005F0480915E04981769F0E0915E04EF5FFC
:1035D000EF71E0935E04F0E0E058FB4F8081809350
:1035E000360105C0E1E3F1E080818F7D8083FF91AA
:1035F000EF919F918F910F900BBE0F900FBE0F9088
:103600001F90189510925F0410925E0410925D0452
:1036100010925C04992324F426E0209330019F77D4
:10362000909335018093340188E98093310186E0DD
:1036300080933201089590915D0480915C04981705
:1036400091F0E0915C04EF5FEF71E0935C04F0E0D7
:10365000E05AFB4F208180915B0490E0982F8827EF
:10366000820F911D089580E091E0089520915F04FC
:103670002F5F2F7190915E042917E1F3E22FF0E0A4
:10368000E058FB4F808320935F04E1E3F1E0808109
:103690008062808308955058BB27AA270ED027C286
:1036A000F0D130F0F5D120F031F49F3F11F41EF449
:1036B000C0C10EF4E095E7FBB6C1E92F3AD280F322
:1036C000BA17620773078407950718F071F49EF51F
:1036D00052C20EF4E0950B2EBA2FA02D0B01B901AA
:1036E00090010C01CA01A0011124FF27591B99F078
:1036F000593F50F4503E68F11A16F040A22F232F84
:10370000342F4427585FF3CF469537952795A795D3
:10371000F0405395C9F77EF41F16BA0B620B730B7A
:10372000840BBAF09150A1F0FF0FBB1F661F771FEB
:10373000881FC2F70EC0BA0F621F731F841F48F4A0
:10374000879577956795B795F7959E3F08F0B3CF26
:103750009395880F08F09927EE0F97958795089510
:1037600090D158F080E891E009F49EEF91D128F0D3
:1037700040E851E059F45EEF09C05BC1FCC1E92F9C
:10378000E078D7D168F3092E052AC1F32617370749
:103790004807590738F00E2E07F8E02569F0E025B4
:1037A000E0640AC0EF6307F8009407FADB01B9018F
:1037B0009D01DC01CA01AD01EF934AD098D10AD036
:1037C0005F91552331F02BED3FE049E450FD49EC8A
:1037D00063CF0895DF93DD27B92FBF7740E85FE31C
:1037E0001616170648075B0710F4D92FCFD19F9301
:1037F0008F937F936F937CD2E4EEF0E01DD177D16D
:103800002F913F914F915F91D4D1DD2349F0905892
:10381000A2EA2AED3FE049EC5FE3D0785D274DDF77
:10382000DF9165C1DCD008F481E0089539D1E395DA
:103830006FC10CD05CC12CD140F023D130F021F409
:103840005F3F19F0F0C0511197C1F3C072D198F3E6
:103850009923C9F35523B1F3951B550BBB27AA2711
:1038600062177307840738F09F5F5F4F220F331F83
:10387000441FAA1FA9F333D00E2E3AF0E0E830D04F
:1038800091505040E695001CCAF729D0FE2F27D052
:10389000660F771F881FBB1F261737074807AB0720
:1038A000B0E809F0BB0B802DBF01FF2793585F4F95
:1038B0002AF09E3F510568F0B6C05EC15F3FECF351
:1038C000983EDCF3869577956795B795F7959F5F5A
:1038D000C9F7880F911D9695879597F90895E1E0AE
:1038E000660F771F881FBB1F621773078407BA070D
:1038F00020F0621B730B840BBA0BEE1F88F7E09568
:10390000089504D06894B11137C108951AD188F090
:103910009F5790F0B92F9927B751A0F0D1F0660FBB
:10392000771F881F991F1AF0BA95C9F712C0B130D6
:1039300081F021D1B1E008951EC1672F782F88272B
:10394000B85F39F0B93FCCF3869577956795B39515
:10395000D9F73EF490958095709561957F4F8F4F84
:103960009F4F0895E89409C097FB3EF49095809589
:10397000709561957F4F8F4F9F4F9923A9F0F92F35
:1039800096E9BB279395F695879577956795B795B3
:10399000F111F8CFFAF4BB0F11F460FF1BC06F5F99
:1039A0007F4F8F4F9F4F16C0882311F096E911C0AB
:1039B000772321F09EE8872F762F05C0662371F0CC
:1039C00096E8862F70E060E02AF09A95660F771FE0
:1039D000881FDAF7880F9695879597F90895990FBC
:1039E0000008550FAA0BE0E8FEEF16161706E807C9
:1039F000F907C0F012161306E407F50798F0621BEA
:103A0000730B840B950B39F40A2661F0232B242BBE
:103A1000252B21F408950A2609F4A140A6958FEFDD
:103A2000811D811D089597F99F6780E870E060E02F
:103A300008959FEF80EC0895DF93CF931F930F932A
:103A4000FF92EF92DF927B018C01689405C0DA2E21
:103A5000EF01AFD0FE01E894A591259135914591F4
:103A60005591AEF3EF0129DEFE019701A801DA942A
:103A700079F7DF90EF90FF900F911F91CF91DF9139
:103A8000089500240A9416161706180609060895C4
:103A900000240A9412161306140605060895C9CFC9
:103AA00050D0E8F3E894E0E0BB279F57F0F02AED10
:103AB0003FE049EC06C0EE0FBB0F661F771F881F63
:103AC00028F0B23A62077307840728F0B25A620BF3
:103AD000730B840BE3959A9572F7803830F49A95BE
:103AE000BB0F661F771F881FD2F7904806C1092EAB
:103AF0000394000C11F4882352F0BB0F40F4BF2B49
:103B000011F460FF04C06F5F7F4F8F4F9F4F089588
:103B1000EF93E0FF06C0A2EA2AED3FE049EC5FEB3D
:103B2000CCDDE5DF0F90039401FC9058E1E1F1E07A
:103B3000F7C057FD9058440F551F59F05F3F71F083
:103B40004795880F97FB991F61F09F3F79F0879504
:103B50000895121613061406551FF2CF4695F1DF8D
:103B600008C0161617061806991FF1CF869571051D
:103B7000610508940895E894BB2766277727CB0151
:103B800097F908952CDF08F48FEF08959B01AC019D
:103B900060E070E080E89FE34CCE0BD0A8CF71DFEF
:103BA00028F076DF18F0952309F03DCF42CF11249D
:103BB000E3CFBFDFA0F3959FD1F3950F50E0551FE2
:103BC000629FF001729FBB27F00DB11D639FAA2772
:103BD000F00DB11DAA1F649F6627B00DA11D661FC1
:103BE000829F2227B00DA11D621F739FB00DA11DE2
:103BF000621F839FA00D611D221F749F3327A00D9C
:103C0000611D231F849F600D211D822F762F6A2F37
:103C100011249F5750408AF0E1F088234AF0EE0FBC
:103C2000FF1FBB1F661F771F881F91505040A9F7C9
:103C30009E3F510570F0F7CE9FCF5F3FECF3983E6B
:103C4000DCF3869577956795B795F795E7959F5F30
:103C5000C1F7FE2B880F911D9695879597F90895CA
:103C60009F931EDF0F9007FCEE5F52CF11F40EF40E
:103C7000E0CE41C066DFD0F39923D9F3CEF39F574E
:103C8000550B87FF46D00024A0E640EA90018058FB
:103C90005695979528F4805C660F771F881F20F053
:103CA00026173707480730F4621B730B840B202953
:103CB00031294A2BA69517940794202531254A27A8
:103CC00058F7660F771F881F20F026173707480719
:103CD00030F4620B730B840B200D311D411DA09538
:103CE00081F7B901842F9158880F9695879508958B
:103CF0009B01AC0152CF9F3F31F0915020F487954A
:103D000077956795B795880F911D9695879597F943
:103D1000089591505040660F771F881FD2F708957D
:103D20009F938F937F936F93FF93EF939B01AC01CE
:103D300034DFEF91FF9180DE2F913F914F915F91A2
:103D40002CCF97FB072E16F4009406D077FD08D0F1
:103D50000BD007FC05D03EF4909581959F4F0895B8
:103D6000709561957F4F0895AA1BBB1B51E107C059
:103D7000AA1FBB1FA617B70710F0A61BB70B881FFB
:103D8000991F5A95A9F780959095BC01CD0108958A
:103D9000EE0FFF1F881F8BBF0790F691E02D19943F
:043DA000F894FFCFC5
:103DA4000101010108000101000080BF0000803F03
:103DB4000000803F000080BF000080BF0000803F03
:103DC4000000803F000080BF0000803F0000803F73
:103DD4000000803F0000803F0101010172656163C2
:103DE400686564207468726F77696E67207A6F6E95
:103DF4006520310D0A005265616368656420747A38
:103E040032200D0A007468726F77696E67200D0A9C
:103E1400007265616368656420747A330D0A007307
:103E240074617274696E670D0A000A0014001E0042
:0A3E3400280032003C004600500058
:00000001FF
