:1000000098C00000C7C00000C5C00000F5C00000D7
:10001000C1C00000BFC0000016C10000BBC000008E
:10002000B9C000000C943F18B5C000000C949118A2
:10003000B1C00000AFC00000ADC00000C0C10000F2
:10004000A9C00000A7C00000A5C00000A3C0000018
:10005000A1C000009FC000009DC000001BC10000A7
:1000600099C000000C94091E0C94381E93C0000027
:1000700091C000008FC000008DC000008BC0000048
:1000800089C0000087C0000085C0000083C0000058
:100090000C94A21E0C94D11E7DC000007BC00000F9
:1000A00079C0000077C0000075C0000073C0000078
:1000B00071C000006FC000006DC000006BC0000088
:1000C00069C0000067C0000065C000000C94FF1EFE
:1000D0000C940F1F5FC000000C946F1F0C949E1FA8
:1000E00059C00000084AD73B3BCE016E84BCBFFD1F
:1000F000C12F3D6C74319ABD56833DDA3D00C77FF8
:1001000011BED9E4BB4C3E916BAAAABE0000008090
:100110003F05A84CCDB2D44EB93836A9020C50B91F
:10012000918688083CA6AAAA2ABE000000803F004B
:10013000321911241FBECFEFD1E2DEBFCDBF00E0E8
:100140000CBF12E0A0E0B2E0E8E3F7E400E00BBF90
:1001500002C007900D92A637B107D9F725E0A6E7B0
:10016000B2E001C01D92A636B207E1F710E0C9E97E
:10017000D0E000E006C021970109802FFE010E9417
:100180009223C839D10780E00807A9F70E94021915
:100190000C949A2335CF789480E3809369008CE0A7
:1001A00080936A008DB384628DBB0895789485B581
:1001B000856085BD81E080936E000895CF93DF93C5
:1001C000EC0168817981072E000C880B990B0E9445
:1001D0007E212EEF34E346E353E40E94972220E091
:1001E00030E048E453E40E94E3206C837D838E83F7
:1001F0009F83DF91CF9108951F920F920FB60F92B8
:1002000011240BB60F928F939F93EF93FF93009B54
:1002100008C0EEE7F2E080819181019691838083AE
:1002200007C0EEE7F2E0808191810197918380839E
:10023000FF91EF919F918F910F900BBE0F900FBE8A
:100240000F901F9018951F920F920FB60F921124C6
:100250000BB60F928F939F93EF93FF93059B08C06C
:10026000E6E7F2E08081918101969183808307C067
:10027000E6E7F2E080819181019791838083FF918D
:10028000EF919F918F910F900BBE0F900FBE0F902B
:100290001F9018951F920F920FB60F9211248F93F3
:1002A00081E0809302028093040280930302809392
:1002B0000102809300028F910F900FBE0F901F904C
:1002C00018950E946E1D8CE30E94741D80E00E94B0
:1002D000E11D80E70E94E11D0E949D1D8CE30E94AC
:1002E000741D81E00E94E11D80EA0E94E11D0E94D0
:1002F0009D1D8CE30E94741D82E00E94E11D80E040
:100300000E94E11D0C949D1D08958CE30E94741DB4
:1003100083E00E94E11D0E949D1D8DE30E949B1DB4
:100320000E94F31D10926F04809370040E94F31DCD
:1003300020916F0430917004282B30937004209327
:100340006F040E94F31D10926B0480936C040E9452
:10035000F31D20916B0430916C04282B30936C04B6
:1003600020936B040E94F31D10926D0480936E0421
:100370000E94FE1D20916D0430916E04282B309355
:100380006E0420936D040C949D1D08952FB7F8946E
:1003900060916704709168048091690490916A0487
:1003A0002FBF0895E1EBF0E0808184608083E0E777
:1003B000F0E08081816080831092B20008951F92E6
:1003C0000F920FB60F9211248F939F93AF93BF9309
:1003D0008091670490916804A0916904B0916A04C7
:1003E0000196A11DB11D8093670490936804A093AA
:1003F0006904B0936A048091630490916404A091AD
:100400006504B09166040396A11DB11D8093630439
:1004100090936404A0936504B09366048091630490
:1004200090916404A0916504B09166048D379105A4
:10043000A105B10538F18091630490916404A09105
:100440006504B09166048D579109A109B1098093A3
:10045000630490936404A0936504B0936604809150
:10046000670490916804A0916904B0916A040196B0
:10047000A11DB11D8093670490936804A093690443
:10048000B0936A04BF91AF919F918F910F900FBE6F
:100490000F901F90189515DF8AEE93E00E94C01907
:1004A00062E38AEE93E00E94721B7CDF6FDF609351
:1004B000CE037093CF038093D0039093D10308951C
:1004C0004F925F926F927F928F929F92AF92BF9264
:1004D000CF92DF92EF92FF920F931F93CF93DF9310
:1004E000CDB7DEB764970FB6F894DEBF0FBECDBFB1
:1004F00069837A838B839C8329013A01E98AFA8A8A
:100500000B8B1C8B0E94E0206D877E878F87988BDA
:1005100069817A818B819C810E94FA2269837A8326
:100520008B839C83C301B2010E94E0206D837E8394
:100530008F839887C301B2010E94FA2269877A8764
:100540008B879C87A60195016D817E818F8198851F
:100550000E9497222B013C0128A539A54AA55BA53D
:1005600069857A858B859C850E9497229B01AC01C9
:10057000C301B2010E9415202B013C01A601950187
:1005800069817A818B819C810E94972229853A8595
:100590004B855C850E9497224B015C01A801970165
:1005A0006D857E858F8598890E9497229B01AC017D
:1005B000C501B4010E9415204B015C0128A539A595
:1005C0004AA55BA569817A818B819C810E949722D3
:1005D0002D813E814F8158850E9497229B01AC015D
:1005E000C501B4010E9416209058A30192010E94F7
:1005F000892021EE3EE245E652E40E9497220E94C5
:100600004B219B01772314F428593E4FC90164966E
:100610000FB6F894DEBF0FBECDBFDF91CF911F9113
:100620000F91FF90EF90DF90CF90BF90AF909F9091
:100630008F907F906F905F904F9008954F925F9250
:100640006F927F92AF92BF92CF92DF92EF92FF9222
:100650000F931F93CF93DF93CDB7DEB728970FB6D5
:10066000F894DEBF0FBECDBF60916D0470916E0433
:10067000072E000C880B990B0E947E215B016C01F8
:1006800060916F0470917004072E000C880B990B19
:100690000E947E2169837A838B839C8325E33AEFD2
:1006A0004EE85CE36091D6037091D7038091D80344
:1006B0009091D9030E9497226D837E838F839887C0
:1006C00025E33AEF4EE85CE36091DA037091DB03D7
:1006D0008091DC039091DD030E9497222B013C0165
:1006E00060916B0470916C04072E000C880B990BC1
:1006F0000E947E219F938F937F936F93E980FA806E
:100700000B811C812D813E814F815885C301B2012F
:10071000D7DE0F900F900F900F90BC0180E090E01B
:100720000E947C212B013C012AE0298360E070E0DB
:10073000CB01A30192010E94162029812150298317
:100740002111F7CF20E030E040E251E40E94E320A5
:1007500028960FB6F894DEBF0FBECDBFDF91CF91C4
:100760001F910F91FF90EF90DF90CF90BF90AF90CF
:100770007F906F905F904F900895CF92DF92EF92AD
:10078000FF920F931F93CF93DF93CDB7DEB72C97D4
:100790000FB6F894DEBF0FBECDBF6AEE73E0CE0198
:1007A00001960E94611A8CE0FE013196A2ECB3E042
:1007B00001900D928A95E1F78AEE93E00E94FD1C6C
:1007C00002EC13E0F801C084D184E284F3846081F8
:1007D000718182819381A70196010E94892021EE77
:1007E0003EE245E652E40E9497226093E60370934E
:1007F000E7038093E8039093E903F801648175812E
:1008000086819781A70196010E94892021EE3EE210
:1008100045E652E40E9497226093E2037093E3035B
:100820008093E4039093E50370DDB0DD0091CE0387
:100830001091CF032091D0033091D103601771073D
:100840008207930709F4F0C0A1DD6093CE03709393
:10085000CF038093D0039093D103809155028823D6
:1008600091F18091E6039091E703A091E803B091A4
:10087000E9038093DA039093DB03A093DC03B09346
:10088000DD038091E2039091E303A091E403B09132
:10089000E5038093D6039093D703A093D803B09336
:1008A000D9038091DE039091DF03A091E003B09122
:1008B000E1038093D2039093D303A093D403B09326
:1008C000D503109255028AEE93E00E94561D2FE642
:1008D00032E143E85AE30E9497222091DA033091F3
:1008E000DB034091DC035091DD030E9416202BE7CF
:1008F00034E14EE65FE30E9497226B017C0129E21E
:100900003CE54FE85DE36091E6037091E703809179
:10091000E8039091E9030E9497229B01AC01C70173
:10092000B6010E9416206093DA037093DB03809374
:10093000DC039093DD038AEE93E00E945E1D2FE6B8
:1009400032E143E85AE30E9497222091D603309186
:10095000D7034091D8035091D9030E9416202BE76A
:1009600034E14EE65FE30E9497226B017C0129E2AD
:100970003CE54FE85DE36091E2037091E303809111
:10098000E4039091E5030E9497229B01AC01C7010B
:10099000B6010E9416206093D6037093D70380930C
:1009A000D8039093D9034ADE6093DE037093DF038C
:1009B0008093E0039093E1038AEE93E00E94661D2A
:1009C0002FE632E143E85AE30E9497222091D203B6
:1009D0003091D3034091D4035091D5030E94162047
:1009E0002DEC3CEC4CEC5DE30E9497226B017C010A
:1009F00026E636E646E65FE36091DE037091DF03AC
:100A00008091E0039091E1030E9497229B01AC0149
:100A1000C701B6010E9416206093D2037093D303DE
:100A20008093D4039093D5036091D2037091D30344
:100A30008091D4039091D5030E945021CB012C9634
:100A40000FB6F894DEBF0FBECDBFDF91CF911F91DF
:100A50000F91FF90EF90DF90CF900895E8E0F1E0E4
:100A6000908181E0892780831092A1031092A003D6
:100A700010929F0310929E030895CF93DF938FE708
:100A80000E945A1FC6EBD3E088810E945A1F8981B9
:100A90000E945A1F8A810E945A1F8B810E945A1FEE
:100AA000DF91CF9108954F925F926F927F92AF92B4
:100AB000BF92CF92DF92EF92FF920F931F93CF934B
:100AC000DF930F2EF6E6EF2EF2E0FF2EF02D04E876
:100AD00013E0C0E0D0E0CC24C394D12C86B190E0E8
:100AE0000C2E02C0959587950A94E2F780FF10C0FE
:100AF000F801D182C08220919D03C6010C2E02C054
:100B0000880F991F0A94E2F7822B80939D0303C0FC
:100B1000F80111821082F701819191917F01F80112
:100B2000A190B1908F018A9DB0018B9D700D9A9D0F
:100B3000700D1124072E000C880B990B0E947E214A
:100B4000209198033091990340919A0350919B030F
:100B50000E9416202B013C01609398037093990327
:100B600080939A0390939B03B501BB0C880B990B60
:100B70000E947E2120919403309195034091960329
:100B8000509197030E9416206093940370939503ED
:100B900080939603909397032196C830D10509F06E
:100BA0009DCF9B01AC01C301B2010E94E3200E94D2
:100BB000502160939C031092980310929903109215
:100BC0009A0310929B031092940310929503109233
:100BD000960310929703862F90E0DF91CF911F919B
:100BE0000F91FF90EF90DF90CF90BF90AF907F90EC
:100BF0006F905F904F9008950F931F9310929F03F3
:100C0000799B33C07A9B34C030C0799B4DC068C09B
:100C1000799969C07A9927C0799B7DC080E091C09D
:100C2000B5DB6093BA037093BB038093BC039093CE
:100C3000BD0310925402AADB0091BA031091BB03CA
:100C40002091BC033091BD03AB01BC01401B510B93
:100C5000620B730B81E0423051056105710508F0AC
:100C600070C080E06EC080E06CC07A99CECF38C092
:100C700010922202EEEAF3E08EE190E0918380830D
:100C800013821282158214828CEE9FEF97838683E3
:100C90001092BA031092BB031092BC031092BD03D2
:100CA00081E080935402B6CF10922202EEEAF3E084
:100CB00084E190E0918380831382128215821482F2
:100CC00082EE9FEF978386831092BA031092BB0344
:100CD0001092BC031092BD0381E0809354029ACF1E
:100CE0007A9996CF97CF81E080932202E8EAF3E0E9
:100CF00028ED3FEF31832083138212821582148204
:100D00001092BA031092BB031092BC031092BD0361
:100D1000809354027FCF10922202EEEAF3E08AE041
:100D200090E091838083138212821582148286EF71
:100D30009FEF9783868380915402882309F47BCFA9
:100D40006FCF1F910F9108952F923F924F925F9214
:100D50006F927F928F929F92AF92BF92CF92DF92CB
:100D6000EF92FF920F931F93CF93DF9300D000D0A9
:100D7000CDB7DEB780910202882309F462C1809169
:100D80005802882309F461C1F8DC8C01E1E2F3E048
:100D90009183808386859785801B910B853B910588
:100DA0003CF08856914090932403809323030FC016
:100DB0008C342FEF92072CF090932403809323031D
:100DC00006C088599E4F909324038093230320905C
:100DD000230330902403B101032C000C880B990BE2
:100DE0000E947E214B015C0120913A0330913B032C
:100DF00040913C0350913D030E94972220912B0388
:100E000030912C0340912D0350912E030E94162007
:100E10006B017C0160932B0370932C0380932D0353
:100E200090932E0340913203509133035E834D83A0
:100E3000BA01550F880B990B0E947E2169837A8332
:100E40008B839C832DEC3CEC4CEC5DE30E94972261
:100E50002B013C01C701B6010E944B219B01772366
:100E600024F422273327261B370BB901330F880BB5
:100E7000990B0E947E21A30192010E948C221816D8
:100E800024F520E030E0A901C701B6010E948C22C0
:100E900018164CF440922B0350922C0360922D03B1
:100EA00070922E0312C02DEC3CEC4CEC5DEB698192
:100EB0007A818B819C810E94972260932B0370938F
:100EC0002C0380932D0390932E03C1010396079763
:100ED00008F041C0C101332024F4882799278219E2
:100EE000930918161906BCF50F2EF1E2EF2EF3E068
:100EF000FF2EF02DF701258936894789508DC501D0
:100F0000B4010E9497224B015C01F7018481958115
:100F1000B801681B790B072E000C880B990B0E94F7
:100F20007E21F701258D368D478D50A10E94972295
:100F30009B01AC01C501B4010E941520F701228577
:100F40003385448555850E9416200E944B21F70168
:100F5000778366834CC0C101992324F4882799279D
:100F6000821993090497DCF10F2EF1E2EF2EF3E0E2
:100F7000FF2EF02DF701658976898789908D9B0179
:100F8000AC010E949722A50194010E9497224B0177
:100F90005C01F70184819581B801681B790B072EEC
:100FA000000C880B990B0E947E21F701258D368D50
:100FB000478D50A10E9497229B01AC01C501B4014D
:100FC0000E941520F70122853385448555850E94AE
:100FD00016200E944B21F7017783668308C0E1E267
:100FE000F3E0128613861486158617821682E1E2D4
:100FF000F3E015830483868197819C01992324F46F
:1010000022273327281B390B4D815E814217530756
:1010100074F4481759072CF05195419551095E8396
:101020004D838D819E819093280380932703809127
:101030002703909128039093AD038093AC03109203
:10104000020280915802811104C01092AD031092E7
:10105000AC0326960FB6F894DEBF0FBECDBFDF916E
:10106000CF911F910F91FF90EF90DF90CF90BF90A5
:10107000AF909F908F907F906F905F904F903F9038
:101080002F9008952F923F924F925F926F927F928E
:101090008F929F92AF92BF92CF92DF92EF92FF9288
:1010A0000F931F93CF93DF9300D01F92CDB7DEB77E
:1010B00080912202882309F457C00F2EFEEACF2E1A
:1010C000F3E0DF2EF02D0F2EF4E24F2EF2E05F2E34
:1010D000F02D0F2EF6EB2F2EF3E03F2EF02D0F2EDE
:1010E000FEEA6F2EF3E07F2EF02DDA82C98208EA45
:1010F00013E072011B821C82D8016D917D918D01DC
:10110000F70181909190A190B1907F01072E000C82
:10111000880B990B0E947E21A50194010E949722C1
:101120004B015C012B813C81B901330F880B990B7A
:101130000E947E219B01AC01C501B4010E941620D2
:101140000E944B217C836B8306151705A9F6A981A4
:10115000BA816D937C93F2E0CF0ED11C2CE0420E4D
:10116000511CC214D30409F6E6EBF3E0AEEAB3E097
:101170002D913C9147E1429FC001439F900D112466
:1011800029EF30E0B9010E946B2360836091B003C6
:101190007091B103469FC001479F900D1124B90182
:1011A0000E946B2361836091B2037091B303469FE9
:1011B000C001479F900D1124B9010E946B236283E7
:1011C0006091B4037091B503469FC001479F900D95
:1011D0001124B9010E946B2363834FDC0F900F90A1
:1011E0000F900F90DF91CF911F910F91FF90EF9093
:1011F000DF90CF90BF90AF909F908F907F906F9037
:101200005F904F903F902F9008958F929F92AF9252
:10121000BF92CF92DF92EF92FF920F931F93CF93E3
:10122000DF9380915203882351F03DDC892B39F004
:101230003ADCE2E4F3E095838483108ADBC080919A
:101240000402882309F4D6C080915702882309F448
:10125000D5C029DCEC019093430380934203892B92
:1012600009F4C6C080912102882309F4C1C0E2E4D8
:10127000F3E0668577856C1B7D0B73836283611554
:10128000710531F41286138614861586D583C483BE
:10129000072E000C880B990B0E947E214B015C01EC
:1012A00002E413E0F801218D328D438D548D0E94AC
:1012B0009722F80122853385448555850E941620A2
:1012C0006B017C01F80162877387848795870E9490
:1012D0004B219B01772324F422273327261B370B2E
:1012E0002B3031055CF120E030E0A901C701B601E7
:1012F0000E948C2218166CF480E090E0A0E2B1E429
:1013000080934C0390934D03A0934E03B0934F03EF
:1013100015C020E030E0A901C701B6010E94DC2021
:10132000882364F480E090E0A0E2B1EC80934C0369
:1013300090934D03A0934E03B0934F0302E413E048
:10134000F801258936894789508DC501B4010E946D
:101350009722F80122853385448555850E94162001
:101360006B017C01F80184819581BE01681B790BBA
:10137000072E000C880B990B0E947E21F801258D09
:10138000368D478D50A10E9497229B01AC01C70169
:10139000B6010E9415200E944B219B01F801778322
:1013A0006683D583C483AB01772324F44427552770
:1013B000461B570B4932510584F0121613063CF4B4
:1013C00088E290E0909349038093480306C088ED3B
:1013D0009FEF909349038093480380914803909135
:1013E00049039195819591099093A9038093A8034E
:1013F0001092040280915702811104C01092A90337
:101400001092A803DF91CF911F910F91FF90EF9061
:10141000DF90CF90BF90AF909F908F900895CF9224
:10142000DF92EF92FF920F931F93CF93DF93E1E24E
:10143000F3E088E290E0928B818B148A138AC3E6F2
:10144000D3E08DE290E09F878E87A2E4B3E01F9601
:101450009C938E931E9740E050E060EB70E4458BC8
:10146000568B678B708F118E128E138E148E40E008
:1014700050E06AEF73E4458F568F678F70A30F2E8D
:10148000F1EECF2EFAE7DF2EF4E1EF2EFFE3FF2E91
:10149000F02DCD8ADE8AEF8AF88E0DEC1CEC2CE460
:1014A0003DE3098F1A8F2B8F3C8F40E050E069EBB2
:1014B00073E44D8F5E8F6F8F78A35596CD92DD923A
:1014C000ED92FC92589759960D931D932D933C9352
:1014D0005C975D964D935D936D937C939097E0E060
:1014E000F3E04AE959E969E17EE3458B568B678B66
:1014F000708F118E128E138E148E06E616E626E677
:101500003FE3058F168F278F30A3EFEDF2E0458B79
:10151000568B678B708F118E128E138E148E40E057
:1015200050E060E87FE3458F568F678F70A3AEEB86
:10153000B2E01F969C938E931E97EDE9F2E0978799
:1015400086870AE919E929E93FE355960D931D932A
:101550002D933C93589759961D921D921D921C9263
:101560005C9740E050E060E871E45D964D935D93D8
:101570006D937C939097058B168B278B308F118EF4
:10158000128E138E148E458F568F678F70A30E9414
:101590004B020E94C6016093BE037093BF03809309
:1015A000C0039093C103C1E2D3E00E94C601009141
:1015B000BE031091BF032091C0033091C103DC0131
:1015C000CB01801B910BA20BB30B843F9140A10573
:1015D000B10548F4D2D89093A3038093A203188A4C
:1015E0009F878E87E2CFDF91CF911F910F91FF9060
:1015F000EF90DF90CF9008952F923F924F925F929D
:101600006F927F928F929F92AF92BF92CF92DF9212
:10161000EF92FF920F931F93CF93DF931C018B01E7
:101620007A0181E0809322028EE792E00E94DE0040
:101630000E944B21AB01772324F444275527461BF6
:10164000570BEA015093A7034093A60330920F0370
:1016500020920E0320910102222309F455C1109219
:101660009F0310929E035093010340930003109236
:101670000102483E83E058070CF4EAC0241A350AF8
:101680000F2EF0E0CF2EF3E0DF2EF02DF6013382A7
:101690002282B101032C000C880B990B0E947E2141
:1016A0002B013C01F601218D328D438D548D0E941A
:1016B0009722F60122853385448555850E941620A0
:1016C0004B015C01F6016287738784879587808967
:1016D000882319F0D583C483108AC501B4010E9400
:1016E0004B219B01772324F422273327261B370B1A
:1016F0002B3031055CF120E030E0A901C501B401D7
:101700000E948C2218166CF480E090E0A0E2B1E414
:1017100080930A0390930B03A0930C03B0930D03E3
:1017200015C020E030E0A901C501B4010E94DC2011
:10173000882364F480E090E0A0E2B1EC80930A0397
:1017400090930B03A0930C03B0930D031214130496
:10175000BCF50F2EF0E0CF2EF3E0DF2EF02DF601DA
:10176000258936894789508DC301B2010E9497228D
:10177000F60122853385448555850E9416204B014C
:101780005C01F60184819581BE01681B790B072EEF
:10179000000C880B990B0E947E21F601258D368D59
:1017A000478D50A10E9497229B01AC01C501B40155
:1017B0000E9415200E944B21F6017783668304C0A6
:1017C0001092070310920603E0E0F3E0D583C48390
:1017D000868197819C01992324F422273327281B93
:1017E000390BE216F30678F4181619062CF4F09269
:1017F0000703E092060307C0F194E194F108F09228
:101800000703E09206038091060390910703439635
:101810008797A8F48091A103882339F084E190E0B0
:1018200090930703809306030AC08091A003882346
:1018300031F08CEE9FEF9093070380930603809125
:101840000603909107039093A9038093A80335C0E2
:10185000809123028823C9F0BA01550F880B990B98
:101860000E947E212DEC3CEC4CEC5DE30E94972223
:1018700020E030E040E752E40E9416200E944B2115
:101880007093A9036093A80318C0BA01550F880B81
:10189000990B0E947E212AE037ED43E25DE30E942E
:1018A000972220E030E040E752E40E9416200E9498
:1018B0004B217093A9036093A8030230110551F4E2
:1018C00081E08093A1031092A00310929E031092D6
:1018D0009F031AC003301105B9F4E8EAF3E08081F0
:1018E000918199231CF49195819591099195819508
:1018F0009109918380831092A10381E08093A003DA
:1019000010929F0310929E0380912302882339F046
:1019100086EF9FEF9093AB038093AA0304C01092CD
:10192000AB031092AA0310DADF91CF911F910F91B0
:10193000FF90EF90DF90CF90BF90AF909F908F90EF
:101940007F906F905F904F903F902F90089521E08F
:10195000209322021092A1031092A00320939F03D0
:1019600010929E03E1E2F3E040E050E060E070E4BA
:10197000458B568B678B708F118E128E138E148E43
:1019800040E050E068EF71E4458F568F678F70A399
:10199000E8EAF3E0938382831182108236DCD4C9B3
:1019A000089581E080932202E8EAF3E01182108238
:1019B00013821282E1E2F3E086E696E6A6E8B0E45E
:1019C000858B968BA78BB08F8FE892ECA5E7BEE353
:1019D000818F928FA38FB48F80E090E0A0E0B2E47B
:1019E000858F968FA78FB0A3AFC908958F929F92CE
:1019F000AF92BF92CF92DF92EF92FF920F931F931D
:101A0000CF93DF938C0181E0809322028EE792E0F6
:101A10000E94DE006B017C018EE792E00E94DE00F6
:101A20000E944B219B01772324F422273327261B76
:101A3000370B283E33401CF58EE792E00E94DE0013
:101A40000E944B219B01772324F422273327261B56
:101A5000370BB901330F880B990B0E947E212CEEB6
:101A600031E548EB5DE30E94972220E030E040E75B
:101A700052E40E9416200E944B21EB0102C0C6E9ED
:101A8000D0E08EE792E00E94DE000E944B219B0195
:101A9000772324F422273327261B370B213A3F4094
:101AA0003CF1C701B6010E944B219B01772324F42E
:101AB00022273327261B370B6CE572E1621B730B61
:101AC000AAF0072E000C880B990B0E947E212DECAA
:101AD0003CEC4CEC5DE30E9497220E944B21EB0111
:101AE0006E3171052CF4CEE1D0E002C0CEE1D0E041
:101AF000BE01DD0F880B990B0E947E216B017C01DA
:101B0000B801110F880B990B0E947E2125E33AEF53
:101B10004EE85CE30E9497224B015C010E94E020AA
:101B20009B01AC01C8EAD3E0C701B6010E9497222D
:101B30000E944B2179836883C501B4010E94FA2277
:101B40009B01AC01C701B6010E9497220E944B2164
:101B50007B836A83F9D8DF91CF911F910F91FF901A
:101B6000EF90DF90CF90BF90AF909F908F900895AF
:101B70000E94561F853638F080910A02803561F048
:101B80008A3071F404C0865F80930A0208958AE067
:101B900080930A0280E0089580E580930A028AE536
:101BA00008954F925F926F927F92AF92BF92CF92C1
:101BB000DF92EF92FF920F931F93CF93DF930F2E3D
:101BC000F6E6EF2EF2E0FF2EF02D04E813E0C0E081
:101BD000D0E0CC24C394D12C86B190E00C2E02C06E
:101BE000959587950A94E2F780FF10C0F801D1829D
:101BF000C08220919D03C6010C2E02C0880F991F40
:101C00000A94E2F7822B80939D0303C0F8011182AE
:101C10001082F701819191917F01F801A190B1901B
:101C20008F018A9DB0018B9D700D9A9D700D1124BE
:101C3000072E000C880B990B0E947E21209198039F
:101C40003091990340919A0350919B030E94162072
:101C50002B013C01609398037093990380939A033E
:101C600090939B03B501BB0C880B990B0E947E21BE
:101C700020919403309195034091960350919703DE
:101C80000E941620609394037093950380939603AB
:101C9000909397032196C830D10509F09DCF9B0101
:101CA000AC01C301B2010E94E3200E945021609365
:101CB0009C03109298031092990310929A03109229
:101CC0009B03109294031092950310929603109226
:101CD0009703809109028A3039F4611110C0109283
:101CE0009C03809309020DC0803549F4611107C03F
:101CF0008AE580939C0380E58093090202C060938B
:101D0000090280919C03DF91CF911F910F91FF9069
:101D1000EF90DF90CF90BF90AF907F906F905F90EB
:101D20004F9008958F929F92AF92BF92CF92DF9281
:101D3000EF92FF920F931F93CF93DF938091CE0288
:101D4000882341F015DFEEEBF2E090E09583848389
:101D5000108AD1C080910402882309F4CCC08091FC
:101D60005702882309F4CBC003DFC82FD0E0D093FB
:101D7000BF02C093BE02209709F4BBC0809121022C
:101D8000882309F4B6C0EEEBF2E0668577856C1B1C
:101D90007D0B738362836115710531F4128613869E
:101DA00014861586D583C483072E000C880B990BE7
:101DB0000E947E214B015C010EEB12E0F801218DA7
:101DC000328D438D548D0E949722F80122853385F0
:101DD000448555850E9416206B017C01F8016287BD
:101DE0007387848795870E944B219B01772324F476
:101DF00022273327261B370B263031055CF120E0E4
:101E000030E0A901C701B6010E948C2218166CF4BB
:101E100080E090E0A0EAB0E48093C8029093C90209
:101E2000A093CA02B093CB0215C020E030E0A90114
:101E3000C701B6010E94DC20882364F480E090E0B2
:101E4000A0EAB0EC8093C8029093C902A093CA02A2
:101E5000B093CB020EEB12E0F80125893689478951
:101E6000508DC501B4010E949722F8012285338567
:101E7000448555850E9416206B017C01F801848100
:101E80009581BE01681B790B072E000C880B990BFE
:101E90000E947E21F801258D368D478D50A10E942C
:101EA00097229B01AC01C701B6010E9415200E9438
:101EB0004B219B01F80177836683D583C483AB01F3
:101EC000772324F444275527461B570B41355105EA
:101ED00084F0121613063CF480E590E09093C5025E
:101EE0008093C40206C080EB9FEF9093C50280935D
:101EF000C4021092030280915702811104C0109213
:101F0000C5021092C402DF91CF911F910F91FF90F3
:101F1000EF90DF90CF90BF90AF909F908F900895FB
:101F20008F929F92AF92BF92CF92DF92EF92FF92E9
:101F30000F931F93CF93DF938091AD02882339F0E5
:101F400030DEEDE9F2E090E095838483108A8091A1
:101F50000402882309F4CEC080915702882309F433
:101F6000CDC01FDEC82FD0E0D0939E02C0939D024B
:101F7000209709F4BDC080912102882309F4B8C0DC
:101F8000EDE9F2E0668577856C1B7D0B73836283D8
:101F90006115710541F41092A7021092A8021092E7
:101FA000A9021092AA02072E000C880B990B0E941E
:101FB0007E214B015C010DE912E0F801218D328D8B
:101FC000438D548D0E949722F801228533854485E4
:101FD00055850E9416206B017C01F801628773878A
:101FE000848795870E944B219B01772324F4222725
:101FF0003327261B370B263031055CF120E030E01B
:10200000A901C701B6010E948C2218166CF480E069
:1020100090E0A0EAB0E48093A7029093A802A09376
:10202000A902B093AA0215C020E030E0A901C701BF
:10203000B6010E94DC20882364F480E090E0A0EAEE
:10204000B0EC8093A7029093A802A093A902B0934A
:10205000AA020DE912E0F801258936894789508DD9
:10206000C501B4010E949722F80122853385448579
:1020700055850E9416206B017C01F80184819581B1
:10208000BE01681B790B072E000C880B990B0E9470
:102090007E21F801258D368D478D50A10E94972213
:1020A0009B01AC01C701B6010E9415200E944B2183
:1020B0009B01F80177836683D583C483AB017723C3
:1020C00024F444275527461B570B4135510584F00E
:1020D000121613063CF480E590E09093A4028093DE
:1020E000A30206C080EB9FEF9093A4028093A3020B
:1020F0001092040280915702811104C01092A40230
:102100001092A302DF91CF911F910F91FF90EF905A
:10211000DF90CF90BF90AF909F908F900895809167
:102120000C02811108C080910B02823071F0833063
:1021300071F4A1E013C0813061F480910B02823010
:1021400051F0833051F4A3E009C0A0E007C0A4E03F
:1021500005C0A4E003C0A2E001C0A4E0B0E0AA0F63
:10216000BB1FAA0FBB1FA35FBD4FEEEAF3E066EBF8
:1021700073E04D91208131814203C001439F900D56
:10218000112481939193E617F70799F70895CF9358
:10219000DF93EC0110922202C5DDC2DE80910B02BA
:1021A0008230F1F48091C4029091C502EEEAF3E02E
:1021B0009C012C0F3D1F318320839E01281B390B6E
:1021C000338322838091A3029091A4029E01280F61
:1021D000391F35832483C81BD90BD783C6831CC002
:1021E0008091C4029091C502EEEAF3E09E01281BA3
:1021F000390B318320838C0F9D1F938382838091C1
:10220000A3029091A4029E01281B390B35832483DD
:10221000C80FD91FD783C68382DFDF91CF9108957E
:102220002F923F924F925F926F927F928F929F92E6
:10223000AF92BF92CF92DF92EF92FF920F931F93D4
:10224000CF93DF931C018B017A0186E792E00E9415
:10225000DE000E944B219B01772324F422273327A1
:10226000261B370BE9013093A5032093A40330927A
:10227000EE022092ED0280910002882309F40AC147
:1022800010920002283582E038070CF4ADC00F2E02
:10229000FFEDCF2EF2E0DF2EF02DF601318320830B
:1022A000221A330A33822282B101032C000C880BDC
:1022B000990B0E947E212B013C01F601218D328D6C
:1022C000438D548D0E949722F601228533854485E3
:1022D00055850E9416204B015C01F60162877387C9
:1022E000848795878089882319F0D583C483108AD1
:1022F000C501B4010E944B219B01772324F42227BE
:102300003327261B370B2B3031055CF120E030E002
:10231000A901C501B4010E948C2218166CF480E05A
:1023200090E0A0E2B1E48093E9029093EA02A093E6
:10233000EB02B093EC0215C020E030E0A901C5012A
:10234000B4010E94DC20882364F480E090E0A0E2E5
:10235000B1EC8093E9029093EA02A093EB02B09370
:10236000EC0212141304BCF50F2EFFEDCF2EF2E099
:10237000DF2EF02DF601258936894789508DC3015E
:10238000B2010E949722F601228533854485558546
:102390000E9416204B015C01F60184819581BE01EB
:1023A000681B790B072E000C880B990B0E947E216D
:1023B000F601258D368D478D50A10E9497229B01F5
:1023C000AC01C501B4010E9415200E944B21F60109
:1023D0007783668304C01092E6021092E502D093E0
:1023E000E402C093E30218C0B901330F880B990BC4
:1023F0000E947E212AE939E949E15EE30E949722A1
:1024000020E030E040E752E40E9416200E944B2179
:102410007093E6026093E5028091E5029091E602F6
:1024200099231CF49195819591098E159F0520F0B3
:10243000F092E602E092E5028091E5029091E602D8
:102440004396879730F484E190E09093E60280937E
:10245000E50281E080930C020230110561F4809363
:102460009F0310929E031092A1031092A00382E09A
:1024700080930B020FC00330110561F481E080935B
:102480009E0310929F031092A1031092A00383E079
:1024900080930B028091E5029091E60278DEDF9155
:1024A000CF911F910F91FF90EF90DF90CF90BF9051
:1024B000AF909F908F907F906F905F904F903F90E4
:1024C0002F900895CF9380919C028111A6C0809196
:1024D000090184FD64C08091910290919202059758
:1024E00009F05DC04FC080919102909192020697D1
:1024F000F9F480910802811157C01AC080919102AD
:1025000090919202059731F0809191029091920200
:10251000069731F481E080939A0287E70E940020B9
:1025200080919C02882321F080919B0281117AC0C6
:1025300080910702882381F08091090184FD0CC0FD
:102540007D990AC080910802811106C08091910294
:10255000909192020697E9F17D9B58C0809191027B
:1025600090919202069709F051C080910802811162
:102570004DC035C010929B0281E08093970210926B
:10258000960250C08FE60E94002081E080939C025A
:102590008093980210928D0210928E023EC080911C
:1025A000090184FFA0CFC4CF8FE60E94002081E004
:1025B00080939C02109298028093970280938C02E1
:1025C00080938D0280938E0210928A0210928B0269
:1025D00024C08BE60E94002010920702BDCFC1E00C
:1025E000C0938A02C0938B021092880210928902D3
:1025F0008AE60E940020C0939B02C0939A02C09377
:102600009C02C0939602109297020CC08091910296
:1026100090919202069731F4ADCF8091090184FD2B
:102620006DCF82CFCF9108958091910290919202C7
:10263000059739F08091910290919202069709F0E6
:1026400052C08091050290910602089709F04BC094
:1026500094C380918C0281111FC08091090186FF73
:1026600012C085E090E0909392028093910281E005
:1026700080939302109271041092560280939C02F0
:1026800080939A0230C081E08093980210928D026C
:1026900010928E0217DF27C080918B02882309F1E8
:1026A00080918A028823E9F08091090186FF0BC09E
:1026B00086E090E09093920280939102109208023B
:1026C00001DF6FD910C080910802882339F0109281
:1026D0008A0210928B021092870205C0F3DE61D944
:1026E00002C0F0DE5ED980919002811114C0809109
:1026F000910290919202892B09F444C373C078949B
:10270000E8E6F0E0808181608083EBE6F0E08081A4
:102710008061808367C080918F02811138C081E021
:1027200090E0909392028093910210922302E1E252
:10273000F3E080E090E0A0E0B0E4858B968BA78B7F
:10274000B08F118E128E138E148E80E090E0A0EF69
:10275000B1E4858F968FA78FB0A387E090E0909328
:10276000060280930502EBE6F0E080818F7E808395
:102770007894E8E6F0E0808184608083EDE6F0E024
:102780008081806880838EE190E0E1D82BC08091C9
:10279000910290919202019729F580910502909102
:1027A00006020797F9F485E090E0909392028093F7
:1027B000910288E60E94002088E090E09093060253
:1027C00080930502EDE6F0E080818F7780830E94A0
:1027D0002E05E7D810927F0210927E0210927702A7
:1027E0001092760280919C02882309F447C480915C
:1027F0009A02882309F442C480919802882309F43C
:1028000028C380918E02811113C080919102909112
:1028100092020597F1F4E8C27894E8E6F0E080814E
:1028200084608083EDE6F0E080818068808311C061
:1028300080918D0281110DC0809191029091920240
:10284000059739F48091050290910602079709F4E3
:1028500006C380919102909192020297D9F48091DF
:102860000502909106020897A9F415C381E30E941E
:102870000020109299020E94E51F809386028736FD
:1028800049F481E0809395021092980280E280934F
:10289000860205C080919502882309F449C0809181
:1028A0008E02882309F444C080918D02811145C0B5
:1028B000E1E2F3E080E090E0A0E0B0E4858B968B6D
:1028C000A78BB08F118E128E138E148E80E090E045
:1028D000A0EFB1E4858F968FA78FB0A344E650E0B8
:1028E00063E070E08CEB97E09BDC87E090E09093F6
:1028F00006028093050286E792E00E94DE000E94B5
:102900004B219B01772324F422273327261B370BE7
:10291000203B34400CF475C07894E8E6F0E0808108
:1029200084608083EDE6F0E080818068808369C008
:1029300080918D02882309F4D8C28091050290917C
:102940000602079709F0D1C28091910290919202FC
:10295000029709F0CAC2A7C280918C02811144C0BB
:10296000E1E2F3E080E090E0A0E0B0E4858B968BBC
:10297000A78BB08F118E128E138E148E80E090E094
:10298000A0EFB1E4858F968FA78FB0A344E650E007
:1029900062E070E080ED97E00E94FC0A87E090E042
:1029A00090930602809305028EE792E00E94DE007B
:1029B0000E944B219B01772324F422273327261BD7
:1029C000370B2C363740ECF07894E8E6F0E0808165
:1029D00081608083EBE6F0E080818061808311C0BC
:1029E00080918C02882369F0809105029091060203
:1029F000079739F48091910290919202059709F41A
:102A000079C280919702882309F443C080918B0298
:102A1000811143C0E1E2F3E080E090E0A0E0B0E4A7
:102A2000858B968BA78BB08F118E128E138E148E82
:102A300080E090E0A0EFB1E4858F968FA78FB0A3E0
:102A400087E090E0909306028093050244E650E010
:102A500062E070E08EE997E0E3DB86E792E00E94B7
:102A6000DE000E944B219B01772324F42227332789
:102A7000261B370B203B34400CF17894E8E6F0E05D
:102A8000808184608083EDE6F0E0808180688083CF
:102A900015C080918B02882389F080918A02811170
:102AA0000DC08091910290919202069739F4809125
:102AB000050290910602079709F43EC280919102A7
:102AC00090919202039719F5809105029091060268
:102AD0000897E9F44DC282E30E94002010927F0221
:102AE00010927E0210927702109276021092990252
:102AF0000E94E51F80938602873649F481E0809327
:102B000094021092960280E28093860205C0809122
:102B10009402882309F448C080918B02882309F429
:102B200043C080918A02811143C0E1E2F3E080E07A
:102B300090E0A0E0B0E4858B968BA78BB08F118ED0
:102B4000128E138E148E80E090E0A0EFB1E4858F9A
:102B5000968FA78FB0A344E650E063E070E08EE963
:102B600097E05EDB87E090E0909306028093050299
:102B700086E792E00E94DE000E944B219B017723B2
:102B800024F422273327261B370B203B3440ECF05C
:102B90007894E8E6F0E0808184608083EDE6F0E000
:102BA00080818068808311C080918A02882369F0C7
:102BB0008091050290910602079739F48091910265
:102BC00090919202039709F4E1C1809196028823C3
:102BD00009F44CC08091890281114CC0E1E2F3E01C
:102BE00080E090E0A0E0B0E4858B968BA78BB08F5F
:102BF000118E128E138E148E80E090E0A0EFB1E45F
:102C0000858F968FA78FB0A385EB90E097878687F7
:102C100046E950E062E070E080E594E101DB87E0A6
:102C200090E0909306028093050286E792E00E946E
:102C3000DE000E944B219B01772324F422273327B7
:102C4000261B370B203A3F400CF43DC07894E8E651
:102C5000F0E0808184608083EDE6F0E08081806830
:102C6000808389E592E00E94941E2DC080918902A4
:102C7000882349F18091910290919202069709F080
:102C8000F5C18091050290910602079709F0EEC107
:102C9000A1C180910502909106020897A1F4B8C1E4
:102CA000809199028111BBC10E94E51F8093860229
:102CB000873649F481E0809394021092960280E274
:102CC0008093860205C080919402882309F441C054
:102CD000809189028823E9F18091880281113EC0A8
:102CE000E1E2F3E080E090E0A0E0B0E4858B968B39
:102CF000A78BB08F118E128E138E148E80E090E011
:102D0000A0EFB1E4858F968FA78FB0A387E090E006
:102D1000909306028093050286E792E00E94DE000F
:102D20000E944B219B01772324F422273327261B63
:102D3000370B203A3F400CF4A1C17894E8E6F0E06C
:102D4000808184608083EDE6F0E08081806880830C
:102D5000089580918802882309F490C1809105022A
:102D600090910602079709F089C180919102909194
:102D70009202049709F082C157C180918D0281119E
:102D800068CC8ACCE1E2F3E080E090E0A0E0B0E43F
:102D9000858B968BA78BB08F118E128E138E148E0F
:102DA00080E090E0A0EFB1E4858F968FA78FB0A36D
:102DB00087E090E00E94F60C87E090E09093060296
:102DC000809305028EE792E00E94DE000E944B2174
:102DD0009B01772324F422273327261B370B20332C
:102DE00031410CF08CCCFECC87E090E09093060251
:102DF00080930502E1E2F3E080E090E0A0E0B0E43F
:102E0000858B968BA78BB08F118E128E138E148E9E
:102E100080E090E0A0EFB1E4858F968FA78FB0A3FC
:102E200044E650E062E070E08CEB97E0F9D986E789
:102E300092E00E94DE000E944B219B01772324F444
:102E400022273327261B370B203436400CF0E4CCE6
:102E500000CD80918E02882309F4FBCCE9CCEDE60D
:102E6000F0E080818F7780830E942E0582E090E0E1
:102E7000909392028093910210927F0210927E02B0
:102E8000109277021092760288E090E0909306020A
:102E900080930502DECC0E94D10C80919902882398
:102EA00009F4E9CCE3CCEDE6F0E080818F77808314
:102EB00085E090E090939202809391020E942E050B
:102EC00010927F0210927E02109277021092760288
:102ED00088E090E0909306028093050210929C0295
:102EE00010929A02109295028CCD809193028111DA
:102EF00033CD76CD10929302EBE6F0E080818F7EA9
:102F000080830E942E0586E090E090939202809349
:102F1000910288E090E0909306028093050210925F
:102F20007F0210927E021092770210927602109227
:102F30009C0210929A0265CD83E090E090939202F9
:102F400080939102EDE6F0E080818F77808310928C
:102F50007F0210927E02109277021092760288E031
:102F600090E090930602809305020E942E05A6CD64
:102F7000E8EAF3E011821082138212820E94D10CDF
:102F800080919902882309F4B3CDA5CD0E94D10C7C
:102F9000EDE6F0E080818F7780830E942E0510920D
:102FA0007F0210927E02109277021092760286E0E3
:102FB00090E0909392028093910288E090E0909349
:102FC00006028093050210929C0210929A021092BF
:102FD0009402FBCDEDE6F0E080818F7780830E9444
:102FE0002E0510927F0210927E02109277021092AC
:102FF000760288E090E0909306028093050210929A
:10300000960284E090E090939202809391025BCECE
:103010000E94D10C0E94FC05811142CE45CE83E373
:10302000EFD71092990240CEEDE6F0E080818F77E5
:1030300080830E942E0510927F0210927E021092D1
:1030400077021092760286E090E09093920280934D
:10305000910288E090E0909306028093050210921E
:103060009C0210929A02109294020895809191020B
:1030700090919202049709F026CE0BCE08951F92EC
:103080000F920FB60F9211240BB60F922F933F930E
:103090004F935F936F937F938F939F93AF93BF9360
:1030A000EF93FF9380919002811106C081E080939D
:1030B00090028093710422C080918C02811108C01B
:1030C00081E080938C02809371040E942E0516C0CB
:1030D00080918702811112C081E0809387020E9453
:1030E0002E05EBE6F0E080818F7E808310927F02D8
:1030F00010927E021092770210927602FF91EF9169
:10310000BF91AF919F918F917F916F915F914F91FF
:103110003F912F910F900BBE0F900FBE0F901F90FD
:1031200018951F920F920FB60F9211240BB60F92A3
:103130002F933F934F935F936F937F938F939F93BF
:10314000AF93BF93EF93FF9380918F02811106C0DD
:103150000E942E0581E080938F0241C080918E02F3
:10316000811108C081E08093990280938E020E94B1
:103170002E0535C080918D02811106C081E08093BB
:103180008D020E942E052BC080918B02811108C0F8
:1031900081E08093990280938B020E942E051FC0CC
:1031A00080918A02811106C081E080938A020E9488
:1031B0002E0515C080918902811108C081E080939D
:1031C0009902809389020E942E0509C0809188028D
:1031D000811105C081E0809388020E942E05FF9135
:1031E000EF91BF91AF919F918F917F916F915F917F
:1031F0004F913F912F910F900BBE0F900FBE0F90EC
:103200001F901895EAE0F1E080818F7E80838081B5
:103210008F7B8083EBE0F1E080818061808380811F
:103220008064808385988D9881988298899A8A9AFB
:10323000E7E0F1E0808181608083E8E0F1E0808177
:103240008E7F808387E690E041D589E190E015D6B6
:1032500087E690E0A1D60E940F0A7894E5D90E94F3
:103260004208FCCF8AEE93E03DD0E3E6F3E010861F
:10327000118681E0808BE2E4F3E010861186808B7A
:10328000E1E2F3E010861186808BE0E0F3E0108647
:103290001186808BEFEDF2E010861186808BEEEBCD
:1032A000F2E010861186808BEDE9F2E0108611863F
:1032B000808B10927F0210927E028EE792E00E9435
:1032C000CB008EE792E00E94D60010927702109217
:1032D000760286E792E00E94CB0086E792E00C94AB
:1032E000D6000895FC0114AE15AE16AE17AEDC0183
:1032F000A05CBF4F1D921D921D921C9213971496B5
:103300001D921D921D921C921397D4961C92D097D9
:103310001D921D921D921C92139714961D921D9240
:103320001D921C92139714961D921D921D921C9231
:10333000139710AA11AA12AA13AA14AA15AA16AAB8
:1033400017AA10AE11AE12AE13AE94961D921D9236
:103350001D921C92139718974FE35EE16AEF7BE38F
:103360004D935D936D937C931397E059FF4F80E4E9
:103370009AEDAFE7B8E380839183A283B383089586
:103380002FEF82E597E0215080409040E1F700C0A8
:10339000000080EDA9D38BE614D480E012D4CDD305
:1033A00080EDA2D389E10DD489E10BD4C6D380EDA1
:1033B0009BD38AE106D480E004D4BFD380ED94D3BC
:1033C0008BE1FFD380E0FDD3B8D380ED8DD388E3CC
:1033D000F8D381E0F6D3B1D380ED86D38CE1F1D37D
:1033E00080E0EFD3AAC30895CF93C62F80EDAED36C
:1033F0008C2FE7D381ED9FD3CF910895AF92BF92E9
:10340000CF92DF92EF92FF920F931F93CF93DF93B0
:103410008C01EB016BE3CE01E7DFE5D3A82EE3D30C
:10342000B82EE1D3C82EDFD3E82EDDD3D82EE6D3D5
:10343000F82E6B2D70E07A29072E000C880B990B63
:103440005DD7FE01E85BFF4F2081318142815381CE
:10345000ECD5688379838A839B836E2D70E07C2909
:10346000072E000C880B990B49D7FE01E45BFF4F38
:103470002081318142815381D8D56C837D838E83B5
:103480009F836F2D70E07D29072E000C880B990B10
:1034900035D7688779878A879B874FD38CE0FE0171
:1034A000D80101900D928A95E1F7C801DF91CF9183
:1034B0001F910F91FF90EF90DF90CF90BF90AF9052
:1034C0000895AF92BF92CF92DF92EF92FF920F9347
:1034D0001F93CF93DF93CDB7DEB72C970FB6F89439
:1034E000DEBF0FBECDBF5C018B01CE01019686DF32
:1034F000F801E059FF4FC080D180E280F380A7013E
:103500009601F80160817181828193810E949722E6
:10351000F801608F718F828F938FA701960164816C
:103520007581868197810E949722F801648F758F3B
:10353000868F978FA7019601608571858285938517
:10354000F6D7F80160A371A382A393A38CE07896C9
:10355000D50101900D928A95E1F7C5012C960FB621
:10356000F894DEBF0FBECDBFDF91CF911F910F91B9
:10357000FF90EF90DF90CF90BF90AF900895FF92B3
:103580000F931F93CF93DF938C01EB0163E4CE0184
:103590002BDF29D3F82E27D36F2D70E0762F6627E7
:1035A000682B072E000C880B990BA8D66C877D879B
:1035B0008E879F8718D3F82E16D36F2D70E0762F45
:1035C0006627682B072E000C880B990B97D6688B03
:1035D000798B8A8B9B8B07D3F82E10D36F2D70E0DD
:1035E000762F6627682B072E000C880B990B86D642
:1035F0006C8B7D8B8E8B9F8BA0D28CE0FE013C96DA
:10360000D80101900D928A95E1F7C801DF91CF9121
:103610001F910F91FF900895CF92DF92EF92FF924A
:103620001F93CF93DF93EC01162F662309F43BC061
:10363000FC01E858FF4F8081811103C062E3CE0195
:1036400051D0612F70E080E090E058D66B017C0192
:103650009B01AC01FE01EC5AFF4F608171818281B8
:10366000938165D768AB79AB8AAB9BABA701960119
:10367000FE01E85AFF4F608171818281938157D7A3
:103680006CAB7DAB8EAB9FABA7019601FE01E45AFC
:10369000FF4F608171818281938149D768AF79AF93
:1036A0008AAF9BAF0CC018AA19AA1AAA1BAA1CAAF7
:1036B0001DAA1EAA1FAA18AE19AE1AAE1BAECC5870
:1036C000DF4F612F70E080E090E016D66883798349
:1036D0008A839B83DF91CF911F91FF90EF90DF90C2
:1036E000CF9008952F923F924F925F926F927F9268
:1036F0008F929F92AF92BF92CF92DF92EF92FF9202
:103700000F931F93CF93DF93CDB7DEB7A4970FB678
:10371000F894DEBF0FBECDBF1C01062FFC01E85898
:10372000FF4F81E08083662309F487C010E0198E83
:103730001A8E1B8E1C8E1D8A1E8A1F8A188E1D864D
:103740001E861F86188A19A21AA21BA21CA21D8EF1
:103750001E8E1F8E18A2198A1A8A1B8A1C8AB10112
:10376000CE0101960CDFF101448455846684778490
:10377000A301920169897A898B899C8957D4698BC5
:103780007A8B8B8B9C8BF10180889188A288B3887F
:10379000A50194016D8D7E8D8F8D98A147D46D8F7D
:1037A0007E8F8F8F98A3F101C488D588E688F7882B
:1037B000A701960169A17AA18BA19CA137D469A325
:1037C0007AA38BA39CA3A3019201C301B201AFD63C
:1037D0009B01AC016D857E858F85988927D46D8787
:1037E0007E878F87988BA5019401C501B4019FD670
:1037F0009B01AC016D897E898F89988D17D46D8B63
:103800007E8B8F8B988FA7019601C701B6018FD64B
:103810009B01AC01698D7A8D8B8D9C8D07D4698F4E
:103820007A8F8B8F9C8F8FE19EE40197F1F700C018
:1038300000001F5F011393CF18C0198E1A8E1B8EC4
:103840001C8E1D8A1E8A1F8A188E1D861E861F8644
:10385000188A19A21AA21BA21CA21D8E1E8E1F8ED0
:1038600018A2198A1A8A1B8A1C8A602F70E080E0CD
:1038700090E044D54B015C019B01AC0169897A89D8
:103880008B899C89A0D46B017C01F10164AF75AF79
:1038900086AF97AFA50194016D8D7E8D8F8D98A118
:1038A00092D42B013C01F101E05CFF4F60837183F6
:1038B00082839383A501940169A17AA18BA19CA124
:1038C00082D44B015C01F101EC5BFF4F608371839B
:1038D0008283938320E030E048E452E46D857E8566
:1038E0008F85988970D4698B7A8B8B8B9C8B20E029
:1038F00030E048E452E46D857E858F85988963D4F5
:103900006D877E878F87988BA7019601C701B601C7
:103910000ED69B01AC016D857E858F85988985D3F8
:1039200073D6F101EC5AFF4F6083718382839383D6
:1039300020E030E048E452E46D897E898F89988DDB
:1039400042D46B017C01A3019201C301B201EFD506
:103950009B01AC01C701B60168D356D6F101E85A04
:10396000FF4F608371838283938320E030E048E4DB
:1039700052E4698D7A8D8B8D9C8D25D46B017C01F1
:10398000A5019401C501B401D2D59B01AC01C701C9
:10399000B6014BD339D6F101E45AFF4F60837183EE
:1039A000828393837896C080D180E280F38020E088
:1039B00030E0A901C701B601AFD518162CF4C70134
:1039C000B6016ED4C10128DEA4960FB6F894DEBF0E
:1039D0000FBECDBFDF91CF911F910F91FF90EF9060
:1039E000DF90CF90BF90AF909F908F907F906F901F
:1039F0005F904F903F902F900895EF92FF920F931A
:103A00001F93CF93DF93CDB7DEB72C970FB6F89403
:103A1000DEBF0FBECDBF8C01BC01CE010196AFDD74
:103A2000780180E6E80EF11C20E030E043E053E44A
:103A3000F8016485758586859785C5D3F701608310
:103A40007183828393837801F4E6EF0EF11C20E00A
:103A500030E043E053E4F8016089718982899389F9
:103A6000B2D3F70160837183828393837801F8E690
:103A7000EF0EF11C20E030E043E053E4F8016489EC
:103A80007589868997899FD3F701608371838283C3
:103A900093832C960FB6F894DEBF0FBECDBFDF9197
:103AA000CF911F910F91FF90EF900895805A9F4FF3
:103AB000FC01608171818281938108958C599F4FAF
:103AC000FC016081718182819381089588599F4FA3
:103AD000FC01608171818281938108951092B90007
:103AE00088E48093B800089594EA9093BC00ECEBCE
:103AF000F0E090819923ECF79091B900987F98308D
:103B000011F09031A1F48093BB0084E88093BC0055
:103B1000ECEBF0E080818823ECF79091B900987F7E
:103B2000983139F081E0903429F480E0089581E003
:103B3000089580E00895D8CF089584E98093BC006B
:103B4000ECEBF0E0808184FDFDCF0895BF92CF9231
:103B5000DF92EF92FF920F931F93CF93DF93B82ED4
:103B6000CCEBD0E009EB10E00F2EF4EADF2EF02DC5
:103B70000F2EFBEBEF2EF12CF02D0F2EF4E8CF2EB5
:103B8000F02DD88288818823ECF7F8018081887F26
:103B90008830B9F7F701B082C88288818823ECF7B2
:103BA000F8018081887F883111F0C7DFEACFDF918B
:103BB000CF911F910F91FF90EF90DF90CF90BF902A
:103BC00008958093BB0084E88093BC00ECEBF0E0A8
:103BD00080818823ECF79091B900987F81E098323A
:103BE00009F480E0089584EC8093BC00ECEBF0E0F5
:103BF00080818823ECF78091BB00089584E880934E
:103C0000BC00ECEBF0E080818823ECF78091BB00F6
:103C100008951F920F920FB60F9211240BB60F92B8
:103C20002F938F939F93EF93FF938091C0002091E8
:103C3000C6008871E0912205EF5FEF719091210538
:103C4000E91739F0E0932205F0E0EB5DFA4F2083AD
:103C500001C082E080932005FF91EF919F918F91A9
:103C60002F910F900BBE0F900FBE0F901F901895C5
:103C70001F920F920FB60F9211240BB60F928F93D3
:103C80009F93EF93FF9390912405809123059817BC
:103C900069F0E0912305EF5FEF71E0932305F0E019
:103CA000EB5BFA4F80818093C60005C0E1ECF0E049
:103CB00080818F7D8083FF91EF919F918F910F90F5
:103CC0000BBE0F900FBE0F901F90189510922405F9
:103CD000109223051092220510922105992324F4B5
:103CE00022E02093C0009F779093C5008093C4008A
:103CF00088E98093C10086E08093C20008952091F6
:103D000024052F5F2F71909123052917E1F3E22FEE
:103D1000F0E0EB5BFA4F808320932405E1ECF0E0C8
:103D20008081806280830895CF93DF93EC01888146
:103D3000882329F02196E3DF89918111FCCFDF915F
:103D4000CF9108951F920F920FB60F9211240BB6C8
:103D50000F922F938F939F93EF93FF938091C800BF
:103D60002091CE008871E091DD04EF5FEF719091BA
:103D7000DC04E91739F0E093DD04F0E0E052FB4F9A
:103D8000208301C082E08093DB04FF91EF919F913B
:103D90008F912F910F900BBE0F900FBE0F901F9021
:103DA00018951F920F920FB60F9211240BB60F9217
:103DB0008F939F93EF93FF939091DF048091DE04A4
:103DC000981769F0E091DE04EF5FEF71E093DE0495
:103DD000F0E0E050FB4F80818093CE0005C0E9EC1D
:103DE000F0E080818F7D8083FF91EF919F918F9193
:103DF0000F900BBE0F900FBE0F901F9018951F9243
:103E00000F920FB60F9211248F938091D60080935A
:103E100065058F910F900FBE0F901F9018951F9200
:103E20000F920FB60F9211240BB60F928F939F93A0
:103E3000EF93FF939091BA048091B904981769F0B9
:103E4000E091B904EF5FEF71E093B904F0E0E5545D
:103E5000FB4F80818093D60005C0E1EDF0E08081CA
:103E60008F7D8083FF91EF919F918F910F900BBE7B
:103E70000F900FBE0F901F9018951092BA041092D9
:103E8000B9041092B8041092B704992324F422E0E4
:103E90002093D0009F779093D5008093D40088E939
:103EA0008093D10086E08093D200089580916505CB
:103EB00090E008952091BA042F5F2F719091B9047A
:103EC0002917E1F3E22FF0E0E554FB4F80832093C4
:103ED000BA04E1EDF0E080818062808308951F9252
:103EE0000F920FB60F9211240BB60F922F938F9350
:103EF0009F93EF93FF938091300120913601887159
:103F0000E0917404EF5FEF7190917304E91739F059
:103F1000E0937404F0E0E958FB4F208301C082E095
:103F200080937204FF91EF919F918F912F910F9049
:103F30000BBE0F900FBE0F901F9018951F920F92FF
:103F40000FB60F9211240BB60F928F939F93EF939E
:103F5000FF939091760480917504981769F0E09131
:103F60007504EF5FEF71E0937504F0E0E956FB4FE5
:103F700080818093360105C0E1E3F1E080818F7D8F
:103F80008083FF91EF919F918F910F900BBE0F90C7
:103F90000FBE0F901F901895109276041092750422
:103FA0001092740410927304992324F426E0209351
:103FB00030019F77909335018093340188E9809395
:103FC000310186E0809332010895909174048091CC
:103FD0007304981791F0E0917304EF5FEF71E09331
:103FE0007304F0E0E958FB4F20818091720490E067
:103FF000982F8827820F911D089580E091E0089501
:10400000209176042F5F2F71909175042917E1F3A9
:10401000E22FF0E0E956FB4F808320937604E1E342
:10402000F1E080818062808308955058BB27AA27E1
:104030000ED027C2F0D130F0F5D120F031F49F3FFF
:1040400011F41EF4C0C10EF4E095E7FBB6C1E92FF0
:104050003AD280F3BA17620773078407950718F0FE
:1040600071F49EF552C20EF4E0950B2EBA2FA02DDE
:104070000B01B90190010C01CA01A0011124FF2715
:10408000591B99F0593F50F4503E68F11A16F04010
:10409000A22F232F342F4427585FF3CF469537950F
:1040A0002795A795F0405395C9F77EF41F16BA0BD4
:1040B000620B730B840BBAF09150A1F0FF0FBB1F82
:1040C000661F771F881FC2F70EC0BA0F621F731FCB
:1040D000841F48F4879577956795B795F7959E3F28
:1040E00008F0B3CF9395880F08F09927EE0F9795B6
:1040F0008795089590D158F080E891E009F49EEFFB
:1041000091D128F040E851E059F45EEF09C05BC15D
:10411000FCC1E92FE078D7D168F3092E052AC1F355
:10412000261737074807590738F00E2E07F8E025FD
:1041300069F0E025E0640AC0EF6307F8009407FA2D
:10414000DB01B9019D01DC01CA01AD01EF934AD049
:1041500098D10AD05F91552331F02BED3FE049E42F
:1041600050FD49EC63CF0895DF93DD27B92FBF776A
:1041700040E85FE31616170648075B0710F4D92FCF
:10418000CFD19F938F937F936F937CD2E4EEF0E037
:104190001DD177D12F913F914F915F91D4D1DD23E4
:1041A00049F09058A2EA2AED3FE049EC5FE3D0786D
:1041B0005D274DDFDF9165C1DCD008F481E0089513
:1041C00039D1E3956FC10CD05CC12CD140F023D123
:1041D00030F021F45F3F19F0F0C0511197C1F3C0E6
:1041E00072D198F39923C9F35523B1F3951B550B5D
:1041F000BB27AA2762177307840738F09F5F5F4FBA
:10420000220F331F441FAA1FA9F333D00E2E3AF0FA
:10421000E0E830D091505040E695001CCAF729D014
:10422000FE2F27D0660F771F881FBB1F2617370763
:104230004807AB07B0E809F0BB0B802DBF01FF2793
:1042400093585F4F2AF09E3F510568F0B6C05EC19B
:104250005F3FECF3983EDCF3869577956795B795CD
:10426000F7959F5FC9F7880F911D9695879597F9E8
:104270000895E1E0660F771F881FBB1F6217730761
:104280008407BA0720F0621B730B840BBA0BEE1F76
:1042900088F7E095089504D06894B11137C1089566
:1042A0001AD188F09F5790F0B92F9927B751A0F0F5
:1042B000D1F0660F771F881F991F1AF0BA95C9F7BA
:1042C00012C0B13081F021D1B1E008951EC1672F35
:1042D000782F8827B85F39F0B93FCCF3869577956A
:1042E0006795B395D9F73EF4909580957095619553
:1042F0007F4F8F4F9F4F0895E89409C097FB3EF47E
:1043000090958095709561957F4F8F4F9F4F992322
:10431000A9F0F92F96E9BB279395F69587957795A0
:104320006795B795F111F8CFFAF4BB0F11F460FF60
:104330001BC06F5F7F4F8F4F9F4F16C0882311F0B8
:1043400096E911C0772321F09EE8872F762F05C0CC
:10435000662371F096E8862F70E060E02AF09A9567
:10436000660F771F881FDAF7880F9695879597F95C
:104370000895990F0008550FAA0BE0E8FEEF1616F6
:104380001706E807F907C0F012161306E407F50749
:1043900098F0621B730B840B950B39F40A2661F0BD
:1043A000232B242B252B21F408950A2609F4A14060
:1043B000A6958FEF811D811D089597F99F6780E86D
:1043C00070E060E008959FEF80EC0895DF93CF9355
:1043D0001F930F93FF92EF92DF927B018C01689401
:1043E00005C0DA2EEF01AFD0FE01E894A59125912A
:1043F000359145915591AEF3EF0129DEFE0197010C
:10440000A801DA9479F7DF90EF90FF900F911F9158
:10441000CF91DF91089500240A9416161706180606
:104420000906089500240A941216130614060506B8
:104430000895C9CF50D0E8F3E894E0E0BB279F5738
:10444000F0F02AED3FE049EC06C0EE0FBB0F661F0F
:10445000771F881F28F0B23A62077307840728F095
:10446000B25A620B730B840BE3959A9572F78038FE
:1044700030F49A95BB0F661F771F881FD2F79048BC
:1044800006C1092E0394000C11F4882352F0BB0FCF
:1044900040F4BF2B11F460FF04C06F5F7F4F8F4F5C
:1044A0009F4F0895EF93E0FF06C0A2EA2AED3FE098
:1044B00049EC5FEBCCDDE5DF0F90039401FC9058F5
:1044C000E1E1F1E0F7C057FD9058440F551F59F056
:1044D0005F3F71F04795880F97FB991F61F09F3FF1
:1044E00079F087950895121613061406551FF2CF1A
:1044F0004695F1DF08C0161617061806991FF1CF6A
:1045000086957105610508940895E894BB27662790
:104510007727CB0197F908952CDF08F48FEF0895E2
:104520009B01AC0160E070E080E89FE34CCE0BD0D3
:10453000A8CF71DF28F076DF18F0952309F03DCF82
:1045400042CF1124E3CFBFDFA0F3959FD1F3950FA6
:1045500050E0551F629FF001729FBB27F00DB11D07
:10456000639FAA27F00DB11DAA1F649F6627B00D97
:10457000A11D661F829F2227B00DA11D621F739F80
:10458000B00DA11D621F839FA00D611D221F749F8E
:104590003327A00D611D231F849F600D211D822FD5
:1045A000762F6A2F11249F5750408AF0E1F088231C
:1045B0004AF0EE0FFF1FBB1F661F771F881F915029
:1045C0005040A9F79E3F510570F0F7CE9FCF5F3F57
:1045D000ECF3983EDCF3869577956795B795F7955C
:1045E000E7959F5FC1F7FE2B880F911D96958795E4
:1045F00097F908959F931EDF0F9007FCEE5F52CF4F
:1046000011F40EF4E0CE41C066DFD0F39923D9F364
:10461000CEF39F57550B87FF46D00024A0E640EA13
:10462000900180585695979528F4805C660F771F07
:10463000881F20F026173707480730F4621B730BDA
:10464000840B202931294A2BA695179407942025FD
:1046500031254A2758F7660F771F881F20F0261745
:104660003707480730F4620B730B840B200D311DA4
:10467000411DA09581F7B901842F9158880F969517
:10468000879508959B01AC0152CF9F3F31F0915027
:1046900020F4879577956795B795880F911D969526
:1046A000879597F9089591505040660F771F881F9E
:1046B000D2F708959F938F937F936F93FF93EF9318
:1046C0009B01AC0134DFEF91FF9180DE2F913F9190
:1046D0004F915F912CCF97FB072E16F4009406D0D4
:1046E00077FD08D00BD007FC05D03EF4909581955E
:1046F0009F4F0895709561957F4F0895AA1BBB1B2E
:1047000051E107C0AA1FBB1FA617B70710F0A61BD1
:10471000B70B881F991F5A95A9F780959095BC01F2
:10472000CD010895EE0FFF1F881F8BBF0790F691F4
:08473000E02D1994F894FFCF6D
:104738000101010101080001012D230707FFFF0105
:10474800010101FFFF01FFFF01FF0101FF00000060
:1047580000010101000080BF0000803F0000803F91
:10476800000080BF000080BF0000803F0000803F45
:10477800000080BF0000803F0000803F0000803FB5
:104788000000803F0101010101696E746572727554
:104798007074206F6E000A0014001E00280032009A
:0647A8003C004600500039
:00000001FF
