S00E00004D61737465722E73726563AA
S113000098C00000C7C00000C5C00000F5C00000D3
S1130010C1C00000BFC0000016C10000BBC000008A
S1130020B9C000000C94BF15B5C000000C941116A3
S1130030B1C00000AFC00000ADC00000C0C10000EE
S1130040A9C00000A7C00000A5C00000A3C0000014
S1130050A1C000009FC000009DC000001BC10000A3
S113006099C000000C94891B0C94B81B93C0000029
S113007091C000008FC000008DC000008BC0000044
S113008089C0000087C0000085C0000083C0000054
S11300900C94221C0C94511C7DC000007BC00000F9
S11300A079C0000077C0000075C0000073C0000074
S11300B071C000006FC000006DC000006BC0000084
S11300C069C0000067C0000065C000000C947F1C7C
S11300D00C948F1C5FC000000C94EF1C0C941E1D2C
S11300E059C00000084AD73B3BCE016E84BCBFFD1B
S11300F0C12F3D6C74319ABD56833DDA3D00C77FF4
S113010011BED9E4BB4C3E916BAAAABE000000808C
S11301103F05A84CCDB2D44EB93836A9020C50B91B
S1130120918688083CA6AAAA2ABE000000803F0047
S1130130B21611241FBECFEFD1E2DEBFCDBF00E067
S11301400CBF12E0A0E0B2E0E8E3F2E400E00BBF91
S113015002C007900D92A637B107D9F725E0A6E7AC
S1130160B2E001C01D92A736B207E1F710E0C9E979
S1130170D0E000E006C021970109802FFE010E9413
S11301801221C839D10780E00807A9F70E94821616
S11301900C941A2135CF789480E3809369008CE025
S11301A080936A008DB384628DBB0895789485B57D
S11301B0856085BD81E080936E000895CF93DF93C1
S11301C0EC0168817981072E000C880B990B0E9441
S11301D0FE1E2EEF34E346E353E40E94172020E092
S11301E030E048E453E40E94631E6C837D838E8375
S11301F09F83DF91CF9108951F920F920FB60F92B4
S113020011240BB60F928F939F93EF93FF93009B50
S113021008C0EEE7F2E080819181019691838083AA
S113022007C0EEE7F2E0808191810197918380839A
S1130230FF91EF919F918F910F900BBE0F900FBE86
S11302400F901F9018951F920F920FB60F921124C2
S11302500BB60F928F939F93EF93FF93059B08C068
S1130260E6E7F2E08081918101969183808307C063
S1130270E6E7F2E080819181019791838083FF9189
S1130280EF919F918F910F900BBE0F900FBE0F9027
S11302901F9018951F920F920FB60F9211248F93EF
S11302A081E080930202809304028093030280938E
S11302B00102809300028F910F900FBE0F901F9048
S11302C018950E94EE1A8CE30E94F41A80E00E94B2
S11302D0611B80E70E94611B0E941D1B8CE30E942E
S11302E0F41A81E00E94611B80EA0E94611B0E9453
S11302F01D1B8CE30E94F41A82E00E94611B80E0C3
S11303000E94611B0C941D1B08958CE30E94F41A37
S113031083E00E94611B0E941D1B8DE30E941B1B36
S11303200E94731B10927004809371040E94731BCB
S11303302091700430917104282B30937104209320
S113034070040E94731B10926C0480936D040E94CD
S1130350731B20916C0430916D04282B30936D0431
S113036020936C040E94731B10926E0480936F049C
S11303700E947E1B20916E0430916F04282B3093D1
S11303806F0420936E040C941D1B08952FB7F894EA
S1130390609168047091690480916A0490916B047F
S11303A02FBF0895E1EBF0E0808184608083E0E773
S11303B0F0E08081816080831092B20008951F92E2
S11303C00F920FB60F9211248F939F93AF93BF9305
S11303D08091680490916904A0916A04B0916B04BF
S11303E00196A11DB11D8093680490936904A093A4
S11303F06A04B0936B048091640490916504A091A5
S11304006604B09167040396A11DB11D8093640432
S113041090936504A0936604B09367048091640488
S113042090916504A0916604B09167048D3791059D
S1130430A105B10538F18091640490916504A091FF
S11304406604B09167048D579109A109B10980939D
S1130450640490936504A0936604B0936704809148
S1130460680490916904A0916A04B0916B040196A8
S1130470A11DB11D8093680490936904A0936A043C
S1130480B0936B04BF91AF919F918F910F900FBE6A
S11304900F901F90189515DF8BEE93E00E94401784
S11304A062E38BEE93E00E94F2187CDF6FDF6093CF
S11304B0CF037093D0038093D1039093D203089514
S11304C04F925F926F927F928F929F92AF92BF9260
S11304D0CF92DF92EF92FF920F931F93CF93DF930C
S11304E0CDB7DEB764970FB6F894DEBF0FBECDBFAD
S11304F069837A838B839C8329013A01E98AFA8A86
S11305000B8B1C8B0E94601E6D877E878F87988B58
S113051069817A818B819C810E947A2069837A83A4
S11305208B839C83C301B2010E94601E6D837E8312
S11305308F839887C301B2010E947A2069877A87E2
S11305408B879C87A60195016D817E818F8198851B
S11305500E9417202B013C0128A539A54AA55BA5BB
S113056069857A858B859C850E9417209B01AC0147
S1130570C301B2010E94951D2B013C01A601950106
S113058069817A818B819C810E94172029853A8513
S11305904B855C850E9417204B015C01A8019701E3
S11305A06D857E858F8598890E9417209B01AC01FB
S11305B0C501B4010E94951D4B015C0128A539A514
S11305C04AA55BA569817A818B819C810E94172051
S11305D02D813E814F8158850E9417209B01AC01DB
S11305E0C501B4010E94961D9058A30192010E9476
S11305F0091E21EE3EE245E652E40E9417200E94C5
S1130600CB1E9B01772314F428593E4FC9016496ED
S11306100FB6F894DEBF0FBECDBFDF91CF911F910F
S11306200F91FF90EF90DF90CF90BF90AF909F908D
S11306308F907F906F905F904F9008954F925F924C
S11306406F927F92AF92BF92CF92DF92EF92FF921E
S11306500F931F93CF93DF93CDB7DEB728970FB6D1
S1130660F894DEBF0FBECDBF60916E0470916F042D
S1130670072E000C880B990B0E94FE1E5B016C0177
S11306806091700470917104072E000C880B990B13
S11306900E94FE1E69837A838B839C8325E33AEF51
S11306A04EE85CE36091D7037091D8038091D9033D
S11306B09091DA030E9417206D837E838F8398873D
S11306C025E33AEF4EE85CE36091DB037091DC03D1
S11306D08091DD039091DE030E9417202B013C01E1
S11306E060916C0470916D04072E000C880B990BBB
S11306F00E94FE1E9F938F937F936F93E980FA80ED
S11307000B811C812D813E814F815885C301B2012B
S1130710D7DE0F900F900F900F90BC0180E090E017
S11307200E94FC1E2B013C012AE0298360E070E05A
S1130730CB01A30192010E94961D29812150298396
S11307402111F7CF20E030E040E251E40E94631E23
S113075028960FB6F894DEBF0FBECDBFDF91CF91C0
S11307601F910F91FF90EF90DF90CF90BF90AF90CB
S11307707F906F905F904F900895CF92DF92EF92A9
S1130780FF920F931F93CF93DF93CDB7DEB72C97D0
S11307900FB6F894DEBF0FBECDBF6BEE73E0CE0193
S11307A001960E94E1178CE0FE013196A3ECB3E0C0
S11307B001900D928A95E1F78BEE93E00E947D1AE9
S11307C003EC13E0F801C084D184E284F3846081F3
S11307D0718182819381A70196010E94091E21EEF5
S11307E03EE245E652E40E9417206093E7037093CB
S11307F0E8038093E9039093EA03F8016481758127
S113080086819781A70196010E94091E21EE3EE28E
S113081045E652E40E9417206093E3037093E403D7
S11308208093E5039093E60370DDB0DD0091CF0380
S11308301091D0032091D1033091D2036017710736
S11308408207930709F4F0C0A1DD6093CF0370938E
S1130850D0038093D1039093D203809155028823CF
S113086091F18091E7039091E803A091E903B0919D
S1130870EA038093DB039093DC03A093DD03B0933E
S1130880DE038091E3039091E403A091E503B0912A
S1130890E6038093D7039093D803A093D903B0932E
S11308A0DA038091DF039091E003A091E103B0911A
S11308B0E2038093D3039093D403A093D503B0931E
S11308C0D603109255028BEE93E00E94D61A2FE6BF
S11308D032E143E85AE30E9417202091DB03309170
S11308E0DC034091DD035091DE030E94961D2BE74B
S11308F034E14EE65FE30E9417206B017C0129E29C
S11309003CE54FE85DE36091E7037091E803809173
S1130910E9039091EA030E9417209B01AC01C701EF
S1130920B6010E94961D6093DB037093DC038093F1
S1130930DD039093DE038BEE93E00E94DE1A2FE634
S113094032E143E85AE30E9417202091D703309103
S1130950D8034091D9035091DA030E94961D2BE7E6
S113096034E14EE65FE30E9417206B017C0129E22B
S11309703CE54FE85DE36091E3037091E40380910B
S1130980E5039091E6030E9417209B01AC01C70187
S1130990B6010E94961D6093D7037093D803809389
S11309A0D9039093DA034ADE6093DF037093E00384
S11309B08093E1039093E2038BEE93E00E94E61AA6
S11309C02FE632E143E85AE30E9417202091D30333
S11309D03091D4034091D5035091D6030E94961DC3
S11309E02DEC3CEC4CEC5DE30E9417206B017C0188
S11309F026E636E646E65FE36091DF037091E003A6
S1130A008091E1039091E2030E9417209B01AC01C5
S1130A10C701B6010E94961D6093D3037093D4035B
S1130A208093D5039093D6036091D3037091D4033C
S1130A308091D5039091D6030E94D01ECB012C96B1
S1130A400FB6F894DEBF0FBECDBFDF91CF911F91DB
S1130A500F91FF90EF90DF90CF900895E8E0F1E0E0
S1130A60908181E0892780831092A2031092A103D0
S1130A701092A00310929F030895CF93DF938FE702
S1130A800E94DA1CC7EBD3E088810E94DA1C8981BA
S1130A900E94DA1C8A810E94DA1C8B810E94DA1C73
S1130AA0DF91CF9108950E94D61C853691053CF0C4
S1130AB080910A02803569F08A3029F008950A96F7
S1130AC080930A0208958AE080930A0280E090E00D
S1130AD0089580E580930A028AE590E008954F9294
S1130AE05F926F927F92AF92BF92CF92DF92EF921A
S1130AF0FF920F931F93CF93DF930F2EF6E6EF2E03
S1130B00F2E0FF2EF02D04E813E0C0E0D0E0CC24A6
S1130B10C394D12C86B190E00C2E02C09595879594
S1130B200A94E2F780FF10C0F801D182C0822091BC
S1130B309E03C6010C2E02C0880F991F0A94E2F787
S1130B40822B80939E0303C0F80111821082F70167
S1130B50819191917F01F801A190B1908F018A9DBB
S1130B60B0018B9D700D9A9D700D1124072E000C01
S1130B70880B990B0E94FE1E2091980330919903D3
S1130B8040919A0350919B030E94961D2B013C01B6
S1130B90609398037093990380939A0390939B03B3
S1130BA0B501BB0C880B990B0E94FE1E2091940387
S1130BB03091950340919603509197030E94961D9E
S1130BC06093940370939503809396039093970393
S1130BD02196C830D10509F09DCF9B01AC01C3011A
S1130BE0B2010E94631E0E94CB1E862F972F262FD0
S1130BF0372F30939D0320939C03109298031092F7
S1130C00990310929A0310929B03109294031092EA
S1130C1095031092960310929703209109022A30AB
S1130C2051F4892BB1F410929D0310929C038AE035
S1130C308093090210C0203561F4892B51F48AE5B0
S1130C4090E090939D0380939C0380E58093090238
S1130C5002C06093090280919C03DF91CF911F91A0
S1130C600F91FF90EF90DF90CF90BF90AF907F9067
S1130C706F905F904F9008952F923F924F925F92A2
S1130C806F927F928F929F92AF92BF92CF92DF9298
S1130C90EF92FF920F931F93CF93DF9300D000D076
S1130CA0CDB7DEB780910202882309F462C1809136
S1130CB05802882309F461C160DD8C01E1E2F3E0AC
S1130CC09183808386859785801B910B853B910555
S1130CD03CF08856914090932403809323030FC0E3
S1130CE08C342FEF92072CF09093240380932303EA
S1130CF006C088599E4F9093240380932303209029
S1130D00230330902403B101032C000C880B990BAE
S1130D100E94FE1E4B015C0120913A0330913B037B
S1130D2040913C0350913D030E94172020912B03D6
S1130D3030912C0340912D0350912E030E94961D57
S1130D406B017C0160932B0370932C0380932D0320
S1130D5090932E0340913203509133035E834D836D
S1130D60BA01550F880B990B0E94FE1E69837A8382
S1130D708B839C832DEC3CEC4CEC5DE30E941720B0
S1130D802B013C01C701B6010E94CB1E9B017723B6
S1130D9024F422273327261B370BB901330F880B82
S1130DA0990B0E94FE1EA30192010E940C201816AA
S1130DB024F520E030E0A901C701B6010E940C200F
S1130DC018164CF440922B0350922C0360922D037E
S1130DD070922E0312C02DEC3CEC4CEC5DEB69815F
S1130DE07A818B819C810E94172060932B037093DE
S1130DF02C0380932D0390932E03C1010196039736
S1130E0008F041C0C101332024F4882799278219AE
S1130E10930918161906BCF50F2EF1E2EF2EF3E034
S1130E20FF2EF02DF701258936894789508DC5019C
S1130E30B4010E9417204B015C01F7018481958164
S1130E40B801681B790B072E000C880B990B0E94C4
S1130E50FE1EF701258D368D478D50A10E94172067
S1130E609B01AC01C501B4010E94951DF7012285C7
S1130E703385448555850E94961D0E94CB1EF7013B
S1130E80778366834CC0C101992324F4882799276A
S1130E90821993090297DCF10F2EF1E2EF2EF3E0B1
S1130EA0FF2EF02DF701658976898789908D9B0146
S1130EB0AC010E941720A50194010E9417204B0148
S1130EC05C01F70184819581B801681B790B072EB9
S1130ED0000C880B990B0E94FE1EF701258D368DA0
S1130EE0478D50A10E9417209B01AC01C501B4019C
S1130EF00E94951DF70122853385448555850E94FE
S1130F00961D0E94CB1EF7017783668308C0E1E239
S1130F10F3E0128613861486158617821682E1E2A0
S1130F20F3E015830483868197819C01992324F43B
S1130F3022273327281B390B4D815E814217530723
S1130F4074F4481759072CF05195419551095E8363
S1130F504D838D819E8190932803809327038091F4
S1130F602703909128039093AE038093AD031092CE
S1130F70020280915802811104C01092AE031092B3
S1130F80AD0326960FB6F894DEBF0FBECDBFDF913A
S1130F90CF911F910F91FF90EF90DF90CF90BF9072
S1130FA0AF909F908F907F906F905F904F903F9005
S1130FB02F9008952F923F924F925F926F927F925B
S1130FC08F929F92AF92BF92CF92DF92EF92FF9255
S1130FD00F931F93CF93DF9300D01F92CDB7DEB74B
S1130FE080912202882309F457C00F2EFFEACF2EE6
S1130FF0F3E0DF2EF02D0F2EF4E24F2EF2E05F2E01
S1131000F02D0F2EF7EB2F2EF3E03F2EF02D0F2EA9
S1131010FFEA6F2EF3E07F2EF02DDA82C98209EA0F
S113102013E072011B821C82D8016D917D918D01A8
S1131030F70181909190A190B1907F01072E000C4F
S1131040880B990B0E94FE1EA50194010E94172093
S11310504B015C012B813C81B901330F880B990B47
S11310600E94FE1E9B01AC01C501B4010E94961DA5
S11310700E94CB1E7C836B8306151705A9F6A981F4
S1131080BA816D937C93F2E0CF0ED11C2CE0420E1A
S1131090511CC214D30409F6E7EBF3E0AFEAB3E062
S11310A02D913C9147E1429FC001439F900D112433
S11310B029EF30E0B9010E94EB2060836091B10315
S11310C07091B203469FC001479F900D1124B9014E
S11310D00E94EB2061836091B3037091B403469F37
S11310E0C001479F900D1124B9010E94EB20628337
S11310F06091B5037091B603469FC001479F900D60
S11311001124B9010E94EB206383B7DC0F900F9088
S11311100F900F90DF91CF911F910F91FF90EF905F
S1131120DF90CF90BF90AF909F908F907F906F9003
S11311305F904F903F902F9008950F931F93CF93FC
S1131140DF93E1E2F3E088E290E0928B818B148AF2
S1131150138A80E090E0A0EBB0E4858B968BA78B9C
S1131160B08F118E128E138E148E80E090E0AAEF51
S1131170B3E4858F968FA78FB0A3E3E6F3E001EE87
S11311801AE724E13FE3058B168B278B308F4DEC58
S11311905CEC6CE47DE3418F528F638F748F80E04D
S11311A090E0A9EBB3E4858F968FA78FB0A3E2E418
S11311B0F3E0058B168B278B308F418F528F638F13
S11311C0748F858F968FA78FB0A3AEEBB2E08DE2BC
S11311D090E01F969C938E931E97EDE9F2E097871B
S11311E086870AE919E929E93FE355960D931D938A
S11311F02D933C93589759961D921D921D921C92C3
S11312005C9740E050E060E871E45D964D935D9337
S11312106D937C939097058B168B278B308F118E53
S1131220128E138E148E458F568F678F70A3E0E055
S1131230F3E04AE959E969E17EE3458B568B678B14
S1131240708F118E128E138E148E80E090E0A0E8C1
S1131250BFE3858F968FA78FB0A3EFEDF2E0458BA8
S1131260568B678B708F118E128E138E148E858F12
S1131270968FA78FB0A30FD989D86093BF037093BB
S1131280C0038093C1039093C203C1E2D3E07ED82C
S11312900091BF031091C0032091C1033091C20398
S11312A0DC01CB01801B910BA20BB30B843F91405B
S11312B0A105B10548F461DA9093A4038093A303D4
S11312C0188A9F878E87E3CFDF91CF911F910F916B
S11312D008952F923F924F925F926F927F928F92D6
S11312E09F92AF92BF92CF92DF92EF92FF920F93B1
S11312F01F93CF93DF931C018B017A0181E08093CC
S113130022028EE792E00E94DE000E94CB1EAB0117
S1131310772324F444275527461B570BEA0150939F
S1131320A8034093A70330920F0320920E03209149
S11313300102222309F455C11092A00310929F03C5
S1131340509301034093000310920102483E83E04E
S113135058070CF4EAC0241A350A0F2EF0E0CF2EF9
S1131360F3E0DF2EF02DF60133822282B101032C4B
S1131370000C880B990B0E94FE1E2B013C01F60108
S1131380218D328D438D548D0E941720F6012285C4
S11313903385448555850E94961D4B015C01F601F9
S11313A062877387848795878089882319F0D5831A
S11313B0C483108AC501B4010E94CB1E9B0177230C
S11313C024F422273327261B370B2B3031055CF1FD
S11313D020E030E0A901C501B4010E940C201816D8
S11313E06CF480E090E0A0E2B1E480930A0390936F
S11313F00B03A0930C03B0930D0315C020E030E061
S1131400A901C501B4010E945C1E882364F480E034
S113141090E0A0E2B1EC80930A0390930B03A093B5
S11314200C03B0930D0312141304BCF50F2EF0E05B
S1131430CF2EF3E0DF2EF02DF6012589368947897A
S1131440508DC301B2010E941720F6012285338515
S1131450448555850E94961D4B015C01F6018481EB
S11314609581BE01681B790B072E000C880B990B24
S11314700E94FE1EF601258D368D478D50A10E94D7
S113148017209B01AC01C501B4010E94951D0E9467
S1131490CB1EF6017783668304C010920703109273
S11314A00603E0E0F3E0D583C483868197819C0141
S11314B0992324F422273327281B390BE216F30639
S11314C078F4181619062CF4F0920703E092060338
S11314D007C0F194E194F108F0920703E092060347
S11314E0809106039091070343968797A8F480910F
S11314F0A203882339F084E190E09093070380935A
S113150006030AC08091A103882331F08CEE9FEF7B
S11315109093070380930603809106039091070339
S11315209093AA038093A90335C080912302882352
S1131530C9F0BA01550F880B990B0E94FE1E2DECC1
S11315403CEC4CEC5DE30E94172020E030E040E7E7
S113155052E40E94961D0E94CB1E7093AA036093CE
S1131560A90318C0BA01550F880B990B0E94FE1EDF
S11315702AE037ED43E25DE30E94172020E030E0EB
S113158040E752E40E94961D0E94CB1E7093AA036A
S11315906093A9030230110551F481E08093A20302
S11315A01092A10310929F031092A0031AC003305B
S11315B01105B9F4E9EAF3E08081918199231CF4DF
S11315C09195819591099195819591099183808354
S11315D01092A20381E08093A1031092A0031092C1
S11315E09F0380912302882339F086EF9FEF909325
S11315F0AC038093AB0306C084E190E09093AC030A
S11316008093AB0339DBDF91CF911F910F91FF9052
S1131610EF90DF90CF90BF90AF909F908F907F908E
S11316206F905F904F903F902F9008950F931F936A
S11316301092A003799B35C07A9B36C032C0799B47
S11316404FC06AC079996BC07A9929C0799B7FC0D1
S113165080E093C00E94C6016093BB037093BC03F7
S11316608093BD039093BE03109254020E94C6015E
S11316700091BB031091BC032091BD033091BE03C4
S1131680AB01BC01401B510B620B730B81E045366F
S113169051056105710508F070C080E06EC080E0FE
S11316A06CC07A99CCCF38C010922202EFEAF3E0F2
S11316B08EE190E0918380831382128215821482DA
S11316C08CEE9FEF978386831092BB031092BC032A
S11316D01092BD031092BE0381E080935402B4CFF4
S11316E010922202EFEAF3E084E190E09183808398
S11316F0138212821582148282EE9FEF978386836F
S11317001092BB031092BC031092BD031092BE034F
S113171081E08093540298CF7A9994CF95CF81E059
S113172080932202E9EAF3E088ED9FEF91838083BE
S113173013821282158214821092BB031092BC038E
S11317401092BD031092BE03109254027DCF1092EA
S11317502202EFEAF3E08AE090E09183808313822F
S113176012821582148286EF9FEF9783868380917D
S11317705402882309F47ACF6DCF1F910F910895F5
S11317808F929F92AF92BF92CF92DF92EF92FF928D
S11317900F931F93CF93DF938091CE02882341F060
S11317A082D9EEEBF2E090E095838483108AD1C075
S11317B080910402882309F4CCC0809157028823C5
S11317C009F4CBC070D9C82FD0E0D093BF02C09326
S11317D0BE02209709F4BBC080912102882309F43A
S11317E0B6C0EEEBF2E0668577856C1B7D0B7383E8
S11317F062836115710531F4128613861486158689
S1131800D583C483072E000C880B990B0E94FE1EFF
S11318104B015C010EEB12E0F801218D328D438DFA
S1131820548D0E941720F8012285338544855585FF
S11318300E94961D6B017C01F8016287738784877F
S113184095870E94CB1E9B01772324F422273327FC
S1131850261B370B263031055CF120E030E0A9016E
S1131860C701B6010E940C2018166CF480E090E0C9
S1131870A0EAB0E48093C8029093C902A093CA027C
S1131880B093CB0215C020E030E0A901C701B60136
S11318900E945C1E882364F480E090E0A0EAB0EC2F
S11318A08093C8029093C902A093CA02B093CB025A
S11318B00EEB12E0F801258936894789508DC50160
S11318C0B4010E941720F80122853385448555858B
S11318D00E94961D6B017C01F80184819581BE01F3
S11318E0681B790B072E000C880B990B0E94FE1EB7
S11318F0F801258D368D478D50A10E9417209B013C
S1131900AC01C701B6010E94951D0E94CB1E9B012C
S1131910F80177836683D583C483AB01772324F4EA
S113192044275527461B570B4135510584F01216A1
S113193013063CF480E590E09093C5028093C402C2
S113194006C080EB9FEF9093C5028093C40210926F
S1131950030280915702811104C01092C5021092B3
S1131960C402DF91CF911F910F91FF90EF90DF9010
S1131970CF90BF90AF909F908F9008958F929F9239
S1131980AF92BF92CF92DF92EF92FF920F931F9389
S1131990CF93DF938091AD02882339F0A0D8EDE98D
S11319A0F2E090E095838483108A80910402882376
S11319B009F4CEC080915702882309F4CDC08FD892
S11319C0C82FD0E0D0939E02C0939D02209709F4C3
S11319D0BDC080912102882309F4B8C0EDE9F2E08A
S11319E0668577856C1B7D0B738362836115710536
S11319F041F41092A7021092A8021092A902109228
S1131A00AA02072E000C880B990B0E94FE1E4B01A4
S1131A105C010DE912E0F801218D328D438D548D66
S1131A200E941720F80122853385448555850E943C
S1131A30961D6B017C01F801628773878487958703
S1131A400E94CB1E9B01772324F422273327261BD5
S1131A50370B263031055CF120E030E0A901C701E5
S1131A60B6010E940C2018166CF480E090E0A0EA05
S1131A70B0E48093A7029093A802A093A902B09324
S1131A80AA0215C020E030E0A901C701B6010E94F6
S1131A905C1E882364F480E090E0A0EAB0EC8093BC
S1131AA0A7029093A802A093A902B093AA020DE9F9
S1131AB012E0F801258936894789508DC501B401A2
S1131AC00E941720F80122853385448555850E949C
S1131AD0961D6B017C01F80184819581BE01681B10
S1131AE0790B072E000C880B990B0E94FE1EF8013F
S1131AF0258D368D478D50A10E9417209B01AC0186
S1131B00C701B6010E94951D0E94CB1E9B01F801DE
S1131B1077836683D583C483AB01772324F4442776
S1131B205527461B570B4135510584F012161306F1
S1131B303CF480E590E09093A4028093A30206C055
S1131B4080EB9FEF9093A4028093A302109204026F
S1131B5080915702811104C01092A4021092A30232
S1131B60DF91CF911F910F91FF90EF90DF90CF9075
S1131B70BF90AF909F908F90089580910C02811137
S1131B8008C080910B02823071F0833071F4A1E0BF
S1131B9013C0813061F480910B02823051F08330A4
S1131BA051F4A3E009C0A0E007C0A4E005C0A4E08C
S1131BB003C0A2E001C0A4E0B0E0AA0FBB1FAA0FBB
S1131BC0BB1FA35FBD4FEFEAF3E067EB73E04D91FA
S1131BD0208131814203C001439F900D11248193E0
S1131BE09193E617F70799F70895CF93DF93EC01E4
S1131BF010922202C5DDC2DE80910B028230F1F424
S1131C008091C4029091C502EFEAF3E09C012C0F8D
S1131C103D1F318320839E01281B390B338322838C
S1131C208091A3029091A4029E01280F391F35834D
S1131C302483C81BD90BD783C6831CC08091C402DC
S1131C409091C502EFEAF3E09E01281B390B318322
S1131C5020838C0F9D1F938382838091A302909194
S1131C60A4029E01281B390B35832483C80FD91F76
S1131C70D783C68382DFDF91CF9108952F923F925D
S1131C804F925F926F927F928F929F92AF92BF9288
S1131C90CF92DF92EF92FF920F931F93CF93DF9334
S1131CA01C018B017A0186E792E00E94DE000E940B
S1131CB0CB1E9B01772324F422273327261B370BC3
S1131CC0E9013093A6032093A5033092EE022092FB
S1131CD0ED0280910002882309F40AC110920002E7
S1131CE0283582E038070CF4ADC00F2EFFEDCF2E5F
S1131CF0F2E0DF2EF02DF60131832083221A330A1D
S1131D0033822282B101032C000C880B990B0E94B0
S1131D10FE1E2B013C01F601218D328D438D548D25
S1131D200E941720F60122853385448555850E943B
S1131D30961D4B015C01F601628773878487958742
S1131D408089882319F0D583C483108AC501B4011E
S1131D500E94CB1E9B01772324F422273327261BC2
S1131D60370B2B3031055CF120E030E0A901C501CF
S1131D70B4010E940C2018166CF480E090E0A0E2FC
S1131D80B1E48093E9029093EA02A093EB02B0934A
S1131D90EC0215C020E030E0A901C501B4010E94A5
S1131DA05C1E882364F480E090E0A0E2B1EC8093B0
S1131DB0E9029093EA02A093EB02B093EC021214AE
S1131DC01304BCF50F2EFFEDCF2EF2E0DF2EF02D25
S1131DD0F601258936894789508DC301B2010E94D5
S1131DE01720F60122853385448555850E94961D6A
S1131DF04B015C01F60184819581BE01681B790B5E
S1131E00072E000C880B990B0E94FE1EF601258DEF
S1131E10368D478D50A10E9417209B01AC01C5014E
S1131E20B4010E94951D0E94CB1EF6017783668340
S1131E3004C01092E6021092E502D093E402C0932B
S1131E40E30218C0B901330F880B990B0E94FE1EE0
S1131E502AE939E949E15EE30E94172020E030E0F5
S1131E6040E752E40E94961D0E94CB1E7093E60246
S1131E706093E5028091E5029091E60299231CF4B7
S1131E809195819591098E159F0520F0F092E602B7
S1131E90E092E5028091E5029091E60243968797ED
S1131EA030F484E190E09093E6028093E50281E0CF
S1131EB080930C020230110561F48093A003109208
S1131EC09F031092A2031092A10382E080930B025D
S1131ED00FC00330110561F481E080939F031092D9
S1131EE0A0031092A2031092A10383E080930B023B
S1131EF08091E5029091E60278DEDF91CF911F9107
S1131F000F91FF90EF90DF90CF90BF90AF909F9094
S1131F108F907F906F905F904F903F902F90089597
S1131F200F931F93CF93DF93EB018A0186E792E02F
S1131F300E94DE000E94CB1EAB01772324F44427C9
S1131F405527461B570B9A015093A6034093A503AC
S1131F5081E080930C02C230D10561F48093A00328
S1131F6010929F031092A2031092A10382E0809327
S1131F700B020EC0239761F481E080939F031092BB
S1131F80A0031092A2031092A10383E080930B029A
S1131F90253F314024F084E190E027DE02C0C801EF
S1131FA024DEDF91CF911F910F91089581E08093FA
S1131FB00C0283E080930B0280E090E016CE08953B
S1131FC0CF9380919C028111A6C08091090184FD68
S1131FD064C08091910290919202059709F05DC0CE
S1131FE04FC080919102909192020697F9F48091EA
S1131FF00802811157C01AC08091910290919202F7
S1132000059731F08091910290919202069731F4F4
S113201081E080939A0287E70E94801D80919C0250
S1132020882321F080919B0281117AC0809107025C
S1132030882381F08091090184FD0CC07D990AC038
S113204080910802811106C08091910290919202C0
S11320500697E9F17D9B58C080919102909192027C
S1132060069709F051C08091080281114DC035C016
S113207010929B0281E0809397021092960250C0C6
S11320808FE60E94801D81E080939C0280939802D9
S113209010928D0210928E023EC08091090184FF3D
S11320A0A0CFC4CF8FE60E94801D81E080939C0264
S11320B0109298028093970280938C0280938D02F1
S11320C080938E0210928A0210928B0224C08BE6B7
S11320D00E94801D10920702BDCFC1E0C0938A0206
S11320E0C0938B0210928802109289028AE60E94A1
S11320F0801DC0939B02C0939A02C0939C02C0931C
S11321009602109297020CC08091910290919202D3
S1132110069731F4ADCF8091090184FD6DCF82CF54
S1132120CF9108958091910290919202059739F090
S11321308091910290919202069709F052C0809189
S1132140050290910602089709F04BC096C380914E
S11321508C0281111FC08091090186FF12C085E0A5
S113216090E0909392028093910281E08093930295
S1132170109272041092560280939C0280939A02E9
S113218030C081E08093980210928D0210928E02EA
S113219017DF27C080918B02882309F180918A027E
S11321A08823E9F08091090186FF0BC086E090E066
S11321B090939202809391021092080201DFF6DE5E
S11321C010C080910802882339F010928A0210927C
S11321D08B021092870205C0F3DEE8DE02C0F0DE57
S11321E0E5DE80919002811114C08091910290915A
S11321F09202892B09F446C375C07894E8E6F0E0AE
S1132200808181608083EBE6F0E08081806180835F
S113221069C080918F0281113AC081E090E090936F
S1132220920280939102E1E2F3E080E090E0A0E08A
S1132230B0E4858B968BA78BB08F118E128E138E84
S1132240148E80E090E0A0EFB1E4858F968FA78F85
S1132250B0A387E090E09093060280930502EBE63A
S1132260F0E080818F7E80837894E8E6F0E08081DE
S113227084608083EDE6F0E080818068808348E2BA
S113228050E062E070E088EE93E04ADE2BC080917B
S1132290910290919202019729F580910502909103
S11322A006020797F9F485E090E0909392028093F8
S11322B0910288E60E94801D88E090E090930602D7
S11322C080930502EDE6F0E080818F7780830E94A1
S11322D02E056CDE10927F0210927E02109277021D
S11322E01092760280919C02882309F447C480915D
S11322F09A02882309F442C480919802882309F43D
S11323002CC380918E02811113C08091910290910F
S113231092020597F1F4ECC27894E8E6F0E080814B
S113232084608083EDE6F0E080818068808311C062
S113233080918D0281110DC0809191029091920241
S1132340059739F48091050290910602079709F4E4
S11323500AC380919102909192020297D9F48091DC
S11323600502909106020897A9F419C381E30E941B
S1132370801D109299020E94651D80938602873603
S113238049F481E0809395021092980280E2809350
S1132390860205C080919502882309F449C0809182
S11323A08E02882309F444C080918D02811145C0B6
S11323B0E1E2F3E080E090E0A0E0B0E4858B968B6E
S11323C0A78BB08F118E128E138E148E80E090E046
S11323D0A0EFB1E4858F968FA78FB0A344E650E0B9
S11323E063E070E08CEB97E049DC87E090E0909349
S11323F006028093050286E792E00E94DE000E94B6
S1132400CB1E9B01772324F422273327261B370B6B
S1132410203B34400CF475C07894E8E6F0E0808109
S113242084608083EDE6F0E080818068808369C009
S113243080918D02882309F4DBC28091050290917A
S11324400602079709F0D4C28091910290919202FA
S1132450029709F0CDC2AAC280918C02811144C0B6
S1132460E1E2F3E080E090E0A0E0B0E4858B968BBD
S1132470A78BB08F118E128E138E148E80E090E095
S1132480A0EFB1E4858F968FA78FB0A344E650E008
S113249062E070E080ED97E00E94690987E090E0D7
S11324A090930602809305028EE792E00E94DE007C
S11324B00E94CB1E9B01772324F422273327261B5B
S11324C0370B2C363740ECF07894E8E6F0E0808166
S11324D081608083EBE6F0E080818061808311C0BD
S11324E080918C02882369F0809105029091060204
S11324F0079739F48091910290919202059709F41B
S11325007CC280919702882309F443C080918B0296
S1132510811143C0E1E2F3E080E090E0A0E0B0E4A8
S1132520858B968BA78BB08F118E128E138E148E83
S113253080E090E0A0EFB1E4858F968FA78FB0A3E1
S113254087E090E0909306028093050244E650E011
S113255062E070E08EE997E091DB86E792E00E940A
S1132560DE000E94CB1E9B01772324F4222733270D
S1132570261B370B203B34400CF17894E8E6F0E05E
S1132580808184608083EDE6F0E0808180688083D0
S113259015C080918B02882389F080918A02811171
S11325A00DC08091910290919202069739F4809126
S11325B0050290910602079709F441C280919102A5
S11325C090919202039719F5809105029091060269
S11325D00897E9F450C282E30E94801D10927F02A2
S11325E010927E0210927702109276021092990253
S11325F00E94651D80938602873649F481E08093AA
S113260094021092960280E28093860205C0809123
S11326109402882309F448C080918B02882309F42A
S113262043C080918A02811143C0E1E2F3E080E07B
S113263090E0A0E0B0E4858B968BA78BB08F118ED1
S1132640128E138E148E80E090E0A0EFB1E4858F9B
S1132650968FA78FB0A344E650E063E070E08EE964
S113266097E00CDB87E090E09093060280930502EC
S113267086E792E00E94DE000E94CB1E9B01772336
S113268024F422273327261B370B203B3440ECF05D
S11326907894E8E6F0E0808184608083EDE6F0E001
S11326A080818068808311C080918A02882369F0C8
S11326B08091050290910602079739F48091910266
S11326C090919202039709F4E3C1809196028823C2
S11326D009F44CC08091890281114CC0E1E2F3E01D
S11326E080E090E0A0E0B0E4858B968BA78BB08F60
S11326F0118E128E138E148E80E090E0A0EFB1E460
S1132700858F968FA78FB0A385EB90E097878687F8
S113271046E950E062E070E080E594E1AFDA87E0FA
S113272090E0909306028093050286E792E00E946F
S1132730DE000E94CB1E9B01772324F4222733273B
S1132740261B370B203A3F400CF43DC07894E8E652
S1132750F0E0808184608083EDE6F0E08081806831
S1132760808389E592E00E94141C2DC08091890227
S1132770882349F18091910290919202069709F081
S1132780F5C18091050290910602079709F0EEC108
S1132790A2C180910502909106020897A1F4B9C1E3
S11327A0809199028111BBC10E94651D80938602AC
S11327B0873649F481E0809394021092960280E275
S11327C08093860205C080919402882309F441C055
S11327D0809189028823E9F18091880281113EC0A9
S11327E0E1E2F3E080E090E0A0E0B0E4858B968B3A
S11327F0A78BB08F118E128E138E148E80E090E012
S1132800A0EFB1E4858F968FA78FB0A387E090E007
S1132810909306028093050286E792E00E94DE0010
S11328200E94CB1E9B01772324F422273327261BE7
S1132830370B203A3F400CF4A1C17894E8E6F0E06D
S1132840808184608083EDE6F0E08081806880830D
S1132850089580918802882309F490C1809105022B
S113286090910602079709F089C180919102909195
S11328709202049709F082C157C180918D0281119F
S113288066CC88CCE1E2F3E080E090E0A0E0B0E444
S1132890858B968BA78BB08F118E128E138E148E10
S11328A080E090E0A0EFB1E4858F968FA78FB0A36E
S11328B048EC50E062E070E088EF91E10E94690921
S11328C087E090E090930602809305028EE792E001
S11328D00E94DE000E94CB1E9B01772324F4222752
S11328E03327261B370B203331410CF086CCFACC2E
S11328F087E090E09093060280930502E1E2F3E022
S113290080E090E0A0E0B0E4858B968BA78BB08F3D
S1132910118E128E138E148E80E090E0A0EFB1E43D
S1132920858F968FA78FB0A344E650E062E070E0F5
S11329308CEB97E0A3D986E792E00E94DE000E9428
S1132940CB1E9B01772324F422273327261B370B26
S1132950203436400CF0E0CCFCCC80918E028823ED
S113296009F4F7CCE5CCEDE6F0E080818F77808345
S11329700E942E0582E090E090939202809391024F
S113298010927F0210927E021092770210927602C9
S113299088E090E09093060280930502DACC06DB8F
S11329A080919902882309F4E6CCE0CCEDE6F0E0CE
S11329B080818F77808385E090E09093920280936A
S11329C091020E942E0510927F0210927E021092B4
S11329D077021092760288E090E09093060280934A
S11329E0050210929C0210929A021092950289CDCF
S11329F080919302811130CD73CD10929302EBE656
S1132A00F0E080818F7E80830E942E0586E090E036
S1132A10909392028093910288E090E09093060252
S1132A208093050210927F0210927E021092770228
S1132A301092760210929C0210929A0262CD83E068
S1132A4090E09093920280939102EDE6F0E0808111
S1132A508F77808310927F0210927E021092770209
S1132A601092760288E090E090930602809305022B
S1132A700E942E05A3CDE9EAF3E0118210821382AD
S1132A80128294DA80919902882309F4B1CDA3CDFE
S1132A908DDAEDE6F0E080818F7780830E942E0549
S1132AA010927F0210927E021092770210927602A8
S1132AB086E090E0909392028093910288E090E007
S1132AC0909306028093050210929C0210929A023F
S1132AD010929402FACDEDE6F0E080818F77808346
S1132AE00E942E0510927F0210927E0210927702AD
S1132AF01092760288E090E090930602809305029B
S1132B001092960284E090E0909392028093910256
S1132B105ACE4CDA0E94160B811142CE45CE83E385
S1132B20EFD71092990240CEEDE6F0E080818F77E6
S1132B3080830E942E0510927F0210927E021092D2
S1132B4077021092760286E090E09093920280934E
S1132B50910288E090E0909306028093050210921F
S1132B609C0210929A02109294020895809191020C
S1132B7090919202049709F026CE0BCE08951F92ED
S1132B800F920FB60F9211240BB60F922F933F930F
S1132B904F935F936F937F938F939F93AF93BF9361
S1132BA0EF93FF9380919002811106C081E080939E
S1132BB090028093720422C080918C02811108C01B
S1132BC081E080938C02809372040E942E0516C0CB
S1132BD080918702811112C081E0809387020E9454
S1132BE02E05EBE6F0E080818F7E808310927F02D9
S1132BF010927E021092770210927602FF91EF916A
S1132C00BF91AF919F918F917F916F915F914F9100
S1132C103F912F910F900BBE0F900FBE0F901F90FE
S1132C2018951F920F920FB60F9211240BB60F92A4
S1132C302F933F934F935F936F937F938F939F93C0
S1132C40AF93BF93EF93FF9380918F02811106C0DE
S1132C500E942E0581E080938F0241C080918E02F4
S1132C60811108C081E08093990280938E020E94B2
S1132C702E0535C080918D02811106C081E08093BC
S1132C808D020E942E052BC080918B02811108C0F9
S1132C9081E08093990280938B020E942E051FC0CD
S1132CA080918A02811106C081E080938A020E9489
S1132CB02E0515C080918902811108C081E080939E
S1132CC09902809389020E942E0509C0809188028E
S1132CD0811105C081E0809388020E942E05FF9136
S1132CE0EF91BF91AF919F918F917F916F915F9180
S1132CF04F913F912F910F900BBE0F900FBE0F90ED
S1132D001F901895EAE0F1E080818F7E80838081B6
S1132D108F7B8083EBE0F1E0808180618083808120
S1132D208064808385988D9881988298899A8A9AFC
S1132D30E7E0F1E0808181608083E8E0F1E0808178
S1132D408E7F808387E690E041D589E190E015D6B7
S1132D5089E190E0A1D60E949D087894E3D90E946D
S1132D60DA07FCCF8BEE93E03DD0E3E6F3E0108688
S1132D70118681E0808BE2E4F3E010861186808B7B
S1132D80E1E2F3E010861186808BE0E0F3E0108648
S1132D901186808BEFEDF2E010861186808BEEEBCE
S1132DA0F2E010861186808BEDE9F2E01086118640
S1132DB0808B10927F0210927E028EE792E00E9436
S1132DC0CB008EE792E00E94D60010927702109218
S1132DD0760286E792E00E94CB0086E792E00C94AC
S1132DE0D6000895FC0114AE15AE16AE17AEDC0184
S1132DF0A05CBF4F1D921D921D921C9213971496B6
S1132E001D921D921D921C921397D4961C92D097DA
S1132E101D921D921D921C92139714961D921D9241
S1132E201D921C92139714961D921D921D921C9232
S1132E30139710AA11AA12AA13AA14AA15AA16AAB9
S1132E4017AA10AE11AE12AE13AE94961D921D9237
S1132E501D921C92139718974FE35EE16AEF7BE390
S1132E604D935D936D937C931397E059FF4F80E4EA
S1132E709AEDAFE7B8E380839183A283B383089587
S1132E802FEF82E597E0215080409040E1F700C0A9
S1132E90000080EDA9D38BE614D480E012D4CDD306
S1132EA080EDA2D389E10DD489E10BD4C6D380EDA2
S1132EB09BD38AE106D480E004D4BFD380ED94D3BD
S1132EC08BE1FFD380E0FDD3B8D380ED8DD388E3CD
S1132ED0F8D381E0F6D3B1D380ED86D38CE1F1D37E
S1132EE080E0EFD3AAC30895CF93C62F80EDAED36D
S1132EF08C2FE7D381ED9FD3CF910895AF92BF92EA
S1132F00CF92DF92EF92FF920F931F93CF93DF93B1
S1132F108C01EB016BE3CE01E7DFE5D3A82EE3D30D
S1132F20B82EE1D3C82EDFD3E82EDDD3D82EE6D3D6
S1132F30F82E6B2D70E07A29072E000C880B990B64
S1132F405DD7FE01E85BFF4F2081318142815381CF
S1132F50ECD5688379838A839B836E2D70E07C290A
S1132F60072E000C880B990B49D7FE01E45BFF4F39
S1132F702081318142815381D8D56C837D838E83B6
S1132F809F836F2D70E07D29072E000C880B990B11
S1132F9035D7688779878A879B874FD38CE0FE0172
S1132FA0D80101900D928A95E1F7C801DF91CF9184
S1132FB01F910F91FF90EF90DF90CF90BF90AF9053
S1132FC00895AF92BF92CF92DF92EF92FF920F9348
S1132FD01F93CF93DF93CDB7DEB72C970FB6F8943A
S1132FE0DEBF0FBECDBF5C018B01CE01019686DF33
S1132FF0F801E059FF4FC080D180E280F380A7013F
S11330009601F80160817181828193810E94172069
S1133010F801608F718F828F938FA701960164816D
S11330207581868197810E941720F801648F758FBE
S1133030868F978FA7019601608571858285938518
S1133040F6D7F80160A371A382A393A38CE07896CA
S1133050D50101900D928A95E1F7C5012C960FB622
S1133060F894DEBF0FBECDBFDF91CF911F910F91BA
S1133070FF90EF90DF90CF90BF90AF900895FF92B4
S11330800F931F93CF93DF938C01EB0163E4CE0185
S11330902BDF29D3F82E27D36F2D70E0762F6627E8
S11330A0682B072E000C880B990BA8D66C877D879C
S11330B08E879F8718D3F82E16D36F2D70E0762F46
S11330C06627682B072E000C880B990B97D6688B04
S11330D0798B8A8B9B8B07D3F82E10D36F2D70E0DE
S11330E0762F6627682B072E000C880B990B86D643
S11330F06C8B7D8B8E8B9F8BA0D28CE0FE013C96DB
S1133100D80101900D928A95E1F7C801DF91CF9122
S11331101F910F91FF900895CF92DF92EF92FF924B
S11331201F93CF93DF93EC01162F662309F43BC062
S1133130FC01E858FF4F8081811103C062E3CE0196
S113314051D0612F70E080E090E058D66B017C0193
S11331509B01AC01FE01EC5AFF4F608171818281B9
S1133160938165D768AB79AB8AAB9BABA70196011A
S1133170FE01E85AFF4F608171818281938157D7A4
S11331806CAB7DAB8EAB9FABA7019601FE01E45AFD
S1133190FF4F608171818281938149D768AF79AF94
S11331A08AAF9BAF0CC018AA19AA1AAA1BAA1CAAF8
S11331B01DAA1EAA1FAA18AE19AE1AAE1BAECC5871
S11331C0DF4F612F70E080E090E016D6688379834A
S11331D08A839B83DF91CF911F91FF90EF90DF90C3
S11331E0CF9008952F923F924F925F926F927F9269
S11331F08F929F92AF92BF92CF92DF92EF92FF9203
S11332000F931F93CF93DF93CDB7DEB7A4970FB679
S1133210F894DEBF0FBECDBF1C01062FFC01E85899
S1133220FF4F81E08083662309F487C010E0198E84
S11332301A8E1B8E1C8E1D8A1E8A1F8A188E1D864E
S11332401E861F86188A19A21AA21BA21CA21D8EF2
S11332501E8E1F8E18A2198A1A8A1B8A1C8AB10113
S1133260CE0101960CDFF101448455846684778491
S1133270A301920169897A898B899C8957D4698BC6
S11332807A8B8B8B9C8BF10180889188A288B38880
S1133290A50194016D8D7E8D8F8D98A147D46D8F7E
S11332A07E8F8F8F98A3F101C488D588E688F7882C
S11332B0A701960169A17AA18BA19CA137D469A326
S11332C07AA38BA39CA3A3019201C301B201AFD63D
S11332D09B01AC016D857E858F85988927D46D8788
S11332E07E878F87988BA5019401C501B4019FD671
S11332F09B01AC016D897E898F89988D17D46D8B64
S11333007E8B8F8B988FA7019601C701B6018FD64C
S11333109B01AC01698D7A8D8B8D9C8D07D4698F4F
S11333207A8F8B8F9C8F8FE19EE40197F1F700C019
S113333000001F5F011393CF18C0198E1A8E1B8EC5
S11333401C8E1D8A1E8A1F8A188E1D861E861F8645
S1133350188A19A21AA21BA21CA21D8E1E8E1F8ED1
S113336018A2198A1A8A1B8A1C8A602F70E080E0CE
S113337090E044D54B015C019B01AC0169897A89D9
S11333808B899C89A0D46B017C01F10164AF75AF7A
S113339086AF97AFA50194016D8D7E8D8F8D98A119
S11333A092D42B013C01F101E05CFF4F60837183F7
S11333B082839383A501940169A17AA18BA19CA125
S11333C082D44B015C01F101EC5BFF4F608371839C
S11333D08283938320E030E048E452E46D857E8567
S11333E08F85988970D4698B7A8B8B8B9C8B20E02A
S11333F030E048E452E46D857E858F85988963D4F6
S11334006D877E878F87988BA7019601C701B601C8
S11334100ED69B01AC016D857E858F85988985D3F9
S113342073D6F101EC5AFF4F6083718382839383D7
S113343020E030E048E452E46D897E898F89988DDC
S113344042D46B017C01A3019201C301B201EFD507
S11334509B01AC01C701B60168D356D6F101E85A05
S1133460FF4F608371838283938320E030E048E4DC
S113347052E4698D7A8D8B8D9C8D25D46B017C01F2
S1133480A5019401C501B401D2D59B01AC01C701CA
S1133490B6014BD339D6F101E45AFF4F60837183EF
S11334A0828393837896C080D180E280F38020E089
S11334B030E0A901C701B601AFD518162CF4C70135
S11334C0B6016ED4C10128DEA4960FB6F894DEBF0F
S11334D00FBECDBFDF91CF911F910F91FF90EF9061
S11334E0DF90CF90BF90AF909F908F907F906F9020
S11334F05F904F903F902F900895EF92FF920F931B
S11335001F93CF93DF93CDB7DEB72C970FB6F89404
S1133510DEBF0FBECDBF8C01BC01CE010196AFDD75
S1133520780180E6E80EF11C20E030E043E053E44B
S1133530F8016485758586859785C5D3F701608311
S11335407183828393837801F4E6EF0EF11C20E00B
S113355030E043E053E4F8016089718982899389FA
S1133560B2D3F70160837183828393837801F8E691
S1133570EF0EF11C20E030E043E053E4F8016489ED
S11335807589868997899FD3F701608371838283C4
S113359093832C960FB6F894DEBF0FBECDBFDF9198
S11335A0CF911F910F91FF90EF900895805A9F4FF4
S11335B0FC01608171818281938108958C599F4FB0
S11335C0FC016081718182819381089588599F4FA4
S11335D0FC01608171818281938108951092B90008
S11335E088E48093B800089594EA9093BC00ECEBCF
S11335F0F0E090819923ECF79091B900987F98308E
S113360011F09031A1F48093BB0084E88093BC0056
S1133610ECEBF0E080818823ECF79091B900987F7F
S1133620983139F081E0903429F480E0089581E004
S1133630089580E00895D8CF089584E98093BC006C
S1133640ECEBF0E0808184FDFDCF0895BF92CF9232
S1133650DF92EF92FF920F931F93CF93DF93B82ED5
S1133660CCEBD0E009EB10E00F2EF4EADF2EF02DC6
S11336700F2EFBEBEF2EF12CF02D0F2EF4E8CF2EB6
S1133680F02DD88288818823ECF7F8018081887F27
S11336908830B9F7F701B082C88288818823ECF7B3
S11336A0F8018081887F883111F0C7DFEACFDF918C
S11336B0CF911F910F91FF90EF90DF90CF90BF902B
S11336C008958093BB0084E88093BC00ECEBF0E0A9
S11336D080818823ECF79091B900987F81E098323B
S11336E009F480E0089584EC8093BC00ECEBF0E0F6
S11336F080818823ECF78091BB00089584E880934F
S1133700BC00ECEBF0E080818823ECF78091BB00F7
S113371008951F920F920FB60F9211240BB60F92B9
S11337202F938F939F93EF93FF938091C0002091E9
S1133730C6008871E0912305EF5FEF719091220537
S1133740E91739F0E0932305F0E0EA5DFA4F2083AE
S113375001C082E080932105FF91EF919F918F91A9
S11337602F910F900BBE0F900FBE0F901F901895C6
S11337701F920F920FB60F9211240BB60F928F93D4
S11337809F93EF93FF9390912505809124059817BB
S113379069F0E0912405EF5FEF71E0932405F0E018
S11337A0EA5BFA4F80818093C60005C0E1ECF0E04B
S11337B080818F7D8083FF91EF919F918F910F90F6
S11337C00BBE0F900FBE0F901F90189510922505F9
S11337D0109224051092230510922205992324F4B3
S11337E022E02093C0009F779093C5008093C4008B
S11337F088E98093C10086E08093C20008952091F7
S113380025052F5F2F71909124052917E1F3E22FED
S1133810F0E0EA5BFA4F808320932505E1ECF0E0C9
S11338208081806280830895CF93DF93EC01888147
S1133830882329F02196E3DF89918111FCCFDF9160
S1133840CF9108951F920F920FB60F9211240BB6C9
S11338500F922F938F939F93EF93FF938091C800C0
S11338602091CE008871E091DE04EF5FEF719091BA
S1133870DD04E91739F0E093DE04F0E0EF51FB4F8B
S1133880208301C082E08093DC04FF91EF919F913B
S11338908F912F910F900BBE0F900FBE0F901F9022
S11338A018951F920F920FB60F9211240BB60F9218
S11338B08F939F93EF93FF939091E0048091DF04A3
S11338C0981769F0E091DF04EF5FEF71E093DF0494
S11338D0F0E0EF5FFA4F80818093CE0005C0E9EC01
S11338E0F0E080818F7D8083FF91EF919F918F9194
S11338F00F900BBE0F900FBE0F901F9018951F9244
S11339000F920FB60F9211248F938091D60080935B
S113391066058F910F900FBE0F901F9018951F9200
S11339200F920FB60F9211240BB60F928F939F93A1
S1133930EF93FF939091BB048091BA04981769F0B8
S1133940E091BA04EF5FEF71E093BA04F0E0E4545D
S1133950FB4F80818093D60005C0E1EDF0E08081CB
S11339608F7D8083FF91EF919F918F910F900BBE7C
S11339700F900FBE0F901F9018951092BB041092D9
S1133980BA041092B9041092B804992324F422E0E2
S11339902093D0009F779093D5008093D40088E93A
S11339A08093D10086E08093D200089580916605CB
S11339B090E008952091BB042F5F2F719091BA0479
S11339C02917E1F3E22FF0E0E454FB4F80832093C6
S11339D0BB04E1EDF0E080818062808308951F9252
S11339E00F920FB60F9211240BB60F922F938F9351
S11339F09F93EF93FF93809130012091360188715A
S1133A00E0917504EF5FEF7190917404E91739F058
S1133A10E0937504F0E0E858FB4F208301C082E096
S1133A2080937304FF91EF919F918F912F910F9049
S1133A300BBE0F900FBE0F901F9018951F920F9200
S1133A400FB60F9211240BB60F928F939F93EF939F
S1133A50FF939091770480917604981769F0E09130
S1133A607604EF5FEF71E0937604F0E0E856FB4FE5
S1133A7080818093360105C0E1E3F1E080818F7D90
S1133A808083FF91EF919F918F910F900BBE0F90C8
S1133A900FBE0F901F901895109277041092760421
S1133AA01092750410927404992324F426E0209350
S1133AB030019F77909335018093340188E9809396
S1133AC0310186E0809332010895909175048091CC
S1133AD07404981791F0E0917404EF5FEF71E09330
S1133AE07404F0E0E858FB4F20818091730490E067
S1133AF0982F8827820F911D089580E091E0089502
S1133B00209177042F5F2F71909176042917E1F3A8
S1133B10E22FF0E0E856FB4F808320937704E1E343
S1133B20F1E080818062808308955058BB27AA27E2
S1133B300ED027C2F0D130F0F5D120F031F49F3F00
S1133B4011F41EF4C0C10EF4E095E7FBB6C1E92FF1
S1133B503AD280F3BA17620773078407950718F0FF
S1133B6071F49EF552C20EF4E0950B2EBA2FA02DDF
S1133B700B01B90190010C01CA01A0011124FF2716
S1133B80591B99F0593F50F4503E68F11A16F04011
S1133B90A22F232F342F4427585FF3CF4695379510
S1133BA02795A795F0405395C9F77EF41F16BA0BD5
S1133BB0620B730B840BBAF09150A1F0FF0FBB1F83
S1133BC0661F771F881FC2F70EC0BA0F621F731FCC
S1133BD0841F48F4879577956795B795F7959E3F29
S1133BE008F0B3CF9395880F08F09927EE0F9795B7
S1133BF08795089590D158F080E891E009F49EEFFC
S1133C0091D128F040E851E059F45EEF09C05BC15E
S1133C10FCC1E92FE078D7D168F3092E052AC1F356
S1133C20261737074807590738F00E2E07F8E025FE
S1133C3069F0E025E0640AC0EF6307F8009407FA2E
S1133C40DB01B9019D01DC01CA01AD01EF934AD04A
S1133C5098D10AD05F91552331F02BED3FE049E430
S1133C6050FD49EC63CF0895DF93DD27B92FBF776B
S1133C7040E85FE31616170648075B0710F4D92FD0
S1133C80CFD19F938F937F936F937CD2E4EEF0E038
S1133C901DD177D12F913F914F915F91D4D1DD23E5
S1133CA049F09058A2EA2AED3FE049EC5FE3D0786E
S1133CB05D274DDFDF9165C1DCD008F481E0089514
S1133CC039D1E3956FC10CD05CC12CD140F023D124
S1133CD030F021F45F3F19F0F0C0511197C1F3C0E7
S1133CE072D198F39923C9F35523B1F3951B550B5E
S1133CF0BB27AA2762177307840738F09F5F5F4FBB
S1133D00220F331F441FAA1FA9F333D00E2E3AF0FB
S1133D10E0E830D091505040E695001CCAF729D015
S1133D20FE2F27D0660F771F881FBB1F2617370764
S1133D304807AB07B0E809F0BB0B802DBF01FF2794
S1133D4093585F4F2AF09E3F510568F0B6C05EC19C
S1133D505F3FECF3983EDCF3869577956795B795CE
S1133D60F7959F5FC9F7880F911D9695879597F9E9
S1133D700895E1E0660F771F881FBB1F6217730762
S1133D808407BA0720F0621B730B840BBA0BEE1F77
S1133D9088F7E095089504D06894B11137C1089567
S1133DA01AD188F09F5790F0B92F9927B751A0F0F6
S1133DB0D1F0660F771F881F991F1AF0BA95C9F7BB
S1133DC012C0B13081F021D1B1E008951EC1672F36
S1133DD0782F8827B85F39F0B93FCCF3869577956B
S1133DE06795B395D9F73EF4909580957095619554
S1133DF07F4F8F4F9F4F0895E89409C097FB3EF47F
S1133E0090958095709561957F4F8F4F9F4F992323
S1133E10A9F0F92F96E9BB279395F69587957795A1
S1133E206795B795F111F8CFFAF4BB0F11F460FF61
S1133E301BC06F5F7F4F8F4F9F4F16C0882311F0B9
S1133E4096E911C0772321F09EE8872F762F05C0CD
S1133E50662371F096E8862F70E060E02AF09A9568
S1133E60660F771F881FDAF7880F9695879597F95D
S1133E700895990F0008550FAA0BE0E8FEEF1616F7
S1133E801706E807F907C0F012161306E407F5074A
S1133E9098F0621B730B840B950B39F40A2661F0BE
S1133EA0232B242B252B21F408950A2609F4A14061
S1133EB0A6958FEF811D811D089597F99F6780E86E
S1133EC070E060E008959FEF80EC0895DF93CF9356
S1133ED01F930F93FF92EF92DF927B018C01689402
S1133EE005C0DA2EEF01AFD0FE01E894A59125912B
S1133EF0359145915591AEF3EF0129DEFE0197010D
S1133F00A801DA9479F7DF90EF90FF900F911F9159
S1133F10CF91DF91089500240A9416161706180607
S1133F200906089500240A941216130614060506B9
S1133F300895C9CF50D0E8F3E894E0E0BB279F5739
S1133F40F0F02AED3FE049EC06C0EE0FBB0F661F10
S1133F50771F881F28F0B23A62077307840728F096
S1133F60B25A620B730B840BE3959A9572F78038FF
S1133F7030F49A95BB0F661F771F881FD2F79048BD
S1133F8006C1092E0394000C11F4882352F0BB0FD0
S1133F9040F4BF2B11F460FF04C06F5F7F4F8F4F5D
S1133FA09F4F0895EF93E0FF06C0A2EA2AED3FE099
S1133FB049EC5FEBCCDDE5DF0F90039401FC9058F6
S1133FC0E1E1F1E0F7C057FD9058440F551F59F057
S1133FD05F3F71F04795880F97FB991F61F09F3FF2
S1133FE079F087950895121613061406551FF2CF1B
S1133FF04695F1DF08C0161617061806991FF1CF6B
S113400086957105610508940895E894BB27662791
S11340107727CB0197F908952CDF08F48FEF0895E3
S11340209B01AC0160E070E080E89FE34CCE0BD0D4
S1134030A8CF71DF28F076DF18F0952309F03DCF83
S113404042CF1124E3CFBFDFA0F3959FD1F3950FA7
S113405050E0551F629FF001729FBB27F00DB11D08
S1134060639FAA27F00DB11DAA1F649F6627B00D98
S1134070A11D661F829F2227B00DA11D621F739F81
S1134080B00DA11D621F839FA00D611D221F749F8F
S11340903327A00D611D231F849F600D211D822FD6
S11340A0762F6A2F11249F5750408AF0E1F088231D
S11340B04AF0EE0FFF1FBB1F661F771F881F91502A
S11340C05040A9F79E3F510570F0F7CE9FCF5F3F58
S11340D0ECF3983EDCF3869577956795B795F7955D
S11340E0E7959F5FC1F7FE2B880F911D96958795E5
S11340F097F908959F931EDF0F9007FCEE5F52CF50
S113410011F40EF4E0CE41C066DFD0F39923D9F365
S1134110CEF39F57550B87FF46D00024A0E640EA14
S1134120900180585695979528F4805C660F771F08
S1134130881F20F026173707480730F4621B730BDB
S1134140840B202931294A2BA695179407942025FE
S113415031254A2758F7660F771F881F20F0261746
S11341603707480730F4620B730B840B200D311DA5
S1134170411DA09581F7B901842F9158880F969518
S1134180879508959B01AC0152CF9F3F31F0915028
S113419020F4879577956795B795880F911D969527
S11341A0879597F9089591505040660F771F881F9F
S11341B0D2F708959F938F937F936F93FF93EF9319
S11341C09B01AC0134DFEF91FF9180DE2F913F9191
S11341D04F915F912CCF97FB072E16F4009406D0D5
S11341E077FD08D00BD007FC05D03EF4909581955F
S11341F09F4F0895709561957F4F0895AA1BBB1B2F
S113420051E107C0AA1FBB1FA617B70710F0A61BD2
S1134210B70B881F991F5A95A9F780959095BC01F3
S1134220CD010895EE0FFF1F881F8BBF0790F691F5
S10B4230E02D1994F894FFCF6E
S11342380101010101080001012D230707FFFF0106
S1134248010101FFFF01FFFF01FF0101FF00000061
S113425800010101000080BF0000803F0000803F92
S1134268000080BF000080BF0000803F0000803F46
S1134278000080BF0000803F0000803F0000803FB6
S11342880000803F0101010101696E746572727555
S11342987074206F6E000A0014001E00280032009B
S10942A83C00460050003A
S9030000FC
