:1000000089C00000B8C00000B6C00000E6C0000013
:10001000B2C00000B0C0000007C10000ACC00000CA
:10002000AAC000000C946C0FA6C000000C94A70F8F
:10003000A2C00000A0C000009EC000009CC0000044
:100040009AC0000098C0000096C0000094C0000054
:1000500092C0000090C000008EC000000CC10000E3
:100060008AC000000C9435120C94641284C0000005
:1000700082C0000080C000007EC000007CC0000084
:100080007AC0000078C0000076C0000074C0000094
:100090000C94CE120C94FD126EC000006CC00000D7
:1000A0006AC0000068C0000066C0000064C00000B4
:1000B00062C0000060C000005EC000005CC00000C4
:1000C0005AC0000058C0000056C000000C942B130A
:1000D0000C945A1350C000000C94B6130C94E51302
:1000E0004AC00000084AD73B3BCE016E84BCBFFD2E
:1000F000C12F3D6C74319ABD56833DDA3D00C77FF8
:1001000011BED9E4BB4C3E916BAAAABE0000008090
:100110003F00A21111241FBECFEFD1E2DEBFCDBF41
:1001200000E00CBF12E0A0E0B2E0E0E9FEE200E097
:100130000BBF02C007900D92AA3AB107D9F724E08D
:10014000AAEAB2E001C01D92A63DB207E1F710E0B5
:10015000CAE8D0E000E006C021970109802FFE0127
:100160000E943E17C938D10780E00807A9F70E940E
:100170005E110C94461744CF789480E38093690015
:100180008CE080936A008DB384628DBB089578946F
:1001900085B5856085BD81E080936E000895CF931D
:1001A000DF93EC0168817981072E000C880B990B95
:1001B0000E94C2152EEF34E346E353E40E94A216D8
:1001C00020E030E048E453E40E9427156C837D83EF
:1001D0008E839F83DF91CF9108951F920F920FB668
:1001E0000F9211240BB60F928F939F93EF93FF936F
:1001F000009B08C0ECEBF2E0808191810196918335
:10020000808307C0ECEBF2E08081918101979183BC
:100210008083FF91EF919F918F910F900BBE0F9074
:100220000FBE0F901F9018951F920F920FB60F924E
:1002300011240BB60F928F939F93EF93FF93059B1F
:1002400008C0E4EBF2E08081918101969183808384
:1002500007C0E4EBF2E08081918101979183808374
:10026000FF91EF919F918F910F900BBE0F900FBE5A
:100270000F901F9018951F920F920FB60F92112496
:100280008F9381E0809302028093030280930102A6
:10029000809300028F910F900FBE0F901F901895C2
:1002A0000E94D5118AE10E94DB118BE00E940D12A1
:1002B00081E00E940D120E9404128AE10E94DB116B
:1002C00089E00E940D1281E10E940D120C9404122B
:1002D00008958AE10E94DB1180E00E940D120E94C5
:1002E00004128BE10E9402120E941F1290E0909370
:1002F000C0038093BF030E941F122091BF0330915F
:10030000C003382B3093C0032093BF030E941F12F9
:1003100090E09093BE038093BD030E941F12209132
:10032000BD033091BE03382B3093BE032093BD0331
:100330000E941F1290E09093BC038093BB030E9425
:100340002A122091BB033091BC03382B3093BC039D
:100350002093BB030C9404120895CF92DF92EF9286
:10036000FF92CF93DF93B5DF6091BF037091C0031D
:1003700080913B0290913C02681B790B7093C00303
:100380006093BF03C091BD03D091BE038091390239
:1003900090913A02C81BD90BD093BE03C093BD0302
:1003A000072E000C880B990B0E94C2156B017C0173
:1003B000BE01DD0F880B990B0E94C215A7019601A3
:1003C0000E94D01420E030E044E353E40E94A216DF
:1003D0002BED3FE049E450E40E94271520E030E097
:1003E00044E353E40E945D140E9494157093BA0391
:1003F0006093B903CB01DF91CF91FF90EF90DF9035
:10040000CF900895E8E0F1E0908182E08927808331
:100410000895CF93DF938FE70E94A113C5EBD3E03C
:1004200088810E94A11389810E94A1138A810E9460
:10043000A1138B810E94A113DF91CF9108954F9258
:100440005F926F927F92AF92BF92CF92DF92EF92C4
:10045000FF920F931F93CF93DF930F2EFAE9EF2EA6
:10046000F2E0FF2EF02D03E813E0C0E0D0E0CC2452
:10047000C394D12C86B190E00C2E02C0959587953F
:100480000A94E2F780FF10C0F801D182C082209167
:100490009D03C6010C2E02C0880F991F0A94E2F733
:1004A000822B80939D0303C0F80111821082F70113
:1004B000819191917F01F801A190B1908F018A9D66
:1004C000B0018B9D700D9A9D700D1124072E000CAC
:1004D000880B990B0E94C2152091970330919803C5
:1004E0004091990350919A030E945D142B013C01A5
:1004F00060939703709398038093990390939A0362
:10050000B501BB0C880B990B0E94C2152091930377
:100510003091940340919503509196030E945D148D
:100520006093930370939403809395039093960341
:100530002196C830D10509F09DCF9B01AC01C301C4
:10054000B2010E9427150E948F1570939C0360933F
:100550009B031092970310929803109299031092A4
:100560009A031092930310929403109295031092A1
:100570009603CB01DF91CF911F910F91FF90EF90E8
:10058000DF90CF90BF90AF907F906F905F904F9033
:1005900008952F923F924F925F926F927F928F9227
:1005A0009F92AF92BF92CF92DF92EF92FF920F9302
:1005B0001F93CF93DF9300D01F92CDB7DEB780910A
:1005C0000202882309F41CC180913F02882309F4A8
:1005D0001BC1C3DE8C01ECE1F3E09183808386854F
:1005E0009785801B910B853B91053CF08856914087
:1005F00090931F0380931E030FC08C342FEF92073C
:100600002CF090931F0380931E0306C088599E4FC1
:1006100090931F0380931E0320901E0330901F03AE
:10062000B101032C000C880B990B0E94C2154B01E1
:100630005C0120913503309136034091370350918E
:1006400038030E94A216209126033091270340917F
:100650002803509129030E945D146B017C01609373
:1006600026037093270380932803909329036091B6
:100670002D0370912E03072E000C880B990B0E94FE
:10068000C21569837A838B839C832DEC3CEC4CEC04
:100690005DE30E94A2162B013C01C701B6010E9436
:1006A0008F159B01772324F422273327261B370B32
:1006B000B901330F880B990B0E94C215A301920157
:1006C0000E949716181624F520E030E0A901C70112
:1006D000B6010E94971618164CF4409226035092C9
:1006E0002703609228037092290312C02DEC3CEC82
:1006F0004CEC5DEB69817A818B819C810E94A21612
:100700006093260370932703809328039093290313
:10071000C101992324F48827992782199309039703
:10072000E4F1209131033091320340913303509131
:100730003403C501B4010E94A2166B017C018091B3
:10074000200390912103B801681B790B072E000C40
:10075000880B990B0E94C2152091390330913A03FE
:1007600040913B0350913C030E94A2169B01AC01B7
:10077000C701B6010E945C14209126033091270323
:1007800040912803509129030E945D140E948F1507
:10079000709323036093220308C0ECE1F3E0128618
:1007A00013861486158617821682ECE1F3E08081A9
:1007B0009181958384838681978121893289AC01D7
:1007C000992324F444275527481B590B2417350730
:1007D00054F4281739071CF03195219531093093CD
:1007E0002303209322038091220390912303919568
:1007F000819591099093AC038093AB031092020210
:1008000080913F02811104C01092AC031092AB039F
:100810000F900F900F900F90DF91CF911F910F913C
:10082000FF90EF90DF90CF90BF90AF909F908F9010
:100830007F906F905F904F903F902F900895EF9230
:10084000FF920F931F93CF93C4E6E12CF12C0CE1A0
:1008500013E083DDF801468557859A012F5F3F4FEE
:100860008217930740F4415051094817590718F46B
:1008700074DDE80EF91EC15061F797013695279592
:1008800036952795ABE7B4E10E941B17969587959F
:1008900020912A0330912B03281B390B2E3FFFEFA9
:1008A0003F0734F081E0233031051CF080E001C0C7
:1008B00080E0CF911F910F91FF90EF9008952F92BC
:1008C0003F924F925F926F927F928F929F92AF92E0
:1008D000BF92CF92DF92EF92FF920F931F93CF932D
:1008E000DF9300D01F92CDB7DEB70F2EFDEACF2EDB
:1008F000F3E0DF2EF02D0F2EF9E04F2EF2E05F2E09
:10090000F02D0F2EF5EB2F2EF3E03F2EF02D0F2EB6
:10091000FDEA6F2EF3E07F2EF02DDA82C98207EA1E
:1009200013E072011B821C82D8016D917D918D01B3
:10093000F70181909190A190B1907F01072E000C5A
:10094000880B990B0E94C215A50194010E94A21662
:100950004B015C012B813C81B901330F880B990B52
:100960000E94C2159B01AC01C501B4010E945D1437
:100970000E948F157C836B8306151705A9F6A98144
:10098000BA816D937C93F2E0CF0ED11C2CE0420E25
:10099000511CC214D30409F6E5EBF3E0ADEAB3E071
:1009A0002D913C9147E1429FC001439F900D11243E
:1009B00029EF30E0B9010E94081760836091AF030E
:1009C0007091B003469FC001479F900D1124B9015B
:1009D0000E94081761836091B1037091B203469F32
:1009E000C001479F900D1124B9010E94081762832E
:1009F0006091B3037091B403469FC001479F900D6F
:100A00001124B9010E940817638303DD0F900F9032
:100A10000F900F90DF91CF911F910F91FF90EF906A
:100A2000DF90CF90BF90AF909F908F907F906F900E
:100A30005F904F903F902F9008958F929F92AF922A
:100A4000BF92CF92DF92EF92FF920F931F93CF93BB
:100A5000DF9380914D03882351F0F1DC892B39F02D
:100A6000EEDCEDE3F3E095838483108ADBC08091B4
:100A70000302882309F4D6C080913E02882309F43A
:100A8000D5C0DDDCEC0190933E0380933D03892BC0
:100A900009F4C6C080910802882309F4C1C0EDE3BF
:100AA000F3E0668577856C1B7D0B7383628361152C
:100AB000710531F41286138614861586D583C48396
:100AC000072E000C880B990B0E94C2154B015C018C
:100AD0000DE313E0F801218D328D438D548D0E947A
:100AE000A216F80122853385448555850E945D1440
:100AF0006B017C01F80162877387848795870E9468
:100B00008F159B01772324F422273327261B370BCD
:100B10002B3031055CF120E030E0A901C701B601BE
:100B20000E94971618166CF480E090E0A0EAB0E4FA
:100B30008093470390934803A0934903B0934A03DB
:100B400015C020E030E0A901C701B6010E942315BD
:100B5000882364F480E090E0A0EAB0EC809347033F
:100B600090934803A0934903B0934A030DE313E025
:100B7000F801258936894789508DC501B4010E9445
:100B8000A216F80122853385448555850E945D149F
:100B90006B017C01F80184819581BE01681B790B92
:100BA000072E000C880B990B0E94C215F801258DA9
:100BB000368D478D50A10E94A2169B01AC01C70142
:100BC000B6010E945C140E948F159B01F801778387
:100BD0006683D583C483AB01772324F44427552748
:100BE000461B570B4932510584F0121613063CF48C
:100BF00088E290E0909344038093430306C088ED1D
:100C00009FEF90934403809343038091430390911B
:100C100044039195819591099093A8038093A7032C
:100C20001092030280913E02811104C01092A80329
:100C30001092A703DF91CF911F910F91FF90EF903A
:100C4000DF90CF90BF90AF909F908F900895CF93FB
:100C5000DF93CCE1D3E088E290E09A8B898B1C8A09
:100C60001B8AEDE3F3E08DE290E09787868780E0D2
:100C700090E0A0E0B0E48D8B9E8BAF8BB88F198E87
:100C80001A8E1B8E1C8E80E090E0A8EFB1E48D8F51
:100C90009E8FAF8FB8A381EE9AE7A4E1BFE3858B67
:100CA000968BA78BB08F8DEC9CECACE4BDE3818F71
:100CB000928FA38FB48F80E090E0A9EBB3E4858F8F
:100CC000968FA78FB0A3EBEFF2E04AE959E969E10B
:100CD0007EE3458B568B678B708F118E128E138E31
:100CE000148E80E090E0A0ECBFE3858F968FA78FF5
:100CF000B0A3EAEDF2E0458B568B678B708F118EB7
:100D0000128E138E148E858F968FA78FB0A3C8DA9C
:100D10008889882341F021DB9093A2038093A1036B
:100D2000188A9F878E87DF91CF9108952F923F92E7
:100D30004F925F926F927F928F929F92AF92BF92EB
:100D4000CF92DF92EF92FF920F931F93CF93DF9397
:100D50001C016B01042F122F8CEB92E020DA0E9411
:100D60008F15AB01772324F444275527461B570BD7
:100D7000EA015093A6034093A50330920A03209200
:100D8000090320910102222309F429C121E02093C3
:100D9000A00310929F0310929E035093FC02409375
:100DA000FB0210920102483C51050CF4EEC0241ADB
:100DB000350A0F2EFBEFEF2EF2E0FF2EF02DF7019C
:100DC00033822282B101032C000C880B990B0E9404
:100DD000C2154B015C01F701218D328D438D548D7D
:100DE0000E94A216F70122853385448555850E940D
:100DF0005D142B013C01F701628773878487958717
:100E00008089882319F0D583C483108AC301B20175
:100E10000E948F159B01772324F422273327261B5A
:100E2000370B2B3031055CF120E030E0A901C30124
:100E3000B2010E94971618166CF480E090E0A0E2D0
:100E4000B1E48093050390930603A0930703B09346
:100E5000080315C020E030E0A901C301B2010E94DF
:100E60002315882364F480E090E0A0E2B1EC809345
:100E7000050390930603A0930703B093080312148D
:100E80001304BCF50F2EFBEFEF2EF2E0FF2EF02D3A
:100E9000F701258936894789508DC501B4010E9423
:100EA000A216F70122853385448555850E945D147D
:100EB0004B015C01F70184819581BE01681B790BB0
:100EC000072E000C880B990B0E94C215F701258D87
:100ED000368D478D50A10E94A2169B01AC01C50121
:100EE000B4010E945C140E948F15F701778366831A
:100EF00004C01092020310920103EBEFF2E0D583DD
:100F0000C48326813781802F90E0A901332324F404
:100F100044275527421B530B841795077CF4121660
:100F200013062CF4909302038093010307C091955C
:100F3000819591099093020380930103209101030D
:100F400030910203812F90E0A901332324F4442738
:100F50005527421B530B4817590774F433232CF0C1
:100F6000909302038093010307C0919581959109A5
:100F700090930203809301038091010390910203F7
:100F80009093A8038093A70318C0BA01550F880B4C
:100F9000990B0E94C21526E636E646EE5EE30E94F5
:100FA000A21620E030E040E752E40E945D140E9467
:100FB0008F157093A8036093A703F3E0CF16D104B5
:100FC00071F4E7EAF3E08081918199231CF4919513
:100FD00081959109919581959109918380831092D2
:100FE000AA031092A903D5DADF91CF911F910F9137
:100FF000FF90EF90DF90CF90BF90AF909F908F9039
:101000007F906F905F904F903F902F9008952F9218
:101010003F924F925F926F927F928F929F92AF9288
:10102000BF92CF92DF92EF92FF920F931F93CF93D5
:10103000DF931C016B01042F122F84EB92E0AFD8D9
:101040000E948F159B01772324F422273327261B28
:10105000370BE9013093A4032093A3033092E902F4
:101060002092E80280910002882309F433C1109293
:101070000002283C31050CF4F0C00F2EFAEDEF2EE3
:10108000F2E0FF2EF02DF70131832083221A330A7C
:1010900033822282B101032C000C880B990B0E9431
:1010A000C2154B015C01F701218D328D438D548DAA
:1010B0000E94A216F70122853385448555850E943A
:1010C0005D142B013C01F701628773878487958744
:1010D0008089882319F0D583C483108AC301B201A3
:1010E0000E948F159B01772324F422273327261B88
:1010F000370B2B3031055CF120E030E0A901C30152
:10110000B2010E94971618166CF480E090E0A0E2FD
:10111000B1E48093E4029093E502A093E602B093D9
:10112000E70215C020E030E0A901C301B2010E942E
:101130002315882364F480E090E0A0E2B1EC809372
:10114000E4029093E502A093E602B093E702121442
:101150001304BCF50F2EFAEDEF2EF2E0FF2EF02D6A
:10116000F701258936894789508DC501B4010E9450
:10117000A216F70122853385448555850E945D14AA
:101180004B015C01F70184819581BE01681B790BDD
:10119000072E000C880B990B0E94C215F701258DB4
:1011A000368D478D50A10E94A2169B01AC01C5014E
:1011B000B4010E945C140E948F15F7017783668347
:1011C00004C01092E1021092E002EAEDF2E0D58351
:1011D000C48326813781802F90E0A901332324F432
:1011E00044275527421B530B481759077CF012160A
:1011F00013062CF49093E1028093E00207C09195CE
:10120000819591099093E1028093E0022091E002A0
:101210003091E102812F90E0A901332324F4442787
:101220005527421B530B4817590774F433232CF0EE
:101230009093E1028093E00207C091958195910916
:101240009093E1028093E0028091E0029091E102AC
:101250009093AA038093A90318C0B901330F880B98
:10126000990B0E94C2152AE939E949E95EE30E9417
:10127000A21620E030E040E252E40E945D140E9499
:101280008F157093AA036093A903F2E0CF16D104DF
:1012900041F481E080939F0310929E031092A0037B
:1012A00019C083E0C816D104A9F481E080939E039D
:1012B00010929F031092A003E7EAF3E082819381EA
:1012C00099231CF4919581959109919581959109A6
:1012D00093838283B2DB5DD9DF91CF911F910F9110
:1012E000FF90EF90DF90CF90BF90AF909F908F9046
:1012F0007F906F905F904F903F902F900895109245
:10130000A00381E080939F0310929E03ECE1F3E041
:1013100080E090E0A0E0B0E4858B968BA78BB08F47
:10132000118E128E138E148E80E090E0A8EFB1E43F
:10133000858F968FA78FB0A38EE190E09093AA033C
:101340008093A9037ADB25C90895E7EAF3E01182C7
:10135000108213821282ECE1F3E086E696E6A6E8BC
:10136000B0E4858B968BA78BB08F8FE892ECA5E7C6
:10137000BEE3818F928FA38FB48F80E090E0A0E0D6
:10138000B2E4858F968FA78FB0A303C90895CF933A
:101390008091D90281118CC08091090184FD50C0D7
:1013A0008091CE029091CF02059709F049C03BC0D1
:1013B0008091CE029091CF020697F9F480910702B6
:1013C000811143C01AC08091CE029091CF0205973F
:1013D00031F08091CE029091CF02069731F481E0F6
:1013E0008093D70287E70E9447148091D90288230F
:1013F00021F08091D802811160C07D9B52C0809104
:10140000CE029091CF02069709F04BC0809107025F
:10141000811147C02FC01092D80281E08093D4027E
:101420001092D3024AC08FE60E94471481E0809355
:10143000D9028093D5021092CA021092CB0238C012
:101440008091090184FFB4CFD8CF8FE60E94471462
:1014500081E08093D9021092D5028093D4028093C8
:10146000C9028093CA028093CB021092C7021092E5
:10147000C8021EC0C1E0C093C702C093C802109248
:10148000C5021092C6028AE60E944714C093D80291
:10149000C093D702C093D902C093D3021092D40252
:1014A0000CC08091CE029091CF02069731F4B3CF59
:1014B0008091090184FD87CF9CCFCF9108958091C1
:1014C000CE029091CF02059739F08091CE02909193
:1014D000CF02069709F050C0809105029091060254
:1014E000089709F049C065C38091C90281111FC0E6
:1014F0008091090186FF12C085E090E09093CF02B1
:101500008093CE0281E08093D0021092C1031092AA
:101510003D028093D9028093D7022EC081E0809350
:10152000D5021092CA021092CB0231DF25C0809101
:10153000C8028823F9F08091C7028823D9F08091EE
:10154000090186FF0BC086E090E09093CF02809364
:10155000CE02109207021BDFF8DE0EC08091070258
:10156000882329F01092C7021092C80205C00FDF2D
:10157000ECDE02C00CDFE9DE8091CD02811114C0E7
:101580008091CE029091CF02892B09F417C355C0E8
:101590007894E8E6F0E0808181608083EBE6F0E01B
:1015A00080818061808349C08091CC0281111EC0FE
:1015B00081E090E09093CF028093CE0287E090E0AC
:1015C0009093060280930502EBE6F0E080818F7E27
:1015D00080837894E8E6F0E0808184608083EDE6A3
:1015E000F0E08081816080838ADE27C08091CE0216
:1015F0009091CF02019709F5809105029091060222
:101600000797D9F485E090E09093CF028093CE02C3
:1016100088E090E09093060280930502EDE6F0E00A
:1016200080818E7F80830E9402021092BD02109200
:10163000BC021092B5021092B4028091D9028823A4
:1016400009F449C48091D702882309F444C48091E5
:10165000D502882309F41AC38091CB02811113C0EB
:101660008091CE029091CF020597F1F4DBC278947D
:10167000E8E6F0E0808184608083EDE6F0E0808140
:101680008160808311C08091CA0281110DC0809158
:10169000CE029091CF02059739F480910502909186
:1016A0000602079709F4F8C28091CE029091CF020A
:1016B0000297D1F480910502909106020897A1F457
:1016C0000AC38091D60281110FC30E942C1480930B
:1016D000C402873649F481E08093D2021092D50289
:1016E00080E28093C40205C08091D202882309F46D
:1016F00049C08091CB02882309F444C08091CA027A
:10170000811145C0ECE1F3E080E090E0A0E0B0E4BE
:10171000858B968BA78BB08F118E128E138E148EA5
:1017200080E090E0A8EFB1E4858F968FA78FB0A3FB
:1017300024E144E663E070E088E597E068DC87E058
:1017400090E0909306028093050284EB92E00E9461
:10175000CF000E948F159B01772324F42227332783
:10176000261B370B203B34400CF474C07894E8E619
:10177000F0E0808184608083EDE6F0E0808181602C
:10178000808368C08091CA02882309F4D4C2809102
:10179000050290910602079709F0CDC28091CE0212
:1017A0009091CF02029709F0C6C2A3C28091C902EC
:1017B000811143C0ECE1F3E080E090E0A0E0B0E410
:1017C000858B968BA78BB08F118E128E138E148EF5
:1017D00080E090E0A8EFB1E4858F968FA78FB0A34B
:1017E00024E144E662E070E080ED97E09FDA87E074
:1017F00090E090930602809305028CEB92E00E94A9
:10180000CF000E948F159B01772324F422273327D2
:10181000261B370B2C363740ECF07894E8E6F0E0E6
:10182000808181608083EBE6F0E08081806180834D
:1018300011C08091C902882369F0809105029091BE
:101840000602079739F48091CE029091CF02059756
:1018500009F476C28091D402882309F443C08091B0
:10186000C802811143C0ECE1F3E080E090E0A0E029
:10187000B0E4858B968BA78BB08F118E128E138E52
:10188000148E80E090E0A8EFB1E4858F968FA78F4B
:10189000B0A387E090E0909306028093050224E1D4
:1018A00044E662E070E088E597E0B1DB84EB92E02B
:1018B0000E94CF000E948F159B01772324F42227DA
:1018C0003327261B370B203B34400CF17894E8E695
:1018D000F0E0808184608083EDE6F0E080818160CB
:1018E000808315C08091C802882389F08091C70247
:1018F00081110DC08091CE029091CF02069739F4EC
:101900008091050290910602079709F43BC28091ED
:10191000CE029091CF020397C9F480910502909175
:101920000602089799F44DC28091D602811152C2E5
:1019300093D78093C402873649F481E08093D10223
:101940001092D40280E28093C40205C08091D1023B
:10195000882309F448C08091C802882309F443C051
:101960008091C702811143C0ECE1F3E080E090E098
:10197000A0E0B0E4858B968BA78BB08F118E128E72
:10198000138E148E80E090E0A8EFB1E4858F968FDF
:10199000A78FB0A324E144E663E070E088E597E018
:1019A00036DB87E090E0909306028093050284EB9B
:1019B00092E00E94CF000E948F159B01772324F4B0
:1019C00022273327261B370B203B3440ECF078943A
:1019D000E8E6F0E0808184608083EDE6F0E08081DD
:1019E0008160808311C08091C702882369F0809153
:1019F000050290910602079739F48091CE029091EA
:101A0000CF02039709F4EBC18091D302882309F434
:101A100043C08091C602811143C0ECE1F3E080E055
:101A200090E0A0E0B0E4858B968BA78BB08F118EF1
:101A3000128E138E148E80E090E0A8EFB1E4858FB3
:101A4000968FA78FB0A324E146E962E070E08CEEA8
:101A500093E1DDDA87E090E090930602809305023F
:101A600084EB92E00E94CF000E948F159B017723A8
:101A700024F422273327261B370B203A3F40C4F19A
:101A80007894E8E6F0E0808184608083EDE6F0E021
:101A90008081816080832CC08091C602882341F1BF
:101AA0008091CE029091CF02069709F00CC28091EE
:101AB000050290910602079709F005C2B3C1809113
:101AC000050290910602089799F4CDC18091D60243
:101AD0008111D2C1C1D68093C402873649F481E016
:101AE0008093D1021092D30280E28093C40205C099
:101AF0008091D102882309F448C08091C6028823CE
:101B000009F443C08091C502811144C0ECE1F3E0C7
:101B100080E090E0A0E0B0E4858B968BA78BB08F3F
:101B2000118E128E138E148E80E090E0A8EFB1E437
:101B3000858F968FA78FB0A324E146E963E070E01C
:101B40008CEE93E164DA87E090E090930602809354
:101B5000050284EB92E00E94CF00E1D79B0177233E
:101B600024F422273327261B370B203A3F400CF45E
:101B7000B2C17894E8E6F0E0808184608083EDE68D
:101B8000F0E080818160808308958091C502882380
:101B900009F4A1C18091050290910602079709F00E
:101BA0009AC18091CE029091CF02049709F093C11F
:101BB00068C18091CA02811197CCB9CCECE1F3E005
:101BC00080E090E0A0E0B0E4858B968BA78BB08F8F
:101BD000118E128E138E148E80E090E0A8EFB1E487
:101BE000858F968FA78FB0A324E146E962E070E06D
:101BF00088EF91E19BD887E090E090930602809374
:101C000005028CEB92E00E94CF0089D79B017723DD
:101C100024F422273327261B370B223B31410CF0BB
:101C2000B7CC0BCD87E090E090930602809305023D
:101C3000ECE1F3E080E090E0A0E0B0E4858B968BEF
:101C4000A78BB08F118E128E138E148E80E090E0D1
:101C5000A8EFB1E4858F968FA78FB0A324E144E667
:101C600062E070E088E597E0D2D984EB92E00E94D0
:101C7000CF0055D79B01772324F422273327261B37
:101C8000370B203436400CF0F2CC0ECD8091CB02D5
:101C9000882309F409CDF7CCEDE6F0E080818E7F52
:101CA000808380E492E06CD40E94020282E090E0A3
:101CB0009093CF028093CE021092BD021092BC028C
:101CC0001092B5021092B40288E090E09093060260
:101CD00080930502E9CC8AE592E052D436DB0E947B
:101CE0001F048111EECCF1CC81E3D1D51092D60244
:101CF000ECCCEDE6F0E080818E7F808385E090E0A3
:101D00009093CF028093CE020E9402021092BD02F5
:101D10001092BC021092B5021092B40288E090E0DA
:101D200090930602809305021092D9021092D70276
:101D30001092D2028FCD8091D002811137CD79CD12
:101D40001092D002EBE6F0E080818F7E80830E94CB
:101D5000020286E090E09093CF028093CE0288E06A
:101D600090E090930602809305021092BD021092BB
:101D7000BC021092B5021092B4021092D9021092D5
:101D8000D70268CD86E692E0FBD383E090E09093A3
:101D9000CF028093CE02EDE6F0E080818E7F8083DB
:101DA0001092BD021092BC021092B5021092B402C1
:101DB00088E090E090930602809305020E94020260
:101DC000A6CD85E792E0DCD3C0DA0E941F04811122
:101DD000ABCDAECD82E35BD51092D602A9CDB5DAFC
:101DE000EDE6F0E080818E7F80830E9402021092F7
:101DF000BD021092BC021092B5021092B40286E0AD
:101E000090E09093CF028093CE0288E090E0909390
:101E10000602809305021092D9021092D702109206
:101E2000D102F2CD81E892E0ABD3EDE6F0E0808123
:101E30008E7F80830E9402021092BD021092BC022B
:101E40001092B5021092B40288E090E090930602DE
:101E5000809305021092D30284E090E09093CF0229
:101E60008093CE0245CE8FE892E08AD36EDA0E944C
:101E70001F0481112BCE2ECE83E309D51092D602FA
:101E800029CEEDE6F0E080818E7F80830E94020201
:101E90001092BD021092BC021092B5021092B402D0
:101EA00086E090E09093CF028093CE0288E090E0AD
:101EB00090930602809305021092D9021092D702E5
:101EC0001092D10208958091CE029091CF02049792
:101ED00009F00ECEF4CD08951F920F920FB60F9217
:101EE00011240BB60F922F933F934F935F936F93F1
:101EF0007F938F939F93AF93BF93EF93FF938091C3
:101F0000CD02811106C081E08093CD028093C10390
:101F10000BC08091C902811107C081E08093C90282
:101F20008093C1030E940202FF91EF91BF91AF9194
:101F30009F918F917F916F915F914F913F912F91E1
:101F40000F900BBE0F900FBE0F901F9018951F9211
:101F50000F920FB60F9211240BB60F922F933F934F
:101F60004F935F936F937F938F939F93AF93BF93A1
:101F7000EF93FF938091CC02811106C00E94020270
:101F800081E08093CC0241C08091CB02811108C0D6
:101F900081E08093CB028093D6020E94020235C07A
:101FA0008091CA02811106C081E08093CA020E941A
:101FB00002022BC08091C802811108C081E0809389
:101FC000C8028093D6020E9402021FC08091C702FD
:101FD000811106C081E08093C7020E94020215C0F1
:101FE0008091C602811108C081E08093C60280936F
:101FF000D6020E94020209C08091C502811105C06B
:1020000081E08093C5020E940202FF91EF91BF918F
:10201000AF919F918F917F916F915F914F913F9180
:102020002F910F900BBE0F900FBE0F901F90189521
:102030008091060180FF04C081E08093B30208957F
:102040001092B30208951C9B04C081E08093B202F9
:1020500008951092B20208958091C103882309F473
:1020600053C08091B202882309F45AC08091810341
:10207000909182038D9709F053C08091B302811132
:102080004FC080910402882379F08091B002909132
:10209000B1029093AD028093AC029093AF02809313
:1020A000AE02109204021BC08091B0029091B10266
:1020B0002091AE023091AF022817390728F490938F
:1020C000AF028093AE020BC02091AC023091AD0202
:1020D0008217930720F49093AD028093AC02209175
:1020E000AE023091AF028091AC029091AD02820FAE
:1020F000931F969587959093AB028093AA02909335
:102100002B0380932A03089580913D02882341F098
:102110008091A1039091A20390932B0380932A03B3
:10212000089580919E03811105C090919F0399238A
:1021300009F4C3C020918103309182032115310538
:1021400019F540917F03509180034A30510561F4A5
:102150009091B302911128C0EDE3F3E091E09087F4
:1021600011861092080290C04035510509F096C0C2
:102170009091B302911192C0EDE3F3E091E0918769
:102180001086109208027BC090914603992361F05B
:102190002035310509F087C081E080930802EDE326
:1021A000F3E011861086089590914503992309F470
:1021B00066C02A30310509F067C081E080930802CB
:1021C000EDE3F3E010861186089590919F03992323
:1021D00059F0E7EAF3E01182108288E290E09383FD
:1021E00082830C94C9020895882309F466C0E7EA43
:1021F000F3E01182108288ED9FEF938382830C9429
:10220000C902089590919F03992369F0E7EAF3E0EA
:1022100088ED9FEF918380838AE090E093838283AF
:102220000C94C9020895882309F447C0E7EAF3E053
:1022300088ED9FEF9183808386EF9FEF9383828366
:102240000C94C9020895E7EAF3E088E290E09183F4
:1022500080838AE090E0938382830C94C90208957E
:10226000882359F1E7EAF3E088E290E091838083E4
:1022700086EF9FEF938382830C94C9020895909117
:102280004603911106C008959091B30291119DCF1C
:10229000B9CF9091B302992359F097CF909145030C
:1022A000992369F3F1CF90914503992391F381CF5D
:1022B00090919F039923A1F2C6CF0895EAE0F1E03F
:1022C00080818F7E808380818F7B8083EBE0F1E053
:1022D00080818061808380818064808385988D98EF
:1022E000E7E0F1E0808182608083E8E0F1E08081D6
:1022F0008D7F808387E690E015D189E190E008D258
:1023000087E690E090D20E942706789491DE9BDECB
:102310000E941F0290938203809381030E94AD016B
:102320009093B1028093B00297DEC9D8FADE0E9482
:102330005F0480919B0390919C0390938003809312
:102340007F03E4CFEEE5F3E01086118681E0808B19
:10235000EDE3F3E010861186808BECE1F3E010866C
:102360001186808BEBEFF2E010861186808BEAED10
:10237000F2E010861186808B1092BD021092BC0292
:102380008CEB92E00E94BC008CEB92E00E94C700B4
:102390001092B5021092B40284EB92E00E94BC004D
:1023A00084EB92E00C94C70008951092B90088E481
:1023B0008093B800089594EA9093BC00ECEBF0E0B1
:1023C00090819923ECF79091B900987F983011F0A3
:1023D0009031A1F48093BB0084E88093BC00ECEBC7
:1023E000F0E080818823ECF79091B900987F9831D4
:1023F00039F081E0903429F480E0089581E0089577
:1024000080E00895D8CF089584E98093BC00ECEB78
:10241000F0E0808184FDFDCF08958093BB0084E8C7
:102420008093BC00ECEBF0E080818823ECF7909186
:10243000B900987F81E0983209F480E0089584EC37
:102440008093BC00ECEBF0E080818823ECF7809176
:10245000BB00089584E88093BC00ECEBF0E0808141
:102460008823ECF78091BB0008951F920F920FB65E
:102470000F9211240BB60F922F938F939F93EF938C
:10248000FF938091C0002091C6008871E091930471
:10249000EF5FEF7190919204E91739F0E0939304A4
:1024A000F0E0EA56FB4F208301C082E08093910464
:1024B000FF91EF919F918F912F910F900BBE0F90F5
:1024C0000FBE0F901F9018951F920F920FB60F928C
:1024D00011240BB60F928F939F93EF93FF939091DC
:1024E000950480919404981769F0E0919404EF5F4B
:1024F000EF71E0939404F0E0EA54FB4F8081809305
:10250000C60005C0E1ECF0E080818F7D8083FF9103
:10251000EF919F918F910F900BBE0F900FBE0F9078
:102520001F901895109295041092940410929304A1
:1025300010929204992324F422E02093C0009F7704
:102540009093C5008093C40088E98093C10086E021
:102550008093C2000895209195042F5F2F71909170
:1025600094042917E1F3E22FF0E0EA54FB4F808353
:1025700020939504E1ECF0E08081806280830895EF
:10258000CF93DF93EC018881882329F02196E3DF44
:1025900089918111FCCFDF91CF9108951F920F9205
:1025A0000FB60F9211240BB60F922F938F939F9318
:1025B000EF93FF938091C8002091CE008871E09145
:1025C0004E04EF5FEF7190914D04E91739F0E093FD
:1025D0004E04F0E0EF5AFB4F208301C082E080936D
:1025E0004C04FF91EF919F918F912F910F900BBE13
:1025F0000F900FBE0F901F9018951F920F920FB65D
:102600000F9211240BB60F928F939F93EF93FF932A
:102610009091500480914F04981769F0E0914F0415
:10262000EF5FEF71E0934F04F0E0EF58FB4F8081D4
:102630008093CE0005C0E9ECF0E080818F7D80833F
:10264000FF91EF919F918F910F900BBE0F900FBE56
:102650000F901F9018951F920F920FB60F92112492
:102660000BB60F922F938F939F93EF93FF938091CD
:10267000D0002091D6008871E0910904EF5FEF71DE
:1026800090910804E91739F0E0930904F0E0E45F61
:10269000FB4F208301C082E080930704FF91EF91FC
:1026A0009F918F912F910F900BBE0F900FBE0F90A7
:1026B0001F9018951F920F920FB60F9211240BB610
:1026C0000F928F939F93EF93FF9390910B048091C0
:1026D0000A04981769F0E0910A04EF5FEF71E09344
:1026E0000A04F0E0E45DFB4F80818093D60005C0D2
:1026F000E1EDF0E080818F7D8083FF91EF919F91EC
:102700008F910F900BBE0F900FBE0F901F901895DA
:1027100010920B0410920A041092090410920804FB
:10272000992324F422E02093D0009F779093D50042
:102730008093D40088E98093D10086E08093D20012
:10274000089520910B042F5F2F7190910A0429178F
:10275000E1F3E22FF0E0E45DFB4F808320930B0474
:10276000E1EDF0E080818062808308951F920F92F6
:102770000FB60F9211240BB60F922F938F939F9346
:10278000EF93FF9380913001209136018871E091A1
:10279000C403EF5FEF719091C303E91739F0E09341
:1027A000C403F0E0E953FC4F208301C082E0809332
:1027B000C203FF91EF919F918F912F910F900BBECC
:1027C0000F900FBE0F901F9018951F920F920FB68B
:1027D0000F9211240BB60F928F939F93EF93FF9359
:1027E0009091C6038091C503981769F0E091C503E5
:1027F000EF5FEF71E093C503F0E0E951FC4F80819A
:102800008093360105C0E1E3F1E080818F7D808314
:10281000FF91EF919F918F910F900BBE0F900FBE84
:102820000F901F9018951092C6031092C503109236
:10283000C4031092C303992324F426E020933001AB
:102840009F77909335018093340188E9809331011B
:1028500086E08093320108959091C4038091C30370
:10286000981791F0E091C303EF5FEF71E093C3031A
:10287000F0E0E953FC4F20818091C20390E0982F53
:102880008827820F911D089580E091E0089520919E
:10289000C6032F5F2F719091C5032917E1F3E22F33
:1028A000F0E0E951FC4F80832093C603E1E3F1E0BF
:1028B00080818062808308955058BB27AA270ED05C
:1028C000FCC1EDD130F0F2D120F031F49F3F11F492
:1028D0001EF4BDC10EF4E095E7FBB3C1E92FFED1B4
:1028E00080F3BA17620773078407950718F071F42D
:1028F0009EF516C20EF4E0950B2EBA2FA02D0B01FB
:10290000B90190010C01CA01A0011124FF27591B34
:1029100099F0593F50F4503E68F11A16F040A22F3A
:10292000232F342F4427585FF3CF469537952795AB
:10293000A795F0405395C9F77EF41F16BA0B620BAA
:10294000730B840BBAF09150A1F0FF0FBB1F661FF1
:10295000771F881FC2F70EC0BA0F621F731F841F34
:1029600048F4879577956795B795F7959E3F08F05A
:10297000B3CF9395880F08F09927EE0F9795879519
:1029800008958DD158F080E891E009F49EEF8ED142
:1029900028F040E851E059F45EEF09C058C1C0C1C9
:1029A000E92FE0789BD168F3092E052AC1F3261799
:1029B00037074807590738F00E2E07F8E02569F069
:1029C000E025E0640AC0EF6307F8009407FADB0132
:1029D000B9019D01DC01CA01AD01EF9347D06DD172
:1029E0000AD05F91552331F02BED3FE049E450FDD3
:1029F00049EC63CF0895DF93DD27B92FBF7740E817
:102A00005FE31616170648075B0710F4D92F93D11A
:102A10009F938F937F936F93F8D1E4EEF0E01AD1F8
:102A20004CD12F913F914F915F9198D1DD2349F087
:102A30009058A2EA2AED3FE049EC5FE3D0785D27A9
:102A40004DDFDF913AC1D9D008F481E008950CD070
:102A500034C12CD140F023D130F021F45F3F19F084
:102A6000F0C051115EC1F3C039D198F39923C9F375
:102A70005523B1F3951B550BBB27AA276217730784
:102A8000840738F09F5F5F4F220F331F441FAA1F38
:102A9000A9F333D00E2E3AF0E0E830D091505040F8
:102AA000E695001CCAF729D0FE2F27D0660F771FA6
:102AB000881FBB1F261737074807AB07B0E809F088
:102AC000BB0B802DBF01FF2793585F4F2AF09E3F1D
:102AD000510568F0B6C025C15F3FECF3983EDCF3CA
:102AE000869577956795B795F7959F5FC9F7880F96
:102AF000911D9695879597F90895E1E0660F771FE8
:102B0000881FBB1F621773078407BA0720F0621B78
:102B1000730B840BBA0BEE1F88F7E095089504D071
:102B20006894B111FEC00895E1D088F09F5790F0ED
:102B3000B92F9927B751A0F0D1F0660F771F881FE2
:102B4000991F1AF0BA95C9F712C0B13081F0E8D0D8
:102B5000B1E00895E5C0672F782F8827B85F39F076
:102B6000B93FCCF3869577956795B395D9F73EF441
:102B700090958095709561957F4F8F4F9F4F0895E9
:102B8000E89409C097FB3EF4909580957095619507
:102B90007F4F8F4F9F4F9923A9F0F92F96E9BB27BD
:102BA0009395F695879577956795B795F111F8CF39
:102BB000FAF4BB0F11F460FF1BC06F5F7F4F8F4FA4
:102BC0009F4F16C0882311F096E911C0772321F09A
:102BD0009EE8872F762F05C0662371F096E8862F32
:102BE00070E060E02AF09A95660F771F881FDAF789
:102BF000880F9695879597F90895990F0008550FB6
:102C0000AA0BE0E8FEEF16161706E807F907C0F072
:102C100012161306E407F50798F0621B730B840B7A
:102C2000950B39F40A2661F0232B242B252B21F454
:102C300008950A2609F4A140A6958FEF811D811DF4
:102C4000089597F99F6780E870E060E008959FEF2E
:102C500080EC0895DF93CF931F930F93FF92EF9231
:102C6000DF927B018C01689405C0DA2EEF0176D0EB
:102C7000FE01E894A5912591359145915591AEF3CA
:102C8000EF012CDEFE019701A801DA9479F7DF90BD
:102C9000EF90FF900F911F91CF91DF910895002445
:102CA0000A941616170618060906089500240A94B1
:102CB00012161306140605060895092E0394000C37
:102CC00011F4882352F0BB0F40F4BF2B11F460FFC6
:102CD00004C06F5F7F4F8F4F9F4F089557FD9058EF
:102CE000440F551F59F05F3F71F04795880F97FBD0
:102CF000991F61F09F3F79F087950895121613068A
:102D00001406551FF2CF4695F1DF08C016161706B8
:102D10001806991FF1CF86957105610508940895ED
:102D2000E894BB2766277727CB0197F9089565DFDD
:102D300008F48FEF08959B01AC0160E070E080E83B
:102D40009FE385CE0BD0B9CFAADF28F0AFDF18F014
:102D5000952309F076CF7BCF1124E3CFBFDFA0F31B
:102D6000959FD1F3950F50E0551F629FF001729F20
:102D7000BB27F00DB11D639FAA27F00DB11DAA1F3F
:102D8000649F6627B00DA11D661F829F2227B00D8C
:102D9000A11D621F739FB00DA11D621F839FA00D17
:102DA000611D221F749F3327A00D611D231F849F67
:102DB000600D211D822F762F6A2F11249F575040BE
:102DC0008AF0E1F088234AF0EE0FFF1FBB1F661F59
:102DD000771F881F91505040A9F79E3F510570F012
:102DE00030CF9FCF5F3FECF3983EDCF3869577952D
:102DF0006795B795F795E7959F5FC1F7FE2B880F0D
:102E0000911D9695879597F908959B01AC019ACFEE
:102E100097FB072E16F4009406D077FD08D01AD041
:102E200007FC05D03EF4909581959F4F08957095CD
:102E300061957F4F0895A29FB001B39FC001A39FEA
:102E4000700D811D1124911DB29F700D811D1124E3
:102E5000911D0895AA1BBB1B51E107C0AA1FBB1FF0
:102E6000A617B70710F0A61BB70B881F991F5A9516
:102E7000A9F780959095BC01CD010895EE0FFF1F35
:102E8000881F8BBF0790F691E02D1994F894FFCF1F
:102E9000010101010108000101000080BF00008064
:102EA0003F0000803F000080BF000080BF00008026
:102EB0003F0000803F000080BF0000803F00008096
:102EC0003F0000803F0000803F9EFF8FFF01010117
:102ED00072656163686564207468726F77696E6794
:102EE000207A6F6E6520310D0A005468726F776921
:102EF0006E67200D0A005265616368656420747A0C
:102F000032200D0A007468726F77696E67200D0AAF
:102F1000007265616368656420747A330D0A006825
:102F20006F6C64696E67200D0A000A0014001E00B1
:0A2F3000280032003C00460050006B
:00000001FF
