S00E00004D61737465722E73726563AA
S113000098C00000C7C00000C5C00000F5C00000D3
S1130010C1C00000BFC0000016C10000BBC000008A
S1130020B9C000000C944E12B5C000000C94A0128C
S1130030B1C00000AFC00000ADC0000091C100001D
S1130040A9C00000A7C00000A5C00000A3C0000014
S1130050A1C000009FC000009DC000001BC10000A3
S113006099C000000C94ED150C941C1693C000006C
S113007091C000008FC000008DC000008BC0000044
S113008089C0000087C0000085C0000083C0000054
S11300900C9486160C94B5167DC000007BC000003D
S11300A079C0000077C0000075C0000073C0000074
S11300B071C000006FC000006DC000006BC0000084
S11300C069C0000067C0000065C000000C94E3161E
S11300D00C94F3165FC000000C9453170C94821711
S11300E059C00000084AD73B3BCE016E84BCBFFD1B
S11300F0C12F3D6C74319ABD56833DDA3D00C77FF4
S113010011BED9E4BB4C3E916BAAAABE000000808C
S11301103F05A84CCDB2D44EB93836A9020C50B91B
S1130120918688083CA6AAAA2ABE000000803F0047
S1130130431311241FBECFEFD1E2DEBFCDBF00E0D9
S11301400CBF12E0A0E0B2E0EEE6F6E300E00BBF85
S113015002C007900D92A439B107D9F725E0A4E9AC
S1130160B2E001C01D92AF37B207E1F710E0C9E970
S1130170D0E000E006C021970109802FFE010E9413
S11301802D1BC839D10780E00807A9F70E94111375
S11301900C94351B35CF789480E3809369008CE010
S11301A080936A008DB384628DBB0895789485B57D
S11301B0856085BD81E080936E000895CF93DF93C1
S11301C0EC0168817981072E000C880B990B0E9441
S11301D062192EEF34E346E353E40E947B1A20E0D5
S11301E030E048E453E40E94C7186C837D838E8317
S11301F09F83DF91CF9108951F920F920FB60F92B4
S113020011240BB60F928F939F93EF93FF93009B50
S113021008C0ECE9F2E080819181019691838083AA
S113022007C0ECE9F2E0808191810197918380839A
S1130230FF91EF919F918F910F900BBE0F900FBE86
S11302400F901F9018951F920F920FB60F921124C2
S11302500BB60F928F939F93EF93FF93059B08C068
S1130260E4E9F2E08081918101969183808307C063
S1130270E4E9F2E080819181019791838083FF9189
S1130280EF919F918F910F900BBE0F900FBE0F9027
S11302901F9018951F920F920FB60F9211248F93EF
S11302A081E080930402809305028093000280938E
S11302B0010280930302809302028F910F900FBE7C
S11302C00F901F9018958CE30E94581583E00E94AC
S11302D0C5150E9481158DE30E947F150E94D715D4
S11302E010928804809389040E94D7152091880471
S11302F030918904282B30938904209388040E9428
S1130300D71510928404809385040E94D7152091F8
S1130310840430918504282B30938504209384042D
S11303200E94D71510928604809387040E94E215D8
S11303302091860430918704282B309387042093DE
S113034086040C94811508952FB7F8946091800465
S11303507091810480918204909183042FBF089549
S11303601F920F920FB60F9211248F939F93AF9306
S1130370BF938091800490918104A0918204B091F4
S113038083040196A11DB11D809380049093810480
S1130390A0938204B093830480917C0490917D04A3
S11303A0A0917E04B0917F040396A11DB11D80939A
S11303B07C0490937D04A0937E04B0937F04809189
S11303C07C0490917D04A0917E04B0917F048D37CC
S11303D09105A105B10538F180917C0490917D04CB
S11303E0A0917E04B0917F048D579109A109B109B0
S11303F080937C0490937D04A0937E04B0937F0447
S11304008091800490918104A0918204B09183042E
S11304100196A11DB11D8093800490938104A09343
S11304208204B0938304BF91AF919F918F910F90F9
S11304300FBE0F901F9018954F925F926F927F920C
S11304408F929F92AF92BF92CF92DF92EF92FF92E0
S11304500F931F93CF93DF93CDB7DEB764970FB697
S1130460F894DEBF0FBECDBF69837A838B839C83F0
S113047029013A01E98AFA8A0B8B1C8B0E94C41861
S11304806D877E878F87988B69817A818B819C8128
S11304900E94DE1A69837A838B839C83C301B20131
S11304A00E94C4186D837E838F839887C301B20131
S11304B00E94DE1A69877A878B879C87A60195013B
S11304C06D817E818F8198850E947B1A2B013C016E
S11304D028A539A54AA55BA569857A858B859C8560
S11304E00E947B1A9B01AC01C301B2010E94F9175F
S11304F02B013C01A601950169817A818B819C8144
S11305000E947B1A29853A854B855C850E947B1A5B
S11305104B015C01A80197016D857E858F859889C3
S11305200E947B1A9B01AC01C501B4010E94F9171A
S11305304B015C0128A539A54AA55BA569817A818F
S11305408B819C810E947B1A2D813E814F8158852D
S11305500E947B1A9B01AC01C501B4010E94FA17E9
S11305609058A30192010E946D1821EE3EE245E6E7
S113057052E40E947B1A0E942F199B01772314F4E2
S113058028593E4FC90164960FB6F894DEBF0FBEDA
S1130590CDBFDF91CF911F910F91FF90EF90DF902E
S11305A0CF90BF90AF909F908F907F906F905F900F
S11305B04F9008954F925F926F927F92AF92BF9245
S11305C0CF92DF92EF92FF920F931F93CF93DF931B
S11305D0CDB7DEB764970FB6F894DEBF0FBECDBFBC
S11305E063E074E0CE0101960E943E148CE0FE01AB
S11305F03196ABEDB3E001900D928A95E1F783E07B
S113060094E00E94E7140BED13E0F8014084518458
S1130610628473846081718182819381A3019201D8
S11306200E946D1821EE3EE245E652E40E947B1AD8
S11306306093FF0370930004809301049093020479
S1130640F8016481758186819781A30192010E94DA
S11306506D1821EE3EE245E652E40E947B1A609357
S1130660FB037093FC038093FD039093FE032BDE46
S11306706BDE0091E7031091E8032091E9033091C8
S1130680EA03601771078207930709F449C15CDE26
S11306906093E7037093E8038093E9039093EA037C
S11306A080915402882391F18091FF03909100047A
S11306B0A0910104B09102048093F3039093F40396
S11306C0A093F503B093F6038091FB039091FC0390
S11306D0A091FD03B091FE038093EF039093F00388
S11306E0A093F103B093F2038091F7039091F80380
S11306F0A091F903B091FA038093EB039093EC0378
S1130700A093ED03B093EE031092540283E094E0BF
S11307100E9440152FE632E143E85AE30E947B1A17
S11307202091F3033091F4034091F5035091F603C3
S11307300E94FA172BE734E14EE65FE30E947B1A2E
S11307402B013C0129E23CE54FE85DE36091FF03A6
S11307507091000480910104909102040E947B1A1C
S11307609B01AC01C301B2010E94FA176093F30329
S11307707093F4038093F5039093F60383E094E07D
S11307800E9448152FE632E143E85AE30E947B1A9F
S11307902091EF033091F0034091F1035091F20363
S11307A00E94FA172BE734E14EE65FE30E947B1ABE
S11307B02B013C0129E23CE54FE85DE36091FB033A
S11307C07091FC038091FD039091FE030E947B1ABB
S11307D09B01AC01C301B2010E94FA172B013C0139
S11307E06093EF037093F0038093F1039093F2030B
S11307F06091860470918704072E000C880B990B76
S11308000E9462195B016C016091880470918904F3
S1130810072E000C880B990B0E9462196D877E8746
S11308208F87988B25E33AEF4EE85CE3C301B2016E
S11308300E947B1A698B7A8B8B8B9C8B25E33AEF16
S11308404EE85CE36091F3037091F4038091F50347
S11308509091F6030E947B1A2B013C016091840461
S113086070918504072E000C880B990B0E94621965
S11308709F938F937F936F93ED84FE840F851889E4
S113088029893A894B895C89C301B201D5DD0F906E
S11308900F900F900F90BC0180E090E00E946019CF
S11308A06093F7037093F8038093F9039093FA032A
S11308B083E094E00E9450152FE632E143E85AE3C6
S11308C00E947B1A2091EB033091EC034091ED03DD
S11308D05091EE030E94FA172DEC3CEC4CEC5DE3D6
S11308E00E947B1A2B013C0126E636E646E65FE3CE
S11308F06091F7037091F8038091F9039091FA03E2
S11309000E947B1A9B01AC01C301B2010E94FA1739
S11309106093EB037093EC038093ED039093EE03E9
S11309206091EB037091EC038091ED039091EE03E1
S11309300E943419CB0164960FB6F894DEBF0FBE43
S1130940CDBFDF91CF911F910F91FF90EF90DF907A
S1130950CF90BF90AF907F906F905F904F9008952D
S113096080910B02811108C080910A02823071F0DB
S1130970833071F4A1E013C0813061F480910A02E4
S1130980823051F0833051F4A3E009C0A0E007C0E5
S1130990A4E005C0A4E003C0A2E001C0A4E0B0E06C
S11309A0AA0FBB1FAA0FBB1FA45FBD4FEFECF3E060
S11309B067ED73E04D91208131814203C001439F73
S11309C0900D112481939193E617F70799F70895F1
S11309D04F925F926F927F92AF92BF92CF92DF92CB
S11309E0EF92FF920F931F93CF93DF930F2EF4E8B0
S11309F0EF2EF2E0FF2EF02D08EA13E0C0E0D0E085
S1130A00CC24C394D12C86B190E00C2E02C09595D1
S1130A1087950A94E2F780FF10C0F801D182C08262
S1130A202091C003C6010C2E02C0880F991F0A949E
S1130A30E2F7822B8093C00303C0F8011182108275
S1130A40F701819191917F01F801A190B1908F01FB
S1130A508A9DB0018B9D700D9A9D700D1124072EF7
S1130A60000C880B990B0E9462192091BC033091F1
S1130A70BD034091BE035091BF030E94FA172B019E
S1130A803C016093BC037093BD038093BE039093B9
S1130A90BF03B501BB0C880B990B0E94621920910E
S1130AA0B8033091B9034091BA035091BB030E943B
S1130AB0FA176093B8037093B9038093BA039093C1
S1130AC0BB032196C830D10509F09DCF1092BC0319
S1130AD01092BD031092BE031092BF031092B8038C
S1130AE01092B9031092BA031092BB039B01AC019C
S1130AF0C301B2010E94C7180E942F19CB01DF91D4
S1130B00CF911F910F91FF90EF90DF90CF90BF9006
S1130B10AF907F906F905F904F9008958F929F92C7
S1130B20AF92BF92CF92DF92EF92FF920F931F93F7
S1130B30CF93DF938091CB02882349F049DF892B3F
S1130B4031F046DFEBEBF2E095838483108A8091E9
S1130B500002882309F4CDC080915602882309F449
S1130B60CCC036DFEC019093BC028093BB02892B8E
S1130B7009F4BDC080912102882309F4B8C0EBEBCD
S1130B80F2E0668577856C1B7D0B73836283611548
S1130B90710541F41092C5021092C6021092C70268
S1130BA01092C802072E000C880B990B0E94621940
S1130BB04B015C010BEB12E0F801218D328D438D6A
S1130BC0548D0E947B1AF80122853385448555850E
S1130BD00E94FA176B017C01F8016287738784878E
S1130BE095870E942F199B01772324F4222733270A
S1130BF0261B370B263031055CF120E030E0A901DB
S1130C00C701B6010E94701A18166CF480E090E0D7
S1130C10A0EAB0E48093C5029093C602A093C702F1
S1130C20B093C80215C020E030E0A901C701B601A5
S1130C300E94C018882364F480E090E0A0EAB0EC3D
S1130C408093C5029093C602A093C702B093C802D2
S1130C500BEB12E0F801258936894789508DC501CF
S1130C60B4010E947B1AF801228533854485558599
S1130C700E94FA176B017C01F80184819581BE0101
S1130C80681B790B072E000C880B990B0E946219C4
S1130C90F801258D368D478D50A10E947B1A9B014A
S1130CA0AC01C701B6010E94F9170E942F199B01DC
S1130CB0F80177836683D583C483AB01772324F457
S1130CC044275527461B570B4135510584F012160E
S1130CD013063CF480E590E09093C2028093C10235
S1130CE006C080EB9FEF9093C2028093C1021092E2
S1130CF0000280915602811104C01092C202109227
S1130D00C102DF91CF911F910F91FF90EF90DF907F
S1130D10CF90BF90AF909F908F9008950E943A1704
S1130D208F3F910511F00A96089580E090E00895B0
S1130D308F929F92AF92BF92CF92DF92EF92FF92E7
S1130D400F931F93CF93DF938091EC02882351F08C
S1130D50E5DF892B39F0E2DFECEDF2E09583848363
S1130D60108AD0C080910002882309F4CBC08091FE
S1130D705602882309F4CAC0D1DFEC019093DD0246
S1130D808093DC02892B09F4BBC080912102882363
S1130D9009F4B6C0ECEDF2E0668577856C1B7D0B3B
S1130DA0738362836115710531F412861386148688
S1130DB01586D583C483072E000C880B990B0E94DB
S1130DC062194B015C010CED12E0F801218D328DAA
S1130DD0438D548D0E947B1AF80122853385448506
S1130DE055850E94FA176B017C01F80162877387AD
S1130DF0848795870E942F199B01772324F4222747
S1130E003327261B370B263031055CF120E030E018
S1130E10A901C701B6010E94701A18166CF480E08B
S1130E2090E0A0EAB0E48093E6029093E702A093F6
S1130E30E802B093E90215C020E030E0A901C7013F
S1130E40B6010E94C018882364F480E090E0A0EA10
S1130E50B0EC8093E6029093E702A093E802B0938B
S1130E60E9020CED12E0F801258936894789508D95
S1130E70C501B4010E947B1AF8012285338544859B
S1130E8055850E94FA176B017C01F80184819581D4
S1130E90BE01681B790B072E000C880B990B0E946E
S1130EA06219F801258D368D478D50A10E947B1A59
S1130EB09B01AC01C701B6010E94F9170E942F19CA
S1130EC09B01F80177836683D583C483AB017723C1
S1130ED024F444275527461B570B4135510584F00C
S1130EE0121613063CF480E590E09093E30280939D
S1130EF0E20206C080EB9FEF9093E3028093E2024C
S1130F001092010280915602811104C01092E302F2
S1130F101092E202DF91CF911F910F91FF90EF9019
S1130F20DF90CF90BF90AF909F908F900895CF9314
S1130F30DF93EC0110922002FBDEF0DD80910A02C7
S1130F408230F1F48091E2029091E302EFECF3E05D
S1130F509C012C0F3D1F318320839E01281B390BDC
S1130F60338322838091C1029091C2029E01280F93
S1130F70391F35832483C81BD90BD783C6831CC070
S1130F808091E2029091E302EFECF3E09E01281BD2
S1130F90390B318320838C0F9D1F9383828380912F
S1130FA0C1029091C2029E01281B390B3583248310
S1130FB0C80FD91FD783C683D3DCDF91CF9108959F
S1130FC02F923F924F925F926F927F928F929F9255
S1130FD0AF92BF92CF92DF92EF92FF920F931F9343
S1130FE0CF93DF931C018B017A0184E992E0E6D868
S1130FF00E942F199B01772324F422273327261BD1
S1131000370B69013093C6032093C5033092120352
S11310102092110380910202882309F4CBC010921C
S11310200202283582E038070CF47BC0C3E0D3E029
S113103039832883221A330A3B822A82B101032C82
S1131040000C880B990B0E9462192B013C01298D1D
S11310503A8D4B8D5C8D0E947B1A2A853B854C858D
S11310605D850E94FA174B015C016A877B878C8738
S11310709D878889811110921303C501B4010E94D0
S11310802F199B01772324F422273327261B370BA0
S11310902B3031055CF120E030E0A901C501B40139
S11310A00E94701A18166CF480E090E0A0E2B1E49B
S11310B080930D0390930E03A0930F03B09310033A
S11310C015C020E030E0A901C501B4010E94C01898
S11310D0882364F480E090E0A0E2B1EC80930D03F7
S11310E090930E03A0930F03B093100312141304F0
S11310F07CF4C3E0D3E02D893E894F89588DC30128
S1131100B2010E947B1A0E942F197F836E8304C050
S113111010920A0310920903D0920803C0920703A5
S113112018C0B901330F880B990B0E9462192AE980
S113113039E949E15EE30E947B1A20E030E040E7B0
S113114052E40E94FA170E942F1970930A036093C5
S113115009038091090390910A0399231CF4919542
S1131160819591098E159F0520F0F0920A03E09273
S1131170090381E080930B020230110561F480932E
S1131180C2031092C1031092C4031092C30382E0FD
S113119080930A020FC00330110561F481E080934B
S11311A0C1031092C2031092C4031092C30383E0DC
S11311B080930A028091090390910A03B8DEDF91BB
S11311C0CF911F910F91FF90EF90DF90CF90BF9040
S11311D0AF909F908F907F906F905F904F903F90D3
S11311E02F900895E8E0F1E0908181E089278083E1
S11311F01092C3031092C4031092C2031092C1034D
S11312000895CF93DF938FE70E943E17C7EDD3E095
S113121088810E943E1789810E943E178A810E941C
S11312203E178B810E943E17DF91CF9108952F9234
S11312303F924F925F926F927F928F929F92AF9262
S1131240BF92CF92DF92EF92FF920F931F93CF93AF
S1131250DF9300D01F92CDB7DEB7809120028823A0
S113126009F457C00F2EFFECCF2EF3E0DF2EF02D44
S11312700F2EF4E24F2EF2E05F2EF02D0F2EF7ED3D
S11312802F2EF3E03F2EF02D0F2EFFEC6F2EF3E008
S11312907F2EF02DDA82C98209EC13E072011B82E1
S11312A01C82D8016D917D918D01F70181909190FF
S11312B0A190B1907F01072E000C880B990B0E941E
S11312C06219A50194010E947B1A4B015C012B81D8
S11312D03C81B901330F880B990B0E9462199B0161
S11312E0AC01C501B4010E94FA170E942F197C8336
S11312F06B8306151705A9F6A981BA816D937C93B2
S1131300F2E0CF0ED11C2CE0420E511CC214D304C7
S113131009F6E7EDF3E0AFECB3E02D913C9147E142
S1131320429FC001439F900D112429EF30E0B90181
S11313300E94061B60836091D1037091D203469F83
S1131340C001479F900D1124B9010E94061B6183BF
S11313506091D3037091D403469FC001479F900DC1
S11313601124B9010E94061B62836091D503709118
S1131370D603469FC001479F900D1124B9010E94D6
S1131380061B63833EDF0F900F900F900F90DF9149
S1131390CF911F910F91FF90EF90DF90CF90BF906E
S11313A0AF909F908F907F906F905F904F903F9001
S11313B02F9008950F931F93ACEDB2E08DE290E06F
S11313C01F969C938E931E97EBEBF2E0978786878C
S11313D00AE919E929E93FE355960D931D932D93E5
S11313E03C93589759961D921D921D921C925C979E
S11313F040E050E060E871E45D964D935D936D9339
S11314007C939097058B168B278B308F118E128EC1
S1131410138E148E458F568F678F70A3E4E2F3E02A
S11314204DEC5CEC6CEC7DE3458B568B678B708FDD
S1131430118E128E138E148E80E090E0A0ECBFE328
S1131440858F968FA78FB0A3E3E0F3E0458B568B8F
S1131450678B708F118E128E138E148E858F968FDC
S1131460A78FB0A31F910F9108952F923F924F928F
S11314705F926F927F928F929F92AF92BF92CF9220
S1131480DF92EF92FF920F931F93CF93DF931C0190
S11314908B017A0181E0809320028CE992E00E9422
S11314A0DE000E942F19AB01772324F4442755272B
S11314B0461B570BEA015093C8034093C70330926D
S11314C033032092320320910302222309F455C1ED
S11314D01092C2031092C103509325034093240336
S11314E010920302483582E058070CF4EAC0241A2B
S11314F0350A0F2EF4E2CF2EF3E0DF2EF02DF601A5
S113150033822282B101032C000C880B990B0E94B8
S113151062192B013C01F601218D328D438D548DCE
S11315200E947B1AF60122853385448555850E94E5
S1131530FA174B015C01F6016287738784879587EC
S11315408089882319F0D583C483108AC501B40126
S11315500E942F199B01772324F422273327261B6B
S1131560370B2B3031055CF120E030E0A901C501D7
S1131570B4010E94701A18166CF480E090E0A0E2A6
S1131580B1E480932E0390932F03A0933003B09380
S1131590310315C020E030E0A901C501B4010E9467
S11315A0C018882364F480E090E0A0E2B1EC80935A
S11315B02E0390932F03A0933003B093310312149E
S11315C01304BCF50F2EF4E2CF2EF3E0DF2EF02D42
S11315D0F601258936894789508DC301B2010E94DD
S11315E07B1AF60122853385448555850E94FA17B6
S11315F04B015C01F60184819581BE01681B790B66
S1131600072E000C880B990B0E946219F601258D98
S1131610368D478D50A10E947B1A9B01AC01C501F8
S1131620B4010E94F9170E942F19F601778366838B
S113163004C010922B0310922A03E4E2F3E0D58352
S1131640C483868197819C01992324F4222733271C
S1131650281B390BE216F3067CF4181619062CF431
S1131660F0922B03E0922A0307C0F194E194F1086D
S1131670F0922B03E0922A0380912A0390912B038A
S113168043968797A8F48091C403882339F084E1B2
S113169090E090932B0380932A030AC08091C303A4
S11316A0882331F08CEE9FEF90932B0380932A03D1
S11316B080912A0390912B039093CA038093C903CA
S11316C035C0809122028823C9F0BA01550F880BD6
S11316D0990B0E94621921EC3AEC41EA5EE30E9404
S11316E07B1A20E030E040EF51E40E94FA170E9498
S11316F02F197093CA036093C90318C0BA01550F18
S1131700880B990B0E9462192AE939E949E15EE3E1
S11317100E947B1A20E030E040E752E40E94FA176E
S11317200E942F197093CA036093C90302301105F4
S113173051F481E08093C4031092C3031092C10357
S11317401092C2031AC003301105B9F4E9ECF3E0B6
S11317508081918199231CF49195819591099195AA
S113176081959109918380831092C40381E08093D1
S1131770C3031092C2031092C103809122028823F2
S113178091F080912302882339F082EE9FEF9093A9
S1131790CC038093CB030BC087EE9FEF9093CC03D5
S11317A08093CB0304C01092CC031092CB0310920D
S11317B0CE031092CD03DF91CF911F910F91FF9033
S11317C0EF90DF90CF90BF90AF909F908F907F90DD
S11317D06F905F904F903F902F90089585EB90E02D
S11317E0909354038093530381E080932002E9ECA7
S11317F0F3E01182108213821282158214820895FA
S11318000F931F93EBDF0E94A4010091FD0210913E
S1131810FE022091FF0230910003DC01CB01801B0A
S1131820910BA20BB30B0297A105B105A8F10E947D
S1131830DA022091530330915403A9014F5F5F4FA3
S11318404817590790F0215031098217930768F01F
S11318508091010390910203019690930203809377
S113186001038436910531F00BC0109202031092EB
S1131870010306C0109202031092010381E00DC01F
S11318800E94A4016093FD027093FE028093FF0204
S11318909093000380E001C080E01F910F910895B0
S11318A0CF938091BA028111A6C08091090184FD71
S11318B064C08091AF029091B002059709F05DC0B9
S11318C04FC08091AF029091B0020697F9F48091D5
S11318D00902811157C01AC08091AF029091B002E1
S11318E0059731F08091AF029091B002069731F4E0
S11318F081E08093B80287E70E94E4178091BA02DE
S1131900882321F08091B90281117AC08091080264
S1131910882381F08091090184FD0CC07D990AC05F
S113192080910902811106C08091AF029091B002AA
S11319300697E9F17D9B58C08091AF029091B00267
S1131940069709F051C08091090281114DC035C03C
S11319501092B90281E08093B5021092B40250C093
S11319608FE60E94E41781E08093BA028093B60266
S11319701092AB021092AC023EC08091090184FF28
S1131980A0CFC4CF8FE60E94E41781E08093BA020F
S11319901092B6028093B5028093AA028093AB02A0
S11319A08093AC021092A8021092A90224C08BE684
S11319B00E94E41710920802BDCFC1E0C093A802B0
S11319C0C093A9021092A6021092A7028AE60E946E
S11319D0E417C093B902C093B802C093BA02C0938B
S11319E0B4021092B5020CC08091AF029091B00283
S11319F0069731F4ADCF8091090184FD6DCF82CF7C
S1131A00CF9108958091AF029091B002059739F07B
S1131A108091AF029091B002069709F052C0809174
S1131A20060290910702089709F04BC05CC38091AD
S1131A30AA0281111FC08091090186FF12C085E0AE
S1131A4090E09093B0028093AF0281E08093B10262
S1131A5010928A04109255028093BA028093B802BD
S1131A6030C081E08093B6021092AB021092AC02B7
S1131A7017DF27C08091A902882309F18091A80269
S1131A808823E9F08091090186FF0BC086E090E08D
S1131A909093B0028093AF021092090201DF9EDEA0
S1131AA010C080910902882339F01092A802109284
S1131AB0A9021092A50205C0F3DE90DE02C0F0DE9A
S1131AC08DDE8091AE02811127C08091AF0290918A
S1131AD0B002892B09F40CC33BC07894E8E6F0E02B
S1131AE0808181608083EBE6F0E080818061808387
S1131AF02FC08CE992E00E94DE000E942F199B0106
S1131B00772324F422273327261B370B2C3D35401B
S1131B10FCF0109223021CC08091AD02811107C019
S1131B208091AF029091B002892B09F416C3809181
S1131B30AD02882369F08091AF029091B0020197C1
S1131B4039F48091060290910702079709F442C381
S1131B508091BA02882309F4A0C48091B802882332
S1131B6009F49BC48091B602882309F451C380917F
S1131B70AC02811113C08091AF029091B00205971D
S1131B80F1F44CC37894E8E6F0E0808184608083CB
S1131B90EDE6F0E080818068808311C08091AB0223
S1131BA081110DC08091AF029091B002059739F474
S1131BB08091060290910702079709F464C380910B
S1131BC0AF029091B0020297F1F4809106029091D5
S1131BD007020897C1F476C313DE882329F081E352
S1131BE00E94E4171092B7020E94C9178093A402BE
S1131BF0873649F481E08093B3021092B60280E202
S1131C008093A40205C08091B302882309F449C0DB
S1131C108091AC02882309F444C08091AB02811105
S1131C2045C0E5E4F3E080E090E0A0E0B0E4858B1B
S1131C30968BA78BB08F118E128E138E148E80E02C
S1131C4090E0A0EFB1E4858F968FA78FB0A346E90B
S1131C5050E063E070E08CEB97E0B2D987E090E06D
S1131C60909307028093060284E992E00E94DE00CA
S1131C700E942F199B01772324F422273327261B44
S1131C80370B203B34400CF474C07894E8E6F0E061
S1131C90808184608083EDE6F0E0808180688083C9
S1131CA068C08091AB02882309F435C38091060291
S1131CB090910702079709F02EC38091AF0290918B
S1131CC0B002029709F027C304C38091AA028111CC
S1131CD043C0E5E4F3E080E090E0A0E0B0E4858B6D
S1131CE0968BA78BB08F118E128E138E148E80E07C
S1131CF090E0A0EFB1E4858F968FA78FB0A346E95B
S1131D0050E062E070E080ED97E0AFDB87E090E0C8
S1131D1090930702809306028CE992E00E94DE0011
S1131D200E942F199B01772324F422273327261B93
S1131D30370B2C363740ECF07894E8E6F0E08081FD
S1131D4081608083EBE6F0E080818061808311C054
S1131D508091AA02882369F080910602909107027B
S1131D60079739F48091AF029091B002059709F476
S1131D70D7C28091B502882309F443C08091A90297
S1131D80811143C0E5E4F3E080E090E0A0E0B0E43A
S1131D90858B968BA78BB08F118E128E138E148E1B
S1131DA080E090E0A0EFB1E4858F968FA78FB0A379
S1131DB087E090E0909307028093060246E950E0A2
S1131DC062E070E08EE997E0FBD884E992E00E943B
S1131DD0DE000E942F199B01772324F42227332746
S1131DE0261B370B203B34400CF17894E8E6F0E0F6
S1131DF0808184608083EDE6F0E080818068808368
S1131E0015C08091A902882389F08091A8028111CC
S1131E100DC08091AF029091B002069739F4809181
S1131E20060290910702079709F49CC28091AF02C1
S1131E309091B002039719F58091060290910702E0
S1131E400897E9F4ABC282E30E94E41710929D0262
S1131E5010929C0210929502109294021092B70272
S1131E600E94C9178093A402873649F481E08093C5
S1131E70B2021092B40280E28093A40205C0809161
S1131E80B202882309F448C08091A902882309F486
S1131E9043C08091A802811143C0E5E4F3E080E0EF
S1131EA090E0A0E0B0E4858B968BA78BB08F118E69
S1131EB0128E138E148E80E090E0A0EFB1E4858F33
S1131EC0968FA78FB0A346E950E063E070E08EE9F7
S1131ED097E076D887E090E090930702809306021B
S1131EE084E992E00E94DE000E942F199B0177236F
S1131EF024F422273327261B370B203B3440ECF0F5
S1131F007894E8E6F0E0808184608083EDE6F0E098
S1131F1080818068808311C08091A802882369F041
S1131F208091060290910702079739F48091AF02DD
S1131F309091B002039709F43EC28091B4028823C1
S1131F4009F44BC08091A70281114BC0E5E4F3E092
S1131F5080E090E0A0E0B0E4858B968BA78BB08FF7
S1131F60118E128E138E148E80E090E0A0EFB1E4F7
S1131F70858F968FA78FB0A385EB90E09787868790
S1131F8040EF50E062E070E080E594E119D887E02A
S1131F9090E0909307028093060284E992E00E9405
S1131FA0DE000E942F199B01772324F42227332774
S1131FB0261B370B203A3F400CF43BC07894E8E6EC
S1131FC0F0E0808184608083EDE6F0E080818068C9
S1131FD0808387E592E08CD62CC08091A702882369
S1131FE041F18091AF029091B002069709F04DC281
S1131FF08091060290910702079709F046C2FEC13C
S11320008091060290910702089799F415C283E320
S1132010DBD71092B702BDD78093A402873649F468
S113202081E08093B2021092B40280E28093A40211
S113203005C08091B202882309F441C08091A702AF
S11320408823E9F18091A60281113EC0E5E4F3E022
S113205080E090E0A0E0B0E4858B968BA78BB08FF6
S1132060118E128E138E148E80E090E0A0EFB1E4F6
S1132070858F968FA78FB0A387E090E09093070297
S11320808093060284E992E00E94DE000E942F19E8
S11320909B01772324F422273327261B370B203A6E
S11320A03F400CF4FAC17894E8E6F0E08081846063
S11320B08083EDE6F0E080818068808308958091DC
S11320C0A602882309F4E9C18091060290910702CF
S11320D0079709F0E2C18091AF029091B002049792
S11320E009F0DBC1B0C18091AB028111A0CCC2CC9C
S11320F0E5E4F3E080E090E0A0E0B0E4858B968B2B
S1132100A78BB08F118E128E138E148E80E090E008
S1132110A0EFB1E4858F968FA78FB0A34CED50E06C
S113212062E070E088EF91E1A0D987E090E09093BD
S11321300702809306028CE992E00E94DE000E946E
S11321402F199B01772324F422273327261B370BCF
S1132150203331410CF0C1CCCCCC1092220281E06E
S113216090E09093B0028093AF02E5E4F3E080E066
S113217090E0A0E0B0E4858B968BA78BB08F118E96
S1132180128E138E148E80E090E0A0EFB1E4858F60
S1132190968FA78FB0A387E090E090930702809377
S11321A00602EBE6F0E080818F7E80837894E8E697
S11321B0F0E0808184608083EDE6F0E080818068D7
S11321C0808348E250E062E070E088EE93E00E9491
S11321D0E007BECC85E090E09093B0028093AF021C
S11321E088E6F2D688E090E0909307028093060296
S11321F0EDE6F0E080818F7780830E94F2081092F0
S11322009D0210929C021092950210929402A0CC0E
S11322108091AC02882309F4D2CCC0CC87E090E052
S11322209093070280930602E5E4F3E080E090E0F7
S1132230A0E0B0E4858B968BA78BB08F118E128EA5
S1132240138E148E80E090E0A0EFB1E4858F968F1A
S1132250A78FB0A346E950E062E070E08CEB97E012
S11322600E94E00784E992E00E94DE00F8D79B0117
S1132270772324F422273327261B370B20343640B8
S11322800CF080CC9CCCEDE6F0E080818F778083ED
S113229084E692E02DD50E94F20882E090E09093CB
S11322A0B0028093AF0210929D0210929C02109291
S11322B095021092940288E090E090930702809334
S11322C006027DCC8BDA8091B702882309F48CCC8A
S11322D083CCEDE6F0E080818F77808385E090E029
S11322E09093B0028093AF020E94F20810929D0274
S11322F010929C02109295021092940288E090E051
S113230090930702809306021092BA021092B802C8
S11323101092B3022ECD8091B1028111D6CC18CD8A
S11323201092B102EBE6F0E080818F7E80830E9400
S1132330F20886E090E09093B0028093AF0288E0C8
S113234090E0909307028093060210929D021092EF
S11323509C0210929502109294021092BA0210926A
S1132360B80207CD83E090E09093B0028093AF026F
S1132370EDE6F0E080818F77808310929D021092C9
S11323809C02109295021092940288E090E090933F
S11323900702809306020E94F20848CDE9ECF3E0BC
S11323A0118210821382128219DA8091B702882373
S11323B009F456CD48CD12DAEDE6F0E080818F774E
S11323C080830E94F20810929D0210929C02109247
S11323D095021092940286E090E09093B00280936C
S11323E0AF0288E090E09093070280930602109277
S11323F0BA021092B8021092B2029FCDEDE6F0E05C
S113240080818F7780830E94F20810929D0210923F
S11324109C02109295021092940288E090E09093AE
S11324200702809306021092B40284E090E0909335
S1132430B0028093AF02FDCDD1D98091B702882339
S113244009F4E9CDE4CDEDE6F0E080818F77808377
S11324500E94F20810929D0210929C021092950222
S11324601092940286E090E09093B0028093AF02C1
S113247088E090E090930702809306021092BA02DB
S11324801092B8021092B20208958091AF02909116
S1132490B002049709F0CDCDB3CD08951F920F92E9
S11324A00FB60F9211240BB60F922F933F934F93B5
S11324B05F936F937F938F939F93AF93BF93EF93A8
S11324C0FF938091AE02811106C081E08093AE0239
S11324D080938A0422C08091AA02811108C081E0FD
S11324E08093AA0280938A040E94F20816C0809105
S11324F0A502811112C081E08093A5020E94F20816
S1132500EBE6F0E080818F7E808310929D02109232
S11325109C021092950210929402FF91EF91BF9148
S1132520AF919F918F917F916F915F914F913F9167
S11325302F910F900BBE0F900FBE0F901F90189508
S11325401F920F920FB60F9211240BB60F922F9376
S11325503F934F935F936F937F938F939F93AF9327
S1132560BF93EF93FF938091AD02811106C00E9447
S1132570F20881E08093AD0241C08091AC028111E8
S113258008C081E08093B7028093AC020E94F208F5
S113259035C08091AB02811106C081E08093AB020B
S11325A00E94F2082BC08091A902811108C081E029
S11325B08093B7028093A9020E94F2081FC0809101
S11325C0A802811106C081E08093A8020E94F2084B
S11325D015C08091A702811108C081E08093B702E1
S11325E08093A7020E94F20809C08091A60281117B
S11325F005C081E08093A6020E94F208FF91EF914A
S1132600BF91AF919F918F917F916F915F914F9106
S11326103F912F910F900BBE0F900FBE0F901F9004
S11326201895EAE0F1E080818F7E808380818F7B42
S11326308083EBE0F1E0808180618083808180642D
S1132640808385988D98E7E0F1E0808181608083C4
S1132650E8E0F1E080818E7F808381988298899A76
S11326608A9A87E690E016D389E190E0EAD387E678
S113267090E076D40E94DA09789410920902C2D9C3
S11326800E941709FCCF83E094E03DD0E7E8F3E033
S11326901086118681E0808BE6E6F3E010861186D1
S11326A0808BE5E4F3E010861186808BE4E2F3E0AE
S11326B010861186808BE3E0F3E010861186808B10
S11326C0ECEDF2E010861186808BEBEBF2E01086E5
S11326D01186808B10929D0210929C028CE992E0EC
S11326E00E94CB008CE992E00E94D60010929502E1
S11326F01092940284E992E00E94CB0084E992E073
S11327000C94D6000895FC0114AE15AE16AE17AEA7
S1132710DC01A05CBF4F1D921D921D921C92139769
S113272014961D921D921D921C921397D4961C927E
S1132730D0971D921D921D921C92139714961D9270
S11327401D921D921C92139714961D921D921D9218
S11327501C92139710AA11AA12AA13AA14AA15AAB2
S113276016AA17AA10AE11AE12AE13AE94961D920D
S11327701D921D921C92139718974FE35EE16AEF26
S11327807BE34D935D936D937C931397E059FF4FD7
S113279080E49AEDAFE7B8E380839183A283B383A7
S11327A00895CF93C62F80EDB5D18C2FEED181ED56
S11327B0A6D1CF910895AF92BF92CF92DF92EF92BC
S11327C0FF920F931F93CF93DF938C01EB016BE385
S11327D0CE01E7DFECD1A82EEAD1B82EE8D1C82E7D
S11327E0E6D1E82EE4D1D82EEDD1F82E6B2D70E091
S11327F07A29072E000C880B990B64D5FE01E85B3F
S1132800FF4F2081318142815381F3D368837983DF
S11328108A839B836E2D70E07C29072E000C880B25
S1132820990B50D5FE01E45BFF4F20813181428139
S11328305381DFD36C837D838E839F836F2D70E000
S11328407D29072E000C880B990B3CD56887798766
S11328508A879B8756D18CE0FE01D80101900D92A6
S11328608A95E1F7C801DF91CF911F910F91FF90F5
S1132870EF90DF90CF90BF90AF900895AF92BF924A
S1132880CF92DF92EF92FF920F931F93CF93DF9338
S1132890CDB7DEB72C970FB6F894DEBF0FBECDBF11
S11328A05C018B01CE01019686DFF801E059FF4FF0
S11328B0C080D180E280F380A7019601F801608195
S11328C071818281938117D6F801608F718F828F15
S11328D0938FA701960164817581868197810BD6B8
S11328E0F801648F758F868F978FA7019601608595
S11328F0718582859385FFD5F80160A371A382A3B6
S113290093A38CE07896D50101900D928A95E1F716
S1132910C5012C960FB6F894DEBF0FBECDBFDF9174
S1132920CF911F910F91FF90EF90DF90CF90BF90C8
S1132930AF900895FF920F931F93CF93DF938C0171
S1132940EB0163E4CE012DDF32D1F82E30D16F2DAF
S113295070E0762F6627682B072E000C880B990BE6
S1132960B1D46C877D878E879F8721D1F82E1FD1A4
S11329706F2D70E0762F6627682B072E000C880BCE
S1132980990BA0D4688B798B8A8B9B8B10D1F82EF2
S113299019D16F2D70E0762F6627682B072E000C57
S11329A0880B990B8FD46C8B7D8B8E8B9F8BA9D0CE
S11329B08CE0FE013C96D80101900D928A95E1F7D6
S11329C0C801DF91CF911F910F91FF900895EF926D
S11329D0FF920F931F93CF93DF93CDB7DEB72C975E
S11329E00FB6F894DEBF0FBECDBF8C01BC01CE0183
S11329F00196A0DF780180E6E80EF11C20E030E0CB
S1132A0043E053E4F8016485758586859785BFD3D3
S1132A10F70160837183828393837801F4E6EF0E78
S1132A20F11C20E030E043E053E4F801608971894F
S1132A3082899389ACD3F701608371838283938302
S1132A407801F8E6EF0EF11C20E030E043E053E4B7
S1132A50F801648975898689978999D3F701608318
S1132A607183828393832C960FB6F894DEBF0FBED6
S1132A70CDBFDF91CF911F910F91FF90EF900895FB
S1132A80805A9F4FFC0160817181828193810895F6
S1132A908C599F4FFC0160817181828193810895DB
S1132AA088599F4FFC0160817181828193810895CF
S1132AB094EA9093BC00ECEBF0E090819923ECF75E
S1132AC09091B900987F983011F09031A1F48093DF
S1132AD0BB0084E88093BC00ECEBF0E080818823A9
S1132AE0ECF79091B900987F983139F081E09034F7
S1132AF029F480E0089581E0089580E00895D8CF16
S1132B00089584E98093BC00ECEBF0E0808184FDBF
S1132B10FDCF0895BF92CF92DF92EF92FF920F9371
S1132B201F93CF93DF93B82ECCEBD0E009EB10E0EA
S1132B300F2EF4EADF2EF02D0F2EFBEBEF2EF12CEF
S1132B40F02D0F2EF4E8CF2EF02DD8828881882323
S1132B50ECF7F8018081887F8830B9F7F701B082FB
S1132B60C88288818823ECF7F8018081887F8831C6
S1132B7011F0C7DFEACFDF91CF911F910F91FF9042
S1132B80EF90DF90CF90BF9008958093BB0084E8CE
S1132B908093BC00ECEBF0E080818823ECF790910B
S1132BA0B900987F81E0983209F480E0089584ECBC
S1132BB08093BC00ECEBF0E080818823ECF78091FB
S1132BC0BB00089584E88093BC00ECEBF0E08081C6
S1132BD08823ECF78091BB0008951F920F920FB6E3
S1132BE00F9211240BB60F922F938F939F93EF9311
S1132BF0FF938091C0002091C6008871E0913B054D
S1132C00EF5FEF7190913A05E91739F0E0933B05D6
S1132C10F0E0E25CFA4F208301C082E08093390542
S1132C20FF91EF919F918F912F910F900BBE0F9079
S1132C300FBE0F901F9018951F920F920FB60F9210
S1132C4011240BB60F928F939F93EF93FF93909160
S1132C503D0580913C05981769F0E0913C05EF5FD4
S1132C60EF71E0933C05F0E0E25AFA4F80818093E3
S1132C70C60005C0E1ECF0E080818F7D8083FF9188
S1132C80EF919F918F910F900BBE0F900FBE0F90FD
S1132C901F90189510923D0510923C0510923B052B
S1132CA010923A05992324F422E02093C0009F77E0
S1132CB09093C5008093C40088E98093C10086E0A6
S1132CC08093C200089520913D052F5F2F7190914C
S1132CD03C052917E1F3E22FF0E0E25AFA4F808332
S1132CE020933D05E1ECF0E08081806280830895CB
S1132CF0CF93DF93EC018881882329F02196E3DFC9
S1132D0089918111FCCFDF91CF9108951F920F9289
S1132D100FB60F9211240BB60F922F938F939F939C
S1132D20EF93FF938091C8002091CE008871E091C9
S1132D30F604EF5FEF719091F504E91739F0E09331
S1132D40F604F0E0E750FB4F208301C082E080935B
S1132D50F404FF91EF919F918F912F910F900BBEEF
S1132D600F900FBE0F901F9018951F920F920FB6E1
S1132D700F9211240BB60F928F939F93EF93FF93AF
S1132D809091F8048091F704981769F0E091F704A2
S1132D90EF5FEF71E093F704F0E0E75EFA4F8081B4
S1132DA08093CE0005C0E9ECF0E080818F7D8083C4
S1132DB0FF91EF919F918F910F900BBE0F900FBEDB
S1132DC00F901F9018951F920F920FB60F92112417
S1132DD08F938091D60080937E058F910F900FBEC4
S1132DE00F901F9018951F920F920FB60F921124F7
S1132DF00BB60F928F939F93EF93FF939091D3040D
S1132E008091D204981769F0E091D204EF5FEF71DA
S1132E10E093D204F0E0EC52FB4F80818093D60023
S1132E2005C0E1EDF0E080818F7D8083FF91EF911B
S1132E309F918F910F900BBE0F900FBE0F901F901C
S1132E4018951092D3041092D2041092D1041092C7
S1132E50D004992324F422E02093D0009F77909308
S1132E60D5008093D40088E98093D10086E08093D4
S1132E70D200089580917E0590E008952091D304B6
S1132E802F5F2F719091D2042917E1F3E22FF0E024
S1132E90EC52FB4F80832093D304E1EDF0E080817A
S1132EA08062808308951F920F920FB60F921124AF
S1132EB00BB60F922F938F939F93EF93FF93809171
S1132EC03001209136018871E0918D04EF5FEF713C
S1132ED090918C04E91739F0E0938D04F0E0E05709
S1132EE0FB4F208301C082E080938B04FF91EF911C
S1132EF09F918F912F910F900BBE0F900FBE0F904B
S1132F001F9018951F920F920FB60F9211240BB6B3
S1132F100F928F939F93EF93FF9390918F048091DF
S1132F208E04981769F0E0918E04EF5FEF71E093DF
S1132F308E04F0E0E055FB4F80818093360105C09C
S1132F40E1E3F1E080818F7D8083FF91EF919F9198
S1132F508F910F900BBE0F900FBE0F901F9018957E
S1132F6010928F0410928E0410928D0410928C048F
S1132F70992324F426E0209330019F779093350120
S1132F808093340188E98093310186E08093320193
S1132F90089590918D0480918C04981791F0E0919C
S1132FA08C04EF5FEF71E0938C04F0E0E057FB4F8B
S1132FB0208180918B0490E0982F8827820F911DA7
S1132FC0089580E091E0089520918F042F5F2F7180
S1132FD090918E042917E1F3E22FF0E0E055FB4FC6
S1132FE0808320938F04E1E3F1E080818062808319
S1132FF008955058BB27AA270ED027C2F0D130F02D
S1133000F5D120F031F49F3F11F41EF4C0C10EF449
S1133010E095E7FBB6C1E92F3AD280F3BA1762070D
S113302073078407950718F071F49EF552C20EF4E5
S1133030E0950B2EBA2FA02D0B01B90190010C01C4
S1133040CA01A0011124FF27591B99F0593F50F4DC
S1133050503E68F11A16F040A22F232F342F442734
S1133060585FF3CF469537952795A795F04053952C
S1133070C9F77EF41F16BA0B620B730B840BBAF0FC
S11330809150A1F0FF0FBB1F661F771F881FC2F767
S11330900EC0BA0F621F731F841F48F4879577957B
S11330A06795B795F7959E3F08F0B3CF9395880F32
S11330B008F09927EE0F97958795089590D158F0C9
S11330C080E891E009F49EEF91D128F040E851E0C6
S11330D059F45EEF09C05BC1FCC1E92FE078D7D198
S11330E068F3092E052AC1F326173707480759073D
S11330F038F00E2E07F8E02569F0E025E0640AC0F8
S1133100EF6307F8009407FADB01B9019D01DC01C4
S1133110CA01AD01EF934AD098D10AD05F915523EB
S113312031F02BED3FE049E450FD49EC63CF0895C5
S1133130DF93DD27B92FBF7740E85FE31616170644
S113314048075B0710F4D92FCFD19F938F937F93B8
S11331506F933AD2E4EEF0E01DD177D12F913F91F5
S11331604F915F91D4D1DD2349F09058A2EA2AED22
S11331703FE049EC5FE3D0785D274DDFDF9165C127
S1133180DCD008F481E0089539D1E3956FC10CD007
S11331905CC12CD140F023D130F021F45F3F19F011
S11331A0F0C0511197C1F3C072D198F39923C9F3B8
S11331B05523B1F3951B550BBB27AA276217730739
S11331C0840738F09F5F5F4F220F331F441FAA1FED
S11331D0A9F333D00E2E3AF0E0E830D091505040AD
S11331E0E695001CCAF729D0FE2F27D0660F771F5B
S11331F0881FBB1F261737074807AB07B0E809F03D
S1133200BB0B802DBF01FF2793585F4F2AF09E3FD1
S1133210510568F0B6C05EC15F3FECF3983EDCF345
S1133220869577956795B795F7959F5FC9F7880F4A
S1133230911D9695879597F90895E1E0660F771F9C
S1133240881FBB1F621773078407BA0720F0621B2D
S1133250730B840BBA0BEE1F88F7E095089504D026
S11332606894B11137C108951AD188F09F5790F02E
S1133270B92F9927B751A0F0D1F0660F771F881F97
S1133280991F1AF0BA95C9F712C0B13081F021D153
S1133290B1E008951EC1672F782F8827B85F39F0F1
S11332A0B93FCCF3869577956795B395D9F73EF4F6
S11332B090958095709561957F4F8F4F9F4F08959E
S11332C0E89409C097FB3EF49095809570956195BC
S11332D07F4F8F4F9F4F9923A9F0F92F96E9BB2772
S11332E09395F695879577956795B795F111F8CFEE
S11332F0FAF4BB0F11F460FF1BC06F5F7F4F8F4F59
S11333009F4F16C0882311F096E911C0772321F04E
S11333109EE8872F762F05C0662371F096E8862FE6
S113332070E060E02AF09A95660F771F881FDAF73D
S1133330880F9695879597F90895990F0008550F6A
S1133340AA0BE0E8FEEF16161706E807F907C0F027
S113335012161306E407F50798F0621B730B840B2F
S1133360950B39F40A2661F0232B242B252B21F409
S113337008950A2609F4A140A6958FEF811D811DA9
S1133380089597F99F6780E870E060E008959FEFE3
S113339080EC0895DF93CF931F930F93FF92EF92E6
S11333A0DF927B018C01689405C0DA2EEF01AFD067
S11333B0FE01E894A5912591359145915591AEF37F
S11333C0EF0129DEFE019701A801DA9479F7DF9075
S11333D0EF90FF900F911F91CF91DF9108950024FA
S11333E00A941616170618060906089500240A9466
S11333F012161306140605060895C9CF50D0E8F333
S1133400E894E0E0BB279F57F0F02AED3FE049EC59
S113341006C0EE0FBB0F661F771F881F28F0B23A55
S113342062077307840728F0B25A620B730B840B8C
S1133430E3959A9572F7803830F49A95BB0F661F1E
S1133440771F881FD2F79048C4C0092E0394000C3C
S113345011F4882352F0BB0F40F4BF2B11F460FF2A
S113346004C06F5F7F4F8F4F9F4F0895EF93E0FF2E
S113347006C0A2EA2AED3FE049EC5FEBCCDDE5DFD4
S11334800F90039401FC9058E1E1F1E0AEC057FDC8
S11334909058440F551F59F05F3F71F04795880FBE
S11334A097FB991F61F09F3F79F087950895121655
S11334B013061406551FF2CF4695F1DF08C0161601
S11334C017061806991FF1CF8695710561050894B2
S11334D00895E894BB2766277727CB0197F90895C9
S11334E02CDF08F48FEF08959B01AC0160E070E0DD
S11334F080E89FE34CCE0BD0A8CF71DF28F076DFB5
S113350018F0952309F03DCF42CF1124E3CFBFDF5C
S1133510A0F3959FD1F3950F50E0551F629FF001E2
S1133520729FBB27F00DB11D639FAA27F00DB11D3B
S1133530AA1F649F6627B00DA11D661F829F2227C4
S1133540B00DA11D621F739FB00DA11D621F839F4B
S1133550A00D611D221F749F3327A00D611D231F21
S1133560849F600D211D822F762F6A2F11249F576F
S113357050408AF0E1F088234AF0EE0FFF1FBB1F92
S1133580661F771F881F91505040A9F79E3F510531
S113359070F0F7CE9FCF5F3FECF3983EDCF3869557
S11335A077956795B795F795E7959F5FC1F7FE2BDC
S11335B0880F911D9695879597F908959F931EDF1F
S11335C00F9007FCEE5F52CF9B01AC0194CF9F3F5D
S11335D031F0915020F4879577956795B795880FCA
S11335E0911D9695879597F908959F938F937F934F
S11335F06F93FF93EF939B01AC017DDFEF91FF91FC
S1133600C9DE2F913F914F915F9175CF97FB072EA4
S113361016F4009406D077FD08D00BD007FC05D033
S11336203EF4909581959F4F0895709561957F4FD5
S11336300895AA1BBB1B51E107C0AA1FBB1FA617F5
S1133640B70710F0A61BB70B881F991F5A95A9F747
S113365080959095BC01CD010895EE0FFF1F881F42
S11136608BBF0790F691E02D1994F894FFCFDC
S113366E010101010101080001010707FFFF01012A
S113367E0101FFFF01FFFF01FF0101FF0000000038
S113368E01010101000080BF0000803F0000803F67
S113369E000080BF000080BF0000803F0000803F1C
S11336AE000080BF0000803F0000803F0000803F8C
S11336BE0000803F010101696E7465727275707449
S11336CE206F6E0072656163686564207468726F42
S11336DE77696E67207A6F6E6520310D0A0061007E
S11336EE670D0A000A0014001E00280032003C0078
S10736FE460050002E
S9030000FC
