:1000000098C00000C7C00000C5C00000F5C00000D7
:10001000C1C00000BFC0000016C10000BBC000008E
:10002000B9C000000C94C513B5C000000C9417149F
:10003000B1C00000AFC00000ADC00000BEC10000F4
:10004000A9C00000A7C00000A5C00000A3C0000018
:10005000A1C000009FC000009DC000001BC10000A7
:1000600099C000000C94711A0C94A01A93C000005F
:1000700091C000008FC000008DC000008BC0000048
:1000800089C0000087C0000085C0000083C0000058
:100090000C940A1B0C94391B7DC000007BC000002F
:1000A00079C0000077C0000075C0000073C0000078
:1000B00071C000006FC000006DC000006BC0000088
:1000C00069C0000067C0000065C000000C94671B99
:1000D0000C94961B5FC000000C94F21B0C94211C26
:1000E00059C00000084AD73B3BCE016E84BCBFFD1F
:1000F000C12F3D6C74319ABD56833DDA3D00C77FF8
:1001000011BED9E4BB4C3E916BAAAABE0000008090
:100110003F05A84CCDB2D44EB93836A9020C50B91F
:10012000918688083CA6AAAA2ABE000000803F004B
:10013000A31511241FBECFEFD1E2DEBFCDBF00E07B
:100140000CBF12E0A0E0B2E0EEE3F0E400E00BBF91
:1001500002C007900D92A238B107D9F725E0A2E8B6
:10016000B2E001C01D92AC35B207E1F710E0C9E979
:10017000D0E000E006C021970109802FFE010E9417
:100180001520C839D10780E00807A9F70E9460153B
:100190000C941D2035CF789480E3809369008CE027
:1001A00080936A008DB384628DBB0895789485B581
:1001B000856085BD81E080936E000895CF93DF93C5
:1001C000EC0168817981072E000C880B990B0E9445
:1001D000011E2EEF34E346E353E40E941A1F20E091
:1001E00030E048E453E40E94661D6C837D838E8377
:1001F0009F83DF91CF9108951F920F920FB60F92B8
:1002000011240BB60F928F939F93EF93FF93009B54
:1002100008C0EBE8F2E080819181019691838083B0
:1002200007C0EBE8F2E080819181019791838083A0
:10023000FF91EF919F918F910F900BBE0F900FBE8A
:100240000F901F9018951F920F920FB60F921124C6
:100250000BB60F928F939F93EF93FF93059B08C06C
:10026000E3E8F2E08081918101969183808307C069
:10027000E3E8F2E080819181019791838083FF918F
:10028000EF919F918F910F900BBE0F900FBE0F902B
:100290001F9018951F920F920FB60F9211248F93F3
:1002A00081E0809302028093030280930102809395
:1002B00000028F910F900FBE0F901F9018950E9413
:1002C000D6198CE30E94DC1980E00E94491A80E76D
:1002D0000E94491A0E94051A8CE30E94DC1981E0F1
:1002E0000E94491A80EA0E94491A0E94051A8CE36A
:1002F0000E94DC1982E00E94491A80E00E94491A9B
:100300000C94051A08958CE30E94DC1983E00E9486
:10031000491A0E94051A8DE30E94031A0E945B1A73
:1003200010924504809346040E945B1A2091450474
:1003300030914604282B30934604209345040E94B4
:100340005B1A10924104809342040E945B1A209130
:10035000410430914204282B3093420420934104FD
:100360000E945B1A10924304809344040E94661A10
:100370002091430430914404282B3093440420936B
:1003800043040C94051A08952FB7F89460913D0426
:1003900070913E0480913F04909140042FBF0895D6
:1003A000E1EBF0E0808184608083E0E7F0E0808131
:1003B000816080831092B20008951F920F920FB651
:1003C0000F9211248F939F93AF93BF9380913D041D
:1003D00090913E04A0913F04B09140040196A11D6C
:1003E000B11D80933D0490933E04A0933F04B093CD
:1003F00040048091390490913A04A0913B04B0915B
:100400003C040396A11DB11D8093390490933A04D6
:10041000A0933B04B0933C048091390490913A043A
:10042000A0913B04B0913C048D379105A105B10525
:1004300038F18091390490913A04A0913B04B09135
:100440003C048D579109A109B10980933904909317
:100450003A04A0933B04B0933C0480913D049091F6
:100460003E04A0913F04B09140040196A11DB11D2E
:1004700080933D0490933E04A0933F04B0934004C6
:10048000BF91AF919F918F910F900FBE0F901F90D2
:10049000189515DF80EC93E00E94271662E380EC4C
:1004A00093E00E94DA177CDF6FDF6093A403709300
:1004B000A5038093A6039093A70308954F925F929C
:1004C0006F927F928F929F92AF92BF92CF92DF9264
:1004D000EF92FF920F931F93CF93DF93CDB7DEB7C9
:1004E00064970FB6F894DEBF0FBECDBF69837A83E1
:1004F0008B839C8329013A01E98AFA8A0B8B1C8B36
:100500000E94631D6D877E878F87988B69817A81B2
:100510008B819C810E947D1F69837A838B839C835E
:10052000C301B2010E94631D6D837E838F83988710
:10053000C301B2010E947D1F69877A878B879C87E0
:10054000A60195016D817E818F8198850E941A1F79
:100550002B013C0128A539A54AA55BA569857A85AB
:100560008B859C850E941A1F9B01AC01C301B201BF
:100570000E94981C2B013C01A601950169817A819A
:100580008B819C810E941A1F29853A854B855C8549
:100590000E941A1F4B015C01A80197016D857E85A1
:1005A0008F8598890E941A1F9B01AC01C501B40177
:1005B0000E94981C4B015C0128A539A54AA55BA5A2
:1005C00069817A818B819C810E941A1F2D813E81D5
:1005D0004F8158850E941A1F9B01AC01C501B401CF
:1005E0000E94991C9058A30192010E940C1D21EEBB
:1005F0003EE245E652E40E941A1F0E94CE1D9B0176
:10060000772314F428593E4FC90164960FB6F89425
:10061000DEBF0FBECDBFDF91CF911F910F91FF9035
:10062000EF90DF90CF90BF90AF909F908F907F9092
:100630006F905F904F9008954F925F926F927F926C
:10064000AF92BF92CF92DF92EF92FF920F931F93E0
:10065000CF93DF93CDB7DEB764970FB6F894DEBFC4
:100660000FBECDBF60EC73E0CE0101960E94C816AC
:100670008CE0FE013196A8E9B3E001900D928A95D5
:10068000E1F780EC93E00E94651908E913E0F801B6
:1006900040845184628473846081718182819381FA
:1006A000A30192010E940C1D21EE3EE245E652E4B8
:1006B0000E941A1F6093BC037093BD038093BE0316
:1006C0009093BF03F8016481758186819781A301AE
:1006D00092010E940C1D21EE3EE245E652E40E948A
:1006E0001A1F6093B8037093B9038093BA03909371
:1006F000BB0309DE49DE0091A4031091A5032091FC
:10070000A6033091A703601771078207930709F4C6
:1007100049C13ADE6093A4037093A5038093A603B6
:100720009093A70380913B02882391F18091BC03B1
:100730009091BD03A091BE03B091BF038093B0031D
:100740009093B103A093B203B093B3038091B80325
:100750009091B903A091BA03B091BB038093AC030D
:100760009093AD03A093AE03B093AF038091B40315
:100770009091B503A091B603B091B7038093A803FD
:100780009093A903A093AA03B093AB0310923B02EA
:1007900080EC93E00E94BE192FE632E143E85AE371
:1007A0000E941A1F2091B0033091B1034091B2030F
:1007B0005091B3030E94991C2BE734E14EE65FE3AE
:1007C0000E941A1F2B013C0129E23CE54FE85DE342
:1007D0006091BC037091BD038091BE039091BF03F3
:1007E0000E941A1F9B01AC01C301B2010E94991C17
:1007F0006093B0037093B1038093B2039093B303FB
:1008000080EC93E00E94C6192FE632E143E85AE3F8
:100810000E941A1F2091AC033091AD034091AE03AA
:100820005091AF030E94991C2BE734E14EE65FE341
:100830000E941A1F2B013C0129E23CE54FE85DE3D1
:100840006091B8037091B9038091BA039091BB0392
:100850000E941A1F9B01AC01C301B2010E94991CA6
:100860002B013C016093AC037093AD038093AE0306
:100870009093AF036091430470914404072E000CE1
:10088000880B990B0E94011E5B016C01609145046D
:1008900070914604072E000C880B990B0E94011ED4
:1008A0006D877E878F87988B25E33AEF4EE85CE370
:1008B000C301B2010E941A1F698B7A8B8B8B9C8BB0
:1008C00025E33AEF4EE85CE36091B0037091B10329
:1008D0008091B2039091B3030E941A1F2B013C0137
:1008E0006091410470914204072E000C880B990B13
:1008F0000E94011E9F938F937F936F93ED84FE84DC
:100900000F85188929893A894B895C89C301B2010D
:10091000D5DD0F900F900F900F90BC0180E090E01C
:100920000E94FF1D6093B4037093B5038093B603D8
:100930009093B70380EC93E00E94CE192FE632E14A
:1009400043E85AE30E941A1F2091A8033091A9039B
:100950004091AA035091AB030E94991C2DEC3CECF2
:100960004CEC5DE30E941A1F2B013C0126E636E6A3
:1009700046E65FE36091B4037091B5038091B603DE
:100980009091B7030E941A1F9B01AC01C301B201F1
:100990000E94991C6093A8037093A9038093AA03F3
:1009A0009093AB036091A8037091A9038091AA036F
:1009B0009091AB030E94D31DCB0164960FB6F894BF
:1009C000DEBF0FBECDBFDF91CF911F910F91FF9082
:1009D000EF90DF90CF90BF90AF907F906F905F903F
:1009E0004F900895E8E0F1E0908181E089278083CD
:1009F0000895CF93DF938FE70E94DD1BCCE8D3E00F
:100A000088810E94DD1B89810E94DD1B8A810E94F2
:100A1000DD1B8B810E94DD1BDF91CF9108954F92EA
:100A20005F926F927F92AF92BF92CF92DF92EF92DE
:100A3000FF920F931F93CF93DF930F2EF1E7EF2ECB
:100A4000F2E0FF2EF02D09E513E0C0E0D0E0CC2469
:100A5000C394D12C86B190E00C2E02C09595879559
:100A60000A94E2F780FF10C0F801D182C082209181
:100A70007303C6010C2E02C0880F991F0A94E2F777
:100A8000822B8093730303C0F80111821082F70157
:100A9000819191917F01F801A190B1908F018A9D80
:100AA000B0018B9D700D9A9D700D1124072E000CC6
:100AB000880B990B0E94011E20916D0330916E03EB
:100AC00040916F03509170030E94991C2B013C01CF
:100AD00060936D0370936E0380936F039093700324
:100AE000B501BB0C880B990B0E94011E2091690374
:100AF00030916A0340916B0350916C030E94991CE2
:100B00006093690370936A0380936B0390936C0303
:100B10002196C830D10509F09DCF9B01AC01C301DE
:100B2000B2010E94661D0E94CE1D709372036093F5
:100B3000710310926D0310926E0310926F03109266
:100B400070031092690310926A0310926B03109263
:100B50006C03CB01DF91CF911F910F91FF90EF902C
:100B6000DF90CF90BF90AF907F906F905F904F904D
:100B7000089583E892E022DB2DEC3CEC4CE45FE34B
:100B80000E941A1F0E94CE1D709381036093800300
:100B900008952F923F924F925F926F927F928F9221
:100BA0009F92AF92BF92CF92DF92EF92FF920F93FC
:100BB0001F93CF93DF9300D01F92CDB7DEB7809104
:100BC0000202882309F41AC180913E02882309F4A5
:100BD00019C132DD8C01E2EFF2E0918380838685DA
:100BE0009785801B910B853B91053CF08856914081
:100BF0009093F5028093F4020FC08C342FEF92078C
:100C00002CF09093F5028093F40206C088599E4F11
:100C10009093F5028093F4022090F4023090F50254
:100C2000B101032C000C880B990B0E94011E4B0193
:100C30005C0120910B0330910C0340910D03509106
:100C40000E030E941A1F2091FC023091FD02409178
:100C5000FE025091FF020E94991C6B017C0160937F
:100C6000FC027093FD028093FE029093FF0260915C
:100C7000030370910403072E000C880B990B0E944C
:100C8000011E69837A838B839C832DEC3CEC4CE4BE
:100C90005EE30E941A1F2B013C01C701B6010E94AE
:100CA000CE1D9B01772324F422273327261B370BE5
:100CB000B901330F880B990B0E94011EA301920109
:100CC0000E940F1F181624F520E030E0A901C7018B
:100CD000B6010E940F1F18164CF44092FC0250926D
:100CE000FD026092FE027092FF0212C02DEC3CECFD
:100CF0004CE45EEB69817A818B819C810E941A1F92
:100D00006093FC027093FD028093FE029093FF02B9
:100D1000C101992324F48827992782199309181669
:100D20001906E4F520910703309108034091090367
:100D300050910A03C501B4010E941A1F6B017C0186
:100D40008091F6029091F702B801681B790B072E8B
:100D5000000C880B990B0E94011E20910F0330910B
:100D6000100340911103509112030E941A1F9B011E
:100D7000AC01C701B6010E94981C2091FC02309181
:100D8000FD024091FE025091FF020E94991C0E94B8
:100D9000CE1D7093F9026093F80208C0E2EFF2E012
:100DA000128613861486158617821682E2EFF2E009
:100DB000808191819583848386819781218932897D
:100DC000AC01992324F444275527481B590B2417B9
:100DD000350754F4281739071CF03195219531094E
:100DE0003093F9022093F8028091F8029091F90271
:100DF00090938303809382031092020280913E02BB
:100E0000811104C010928303109282030F900F90FF
:100E10000F900F90DF91CF911F910F91FF90EF9066
:100E2000DF90CF90BF90AF909F908F907F906F900A
:100E30005F904F903F902F9008952F923F924F9246
:100E40005F926F927F928F929F92AF92BF92CF925A
:100E5000DF92EF92FF920F931F93CF93DF9300D017
:100E60001F92CDB7DEB780910802882309F457C0DE
:100E70000F2EF4E8CF2EF3E0DF2EF02D0F2EFAE048
:100E80004F2EF2E05F2EF02D0F2EFCE82F2EF3E018
:100E90003F2EF02D0F2EF4E86F2EF3E07F2EF02D75
:100EA000DA82C9820EE713E072011B821C82D8012C
:100EB0006D917D918D01F70181909190A190B190FC
:100EC0007F01072E000C880B990B0E94011EA501C3
:100ED00094010E941A1F4B015C012B813C81B901D6
:100EE000330F880B990B0E94011E9B01AC01C501B9
:100EF000B4010E94991C0E94CE1D7C836B83061551
:100F00001705A9F6A981BA816D937C93F2E0CF0E03
:100F1000D11C2CE0420E511CC214D30409F6ECE89B
:100F2000F3E0A4E8B3E02D913C9147E1429FC0017A
:100F3000439F900D112429EF30E0B9010E94EE1F6C
:100F400060836091860370918703469FC001479F2D
:100F5000900D1124B9010E94EE1F618360918803F6
:100F600070918903469FC001479F900D1124B901DC
:100F70000E94EE1F628360918A0370918B03469FEB
:100F8000C001479F900D1124B9010E94EE1F638399
:100F900030DD0F900F900F900F90DF91CF911F9148
:100FA0000F91FF90EF90DF90CF90BF90AF909F9008
:100FB0008F907F906F905F904F903F902F9008950B
:100FC0008F929F92AF92BF92CF92DF92EF92FF9259
:100FD0000F931F93CF93DF9380912303882351F0C6
:100FE0001EDD892B39F01BDDE3E1F3E0958384837B
:100FF000108ADBC080910302882309F4D6C0809157
:101000003D02882309F4D5C00ADDEC019093140356
:1010100080931303892B09F4C6C0809109028823A9
:1010200009F4C1C0E3E1F3E0668577856C1B7D0BB5
:10103000738362836115710531F4128613861486F9
:101040001586D583C483072E000C880B990B0E944C
:10105000011E4B015C0103E113E0F801218D328D8B
:10106000438D548D0E941A1FF801228533854485D3
:1010700055850E94991C6B017C01F801628773877A
:10108000848795870E94CE1D9B01772324F4222715
:101090003327261B370B2B3031055CF120E030E085
:1010A000A901C701B6010E940F1F18166CF480E059
:1010B00090E0A0EAB0E480931D0390931E03A093F8
:1010C0001F03B093200315C020E030E0A901C70141
:1010D000B6010E945F1D882364F480E090E0A0EADE
:1010E000B0EC80931D0390931E03A0931F03B09355
:1010F000200303E113E0F801258936894789508DE3
:10110000C501B4010E941A1FF80122853385448568
:1011100055850E94991C6B017C01F80184819581A1
:10112000BE01681B790B072E000C880B990B0E94DF
:10113000011EF801258D368D478D50A10E941A1F82
:101140009B01AC01C701B6010E94981C0E94CE1DF4
:101150009B01F80177836683D583C483AB01772332
:1011600024F444275527461B570B4932510584F078
:10117000121613063CF488E290E090931A038093D1
:10118000190306C088ED9FEF90931A03809319030B
:101190008091190390911A039195819591099093EB
:1011A0007F0380937E031092030280913D028111A0
:1011B00004C010927F0310927E03DF91CF911F91A4
:1011C0000F91FF90EF90DF90CF90BF90AF909F90E6
:1011D0008F9008950F931F93CF93DF93E2EFF2E088
:1011E00080E590E0928B818B148A138AA3E1B3E0AF
:1011F0008DE290E01F969C938E931E9746E656E6EE
:1012000066E070E4458B568B678B708F118E128E63
:10121000138E148E40E050E068E471E4458F568FE1
:10122000678F70A34DEC5CEC6CE47FE355964D93B7
:101230005D936D937C93589759961D921D921D92C4
:101240001C925C9740E050E060EA71E45D964D933B
:101250005D936D937C939097E1EDF2E04AE959E953
:1012600069E17EE3458B568B678B708F118E128EF2
:10127000138E148E80E090E0A0ECBFE3858F968FF4
:10128000A78FB0A3E0EBF2E0458B568B678B708F96
:10129000118E128E138E148E858F968FA78FB0A30A
:1012A000F8D872D860939403709395038093960353
:1012B00090939703C2EFD2E067D800919403109106
:1012C00095032091960330919703DC01CB01801B9D
:1012D000910BA20BB30B843F9140A105B10548F4DB
:1012E000ABD99093790380937803188A9F878E8770
:1012F000E3CFDF91CF911F910F9108952F923F92ED
:101300004F925F926F927F928F929F92AF92BF9215
:10131000CF92DF92EF92FF920F931F93CF93DF93C1
:101320001C017B018A0181E0809308028BE892E036
:101330000E94DE000E94CE1DAB01772324F44427D7
:101340005527461B570BEA0150937D0340937C03BE
:101350003092E0022092DF0220910102222309F460
:101360004AC110927503109274035093D2024093B5
:10137000D10210920102483C51050CF4EAC0241A33
:10138000350A0F2EF1EDCF2EF2E0DF2EF02DF60113
:1013900033822282B101032C000C880B990B0E942E
:1013A000011E2B013C01F601218D328D438D548DA0
:1013B0000E941A1FF60122853385448555850E94B7
:1013C000991C4B015C01F6016287738784879587BE
:1013D0008089882319F0D583C483108AC501B4019C
:1013E0000E94CE1D9B01772324F422273327261B3E
:1013F000370B2B3031055CF120E030E0A901C5014D
:10140000B4010E940F1F18166CF480E090E0A0E277
:10141000B1E48093DB029093DC02A093DD02B093F1
:10142000DE0215C020E030E0A901C501B4010E9430
:101430005F1D882364F480E090E0A0E2B1EC80932B
:10144000DB029093DC02A093DD02B093DE02121463
:101450001304BCF50F2EF1EDCF2EF2E0DF2EF02DB0
:10146000F601258936894789508DC301B2010E9452
:101470001A1FF60122853385448555850E94991CE3
:101480004B015C01F60184819581BE01681B790BDB
:10149000072E000C880B990B0E94011EF601258D6A
:1014A000368D478D50A10E941A1F9B01AC01C501CA
:1014B000B4010E94981C0E94CE1DF60177836683BA
:1014C00004C01092D8021092D702E1EDF2E0D58369
:1014D000C483868197819C01992324F42227332792
:1014E000281B390B021713077CF4181619062CF465
:1014F0001093D8020093D70207C0119501951109E6
:101500001093D8020093D7028091D7029091D8020D
:1015100043968797A8F480917703882339F084E174
:1015200090E09093D8028093D7020AC0809176030E
:10153000882331F08CEE9FEF9093D8028093D702EE
:101540008091D7029091D80290937F0380937E037D
:1015500029C0B8016C537109072E000C880B990B38
:101560000E94011E20E030E048E453E40E94661D22
:101570004B015C01BE01DD0F880B990B0E94011E1F
:101580009B01AC01C501B4010E941A1F20E030E0AC
:1015900040E752E40E94991C0E94CE1D70937F0385
:1015A00060937E03F2E0EF16F10451F481E0809342
:1015B00077031092760310927403109275031BC088
:1015C00083E0E816F104B9F4EEE7F3E0808191815D
:1015D00099231CF491958195910991958195910993
:1015E000918380831092770381E080937603109239
:1015F0007503109274031092810310928003C9DA6C
:10160000DF91CF911F910F91FF90EF90DF90CF90DE
:10161000BF90AF909F908F907F906F905F904F9012
:101620003F902F9008950F931F9310927503799B0D
:1016300035C07A9B36C032C0799B4FC06AC0799959
:101640006BC07A9929C0799B7DC080E091C00E94CF
:10165000C4016093900370939103809392039093DD
:10166000930310923A020E94C401009190031091DA
:1016700091032091920330919303AB01BC01401B75
:10168000510B620B730B81E0453651056105710505
:1016900008F06EC080E06CC080E06AC07A99CCCF60
:1016A00038C010920802E4E8F3E08EE190E0918304
:1016B000808313821282158214828CEE9FEF9783AF
:1016C00086831092900310929103109292031092CD
:1016D000930381E080933A02B4CF10920802E4E8C9
:1016E000F3E084E190E0918380831382128215827B
:1016F000148282EE9FEF978386831092900310925C
:101700009103109292031092930381E080933A0226
:1017100098CF7A9994CF95CF11E01093080240E5C5
:1017200050E063E070E084EF91E0E8DD22DA1092AF
:1017300090031092910310929203109293031093CE
:101740003A027FCF10920802E4E8F3E08AE090E0EA
:1017500091838083138212821582148286EF9FEF19
:101760009783868380913A02882309F47CCF6FCFD8
:101770001F910F9108952F923F924F925F926F9217
:101780007F928F929F92AF92BF92CF92DF92EF9211
:10179000FF920F931F93CF93DF931C017B016A018C
:1017A00081E08093080283E892E00E94DE000E94BC
:1017B000CE1D9B01772324F422273327261B370BCA
:1017C000E90130937B0320937A033092BF02209289
:1017D000BE0280910002882309F43CC110920002ED
:1017E000283C31050CF4F5C000EB12E0F801318320
:1017F0002083221A330A33822282B101032C000C87
:10180000880B990B0E94011E2B013C01F801218DD0
:10181000328D438D548D0E941A1FF8012285338525
:10182000448555850E94991C4B015C01F801628733
:101830007387848795878089882319F0D583C4832B
:10184000108AC501B4010E94CE1D9B01772324F4A8
:1018500022273327261B370B2B3031055CF120E084
:1018600030E0A901C501B4010E940F1F18166CF4E5
:1018700080E090E0A0E2B1E48093BA029093BB02D2
:10188000A093BC02B093BD0215C020E030E0A901D6
:10189000C501B4010E945F1D882364F480E090E0DC
:1018A000A0E2B1EC8093BA029093BB02A093BC0279
:1018B000B093BD02121413049CF500EB12E0F80182
:1018C000258936894789508DC301B2010E941A1FAC
:1018D000F80122853385448555850E94991C4B016A
:1018E0005C01F80184819581BE01681B790B072E8C
:1018F000000C880B990B0E94011EF801258D368D76
:10190000478D50A10E941A1F9B01AC01C501B40173
:101910000E94981C0E94CE1DF8017783668304C044
:101920001092B7021092B602E0EBF2E0D583C483C6
:10193000868197819C01992324F422273327281B31
:10194000390B2C153D0524F180917503882361F036
:10195000D092B702C092B602F3E1CF0ED11C87E25B
:10196000C816D10468F51BC080917403882309F45C
:1019700074C0D194C194D108D092B702C092B6027B
:10198000E3E1CE0ED11CF7E2CF16D104C8F412C0A9
:1019900043968797A8F480917503882339F084E1F2
:1019A00090E09093B7028093B6020AC080917403CE
:1019B000882331F08CEE9FEF9093B7028093B602AC
:1019C0008091B6029091B702909381038093800337
:1019D00018C0B901330F880B990B0E94011E26E62F
:1019E00036E646EE5EE30E941A1F20E030E040E754
:1019F00052E40E94991C0E94CE1D70938103609353
:101A0000800382E0E816F10451F481E080937503CD
:101A10001092740310927703109276031BC0E3E0D8
:101A2000EE16F104B9F481E080937403109275030B
:101A30001092770310927603EEE7F3E082819381B0
:101A400099231CF49195819591099195819591091E
:101A500093838283B5DA9DD809C08091B6029091B4
:101A6000B7024396879708F0ABCFA0CFDF91CF9115
:101A70001F910F91FF90EF90DF90CF90BF90AF90AC
:101A80009F908F907F906F905F904F903F902F909E
:101A9000089521E0209308021092770310927603B4
:101AA00020937503109274039093810380938003B5
:101AB00087DA6FC8089581E080930802EEE7F3E0CB
:101AC0001182108213821282E2EFF2E080E090E055
:101AD000A0EEB0E4858B968BA78BB08F118E128E03
:101AE000138E148E80E090E0A0E4B1E4858F968F91
:101AF000A78FB0A34EC808950F931F93DCDF0E94F9
:101B0000C4010091AA021091AB022091AC02309165
:101B1000AD02DC01CB01801B910BA20BB30B029732
:101B2000A105B105A8F10E941C032091000330918A
:101B30000103A9014F5F5F4F4817590790F02150EB
:101B400031098217930768F08091AE029091AF023D
:101B500001969093AF028093AE028436910531F0E6
:101B60000BC01092AF021092AE0206C01092AF02EC
:101B70001092AE0281E00DC00E94C4016093AA02DF
:101B80007093AB028093AC029093AD0280E001C0F1
:101B900080E01F910F910895CF938091A902811148
:101BA000A6C08091090184FD64C080919E0290913D
:101BB0009F02059709F05DC04FC080919E029091F1
:101BC0009F020697F9F480910702811157C01AC04D
:101BD00080919E0290919F02059731F080919E0224
:101BE00090919F02069731F481E08093A70287E7E6
:101BF0000E94831C8091A902882321F08091A80271
:101C000081117AC080910602882381F080910901B8
:101C100084FD0CC07D990AC080910702811106C025
:101C200080919E0290919F020697E9F17D9B58C09A
:101C300080919E0290919F02069709F051C0809179
:101C4000070281114DC035C01092A80281E0809337
:101C5000A4021092A30250C08FE60E94831C81E070
:101C60008093A9028093A50210929A0210929B027F
:101C70003EC08091090184FFA0CFC4CF8FE60E94AF
:101C8000831C81E08093A9021092A5028093A40294
:101C90008093990280939A0280939B0210929702FC
:101CA0001092980224C08BE60E94831C10920602B8
:101CB000BDCFC1E0C0939702C093980210929502E5
:101CC000109296028AE60E94831CC093A802C093D9
:101CD000A702C093A902C093A3021092A4020CC051
:101CE00080919E0290919F02069731F4ADCF809132
:101CF000090184FD6DCF82CFCF91089580919E021E
:101D000090919F02059739F080919E0290919F02D9
:101D1000069709F052C0809104029091050208973D
:101D200009F04BC0A6C38091990281111FC0809118
:101D3000090186FF12C085E090E090939F02809396
:101D40009E0281E08093A0021092470410923C0210
:101D50008093A9028093A70230C081E08093A502FE
:101D600010929A0210929B0217DF27C0809198026E
:101D7000882309F1809197028823E9F08091090175
:101D800086FF0BC086E090E090939F0280939E02B6
:101D90001092070201DF8FDE10C0809107028823B6
:101DA00039F010929702109298021092940205C096
:101DB000F3DE81DE02C0F0DE7EDE80919D028111C5
:101DC00014C080919E0290919F02892B09F456C302
:101DD0005AC07894E8E6F0E0808181608083EBE689
:101DE000F0E08081806180834EC080919C028111EF
:101DF00020C081E090E090939F0280939E0287E054
:101E000090E09093050280930402EBE6F0E080817D
:101E10008F7E80837894E8E6F0E080818460808320
:101E2000EDE6F0E080818068808388E290E031DE3A
:101E30002AC080919E0290919F02019721F5809186
:101E40000402909105020797F1F485E090E09093E9
:101E50009F0280939E0288E60E94831C88E090E0A7
:101E60009093050280930402EDE6F0E080818F7785
:101E700080830E94F20410928C0210928B021092C6
:101E80008402109283028091A902882309F47CC401
:101E90008091A702882309F477C48091A502882342
:101EA00009F457C380919B02811113C080919E0257
:101EB00090919F020597F1F417C37894E8E6F0E05B
:101EC000808184608083EDE6F0E08081806880839B
:101ED00011C080919A0281110DC080919E02909153
:101EE0009F02059739F480910402909105020797AB
:101EF00009F435C380919E0290919F020297F1F4FC
:101F000080910402909105020897C1F448C3F4DD62
:101F1000882329F081E30E94831C1092A6020E946C
:101F2000681C80939302873649F481E08093A20273
:101F30001092A50280E28093930205C08091A202D4
:101F4000882309F449C080919B02882309F444C086
:101F500080919A02811145C0E2EFF2E086E696E6B2
:101F6000A6E0B0E4858B968BA78BB08F118E128E76
:101F7000138E148E80E090E0A8E4B1E4858F968FF4
:101F8000A78FB0A344E650E063E070E088E597E0F7
:101F9000F2DB87E090E0909305028093040283E8EF
:101FA00092E00E94DE000E94CE1D9B01772324F464
:101FB00022273327261B370B203B34400CF474C0F8
:101FC0007894E8E6F0E0808184608083EDE6F0E0DC
:101FD00080818068808368C080919A02882309F498
:101FE00007C38091040290910502079709F000C38E
:101FF00080919E0290919F02029709F0F9C2D6C289
:1020000080919902811143C0E2EFF2E086E696E604
:10201000A6E0B0E4858B968BA78BB08F118E128EC5
:10202000138E148E80E090E0A8E4B1E4858F968F43
:10203000A78FB0A344E650E062E070E080ED97E047
:102040005DD987E090E090930502809304028BE8CD
:1020500092E00E94DE000E94CE1D9B01772324F4B3
:1020600022273327261B370B2C363740ECF0789489
:10207000E8E6F0E0808181608083EBE6F0E080813B
:102080008061808311C080919902882369F08091DA
:10209000040290910502079739F480919E02909175
:1020A0009F02059709F4A9C28091A402882309F42C
:1020B00043C080919802811143C0E2EFF2E086E6CE
:1020C00096E6A6E0B0E4858B968BA78BB08F118E39
:1020D000128E138E148E80E090E0A8E4B1E4858F18
:1020E000968FA78FB0A387E090E09093050280932E
:1020F000040244E650E062E070E088E097E03BDBF9
:1021000083E892E00E94DE000E94CE1D9B017723AF
:1021100024F422273327261B370B203B34400CF1B5
:102120007894E8E6F0E0808184608083EDE6F0E07A
:1021300080818068808315C080919802882389F00F
:102140008091970281110DC080919E0290919F0213
:10215000069739F48091040290910502079709F4DB
:102160006EC280919E0290919F020397D1F480915C
:102170000402909105020897A1F47DC28091A60205
:1021800081117EC20E94681C80939302873649F4B5
:1021900081E08093A1021092A30280E280939302D7
:1021A00005C08091A102882309F476C0809198022D
:1021B000882309F471C080919702811171C0E2EF08
:1021C000F2E086E696E6A6E0B0E4858B968BA78BD8
:1021D000B08F118E128E138E148E80E090E0A8E4E2
:1021E000B1E4858F968FA78FB0A38091940281115F
:1021F0002AC040E550E062E070E086E292E07ED8DE
:1022000087E090E090930502809304028BE892E0CF
:102210000E94DE000E94CE1D9B01772324F422271A
:102220003327261B370B203931400CF446C07894F5
:10223000E8E6F0E0808181608083EBE6F0E0808179
:10224000806180833AC044E650E063E070E088E05B
:1022500097E091DA87E090E0909305028093040282
:1022600083E892E00E94DE000E94CE1D9B0177234E
:1022700024F422273327261B370B203B3440ECF075
:102280007894E8E6F0E0808184608083EDE6F0E019
:1022900080818068808311C080919702882369F0D3
:1022A0008091040290910502079739F480919E0273
:1022B00090919F02039709F4F1C18091A3028823B2
:1022C00009F448C080919602811148C0E2EFF2E023
:1022D00086E696E6A6E0B0E4858B968BA78BB08F5A
:1022E000118E128E138E148E80E090E0A8E4B1E47B
:1022F000858F968FA78FB0A346E950E062E070E02B
:1023000080EC92E138DA87E090E0909305028093C8
:10231000040283E892E00E94DE000E94CE1D9B0131
:10232000772324F422273327261B370B203A3F40FC
:102330000CF43DC07894E8E6F0E08081846080830E
:10234000EDE6F0E08081806880838FE392E00E9478
:10235000FC1A2DC080919602882349F180919E023B
:1023600090919F02069709F007C280910402909114
:102370000502079709F000C2B4C180910402909150
:1023800005020897A1F4CBC18091A6028111CCC1AE
:102390000E94681C80939302873649F481E0809301
:1023A000A1021092A30280E28093930205C0809163
:1023B000A102882309F449C080919602882309F478
:1023C00044C080919502811145C0E2EFF2E086E6BB
:1023D00096E6A6E0B0E4858B968BA78BB08F118E26
:1023E000128E138E148E80E090E0A8E4B1E4858F05
:1023F000968FA78FB0A346E950E063E070E08CEEC3
:1024000093E1B9D987E090E09093050280930402AC
:1024100083E892E00E94DE000E94CE1D9B0177239C
:1024200024F422273327261B370B203A3F400CF495
:10243000ABC17894E8E6F0E0808184608083EDE6CB
:10244000F0E08081806880830895809195028823E0
:1024500009F49AC18091040290910502079709F04E
:1024600093C180919E0290919F02049709F08CC1C4
:1024700061C180919A02811156CC78CCE2EFF2E0F2
:1024800086E696E6A6E0B0E4858B968BA78BB08FA8
:10249000118E128E138E148E80E090E0A8E4B1E4C9
:1024A000858F968FA78FB0A346E950E062E070E079
:1024B00088EF91E10E947E0987E090E09093050209
:1024C000809304028BE892E00E94DE000E94CE1D01
:1024D0009B01772324F422273327261B370B223B2B
:1024E00031410CF076CCCFCC87E090E090930502A0
:1024F00080930402E2EFF2E086E696E6A6E0B0E41E
:10250000858B968BA78BB08F118E128E138E148EA7
:1025100080E090E0A8E4B1E4858F968FA78FB0A308
:1025200044E650E062E070E088E597E024D983E873
:1025300092E00E94DE000E94CE1D9B01772324F4CE
:1025400022273327261B370B203436400CF0B5CC1E
:10255000D1CC80919B02882309F4CCCCBACCEDE697
:10256000F0E080818F7780838CE492E00E94FC1AF7
:102570000E94F20482E090E090939F0280939E027A
:1025800010928C0210928B0210928402109283029D
:1025900088E090E09093050280930402ABCC8BDA44
:1025A0008091A602882309F4BACCB1CCEDE6F0E024
:1025B00080818F77808385E090E090939F02809365
:1025C0009E020E94F20410928C0210928B021092D2
:1025D00084021092830288E090E090930502809339
:1025E00004021092A9021092A7021092A2025CCDDE
:1025F0008091A002811104CD46CD1092A002EBE69D
:10260000F0E080818F7E80830E94F20486E090E07B
:1026100090939F0280939E0288E090E09093050241
:102620008093040210928C0210928B02109284020A
:10263000109283021092A9021092A70235CD83E076
:1026400090E090939F0280939E02EDE6F0E08081FF
:102650008F77808310928C0210928B0210928402EA
:102660001092830288E090E0909305028093040228
:102670000E94F20476CD0E94130B81117FCD82CD92
:1026800082E30E94831C10928C0210928B021092A3
:102690008402109283021092A60274CD0CDAEDE649
:1026A000F0E080818F7780830E94F20410928C0288
:1026B00010928B02109284021092830286E090E0C6
:1026C00090939F0280939E0288E090E09093050291
:1026D000809304021092A9021092A7021092A10204
:1026E000ECCDEDE6F0E080818F7780830E94F204EC
:1026F00010928C0210928B0210928402109283022C
:1027000088E090E090930502809304021092A30267
:1027100084E090E090939F0280939E0248CE0E94B6
:10272000130B811131CE34CE83E30E94831C1092AF
:10273000A6022ECEEDE6F0E080818F7780830E94A6
:10274000F20410928C0210928B021092840210926A
:10275000830286E090E090939F0280939E0288E03F
:1027600090E090930502809304021092A9021092C7
:10277000A7021092A102089580919E0290919F025B
:10278000049709F014CEF9CD08951F920F920FB659
:102790000F9211240BB60F922F933F934F935F9399
:1027A0006F937F938F939F93AF93BF93EF93FF9319
:1027B00080919D02811106C081E080939D028093EB
:1027C000470422C080919902811108C081E0809362
:1027D0009902809347040E94F20416C080919402EB
:1027E000811112C081E0809394020E94F204EBE612
:1027F000F0E080818F7E808310928C0210928B0299
:102800001092840210928302FF91EF91BF91AF91D9
:102810009F918F917F916F915F914F913F912F91F8
:102820000F900BBE0F900FBE0F901F9018951F9228
:102830000F920FB60F9211240BB60F922F933F9366
:102840004F935F936F937F938F939F93AF93BF93B8
:10285000EF93FF9380919C02811106C00E94F204C5
:1028600081E080939C0241C080919B02811108C04D
:1028700081E08093A60280939B020E94F20435C0FF
:1028800080919A02811106C081E080939A020E9491
:10289000F2042BC080919802811108C081E08093DE
:1028A000A602809398020E94F2041FC080919702B2
:1028B000811106C081E0809397020E94F20415C046
:1028C00080919602811108C081E08093A6028093D6
:1028D00096020E94F20409C080919502811105C000
:1028E00081E0809395020E94F204FF91EF91BF91E5
:1028F000AF919F918F917F916F915F914F913F9198
:102900002F910F900BBE0F900FBE0F901F90189538
:1029100080910601882324F481E080938202089547
:1029200010928202089580917403811105C09091E4
:102930007503992309F4C3C02091570330915803BC
:102940002115310519F540915503509156034A3030
:10295000510561F490918202911128C0E3E1F3E006
:1029600091E0908711861092090290C04035510580
:1029700009F096C090918202911192C0E3E1F3E0D8
:1029800091E091871086109209027BC090911C0300
:10299000992361F02035310509F087C081E08093EB
:1029A0000902E3E1F3E011861086089590911B037C
:1029B000992309F466C02A30310509F067C081E027
:1029C00080930902E3E1F3E0108611860895909167
:1029D0007503992359F0EEE7F3E01182108288E243
:1029E00090E0938382830C94C9050895882309F4A9
:1029F00066C0EEE7F3E01182108288ED9FEF9383CB
:102A000082830C94C905089590917503992369F008
:102A1000EEE7F3E088ED9FEF918380838AE090E01A
:102A2000938382830C94C9050895882309F447C0D1
:102A3000EEE7F3E088ED9FEF9183808386EF9FEFD1
:102A4000938382830C94C9050895EEE7F3E088E24E
:102A500090E0918380838AE090E0938382830C945A
:102A6000C9050895882359F1EEE7F3E088E290E084
:102A70009183808386EF9FEF938382830C94C905B3
:102A8000089590911C03911106C0089590918202BF
:102A900091119DCFB9CF90918202992359F097CF90
:102AA00090911B03992369F3F1CF90911B03992314
:102AB00091F381CF909175039923A1F2C6CF089528
:102AC000EAE0F1E080818F7E808380818F7B80834C
:102AD000EBE0F1E08081806180838081806480838D
:102AE00085988D98E7E0F1E0808181608083E8E05F
:102AF000F1E080818E7F808381988298899A8A9A7A
:102B000087E690E04BD589E190E03ED689E190E000
:102B1000C6D686E692E070D50E94EA0878940E94B4
:102B20000F059093580380935703F2DEE7D8FBDE3E
:102B30000E941D0780917103909172039093560338
:102B400080935503ECCF80EC93E033D0E4E3F3E0E3
:102B50001086118681E0808BE3E1F3E01086118618
:102B6000808BE2EFF2E010861186808BE1EDF2E0DF
:102B700010861186808BE0EBF2E010861186808B48
:102B800010928C0210928B028BE892E00E94CB0094
:102B90008BE892E00E94D600109284021092830289
:102BA00083E892E00E94CB0083E892E00C94D60088
:102BB0000895FC0114AE15AE16AE17AEDC01A05C94
:102BC000BF4F1D921D921D921C92139714961D9239
:102BD0001D921D921C921397D4961C92D0971D9211
:102BE0001D921D921C92139714961D921D921D9278
:102BF0001C92139714961D921D921D921C9213976E
:102C000010AA11AA12AA13AA14AA15AA16AA17AAD8
:102C100010AE11AE12AE13AE94961D921D921D927F
:102C20001C92139718974FE35EE16AEF7BE34D9395
:102C30005D936D937C931397E059FF4F80E49AED79
:102C4000AFE7B8E380839183A283B38308952FEF26
:102C500082E597E0215080409040E1F700C00000FD
:102C600080EDAAD38BE615D480E013D4CED380EDCB
:102C7000A3D389E10ED489E10CD4C7D380ED9CD3D2
:102C80008AE107D480E005D4C0D380ED95D38BE1F1
:102C900000D480E0FED3B9D380ED8ED388E3F9D39E
:102CA00081E0F7D3B2D380ED87D38CE1F2D380E01B
:102CB000F0D3ABC30895CF93C62F80EDAFD38C2F45
:102CC000E8D381EDA0D3CF910895AF92BF92CF9278
:102CD000DF92EF92FF920F931F93CF93DF938C01BC
:102CE000EB016BE3CE01E7DFE6D3A82EE4D3B82EE9
:102CF000E2D3C82EE0D3E82EDED3D82EE7D3F82EC9
:102D00006B2D70E07A29072E000C880B990B79D770
:102D1000FE01E85BFF4F208131814281538108D65B
:102D2000688379838A839B836E2D70E07C29072ECC
:102D3000000C880B990B65D7FE01E45BFF4F2081E7
:102D4000318142815381F4D56C837D838E839F834F
:102D50006F2D70E07D29072E000C880B990B51D741
:102D6000688779878A879B8750D38CE0FE01D801DA
:102D700001900D928A95E1F7C801DF91CF911F91E3
:102D80000F91FF90EF90DF90CF90BF90AF9008959C
:102D9000AF92BF92CF92DF92EF92FF920F931F9369
:102DA000CF93DF93CDB7DEB72C970FB6F894DEBF85
:102DB0000FBECDBF5C018B01CE01019686DFF8010D
:102DC000E059FF4FC080D180E280F380A7019601D7
:102DD000F80160817181828193810E941A1FF8013C
:102DE000608F718F828F938FA701960164817581A7
:102DF000868197810E941A1FF801648F758F868FD4
:102E0000978FA701960160857185828593850E94C1
:102E10001A1FF80160A371A382A393A38CE0789694
:102E2000D50101900D928A95E1F7C5012C960FB658
:102E3000F894DEBF0FBECDBFDF91CF911F910F91F0
:102E4000FF90EF90DF90CF90BF90AF900895FF92EA
:102E50000F931F93CF93DF938C01EB0163E4CE01BB
:102E60002ADF29D3F82E27D36F2D70E0762F66271F
:102E7000682B072E000C880B990BC3D66C877D87B7
:102E80008E879F8718D3F82E16D36F2D70E0762F7C
:102E90006627682B072E000C880B990BB2D6688B1F
:102EA000798B8A8B9B8B07D3F82E10D36F2D70E014
:102EB000762F6627682B072E000C880B990BA1D65E
:102EC0006C8B7D8B8E8B9F8BA0D28CE0FE013C9611
:102ED000D80101900D928A95E1F7C801DF91CF9159
:102EE0001F910F91FF900895CF92DF92EF92FF9282
:102EF0001F93CF93DF93EC01162F662309F43BC099
:102F0000FC01E858FF4F8081811103C062E3CE01CC
:102F100051D0612F70E080E090E073D66B017C01AE
:102F20009B01AC01FE01EC5AFF4F608171818281EF
:102F3000938180D768AB79AB8AAB9BABA701960135
:102F4000FE01E85AFF4F608171818281938172D7BF
:102F50006CAB7DAB8EAB9FABA7019601FE01E45A33
:102F6000FF4F608171818281938164D768AF79AFAF
:102F70008AAF9BAF0CC018AA19AA1AAA1BAA1CAA2E
:102F80001DAA1EAA1FAA18AE19AE1AAE1BAECC58A7
:102F9000DF4F612F70E080E090E031D66883798365
:102FA0008A839B83DF91CF911F91FF90EF90DF90F9
:102FB000CF9008952F923F924F925F926F927F929F
:102FC0008F929F92AF92BF92CF92DF92EF92FF9239
:102FD0000F931F93CF93DF93CDB7DEB7A4970FB6B0
:102FE000F894DEBF0FBECDBF1C01062FFC01E858D0
:102FF000FF4F81E08083662309F487C010E0198EBB
:103000001A8E1B8E1C8E1D8A1E8A1F8A188E1D8684
:103010001E861F86188A19A21AA21BA21CA21D8E28
:103020001E8E1F8E18A2198A1A8A1B8A1C8AB10149
:10303000CE0101960CDFF1014484558466847784C7
:10304000A301920169897A898B899C8972D4698BE1
:103050007A8B8B8B9C8BF10180889188A288B388B6
:10306000A50194016D8D7E8D8F8D98A162D46D8F99
:103070007E8F8F8F98A3F101C488D588E688F78862
:10308000A701960169A17AA18BA19CA152D469A341
:103090007AA38BA39CA3A3019201C301B201CAD658
:1030A0009B01AC016D857E858F85988942D46D87A3
:1030B0007E878F87988BA5019401C501B401BAD68C
:1030C0009B01AC016D897E898F89988D32D46D8B7F
:1030D0007E8B8F8B988FA7019601C701B601AAD668
:1030E0009B01AC01698D7A8D8B8D9C8D22D4698F6B
:1030F0007A8F8B8F9C8F8FE19EE40197F1F700C050
:1031000000001F5F011393CF18C0198E1A8E1B8EFB
:103110001C8E1D8A1E8A1F8A188E1D861E861F867B
:10312000188A19A21AA21BA21CA21D8E1E8E1F8E07
:1031300018A2198A1A8A1B8A1C8A602F70E080E004
:1031400090E05FD54B015C019B01AC0169897A89F4
:103150008B899C89BBD46B017C01F10164AF75AF95
:1031600086AF97AFA50194016D8D7E8D8F8D98A14F
:10317000ADD42B013C01F101E05CFF4F6083718312
:1031800082839383A501940169A17AA18BA19CA15B
:103190009DD44B015C01F101EC5BFF4F60837183B7
:1031A0008283938320E030E048E452E46D857E859D
:1031B0008F8598898BD4698B7A8B8B8B9C8B20E045
:1031C00030E048E452E46D857E858F8598897ED411
:1031D0006D877E878F87988BA7019601C701B601FF
:1031E00029D69B01AC016D857E858F859889A0D3FA
:1031F0008ED6F101EC5AFF4F6083718382839383F3
:1032000020E030E048E452E46D897E898F89988D12
:103210005DD46B017C01A3019201C301B2010AD606
:103220009B01AC01C701B60183D371D6F101E85A05
:10323000FF4F608371838283938320E030E048E412
:1032400052E4698D7A8D8B8D9C8D40D46B017C010D
:10325000A5019401C501B401EDD59B01AC01C701E5
:10326000B60166D354D6F101E45AFF4F60837183EF
:10327000828393837896C080D180E280F38020E0BF
:1032800030E0A901C701B601CAD518162CF4C70150
:10329000B60189D4C10128DEA4960FB6F894DEBF2A
:1032A0000FBECDBFDF91CF911F910F91FF90EF9097
:1032B000DF90CF90BF90AF909F908F907F906F9056
:1032C0005F904F903F902F900895EF92FF920F9351
:1032D0001F93CF93DF93CDB7DEB72C970FB6F8943B
:1032E000DEBF0FBECDBF8C01BC01CE010196AFDDAC
:1032F000780180E6E80EF11C20E030E043E053E482
:10330000F8016485758586859785E0D3F70160832C
:103310007183828393837801F4E6EF0EF11C20E041
:1033200030E043E053E4F801608971898289938930
:10333000CDD3F70160837183828393837801F8E6AC
:10334000EF0EF11C20E030E043E053E4F801648923
:10335000758986899789BAD3F701608371838283DF
:1033600093832C960FB6F894DEBF0FBECDBFDF91CE
:10337000CF911F910F91FF90EF900895805A9F4F2A
:10338000FC01608171818281938108958C599F4FE6
:10339000FC016081718182819381089588599F4FDA
:1033A000FC01608171818281938108951092B9003E
:1033B00088E48093B800089594EA9093BC00ECEB05
:1033C000F0E090819923ECF79091B900987F9830C4
:1033D00011F09031A1F48093BB0084E88093BC008D
:1033E000ECEBF0E080818823ECF79091B900987FB6
:1033F000983139F081E0903429F480E0089581E03B
:10340000089580E00895D8CF089584E98093BC00A2
:10341000ECEBF0E0808184FDFDCF0895BF92CF9268
:10342000DF92EF92FF920F931F93CF93DF93B82E0B
:10343000CCEBD0E009EB10E00F2EF4EADF2EF02DFC
:103440000F2EFBEBEF2EF12CF02D0F2EF4E8CF2EEC
:10345000F02DD88288818823ECF7F8018081887F5D
:103460008830B9F7F701B082C88288818823ECF7E9
:10347000F8018081887F883111F0C7DFEACFDF91C2
:10348000CF911F910F91FF90EF90DF90CF90BF9061
:1034900008958093BB0084E88093BC00ECEBF0E0DF
:1034A00080818823ECF79091B900987F81E0983271
:1034B00009F480E0089584EC8093BC00ECEBF0E02C
:1034C00080818823ECF78091BB00089584E8809385
:1034D000BC00ECEBF0E080818823ECF78091BB002E
:1034E00008951F920F920FB60F9211240BB60F92F0
:1034F0002F938F939F93EF93FF938091C000209120
:10350000C6008871E0911905EF5FEF719091180581
:10351000E91739F0E0931905F0E0E45EFA4F2083F3
:1035200001C082E080931705FF91EF919F918F91E9
:103530002F910F900BBE0F900FBE0F901F901895FC
:103540001F920F920FB60F9211240BB60F928F930A
:103550009F93EF93FF9390911B0580911A05981705
:1035600069F0E0911A05EF5FEF71E0931A05F0E062
:10357000E45CFA4F80818093C60005C0E1ECF0E086
:1035800080818F7D8083FF91EF919F918F910F902C
:103590000BBE0F900FBE0F901F90189510921B0539
:1035A00010921A051092190510921805992324F407
:1035B00022E02093C0009F779093C5008093C400C1
:1035C00088E98093C10086E08093C200089520912D
:1035D0001B052F5F2F7190911A052917E1F3E22F38
:1035E000F0E0E45CFA4F808320931B05E1ECF0E00F
:1035F0008081806280830895CF93DF93EC0188817E
:10360000882329F02196E3DF89918111FCCFDF9196
:10361000CF9108951F920F920FB60F9211240BB6FF
:103620000F922F938F939F93EF93FF938091C800F6
:103630002091CE008871E091D404EF5FEF719091FA
:10364000D304E91739F0E093D404F0E0E952FB4FDA
:10365000208301C082E08093D204FF91EF919F917B
:103660008F912F910F900BBE0F900FBE0F901F9058
:1036700018951F920F920FB60F9211240BB60F924E
:103680008F939F93EF93FF939091D6048091D504ED
:10369000981769F0E091D504EF5FEF71E093D504DE
:1036A000F0E0E950FB4F80818093CE0005C0E9EC4B
:1036B000F0E080818F7D8083FF91EF919F918F91CA
:1036C0000F900BBE0F900FBE0F901F9018951F927A
:1036D0000F920FB60F9211240BB60F922F938F9368
:1036E0009F93EF93FF938091D0002091D600887133
:1036F000E0918F04EF5FEF7190918E04E91739F03C
:10370000E0938F04F0E0EE56FB4F208301C082E08F
:1037100080938D04FF91EF919F918F912F910F9046
:103720000BBE0F900FBE0F901F9018951F920F9217
:103730000FB60F9211240BB60F928F939F93EF93B6
:10374000FF939091910480919004981769F0E09113
:103750009004EF5FEF71E0939004F0E0EE54FB4FC4
:1037600080818093D60005C0E1EDF0E080818F7DFF
:103770008083FF91EF919F918F910F900BBE0F90DF
:103780000FBE0F901F901895109291041092900404
:1037900010928F0410928E04992324F422E0209337
:1037A000D0009F779093D5008093D40088E98093D0
:1037B000D10086E08093D2000895209191042F5F7C
:1037C0002F71909190042917E1F3E22FF0E0EE546D
:1037D000FB4F808320939104E1EDF0E080818062D3
:1037E000808308951F920F920FB60F9211240BB68B
:1037F0000F922F938F939F93EF93FF9380913001BC
:10380000209136018871E0914A04EF5FEF71909149
:103810004904E91739F0E0934A04F0E0E35BFB4F19
:10382000208301C082E080934804FF91EF919F9133
:103830008F912F910F900BBE0F900FBE0F901F9086
:1038400018951F920F920FB60F9211240BB60F927C
:103850008F939F93EF93FF9390914C0480914B042F
:10386000981769F0E0914B04EF5FEF71E0934B0420
:10387000F0E0E359FB4F80818093360105C0E1E31E
:10388000F1E080818F7D8083FF91EF919F918F91F7
:103890000F900BBE0F900FBE0F901F9018951092B7
:1038A0004C0410924B0410924A041092490499233C
:1038B00024F426E0209330019F7790933501809384
:1038C000340188E98093310186E0809332010895C4
:1038D00090914A0480914904981791F0E09149042D
:1038E000EF5FEF71E0934904F0E0E35BFB4F208171
:1038F0008091480490E0982F8827820F911D0895A9
:1039000080E091E0089520914C042F5F2F719091F9
:103910004B042917E1F3E22FF0E0E359FB4F8083DA
:1039200020934C04E1E3F1E080818062808308957C
:103930005058BB27AA270ED027C2F0D130F0F5D1BE
:1039400020F031F49F3F11F41EF4C0C10EF4E09555
:10395000E7FBB6C1E92F3AD280F3BA1762077307C3
:103960008407950718F071F49EF552C20EF4E095A5
:103970000B2EBA2FA02D0B01B90190010C01CA0129
:10398000A0011124FF27591B99F0593F50F4503ED4
:1039900068F11A16F040A22F232F342F4427585FC6
:1039A000F3CF469537952795A795F0405395C9F7DE
:1039B0007EF41F16BA0B620B730B840BBAF0915096
:1039C000A1F0FF0FBB1F661F771F881FC2F70EC035
:1039D000BA0F621F731F841F48F487957795679508
:1039E000B795F7959E3F08F0B3CF9395880F08F0F1
:1039F0009927EE0F97958795089590D158F080E814
:103A000091E009F49EEF91D128F040E851E059F49B
:103A10005EEF09C05BC1FCC1E92FE078D7D168F344
:103A2000092E052AC1F3261737074807590738F02A
:103A30000E2E07F8E02569F0E025E0640AC0EF6388
:103A400007F8009407FADB01B9019D01DC01CA0106
:103A5000AD01EF934AD098D10AD05F91552331F050
:103A60002BED3FE049E450FD49EC63CF0895DF932F
:103A7000DD27B92FBF7740E85FE316161706480722
:103A80005B0710F4D92FCFD19F938F937F936F93C0
:103A90007CD2E4EEF0E01DD177D12F913F914F9190
:103AA0005F91D4D1DD2349F09058A2EA2AED3FE09E
:103AB00049EC5FE3D0785D274DDFDF9165C1DCD055
:103AC00008F481E0089539D1E3956FC10CD05CC151
:103AD0002CD140F023D130F021F45F3F19F0F0C039
:103AE000511197C1F3C072D198F39923C9F35523AB
:103AF000B1F3951B550BBB27AA27621773078407E1
:103B000038F09F5F5F4F220F331F441FAA1FA9F396
:103B100033D00E2E3AF0E0E830D091505040E69588
:103B2000001CCAF729D0FE2F27D0660F771F881FE9
:103B3000BB1F261737074807AB07B0E809F0BB0BD8
:103B4000802DBF01FF2793585F4F2AF09E3F5105FC
:103B500068F0B6C05EC15F3FECF3983EDCF386953B
:103B600077956795B795F7959F5FC9F7880F911D72
:103B70009695879597F90895E1E0660F771F881F5E
:103B8000BB1F621773078407BA0720F0621B730B11
:103B9000840BBA0BEE1F88F7E095089504D0689463
:103BA000B11137C108951AD188F09F5790F0B92FFD
:103BB0009927B751A0F0D1F0660F771F881F991F82
:103BC0001AF0BA95C9F712C0B13081F021D1B1E035
:103BD00008951EC1672F782F8827B85F39F0B93F45
:103BE000CCF3869577956795B395D9F73EF4909584
:103BF0008095709561957F4F8F4F9F4F0895E89402
:103C000009C097FB3EF490958095709561957F4F24
:103C10008F4F9F4F9923A9F0F92F96E9BB279395D2
:103C2000F695879577956795B795F111F8CFFAF4E2
:103C3000BB0F11F460FF1BC06F5F7F4F8F4F9F4F13
:103C400016C0882311F096E911C0772321F09EE871
:103C5000872F762F05C0662371F096E8862F70E0D7
:103C600060E02AF09A95660F771F881FDAF7880FB1
:103C70009695879597F90895990F0008550FAA0B07
:103C8000E0E8FEEF16161706E807F907C0F012166F
:103C90001306E407F50798F0621B730B840B950B72
:103CA00039F40A2661F0232B242B252B21F40895C7
:103CB0000A2609F4A140A6958FEF811D811D089564
:103CC00097F99F6780E870E060E008959FEF80ECCF
:103CD0000895DF93CF931F930F93FF92EF92DF929C
:103CE0007B018C01689405C0DA2EEF01AFD0FE0194
:103CF000E894A5912591359145915591AEF3EF0149
:103D000029DEFE019701A801DA9479F7DF90EF90A0
:103D1000FF900F911F91CF91DF91089500240A9495
:103D20001616170618060906089500240A94121696
:103D30001306140605060895C9CF50D0E8F3E89499
:103D4000E0E0BB279F57F0F02AED3FE049EC06C0CA
:103D5000EE0FBB0F661F771F881F28F0B23A62076D
:103D60007307840728F0B25A620B730B840BE39538
:103D70009A9572F7803830F49A95BB0F661F771FBB
:103D8000881FD2F7904806C1092E0394000C11F445
:103D9000882352F0BB0F40F4BF2B11F460FF04C026
:103DA0006F5F7F4F8F4F9F4F0895EF93E0FF06C0E7
:103DB000A2EA2AED3FE049EC5FEBCCDDE5DF0F90B6
:103DC000039401FC9058E1E1F1E0F7C057FD9058F1
:103DD000440F551F59F05F3F71F04795880F97FBCF
:103DE000991F61F09F3F79F0879508951216130689
:103DF0001406551FF2CF4695F1DF08C016161706B8
:103E00001806991FF1CF86957105610508940895EC
:103E1000E894BB2766277727CB0197F908952CDF15
:103E200008F48FEF08959B01AC0160E070E080E83A
:103E30009FE34CCE0BD0A8CF71DF28F076DF18F0CF
:103E4000952309F03DCF42CF1124E3CFBFDFA0F38C
:103E5000959FD1F3950F50E0551F629FF001729F1F
:103E6000BB27F00DB11D639FAA27F00DB11DAA1F3E
:103E7000649F6627B00DA11D661F829F2227B00D8B
:103E8000A11D621F739FB00DA11D621F839FA00D16
:103E9000611D221F749F3327A00D611D231F849F66
:103EA000600D211D822F762F6A2F11249F575040BD
:103EB0008AF0E1F088234AF0EE0FFF1FBB1F661F58
:103EC000771F881F91505040A9F79E3F510570F011
:103ED000F7CE9FCF5F3FECF3983EDCF38695779566
:103EE0006795B795F795E7959F5FC1F7FE2B880F0C
:103EF000911D9695879597F908959F931EDF0F90D2
:103F000007FCEE5F52CF11F40EF4E0CE41C066DF45
:103F1000D0F39923D9F3CEF39F57550B87FF46D0A3
:103F20000024A0E640EA900180585695979528F421
:103F3000805C660F771F881F20F026173707480719
:103F400030F4621B730B840B202931294A2BA69570
:103F500017940794202531254A2758F7660F771FB5
:103F6000881F20F026173707480730F4620B730BC1
:103F7000840B200D311D411DA09581F7B901842FBF
:103F80009158880F9695879508959B01AC0152CF63
:103F90009F3F31F0915020F4879577956795B795BD
:103FA000880F911D9695879597F9089591505040E7
:103FB000660F771F881FD2F708959F938F937F9383
:103FC0006F93FF93EF939B01AC0134DFEF91FF916F
:103FD00080DE2F913F914F915F912CCF97FB072E61
:103FE00016F4009406D077FD08D00BD007FC05D05E
:103FF0003EF4909581959F4F0895709561957F4F00
:104000000895AA1BBB1B51E107C0AA1FBB1FA6171F
:10401000B70710F0A61BB70B881F991F5A95A9F771
:1040200080959095BC01CD010895EE0FFF1F881F6C
:0E4030008BBF0790F691E02D1994F894FFCF06
:10403E0001010101080001010101000080BF000023
:10404E00803F0000803F000080BF000080BF000066
:10405E00803F0000803F000080BF0000803F0000D6
:10406E00803F0000803F0000803F01010101016997
:10407E006E74657272757074206F6E007265616316
:10408E00686564207468726F77696E67207A6F6EE8
:10409E006520310D0A007374617274696E670D0AC2
:1040AE00000A0014001E00280032003C004600509A
:0240BE00000000
:00000001FF
