:1000000072C00000A0C000009EC00000FEC0000042
:1000100023C10000ACC00000D1C0000094C00000AB
:1000200092C00000EEC400008EC000008CC0000032
:100030008AC0000088C0000086C00000ABC6000077
:1000400082C0000080C000007EC000007CC00000B4
:100050007AC0000078C0000076C0000024C1000013
:1000600072C00000E1C600006EC000006CC000005D
:100070006AC0000068C0000066C0000064C00000E4
:1000800062C0000060C000005EC000005CC00000F4
:10009000E5C6000058C0000056C0000054C0000073
:1000A00052C0000050C000004EC000004CC0000014
:1000B0004AC0000048C0000046C0000044C0000024
:1000C00042C0000040C000003EC00000D7C6000093
:1000D0003AC0000038C0000005C7000034C000006E
:1000E00032C00000280511241FBECFEFD1E2DEBFD1
:1000F000CDBF00E00CBF12E0A0E0B2E0EAE3F2E125
:1001000000E00BBF02C007900D92A230B107D9F7F3
:1001100022E0A2E0B2E001C01D92AC39B207E1F7E3
:1001200010E0C3E7D0E000E006C021970109802F6E
:10013000FE010E941309C237D10780E00807A9F722
:1001400004D40C941B095CCF78948FEF80936900E2
:100150008FE080936A008DB38C638DBB0895789493
:1001600085B5856085BD81E080936E0008951F92FE
:100170000F920FB60F9211240BB60F928F939F938D
:10018000EF93FF93049B08C0EBE1F2E08081918143
:1001900001969183808307C0EBE1F2E08081918139
:1001A000019791838083FF91EF919F918F910F90A1
:1001B0000BBE0F900FBE0F901F9018951F920F92BD
:1001C0000FB60F9211240BB60F928F939F93EF935C
:1001D000FF93019B08C0E3E1F2E0808191810196E9
:1001E0009183808307C0E3E1F2E0808191810197F0
:1001F00091838083FF91EF919F918F910F900BBE20
:100200000F900FBE0F901F9018951F920F920FB670
:100210000F9211240BB60F928F939F93EF93FF933E
:10022000029B08C0EBE0F2E080819181019691830E
:10023000808307C0EBE0F2E0808191810197918398
:100240008083FF91EF919F918F910F900BBE0F9044
:100250000FBE0F901F9018951F920F920FB60F921E
:1002600011240BB60F928F939F93EF93FF93039BF1
:1002700008C0E3E0F2E08081918101969183808360
:1002800007C0E3E0F2E08081918101979183808350
:10029000FF91EF919F918F910F900BBE0F900FBE2A
:1002A0000F901F9018951F920F920FB60F92112466
:1002B0000BB60F928F939F93EF93FF93809102025F
:1002C0008F5F8093020291E090938F02823011F44D
:1002D00010920202EBE1F2E08081918193838283AC
:1002E00011821082E3E1F2E0808191819383828325
:1002F00011821082EBE0F2E080819181938382830E
:1003000011821082E3E0F2E0808191819383828305
:1003100011821082FF91EF919F918F910F900BBEF0
:100320000F900FBE0F901F9018954F925F926F9293
:100330007F928F929F92AF92BF92CF92DF92EF9275
:10034000FF920F931F93CF93DF9320911D02309163
:100350001E02C5E7D2E03D872C87082F880F110BBE
:10036000021B130B198B088BB801012E000C880B94
:10037000990B6AD64B015C012C813D814E815F81D6
:10038000EFD62A893B894C895D89C7D56B017C01F1
:100390006A8B7B8B8C8B9D8B8E899F89B801681BA8
:1003A000790B072E000C880B990B4ED628853985C2
:1003B0004A855B85D5D62B013C01288139814A814C
:1003C0005B81C501B401CCD6A7019601A6D59B01DE
:1003D000AC01C301B201A1D504D67F876E871F8B04
:1003E0000E8B288D398D620F731FCB01772324F478
:1003F00088279927861B970B8A3F91052CF47093C9
:100400008E0260938D0210C0161617063CF489EF19
:1004100090E090938E0280938D0206C087E09FEF5C
:1004200090938E0280938D0260918D0270918E0266
:1004300086E292E073D4DF91CF911F910F91FF90EC
:10044000EF90DF90CF90BF90AF909F908F907F9074
:100450006F905F904F9008954F925F926F927F924E
:100460008F929F92AF92BF92CF92DF92EF92FF92C4
:100470000F931F93CF93DF932091150230911602B3
:10048000CBE5D2E03D872C87082F880F110B021B8C
:10049000130B198B088BB801012E000C880B990BDC
:1004A000D3D54B015C012C813D814E815F8158D6B3
:1004B0002A893B894C895D8930D56B017C016A8B27
:1004C0007B8B8C8B9D8B8E899F89B801681B790BE8
:1004D000072E000C880B990BB7D5288539854A85DE
:1004E0005B853ED62B013C01288139814A815B81A5
:1004F000C501B40135D6A70196010FD59B01AC010A
:10050000C301B2010AD56DD57F876E871F8B0E8B15
:10051000288D398D620F731FCB01772324F4882730
:100520009927861B970B8A3F91052CF470937402D0
:100530006093730210C0161617063CF489EF90E022
:10054000909374028093730206C087E09FEF9093AC
:10055000740280937302609173027091740285E259
:1005600092E0DCD3DF91CF911F910F91FF90EF903C
:10057000DF90CF90BF90AF909F908F907F906F90C3
:100580005F904F9008954F925F926F927F928F92FB
:100590009F92AF92BF92CF92DF92EF92FF920F9312
:1005A0001F93CF93DF9320910D0230910E02C1E48F
:1005B000D2E03D872C87082F880F110B021B130BED
:1005C000198B088BB801012E000C880B990B3CD5B8
:1005D0004B015C012C813D814E815F81C1D52A890F
:1005E0003B894C895D8999D46B017C016A8B7B8B3B
:1005F0008C8B9D8B8E899F89B801681B790B072E88
:10060000000C880B990B20D5288539854A855B8598
:10061000A7D52B013C01288139814A815B81C50125
:10062000B4019ED5A701960178D49B01AC01C3010A
:10063000B20173D4D6D47F876E871F8B0E8B288D23
:10064000398D620F731FCB01772324F488279927F4
:10065000861B970B8A3F91052CF470935A02609386
:10066000590210C0161617063CF489EF90E09093DB
:100670005A028093590206C087E09FEF90935A0276
:10068000809359026091590270915A0284E292E07B
:1006900045D3DF91CF911F910F91FF90EF90DF90A5
:1006A000CF90BF90AF909F908F907F906F905F9012
:1006B0004F9008954F925F926F927F928F929F9288
:1006C000AF92BF92CF92DF92EF92FF920F931F9360
:1006D000CF93DF932091050230910602C7E2D2E06A
:1006E0003D872C87082F880F110B021B130B198BCA
:1006F000088BB801012E000C880B990BA5D44B0177
:100700005C012C813D814E815F812AD52A893B89FC
:100710004C895D8902D46B017C016A8B7B8B8C8B4D
:100720009D8B8E899F89B801681B790B072E000C61
:10073000880B990B89D4288539854A855B8510D526
:100740002B013C01288139814A815B81C501B401BB
:1007500007D5A7019601E1D39B01AC01C301B2010A
:10076000DCD33FD47F876E871F8B0E8B288D398D0E
:10077000620F731FCB01772324F488279927861BE8
:10078000970B8A3F91052CF47093400260933F02CF
:1007900010C0161617063CF489EF90E090934002C3
:1007A00080933F0206C087E09FEF909340028093C2
:1007B0003F0260913F027091400283E292E0AED22C
:1007C000DF91CF911F910F91FF90EF90DF90CF902D
:1007D000BF90AF909F908F907F906F905F904F9061
:1007E0000895CF93DF9380910002882391F0809148
:1007F0008F02882309F44FC0C4E9D2E0888195DDD7
:1008000089812ADE8A81BFDE8B8154DF10928F02BC
:1008100042C0C4E9D2E06881062E000C770B880B39
:10082000990B12D42DEC3CEC4CEA50E499D4D9D37A
:1008300086E292E073D26981062E000C770B880B5A
:10084000990B02D42DEC3CEC4CEA50E489D4C9D38A
:1008500085E292E063D26A81062E000C770B880B4A
:10086000990BF2D32DEC3CEC4CEA50E479D4B9D39B
:1008700084E292E053D26B81062E000C770B880B3A
:10088000990BE2D32DEC3CEC4CEA50E469D4A9D3AB
:1008900083E292E043D2DF91CF910895CF93DF932B
:1008A00086E292E0FAD185E292E0F7D184E292E02A
:1008B000F4D183E292E0F1D187E292E0FC01178A61
:1008C000168AC1E4D2E01F8A1E8AABE5B2E05796D1
:1008D0001C921E92569725E732E0F901178A168A74
:1008E000FC01128A138A148A158A1A8A1B8A1C8AA6
:1008F0001D8A52961D921D921D921C925597F901C8
:10090000128A138A148A158AFC01178616861F8696
:100910001E861F961C921E921E97F9011786168638
:10092000FC01118E108E198E188E59961C921E92F3
:100930005897F901118E108EE4E9F2E010821182CD
:1009400012821382DF91CF910895E8E6F0E0808172
:1009500081608083EBE6F0E0808180628083E5E760
:10096000F2E080E090E0A0E8BFE380839183A2837F
:10097000B383148215821682178240E050E060EC47
:1009800070E44087518762877387EBE5F2E08083EC
:100990009183A283B38314821582168217824087C3
:1009A000518762877387E1E4F2E04AE959E969EB2C
:1009B0007FE340835183628373831482158216829E
:1009C000178240E050E060E070E440875187628722
:1009D0007387E7E2F2E080839183A283B38314827A
:1009E00015821682178280E090E0A0E4B0E4808750
:1009F0009187A287B387ECD1F7D10AD27894F1DE40
:100A0000FECF1F920F920FB60F9211240BB60F92CA
:100A10002F933F934F935F936F937F938F939F9306
:100A2000AF93BF93EF93FF9339DFFF91EF91BF91A6
:100A3000AF919F918F917F916F915F914F913F9176
:100A40002F910F900BBE0F900FBE0F901F90189517
:100A500081E08093260286E292E03BD082E08093A0
:100A6000250285E292E035D083E08093240284E27F
:100A700092E02FD084E08093230283E292E029D099
:100A800010921C0210921B028BE192E05DDB8BE165
:100A900092E065DB109214021092130283E192E05F
:100AA00053DB83E192E05BDB10920C0210920B02AD
:100AB0008BE092E049DB8BE092E051DB1092040284
:100AC0001092030283E092E03FDB83E092E047CBA9
:100AD0000895FC0180818130F1F4E7E0F1E080814C
:100AE00080648083808180688083EAE0F1E0808197
:100AF00080628083E0E2F1E080818A608083E1E2CD
:100B0000F1E080818A61808389EF90E090932701F2
:100B10008093260108958230F1F4E7E0F1E08081CE
:100B200088608083808184608083EAE0F1E0808156
:100B300088608083E0E2F1E0808182688083E1E286
:100B4000F1E080818A61808389EF90E090932701B2
:100B50008093260108958330F1F4E7E0F1E080818D
:100B600080618083808180628083EAE0F1E080811F
:100B700080618083E0E2F1E0808182628083E1E253
:100B8000F1E080818A61808389EF90E09093270172
:100B90008093260108958430E9F4E7E0F1E0808154
:100BA00082608083808181608083E1E0F1E08081E8
:100BB00088608083E0EAF0E0808182688083E1EAF7
:100BC000F0E080818A61808389EF90E09093A700B4
:100BD0008093A6000895FC018081823091F018F482
:100BE000813031F008958330A9F08430E1F0089528
:100BF000E8E0F1E080818064808380818F7780836A
:100C00000895E8E0F1E080818860808380818B7FB7
:100C100080830895E8E0F1E08081806180838081B5
:100C20008F7D80830895E8E0F1E080818260808399
:100C300080818E7F80830895FC018081823091F0D5
:100C400018F4813031F008958330A9F08430E1F058
:100C50000895E8E0F1E080818F7B80838081806867
:100C600080830895E8E0F1E08081877F8083808140
:100C7000846080830895E8E0F1E080818F7E808346
:100C80008081806280830895E8E0F1E080818D7F3B
:100C900080838081816080830895FC01808182301F
:100CA000B1F018F4813031F008958330E9F08430E8
:100CB00041F10895E8E0F1E080818F7B80838081BD
:100CC0008F77808310922D0110922C010895E8E017
:100CD000F1E08081877F808380818B7F8083109289
:100CE0002901109228010895E8E0F1E080818F7ECB
:100CF000808380818F7D808310922B0110922A0146
:100D00000895E8E0F1E080818D7F808380818E7F8F
:100D100080831092A9001092A80008950F931F934A
:100D2000CF93DF938C01EB011C161D060CF453DFEF
:100D3000C93FD10544F4DD2344F4D195C195D109CF
:100D4000C8017ADF02C0C9EFD0E0F80180818230AB
:100D500071F018F4813031F018C0833069F08430BC
:100D600081F013C0D0932D01C0932C010EC0D093FD
:100D70002901C093280109C0D0932B01C0932A01F7
:100D800004C0D093A900C093A800DF91CF911F9118
:100D90000F9108951F920F920FB60F9211248F9307
:100DA00080919102833021F0809191028F5F01C088
:100DB00080E08093910280919102833019F481E068
:100DC000809390028F910F900FBE0F901F901895F7
:100DD0001092C50087E68093C40088E98093C10023
:100DE00086E08093C200089510929302E4E9F2E055
:100DF00010821182128213821092D50089E18093B1
:100E0000D40088E98093D10086E08093D2000895D1
:100E10001092350187E68093340188E9809331018F
:100E200086E08093320108951F920F920FB60F92C1
:100E300011240BB60F928F93EF93FF93E6ECF0E043
:100E4000808180939B021082FF91EF918F910F9090
:100E50000BBE0F900FBE0F901F9018951F920F9210
:100E60000FB60F9211248F938091CE0080939A0237
:100E70008F910F900FBE0F901F9018951F920F9299
:100E80000FB60F9211240BB60F928F939F93EF938F
:100E9000FF938091D60080939802909192029923BB
:100EA00089F090919302E92FF0E0EC56FD4F80839A
:100EB0009F5F943018F49093930204C010929302B1
:100EC000109292028F3719F481E080939202FF9181
:100ED000EF919F918F910F900BBE0F900FBE0F90CF
:100EE0001F9018951F920F920FB60F9211240BB6F8
:100EF0000F928F93EF93FF93E6E3F1E0808180936D
:100F000099021082FF91EF918F910F900BBE0F907D
:100F10000FBE0F901F9018955058BB27AA270ED0D0
:100F2000E5C0D6D030F0DBD020F031F49F3F11F493
:100F30001EF4CBC00EF4E095E7FBC1C0E92FE7D06B
:100F400080F3BA17620773078407950718F071F4E6
:100F50009EF5FFC00EF4E0950B2EBA2FA02D0B01CD
:100F6000B90190010C01CA01A0011124FF27591BEE
:100F700099F0593F50F4503E68F11A16F040A22FF4
:100F8000232F342F4427585FF3CF46953795279565
:100F9000A795F0405395C9F77EF41F16BA0B620B64
:100FA000730B840BBAF09150A1F0FF0FBB1F661FAB
:100FB000771F881FC2F70EC0BA0F621F731F841FEE
:100FC00048F4879577956795B795F7959E3F08F014
:100FD000B3CF9395880F08F09927EE0F97958795D3
:100FE000089504D06894B111B5C0089598D088F0E0
:100FF0009F5790F0B92F9927B751A0F0D1F0660F05
:10100000771F881F991F1AF0BA95C9F712C0B1301F
:1010100081F09FD0B1E008959CC0672F782F88277A
:10102000B85F39F0B93FCCF3869577956795B3955E
:10103000D9F73EF490958095709561957F4F8F4FCD
:101040009F4F0895E89409C097FB3EF490958095D2
:10105000709561957F4F8F4F9F4F9923A9F0F92F7E
:1010600096E9BB279395F695879577956795B795FC
:10107000F111F8CFFAF4BB0F11F460FF1BC06F5FE2
:101080007F4F8F4F9F4F16C0882311F096E911C0F4
:10109000772321F09EE8872F762F05C0662371F015
:1010A00096E8862F70E060E02AF09A95660F771F29
:1010B000881FDAF7880F9695879597F9089597F91D
:1010C0009F6780E870E060E008959FEF80EC0895EE
:1010D00000240A9416161706180609060895002417
:1010E0000A9412161306140605060895092E039491
:1010F000000C11F4882352F0BB0F40F4BF2B11F405
:1011000060FF04C06F5F7F4F8F4F9F4F089557FD63
:101110009058440F551F59F05F3F71F04795880F65
:1011200097FB991F61F09F3F79F0879508951216FC
:1011300013061406551FF2CF4695F1DF08C01616A8
:1011400017061806991FF1CF869571056105089459
:101150000895E894BB2766277727CB0197F9089570
:101160000BD0C4CFB5DF28F0BADF18F0952309F013
:10117000A6CFABCF1124EECFCADFA0F3959FD1F35A
:10118000950F50E0551F629FF001729FBB27F00D35
:10119000B11D639FAA27F00DB11DAA1F649F66278A
:1011A000B00DA11D661F829F2227B00DA11D621FD9
:1011B000739FB00DA11D621F839FA00D611D221F93
:1011C000749F3327A00D611D231F849F600D211D77
:1011D000822F762F6A2F11249F5750408AF0E1F01A
:1011E00088234AF0EE0FFF1FBB1F661F771F881F63
:1011F00091505040A9F79E3F510570F060CFAACFA3
:101200005F3FECF3983EDCF3869577956795B7954D
:10121000F795E7959F5FC1F7FE2B880F911D969577
:10122000879597F90895EE0FFF1F881F8BBF0790D2
:0A123000F691E02D1994F894FFCF19
:02123A000100B1
:00000001FF
