S00F0000436F6D706173732E737265633F
S11300002AC043C042C041C040C03FC03EC03DC002
S11300103CC03BC03AC039C038C037C036C035C018
S113002034C033C032C0084AD73B3BCE016E84BCD7
S1130030BFFDC12F3D6C74319ABD56833DDA3D003E
S1130040C77F11BED9E4BB4C3E916BAAAABE000087
S113005000803F00EE0011241FBECFE5D4E0DEBFD8
S1130060CDBF20E0A0E6B0E001C01D92A836B207E3
S1130070E1F710E0CBE2D0E003C02197FE0177D393
S1130080CA32D107D1F796D078C3BACFCF93DF93D2
S1130090EC01A8D0198218821B821A821D821C824C
S11300A01F821E82DF91CF9108958CE39FD080E060
S11300B0C3D080E7C1D0BAD08CE398D081E0BCD063
S11300C080EABAD0B3D08CE391D082E0B5D080E09E
S11300D0B3D0ACC00895CF92DF92EF92FF92CF934A
S11300E0DF93EC018CE382D083E0A6D09FD08DE334
S11300F09BD0AFD018828983ACD068817981682B7A
S1130100072E000C880B990B14D220E030E048E055
S113011051E4AED0DBD1798368839BD01C828D837C
S113012098D02C813D81282B3D832C8392D01A8238
S11301308B8396D02A813B81282B2B5A3F4F3B83BC
S11301402A8374D068817981072E000C880B990B5F
S1130150F0D16B017C016A817B81072E000C880B36
S1130160990BE7D1A7019601F6D020E030E044E3F3
S113017053E497D22BED3FE049E450E43FD120E033
S113018030E044E353E474D0A6D17F836E83DF91DF
S1130190CF91FF90EF90DF90CF9008958FEF81BBC8
S11301A0B89A0895C19882BB88B38E7F982B98BB68
S11301B0C19A0895789480E690E077DFEFDF80E6D7
S11301C090E089DF8091660090916700EBDF8FE318
S11301D09CE90197F1F700C00000F1CF80E690E0C0
S11301E055CF089511B888E480B9089594EA96BF6C
S11301F006B607FEFDCF91B1987F983011F090318B
S113020079F483B984E886BF06B607FEFDCF91B1C1
S1130210987F983139F081E0903429F480E0089592
S113022081E0089580E00895E1CF089584E986BFD0
S113023006B604FCFDCF089583B984E886BF06B6EC
S113024007FEFDCF91B1987F81E0983209F480E0F8
S1130250089584EC86BF06B607FEFDCF83B10895EA
S113026084E886BF06B607FEFDCF83B108955058D3
S1130270BB27AA270ED0D4C1C5D130F0CAD120F0F3
S113028031F49F3F11F41EF495C10EF4E095E7FBA1
S11302908BC1E92FD6D180F3BA176207730784079D
S11302A0950718F071F49EF5EEC10EF4E0950B2E4F
S11302B0BA2FA02D0B01B90190010C01CA01A001B4
S11302C01124FF27591B99F0593F50F4503E68F10F
S11302D01A16F040A22F232F342F4427585FF3CF50
S11302E0469537952795A795F0405395C9F77EF421
S11302F01F16BA0B620B730B840BBAF09150A1F06A
S1130300FF0FBB1F661F771F881FC2F70EC0BA0FEF
S1130310621F731F841F48F4879577956795B79577
S1130320F7959E3F08F0B3CF9395880F08F099276F
S1130330EE0F97958795089565D158F080E891E080
S113034009F49EEF66D128F040E851E059F45EEFDD
S113035009C030C198C1E92FE07873D168F3092E40
S1130360052AC1F3261737074807590738F00E2E18
S113037007F8E02569F0E025E0640AC0EF6307F8B8
S1130380009407FADB01B9019D01DC01CA01AD014A
S1130390EF9343D045D10AD05F91552331F02BED33
S11303A03FE049E450FD49EC63CF0895DF93DD2736
S11303B0B92FBF7740E85FE31616170648075B07B7
S11303C010F4D92F67D19F938F937F936F93CCD1E0
S11303D0E6E2F0E0F2D024D12F913F914F915F916A
S11303E06CD1DD2349F09058A2EA2AED3FE049ECB4
S11303F05FE3D0785D274DDFDF9112C10CD010C1CF
S113040008D140F0FFD030F021F45F3F19F0CCC0A8
S113041051113AC1CFC015D198F39923C9F355238B
S1130420B1F3951B550BBB27AA27621773078407E3
S113043038F09F5F5F4F220F331F441FAA1FA9F399
S113044033D00E2E3AF0E0E830D091505040E6958B
S1130450001CCAF729D0FE2F27D0660F771F881FEC
S1130460BB1F261737074807AB07B0E809F0BB0BDB
S1130470802DBF01FF2793585F4F2AF09E3F5105FF
S113048068F092C001C15F3FECF3983EDCF38695BF
S113049077956795B795F7959F5FC9F7880F911D75
S11304A09695879597F90895E1E0660F771F881F61
S11304B0BB1F621773078407BA0720F0621B730B14
S11304C0840BBA0BEE1F88F7E095089504D0689466
S11304D0B111DAC00895BDD088F09F5790F0B92FBC
S11304E09927B751A0F0D1F0660F771F881F991F85
S11304F01AF0BA95C9F712C0B13081F0C4D0B1E096
S11305000895C1C0672F782F8827B85F39F0B93FA5
S1130510CCF3869577956795B395D9F73EF4909586
S11305208095709561957F4F8F4F9F4F0895E89404
S113053009C097FB3EF490958095709561957F4F27
S11305408F4F9F4F9923A9F0F92F96E9BB279395D5
S1130550F695879577956795B795F111F8CFFAF4E5
S1130560BB0F11F460FF1BC06F5F7F4F8F4F9F4F16
S113057016C0882311F096E911C0772321F09EE874
S1130580872F762F05C0662371F096E8862F70E0DA
S113059060E02AF09A95660F771F881FDAF7880FB4
S11305A09695879597F9089597F99F6780E870E085
S11305B060E008959FEF80EC0895DF93CF931F933D
S11305C00F93FF92EF92DF927B018C01689405C038
S11305D0DA2EEF0172D0FE01E894A59125913591B0
S11305E045915591AEF3EF0154DEFE019701A80148
S11305F0DA9479F7DF90EF90FF900F911F91CF91EC
S1130600DF91089500240A941616170618060906A1
S1130610089500240A941216130614060506089574
S1130620092E0394000C11F4882352F0BB0F40F4FC
S1130630BF2B11F460FF04C06F5F7F4F8F4F9F4F3C
S1130640089557FD9058440F551F59F05F3F71F0BE
S11306504795880F97FB991F61F09F3F79F0879525
S11306600895121613061406551FF2CF4695F1DFAE
S113067008C0161617061806991FF1CF869571053E
S1130680610508940895E894BB2766277727CB0172
S113069097F908959B01AC0160E070E080E89FE366
S11306A0ADCE0BD0BDCFAEDF28F0B3DF18F095236D
S11306B009F07ACF7FCF1124E7CFC3DFA0F3959F52
S11306C0D1F3950F50E0551F629FF001729FBB2735
S11306D0F00DB11D639FAA27F00DB11DAA1F649FE1
S11306E06627B00DA11D661F829F2227B00DA11D94
S11306F0621F739FB00DA11D621F839FA00D611D1A
S1130700221F749F3327A00D611D231F849F600D3A
S1130710211D822F762F6A2F11249F5750408AF073
S1130720E1F088234AF0EE0FFF1FBB1F661F771FFF
S1130730881F91505040A9F79E3F510570F034CF67
S1130740A3CF5F3FECF3983EDCF3869577956795EE
S1130750B795F795E7959F5FC1F7FE2B880F911D1D
S11307609695879597F908959B01AC019ACFEE0F62
S1110770FF1F0590F491E02D0994F894FFCF3B
S9030000FC
