S00F0000436F6D706173732E737265633F
S11300004BC0000063C0000061C000005FC000007E
S11300105DC000005BC0000059C0000057C0000074
S113002055C0000053C0000051C000004FC0000084
S11300304DC000004BC0000049C0000047C0000094
S113004045C0000043C0000049C1000072C1000067
S11300503DC000003BC0000039C0000037C00000B4
S113006035C0000033C00000084AD73B3BCE016EC8
S113007084BCBFFDC12F3D6C74319ABD56833DDAFB
S11300803D00C77F11BED9E4BB4C3E916BAAAABE0A
S1130090000000803F000A0111241FBECFEFD8E00A
S11300A0DEBFCDBF21E0A0E0B1E001C01D92AD34C0
S11300B0B207E1F710E0CCE4D0E003C02197FE01E1
S11300C010D4CB34D107D1F78AD011C499CFCF93B0
S11300D0DF93EC01A3D0198218821B821A821D823D
S11300E01C821F821E82DF91CF9108958CE39CD0E5
S11300F080E0CCD080E7CAD0C0D08CE395D081E03A
S1130100C5D080EAC3D0B9D08CE38ED082E0BED013
S113011080E0BCD0B2C00895CF92DF92EF92FF92FC
S1130120CF93DF93EC018CE37FD083E0AFD0A5D0F5
S11301308DE3A1D0BDD018828983BAD0688179813A
S1130140682B072E000C880B990BADD220E030E011
S113015048E051E447D174D279836883A9D01C82E2
S11301608D83A6D02C813D81282B3D832C83A0D068
S11301701A828B83A8D02A813B81282B2B5A3F4F8C
S11301803B832A837AD068817981072E000C880BFF
S1130190990B89D26B017C016A817B81072E000C4B
S11301A0880B990B80D2A70196018FD120E030E013
S11301B044E353E430D32BED3FE049E450E4D8D199
S11301C020E030E044E353E40DD13FD27F836E83DB
S11301D0DF91CF91FF90EF90DF90CF9008957894C6
S11301E087E690E0D0D080E091E080DF80E091E08D
S11301F093DF809106019091070199230CF40196F5
S113020095958795D9D08FE59AEE0197F1F700C0BF
S11302100000ECCF80E091E05ACF08951092B9002D
S113022088E48093B800089594EA9093BC00ECEBC2
S1130230F0E090819923ECF79091B900987F983081
S113024011F09031A1F48093BB0084E88093BC004A
S1130250ECEBF0E080818823ECF79091B900987F73
S1130260983139F081E0903429F480E0089581E0F8
S1130270089580E00895D8CF089584E98093BC0060
S1130280ECEBF0E0808184FDFDCF08958093BB000A
S113029084E88093BC00ECEBF0E080818823ECF7E9
S11302A09091B900987F81E0983209F480E0089534
S11302B084EC8093BC00ECEBF0E080818823ECF7C5
S11302C08091BB00089584E88093BC00ECEBF0E0DF
S11302D080818823ECF78091BB0008951F920F92D0
S11302E00FB60F9211242F938F939F93EF93FF9345
S11302F08091C0002091C6008871E0910A01EF5FEF
S1130300EF7190910901E91739F0E0930A01F0E0E7
S1130310E35FFE4F208301C082E080930801FF91D8
S1130320EF919F918F912F910F900FBE0F901F907F
S113033018951F920F920FB60F9211248F939F93CB
S1130340EF93FF9390910C0180910B01981769F042
S1130350E0910B01EF5FEF71E0930B01F0E0E35DDF
S1130360FE4F80818093C60005C0E1ECF0E08081FF
S11303708F7D8083FF91EF919F918F910F900FBE9E
S11303800F901F90189510920C0110920B0110926F
S11303900A0110920901992324F422E02093C00059
S11303A09F779093C5008093C40088E98093C1002F
S11303B086E08093C200089520910C012F5F2F7175
S11303C090910B012917E1F3E22FF0E0E35DFE4F7A
S11303D0808320930C01E1ECF0E0808180628083D3
S11303E008955058BB27AA270ED0D4C1C5D130F0E8
S11303F0CAD120F031F49F3F11F41EF495C10EF4DC
S1130400E095E7FB8BC1E92FD6D180F3BA176207D9
S113041073078407950718F071F49EF5EEC10EF486
S1130420E0950B2EBA2FA02D0B01B90190010C0100
S1130430CA01A0011124FF27591B99F0593F50F418
S1130440503E68F11A16F040A22F232F342F442770
S1130450585FF3CF469537952795A795F040539568
S1130460C9F77EF41F16BA0B620B730B840BBAF038
S11304709150A1F0FF0FBB1F661F771F881FC2F7A3
S11304800EC0BA0F621F731F841F48F487957795B7
S11304906795B795F7959E3F08F0B3CF9395880F6E
S11304A008F09927EE0F97958795089565D158F030
S11304B080E891E009F49EEF66D128F040E851E02D
S11304C059F45EEF09C030C198C1E92FE07873D1C7
S11304D068F3092E052AC1F3261737074807590779
S11304E038F00E2E07F8E02569F0E025E0640AC034
S11304F0EF6307F8009407FADB01B9019D01DC0101
S1130500CA01AD01EF9343D045D10AD05F91552381
S113051031F02BED3FE049E450FD49EC63CF089501
S1130520DF93DD27B92FBF7740E85FE31616170680
S113053048075B0710F4D92F67D19F938F937F935C
S11305406F93CCD1E8E6F0E0F2D024D12F913F9123
S11305504F915F916CD1DD2349F09058A2EA2AEDC6
S11305603FE049EC5FE3D0785D274DDFDF9112C1B6
S11305700CD010C108D140F0FFD030F021F45F3F1F
S113058019F0CCC051113AC1CFC015D198F39923B9
S1130590C9F35523B1F3951B550BBB27AA27621743
S11305A07307840738F09F5F5F4F220F331F441F88
S11305B0AA1FA9F333D00E2E3AF0E0E830D09150C0
S11305C05040E695001CCAF729D0FE2F27D0660FAD
S11305D0771F881FBB1F261737074807AB07B0E8EC
S11305E009F0BB0B802DBF01FF2793585F4F2AF002
S11305F09E3F510568F092C001C15F3FECF3983E05
S1130600DCF3869577956795B795F7959F5FC9F75E
S1130610880F911D9695879597F90895E1E0660FE7
S1130620771F881FBB1F621773078407BA0720F060
S1130630621B730B840BBA0BEE1F88F7E0950895C9
S113064004D06894B111DAC00895BDD088F09F57E2
S113065090F0B92F9927B751A0F0D1F0660F771F0A
S1130660881F991F1AF0BA95C9F712C0B13081F0EA
S1130670C4D0B1E00895C1C0672F782F8827B85F30
S113068039F0B93FCCF3869577956795B395D9F74B
S11306903EF490958095709561957F4F8F4F9F4F55
S11306A00895E89409C097FB3EF490958095709561
S11306B061957F4F8F4F9F4F9923A9F0F92F96E9AA
S11306C0BB279395F695879577956795B795F1111F
S11306D0F8CFFAF4BB0F11F460FF1BC06F5F7F4FBC
S11306E08F4F9F4F16C0882311F096E911C07723CE
S11306F021F09EE8872F762F05C0662371F096E8D7
S1130700862F70E060E02AF09A95660F771F881FA5
S1130710DAF7880F9695879597F9089597F99F6763
S113072080E870E060E008959FEF80EC0895DF9327
S1130730CF931F930F93FF92EF92DF927B018C0173
S1130740689405C0DA2EEF0172D0FE01E894A591F9
S11307502591359145915591AEF3EF0154DEFE019B
S11307609701A801DA9479F7DF90EF90FF900F9149
S11307701F91CF91DF91089500240A94161617064D
S113078018060906089500240A941216130614067E
S113079005060895092E0394000C11F4882352F0E1
S11307A0BB0F40F4BF2B11F460FF04C06F5F7F4F99
S11307B08F4F9F4F089557FD9058440F551F59F080
S11307C05F3F71F04795880F97FB991F61F09F3F3A
S11307D079F087950895121613061406551FF2CF63
S11307E04695F1DF08C0161617061806991FF1CFB3
S11307F086957105610508940895E894BB276627DA
S11308007727CB0197F908959B01AC0160E070E074
S113081080E89FE3ADCE0BD0BDCFAEDF28F0B3DFD1
S113082018F0952309F07ACF7FCF1124E7CFC3DFE7
S1130830A0F3959FD1F3950F50E0551F629FF001EF
S1130840729FBB27F00DB11D639FAA27F00DB11D48
S1130850AA1F649F6627B00DA11D661F829F2227D1
S1130860B00DA11D621F739FB00DA11D621F839F58
S1130870A00D611D221F749F3327A00D611D231F2E
S1130880849F600D211D822F762F6A2F11249F577C
S113089050408AF0E1F088234AF0EE0FFF1FBB1F9F
S11308A0661F771F881F91505040A9F79E3F51053E
S11308B070F034CFA3CF5F3FECF3983EDCF3869522
S11308C077956795B795F795E7959F5FC1F7FE2BE9
S11308D0880F911D9695879597F908959B01AC0112
S11308E09ACFEE0FFF1F0590F491E02D0994F89430
S10508F0FFCF34
S9030000FC
